{
	"data": {
		"bytecode": {
			"linkReferences": {},
			"object": "60a060405260006003553480156200001657600080fd5b5060405162002e9f38038062002e9f83398181016040528101906200003c919062000312565b33806000838073ffffffffffffffffffffffffffffffffffffffff1660808173ffffffffffffffffffffffffffffffffffffffff168152505050600073ffffffffffffffffffffffffffffffffffffffff168273ffffffffffffffffffffffffffffffffffffffff1603620000e8576040517f08c379a0000000000000000000000000000000000000000000000000000000008152600401620000df90620003a5565b60405180910390fd5b816000806101000a81548173ffffffffffffffffffffffffffffffffffffffff021916908373ffffffffffffffffffffffffffffffffffffffff160217905550600073ffffffffffffffffffffffffffffffffffffffff168173ffffffffffffffffffffffffffffffffffffffff16146200016f576200016e816200017960201b60201c565b5b5050505062000439565b3373ffffffffffffffffffffffffffffffffffffffff168173ffffffffffffffffffffffffffffffffffffffff1603620001ea576040517f08c379a0000000000000000000000000000000000000000000000000000000008152600401620001e19062000417565b60405180910390fd5b80600160006101000a81548173ffffffffffffffffffffffffffffffffffffffff021916908373ffffffffffffffffffffffffffffffffffffffff1602179055508073ffffffffffffffffffffffffffffffffffffffff1660008054906101000a900473ffffffffffffffffffffffffffffffffffffffff1673ffffffffffffffffffffffffffffffffffffffff167fed8889f560326eb138920d842192f0eb3dd22b4f139c87a2c57538e05bae127860405160405180910390a350565b600080fd5b600073ffffffffffffffffffffffffffffffffffffffff82169050919050565b6000620002da82620002ad565b9050919050565b620002ec81620002cd565b8114620002f857600080fd5b50565b6000815190506200030c81620002e1565b92915050565b6000602082840312156200032b576200032a620002a8565b5b60006200033b84828501620002fb565b91505092915050565b600082825260208201905092915050565b7f43616e6e6f7420736574206f776e657220746f207a65726f0000000000000000600082015250565b60006200038d60188362000344565b91506200039a8262000355565b602082019050919050565b60006020820190508181036000830152620003c0816200037e565b9050919050565b7f43616e6e6f74207472616e7366657220746f2073656c66000000000000000000600082015250565b6000620003ff60178362000344565b91506200040c82620003c7565b602082019050919050565b600060208201905081810360008301526200043281620003f0565b9050919050565b608051612a436200045c6000396000818161028b0152610efe0152612a436000f3fe608060405234801561001057600080fd5b50600436106100ea5760003560e01c806379ba50971161008c5780639681096f116100665780639681096f14610215578063b1e2174914610245578063d09de08a14610263578063f2fde38b1461026d576100ea565b806379ba5097146101cf5780638381f58a146101d95780638da5cb5b146101f7576100ea565b80634b0795a8116100c85780634b0795a81461014757806352a81eeb146101655780636057361d1461019557806361bc221a146101b1576100ea565b80630ca76175146100ef5780632e64cec11461010b5780633944ea3a14610129575b600080fd5b61010960048036038101906101049190611979565b610289565b005b61011361034b565b6040516101209190611a1d565b60405180910390f35b610131610355565b60405161013e9190611ab7565b60405180910390f35b61014f6103e3565b60405161015c9190611ab7565b60405180910390f35b61017f600480360381019061017a9190611df6565b610471565b60405161018c9190611f3f565b60405180910390f35b6101af60048036038101906101aa9190611f86565b61054b565b005b6101b9610555565b6040516101c69190611a1d565b60405180910390f35b6101d761055b565b005b6101e16106f0565b6040516101ee9190611a1d565b60405180910390f35b6101ff6106f6565b60405161020c9190611ff4565b60405180910390f35b61022f600480360381019061022a919061200f565b61071f565b60405161023c9190611f3f565b60405180910390f35b61024d610748565b60405161025a9190611f3f565b60405180910390f35b61026b61074e565b005b610287600480360381019061028291906120be565b610768565b005b7f000000000000000000000000000000000000000000000000000000000000000073ffffffffffffffffffffffffffffffffffffffff163373ffffffffffffffffffffffffffffffffffffffff161461030e576040517fc6829f8300000000000000000000000000000000000000000000000000000000815260040160405180910390fd5b61031983838361077c565b827f85e1543bf2f84fe80c6badbce3648c8539ad1df4d2b3d822938ca0538be727e660405160405180910390a2505050565b6000600254905090565b600580546103629061211a565b80601f016020809104026020016040519081016040528092919081815260200182805461038e9061211a565b80156103db5780601f106103b0576101008083540402835291602001916103db565b820191906000526020600020905b8154815290600101906020018083116103be57829003601f168201915b505050505081565b600680546103f09061211a565b80601f016020809104026020016040519081016040528092919081815260200182805461041c9061211a565b80156104695780601f1061043e57610100808354040283529160200191610469565b820191906000526020600020905b81548152906001019060200180831161044c57829003601f168201915b505050505081565b600061047b610823565b61048361173d565b6104968b826108b390919063ffffffff16565b60008a5111156104b8576104b38a826108c490919063ffffffff16565b6104e2565b60008867ffffffffffffffff1611156104e1576104e089898361093d9092919063ffffffff16565b5b5b600087511115610500576104ff8782610a4d90919063ffffffff16565b5b60008651111561051e5761051d8682610a9590919063ffffffff16565b5b61053261052a82610add565b868686610ef9565b6004819055506004549150509998505050505050505050565b8060028190555050565b60035481565b600160009054906101000a900473ffffffffffffffffffffffffffffffffffffffff1673ffffffffffffffffffffffffffffffffffffffff163373ffffffffffffffffffffffffffffffffffffffff16146105eb576040517f08c379a00000000000000000000000000000000000000000000000000000000081526004016105e2906121a8565b60405180910390fd5b60008060009054906101000a900473ffffffffffffffffffffffffffffffffffffffff169050336000806101000a81548173ffffffffffffffffffffffffffffffffffffffff021916908373ffffffffffffffffffffffffffffffffffffffff1602179055506000600160006101000a81548173ffffffffffffffffffffffffffffffffffffffff021916908373ffffffffffffffffffffffffffffffffffffffff1602179055503373ffffffffffffffffffffffffffffffffffffffff168173ffffffffffffffffffffffffffffffffffffffff167f8be0079c531659141344cd1fd0a4f28419497f9722a3daafe3b4186f6b6457e060405160405180910390a350565b60025481565b60008060009054906101000a900473ffffffffffffffffffffffffffffffffffffffff16905090565b6000610729610823565b61073585858585610ef9565b6004819055506004549050949350505050565b60045481565b60036000815480929190610761906121f7565b9190505550565b610770610823565b61077981610fdc565b50565b82600454146107c257826040517fd068bf5b0000000000000000000000000000000000000000000000000000000081526004016107b99190611f3f565b60405180910390fd5b81600590816107d191906123eb565b5080600690816107e191906123eb565b50827f7873807bf6ddc50401cd3d29bbe0decee23fd4d68d273f4b5eb83cded4d2f17260056006604051610816929190612541565b60405180910390a2505050565b60008054906101000a900473ffffffffffffffffffffffffffffffffffffffff1673ffffffffffffffffffffffffffffffffffffffff163373ffffffffffffffffffffffffffffffffffffffff16146108b1576040517f08c379a00000000000000000000000000000000000000000000000000000000081526004016108a8906125c4565b60405180910390fd5b565b6108c08260008084611108565b5050565b60008151036108ff576040517fe889636f00000000000000000000000000000000000000000000000000000000815260040160405180910390fd5b600182602001906002811115610918576109176125e4565b5b9081600281111561092c5761092b6125e4565b5b815250508082608001819052505050565b600061094a6101006111b2565b90506109946040518060400160405280600681526020017f736c6f7449440000000000000000000000000000000000000000000000000000815250826111d990919063ffffffff16565b6109aa8360ff168261120290919063ffffffff16565b6109f26040518060400160405280600781526020017f76657273696f6e00000000000000000000000000000000000000000000000000815250826111d990919063ffffffff16565b610a05828261120290919063ffffffff16565b600284602001906002811115610a1e57610a1d6125e4565b5b90816002811115610a3257610a316125e4565b5b81525050806000015160000151846080018190525050505050565b6000815103610a88576040517ffe936cb700000000000000000000000000000000000000000000000000000000815260040160405180910390fd5b808260a001819052505050565b6000815103610ad0576040517ffe936cb700000000000000000000000000000000000000000000000000000000815260040160405180910390fd5b808260c001819052505050565b60606000610aec6101006111b2565b9050610b366040518060400160405280600c81526020017f636f64654c6f636174696f6e0000000000000000000000000000000000000000815250826111d990919063ffffffff16565b610b5f83600001516002811115610b5057610b4f6125e4565b5b8261121290919063ffffffff16565b610ba76040518060400160405280600881526020017f6c616e6775616765000000000000000000000000000000000000000000000000815250826111d990919063ffffffff16565b610bd083604001516000811115610bc157610bc06125e4565b5b8261121290919063ffffffff16565b610c186040518060400160405280600681526020017f736f757263650000000000000000000000000000000000000000000000000000815250826111d990919063ffffffff16565b610c2f8360600151826111d990919063ffffffff16565b60008360a00151511115610ceb57610c856040518060400160405280600481526020017f6172677300000000000000000000000000000000000000000000000000000000815250826111d990919063ffffffff16565b610c8e81611262565b60005b8360a0015151811015610ce057610ccf8460a001518281518110610cb857610cb7612613565b5b6020026020010151836111d990919063ffffffff16565b80610cd9906121f7565b9050610c91565b50610cea8161128a565b5b60008360800151511115610e2c5760006002811115610d0d57610d0c6125e4565b5b83602001516002811115610d2457610d236125e4565b5b03610d5b576040517fa80d31f700000000000000000000000000000000000000000000000000000000815260040160405180910390fd5b610da36040518060400160405280600f81526020017f736563726574734c6f636174696f6e0000000000000000000000000000000000815250826111d990919063ffffffff16565b610dcc83602001516002811115610dbd57610dbc6125e4565b5b8261121290919063ffffffff16565b610e146040518060400160405280600781526020017f7365637265747300000000000000000000000000000000000000000000000000815250826111d990919063ffffffff16565b610e2b8360800151826112b290919063ffffffff16565b5b60008360c00151511115610ee857610e826040518060400160405280600981526020017f6279746573417267730000000000000000000000000000000000000000000000815250826111d990919063ffffffff16565b610e8b81611262565b60005b8360c0015151811015610edd57610ecc8460c001518281518110610eb557610eb4612613565b5b6020026020010151836112b290919063ffffffff16565b80610ed6906121f7565b9050610e8e565b50610ee78161128a565b5b806000015160000151915050919050565b6000807f000000000000000000000000000000000000000000000000000000000000000073ffffffffffffffffffffffffffffffffffffffff1663461d27628688600188886040518663ffffffff1660e01b8152600401610f5e95949392919061267d565b6020604051808303816000875af1158015610f7d573d6000803e3d6000fd5b505050506040513d601f19601f82011682018060405250810190610fa191906126ec565b9050807f1131472297a800fee664d1d89cfa8f7676ff07189ecc53f80bbb5f4969099db860405160405180910390a280915050949350505050565b3373ffffffffffffffffffffffffffffffffffffffff168173ffffffffffffffffffffffffffffffffffffffff160361104a576040517f08c379a000000000000000000000000000000000000000000000000000000000815260040161104190612765565b60405180910390fd5b80600160006101000a81548173ffffffffffffffffffffffffffffffffffffffff021916908373ffffffffffffffffffffffffffffffffffffffff1602179055508073ffffffffffffffffffffffffffffffffffffffff1660008054906101000a900473ffffffffffffffffffffffffffffffffffffffff1673ffffffffffffffffffffffffffffffffffffffff167fed8889f560326eb138920d842192f0eb3dd22b4f139c87a2c57538e05bae127860405160405180910390a350565b6000815103611143576040517f22ce3edd00000000000000000000000000000000000000000000000000000000815260040160405180910390fd5b828460000190600281111561115b5761115a6125e4565b5b9081600281111561116f5761116e6125e4565b5b81525050818460400190600081111561118b5761118a6125e4565b5b9081600081111561119f5761119e6125e4565b5b8152505080846060018190525050505050565b6111ba6117af565b6111c88160000151836112db565b506000816020018181525050919050565b6111e68260038351611354565b6111fd8183600001516114fd90919063ffffffff16565b505050565b61120e82600083611354565b5050565b61123460026005600660ff16901b17836000015161151990919063ffffffff16565b5061125e828260405160200161124a9190611a1d565b6040516020818303038152906040526112b2565b5050565b61126d816004611583565b6001816020018181516112809190612785565b9150818152505050565b611295816007611583565b6001816020018181516112a891906127b9565b9150818152505050565b6112bf8260028351611354565b6112d68183600001516114fd90919063ffffffff16565b505050565b6112e36117cf565b60006020836112f2919061281c565b1461131e57602082611304919061281c565b602061131091906127b9565b8261131b9190612785565b91505b81836020018181525050604051808452600081528281016020018181101561134557600080fd5b80604052505082905092915050565b60178167ffffffffffffffff161161138f576113898160058460ff16901b60ff1617846000015161151990919063ffffffff16565b506114f8565b60ff8167ffffffffffffffff16116113ed576113c2601860058460ff16901b17846000015161151990919063ffffffff16565b506113e78167ffffffffffffffff16600185600001516115a99092919063ffffffff16565b506114f7565b61ffff8167ffffffffffffffff161161144c57611421601960058460ff16901b17846000015161151990919063ffffffff16565b506114468167ffffffffffffffff16600285600001516115a99092919063ffffffff16565b506114f6565b63ffffffff8167ffffffffffffffff16116114ad57611482601a60058460ff16901b17846000015161151990919063ffffffff16565b506114a78167ffffffffffffffff16600485600001516115a99092919063ffffffff16565b506114f5565b6114ce601b60058460ff16901b17846000015161151990919063ffffffff16565b506114f38167ffffffffffffffff16600885600001516115a99092919063ffffffff16565b505b5b5b5b505050565b6115056117cf565b61151183838451611636565b905092915050565b6115216117cf565b60008360000151519050600060018261153a9190612785565b90508460200151821061155e5761155d85600283611558919061284d565b611719565b5b84516020838201018581538151831115611576578282525b5050849250505092915050565b6115a4601f60058360ff16901b17836000015161151990919063ffffffff16565b505050565b6115b16117cf565b60008460000151519050600081846115c99190612785565b905085602001518111156115ee576115ed866002836115e8919061284d565b611719565b5b600060018561010061160091906129c2565b61160a91906127b9565b905086518281018783198251161781528151841115611627578382525b50508693505050509392505050565b61163e6117cf565b825182111561164c57600080fd5b60008460000151519050600083826116649190612785565b905085602001518111156116895761168886600283611683919061284d565b611719565b5b600080875180518560208301019350808511156116a4578482525b60208901925050505b602086106116eb57805182526020826116c69190612785565b91506020816116d59190612785565b90506020866116e491906127b9565b95506116ad565b60006001876020036101000a0390508019825116818451168181178552505050879450505050509392505050565b60008260000151905061172c83836112db565b5061173783826114fd565b50505050565b6040518060e001604052806000600281111561175c5761175b6125e4565b5b815260200160006002811115611775576117746125e4565b5b815260200160008081111561178d5761178c6125e4565b5b8152602001606081526020016060815260200160608152602001606081525090565b60405180604001604052806117c26117cf565b8152602001600081525090565b604051806040016040528060608152602001600081525090565b6000604051905090565b600080fd5b600080fd5b6000819050919050565b611810816117fd565b811461181b57600080fd5b50565b60008135905061182d81611807565b92915050565b600080fd5b600080fd5b6000601f19601f8301169050919050565b7f4e487b7100000000000000000000000000000000000000000000000000000000600052604160045260246000fd5b6118868261183d565b810181811067ffffffffffffffff821117156118a5576118a461184e565b5b80604052505050565b60006118b86117e9565b90506118c4828261187d565b919050565b600067ffffffffffffffff8211156118e4576118e361184e565b5b6118ed8261183d565b9050602081019050919050565b82818337600083830152505050565b600061191c611917846118c9565b6118ae565b90508281526020810184848401111561193857611937611838565b5b6119438482856118fa565b509392505050565b600082601f8301126119605761195f611833565b5b8135611970848260208601611909565b91505092915050565b600080600060608486031215611992576119916117f3565b5b60006119a08682870161181e565b935050602084013567ffffffffffffffff8111156119c1576119c06117f8565b5b6119cd8682870161194b565b925050604084013567ffffffffffffffff8111156119ee576119ed6117f8565b5b6119fa8682870161194b565b9150509250925092565b6000819050919050565b611a1781611a04565b82525050565b6000602082019050611a326000830184611a0e565b92915050565b600081519050919050565b600082825260208201905092915050565b60005b83811015611a72578082015181840152602081019050611a57565b60008484015250505050565b6000611a8982611a38565b611a938185611a43565b9350611aa3818560208601611a54565b611aac8161183d565b840191505092915050565b60006020820190508181036000830152611ad18184611a7e565b905092915050565b600067ffffffffffffffff821115611af457611af361184e565b5b611afd8261183d565b9050602081019050919050565b6000611b1d611b1884611ad9565b6118ae565b905082815260208101848484011115611b3957611b38611838565b5b611b448482856118fa565b509392505050565b600082601f830112611b6157611b60611833565b5b8135611b71848260208601611b0a565b91505092915050565b600060ff82169050919050565b611b9081611b7a565b8114611b9b57600080fd5b50565b600081359050611bad81611b87565b92915050565b600067ffffffffffffffff82169050919050565b611bd081611bb3565b8114611bdb57600080fd5b50565b600081359050611bed81611bc7565b92915050565b600067ffffffffffffffff821115611c0e57611c0d61184e565b5b602082029050602081019050919050565b600080fd5b6000611c37611c3284611bf3565b6118ae565b90508083825260208201905060208402830185811115611c5a57611c59611c1f565b5b835b81811015611ca157803567ffffffffffffffff811115611c7f57611c7e611833565b5b808601611c8c8982611b4c565b85526020850194505050602081019050611c5c565b5050509392505050565b600082601f830112611cc057611cbf611833565b5b8135611cd0848260208601611c24565b91505092915050565b600067ffffffffffffffff821115611cf457611cf361184e565b5b602082029050602081019050919050565b6000611d18611d1384611cd9565b6118ae565b90508083825260208201905060208402830185811115611d3b57611d3a611c1f565b5b835b81811015611d8257803567ffffffffffffffff811115611d6057611d5f611833565b5b808601611d6d898261194b565b85526020850194505050602081019050611d3d565b5050509392505050565b600082601f830112611da157611da0611833565b5b8135611db1848260208601611d05565b91505092915050565b600063ffffffff82169050919050565b611dd381611dba565b8114611dde57600080fd5b50565b600081359050611df081611dca565b92915050565b60008060008060008060008060006101208a8c031215611e1957611e186117f3565b5b60008a013567ffffffffffffffff811115611e3757611e366117f8565b5b611e438c828d01611b4c565b99505060208a013567ffffffffffffffff811115611e6457611e636117f8565b5b611e708c828d0161194b565b9850506040611e818c828d01611b9e565b9750506060611e928c828d01611bde565b96505060808a013567ffffffffffffffff811115611eb357611eb26117f8565b5b611ebf8c828d01611cab565b95505060a08a013567ffffffffffffffff811115611ee057611edf6117f8565b5b611eec8c828d01611d8c565b94505060c0611efd8c828d01611bde565b93505060e0611f0e8c828d01611de1565b925050610100611f208c828d0161181e565b9150509295985092959850929598565b611f39816117fd565b82525050565b6000602082019050611f546000830184611f30565b92915050565b611f6381611a04565b8114611f6e57600080fd5b50565b600081359050611f8081611f5a565b92915050565b600060208284031215611f9c57611f9b6117f3565b5b6000611faa84828501611f71565b91505092915050565b600073ffffffffffffffffffffffffffffffffffffffff82169050919050565b6000611fde82611fb3565b9050919050565b611fee81611fd3565b82525050565b60006020820190506120096000830184611fe5565b92915050565b60008060008060808587031215612029576120286117f3565b5b600085013567ffffffffffffffff811115612047576120466117f8565b5b6120538782880161194b565b945050602061206487828801611bde565b935050604061207587828801611de1565b92505060606120868782880161181e565b91505092959194509250565b61209b81611fd3565b81146120a657600080fd5b50565b6000813590506120b881612092565b92915050565b6000602082840312156120d4576120d36117f3565b5b60006120e2848285016120a9565b91505092915050565b7f4e487b7100000000000000000000000000000000000000000000000000000000600052602260045260246000fd5b6000600282049050600182168061213257607f821691505b602082108103612145576121446120eb565b5b50919050565b600082825260208201905092915050565b7f4d7573742062652070726f706f736564206f776e657200000000000000000000600082015250565b600061219260168361214b565b915061219d8261215c565b602082019050919050565b600060208201905081810360008301526121c181612185565b9050919050565b7f4e487b7100000000000000000000000000000000000000000000000000000000600052601160045260246000fd5b600061220282611a04565b91507fffffffffffffffffffffffffffffffffffffffffffffffffffffffffffffffff8203612234576122336121c8565b5b600182019050919050565b60008190508160005260206000209050919050565b60006020601f8301049050919050565b600082821b905092915050565b6000600883026122a17fffffffffffffffffffffffffffffffffffffffffffffffffffffffffffffffff82612264565b6122ab8683612264565b95508019841693508086168417925050509392505050565b6000819050919050565b60006122e86122e36122de84611a04565b6122c3565b611a04565b9050919050565b6000819050919050565b612302836122cd565b61231661230e826122ef565b848454612271565b825550505050565b600090565b61232b61231e565b6123368184846122f9565b505050565b5b8181101561235a5761234f600082612323565b60018101905061233c565b5050565b601f82111561239f576123708161223f565b61237984612254565b81016020851015612388578190505b61239c61239485612254565b83018261233b565b50505b505050565b600082821c905092915050565b60006123c2600019846008026123a4565b1980831691505092915050565b60006123db83836123b1565b9150826002028217905092915050565b6123f482611a38565b67ffffffffffffffff81111561240d5761240c61184e565b5b612417825461211a565b61242282828561235e565b600060209050601f8311600181146124555760008415612443578287015190505b61244d85826123cf565b8655506124b5565b601f1984166124638661223f565b60005b8281101561248b57848901518255600182019150602085019450602081019050612466565b868310156124a857848901516124a4601f8916826123b1565b8355505b6001600288020188555050505b505050505050565b600081546124ca8161211a565b6124d48186611a43565b945060018216600081146124ef576001811461250557612538565b60ff198316865281151560200286019350612538565b61250e8561223f565b60005b8381101561253057815481890152600182019150602081019050612511565b808801955050505b50505092915050565b6000604082019050818103600083015261255b81856124bd565b9050818103602083015261256f81846124bd565b90509392505050565b7f4f6e6c792063616c6c61626c65206279206f776e657200000000000000000000600082015250565b60006125ae60168361214b565b91506125b982612578565b602082019050919050565b600060208201905081810360008301526125dd816125a1565b9050919050565b7f4e487b7100000000000000000000000000000000000000000000000000000000600052602160045260246000fd5b7f4e487b7100000000000000000000000000000000000000000000000000000000600052603260045260246000fd5b61264b81611bb3565b82525050565b600061ffff82169050919050565b61266881612651565b82525050565b61267781611dba565b82525050565b600060a0820190506126926000830188612642565b81810360208301526126a48187611a7e565b90506126b3604083018661265f565b6126c0606083018561266e565b6126cd6080830184611f30565b9695505050505050565b6000815190506126e681611807565b92915050565b600060208284031215612702576127016117f3565b5b6000612710848285016126d7565b91505092915050565b7f43616e6e6f74207472616e7366657220746f2073656c66000000000000000000600082015250565b600061274f60178361214b565b915061275a82612719565b602082019050919050565b6000602082019050818103600083015261277e81612742565b9050919050565b600061279082611a04565b915061279b83611a04565b92508282019050808211156127b3576127b26121c8565b5b92915050565b60006127c482611a04565b91506127cf83611a04565b92508282039050818111156127e7576127e66121c8565b5b92915050565b7f4e487b7100000000000000000000000000000000000000000000000000000000600052601260045260246000fd5b600061282782611a04565b915061283283611a04565b925082612842576128416127ed565b5b828206905092915050565b600061285882611a04565b915061286383611a04565b925082820261287181611a04565b91508282048414831517612888576128876121c8565b5b5092915050565b60008160011c9050919050565b6000808291508390505b60018511156128e6578086048111156128c2576128c16121c8565b5b60018516156128d15780820291505b80810290506128df8561288f565b94506128a6565b94509492505050565b6000826128ff57600190506129bb565b8161290d57600090506129bb565b8160018114612923576002811461292d5761295c565b60019150506129bb565b60ff84111561293f5761293e6121c8565b5b8360020a915084821115612956576129556121c8565b5b506129bb565b5060208310610133831016604e8410600b84101617156129915782820a90508381111561298c5761298b6121c8565b5b6129bb565b61299e848484600161289c565b925090508184048111156129b5576129b46121c8565b5b81810290505b9392505050565b60006129cd82611a04565b91506129d883611a04565b9250612a057fffffffffffffffffffffffffffffffffffffffffffffffffffffffffffffffff84846128ef565b90509291505056fea2646970667358221220b0efe5df828cb908b37eb670a7c8fc3e585e7a7722d00b62ded828cd0f5464f764736f6c63430008130033",
			"opcodes": "PUSH1 0xA0 PUSH1 0x40 MSTORE PUSH1 0x0 PUSH1 0x3 SSTORE CALLVALUE DUP1 ISZERO PUSH3 0x16 JUMPI PUSH1 0x0 DUP1 REVERT JUMPDEST POP PUSH1 0x40 MLOAD PUSH3 0x2E9F CODESIZE SUB DUP1 PUSH3 0x2E9F DUP4 CODECOPY DUP2 DUP2 ADD PUSH1 0x40 MSTORE DUP2 ADD SWAP1 PUSH3 0x3C SWAP2 SWAP1 PUSH3 0x312 JUMP JUMPDEST CALLER DUP1 PUSH1 0x0 DUP4 DUP1 PUSH20 0xFFFFFFFFFFFFFFFFFFFFFFFFFFFFFFFFFFFFFFFF AND PUSH1 0x80 DUP2 PUSH20 0xFFFFFFFFFFFFFFFFFFFFFFFFFFFFFFFFFFFFFFFF AND DUP2 MSTORE POP POP POP PUSH1 0x0 PUSH20 0xFFFFFFFFFFFFFFFFFFFFFFFFFFFFFFFFFFFFFFFF AND DUP3 PUSH20 0xFFFFFFFFFFFFFFFFFFFFFFFFFFFFFFFFFFFFFFFF AND SUB PUSH3 0xE8 JUMPI PUSH1 0x40 MLOAD PUSH32 0x8C379A000000000000000000000000000000000000000000000000000000000 DUP2 MSTORE PUSH1 0x4 ADD PUSH3 0xDF SWAP1 PUSH3 0x3A5 JUMP JUMPDEST PUSH1 0x40 MLOAD DUP1 SWAP2 SUB SWAP1 REVERT JUMPDEST DUP2 PUSH1 0x0 DUP1 PUSH2 0x100 EXP DUP2 SLOAD DUP2 PUSH20 0xFFFFFFFFFFFFFFFFFFFFFFFFFFFFFFFFFFFFFFFF MUL NOT AND SWAP1 DUP4 PUSH20 0xFFFFFFFFFFFFFFFFFFFFFFFFFFFFFFFFFFFFFFFF AND MUL OR SWAP1 SSTORE POP PUSH1 0x0 PUSH20 0xFFFFFFFFFFFFFFFFFFFFFFFFFFFFFFFFFFFFFFFF AND DUP2 PUSH20 0xFFFFFFFFFFFFFFFFFFFFFFFFFFFFFFFFFFFFFFFF AND EQ PUSH3 0x16F JUMPI PUSH3 0x16E DUP2 PUSH3 0x179 PUSH1 0x20 SHL PUSH1 0x20 SHR JUMP JUMPDEST JUMPDEST POP POP POP POP PUSH3 0x439 JUMP JUMPDEST CALLER PUSH20 0xFFFFFFFFFFFFFFFFFFFFFFFFFFFFFFFFFFFFFFFF AND DUP2 PUSH20 0xFFFFFFFFFFFFFFFFFFFFFFFFFFFFFFFFFFFFFFFF AND SUB PUSH3 0x1EA JUMPI PUSH1 0x40 MLOAD PUSH32 0x8C379A000000000000000000000000000000000000000000000000000000000 DUP2 MSTORE PUSH1 0x4 ADD PUSH3 0x1E1 SWAP1 PUSH3 0x417 JUMP JUMPDEST PUSH1 0x40 MLOAD DUP1 SWAP2 SUB SWAP1 REVERT JUMPDEST DUP1 PUSH1 0x1 PUSH1 0x0 PUSH2 0x100 EXP DUP2 SLOAD DUP2 PUSH20 0xFFFFFFFFFFFFFFFFFFFFFFFFFFFFFFFFFFFFFFFF MUL NOT AND SWAP1 DUP4 PUSH20 0xFFFFFFFFFFFFFFFFFFFFFFFFFFFFFFFFFFFFFFFF AND MUL OR SWAP1 SSTORE POP DUP1 PUSH20 0xFFFFFFFFFFFFFFFFFFFFFFFFFFFFFFFFFFFFFFFF AND PUSH1 0x0 DUP1 SLOAD SWAP1 PUSH2 0x100 EXP SWAP1 DIV PUSH20 0xFFFFFFFFFFFFFFFFFFFFFFFFFFFFFFFFFFFFFFFF AND PUSH20 0xFFFFFFFFFFFFFFFFFFFFFFFFFFFFFFFFFFFFFFFF AND PUSH32 0xED8889F560326EB138920D842192F0EB3DD22B4F139C87A2C57538E05BAE1278 PUSH1 0x40 MLOAD PUSH1 0x40 MLOAD DUP1 SWAP2 SUB SWAP1 LOG3 POP JUMP JUMPDEST PUSH1 0x0 DUP1 REVERT JUMPDEST PUSH1 0x0 PUSH20 0xFFFFFFFFFFFFFFFFFFFFFFFFFFFFFFFFFFFFFFFF DUP3 AND SWAP1 POP SWAP2 SWAP1 POP JUMP JUMPDEST PUSH1 0x0 PUSH3 0x2DA DUP3 PUSH3 0x2AD JUMP JUMPDEST SWAP1 POP SWAP2 SWAP1 POP JUMP JUMPDEST PUSH3 0x2EC DUP2 PUSH3 0x2CD JUMP JUMPDEST DUP2 EQ PUSH3 0x2F8 JUMPI PUSH1 0x0 DUP1 REVERT JUMPDEST POP JUMP JUMPDEST PUSH1 0x0 DUP2 MLOAD SWAP1 POP PUSH3 0x30C DUP2 PUSH3 0x2E1 JUMP JUMPDEST SWAP3 SWAP2 POP POP JUMP JUMPDEST PUSH1 0x0 PUSH1 0x20 DUP3 DUP5 SUB SLT ISZERO PUSH3 0x32B JUMPI PUSH3 0x32A PUSH3 0x2A8 JUMP JUMPDEST JUMPDEST PUSH1 0x0 PUSH3 0x33B DUP5 DUP3 DUP6 ADD PUSH3 0x2FB JUMP JUMPDEST SWAP2 POP POP SWAP3 SWAP2 POP POP JUMP JUMPDEST PUSH1 0x0 DUP3 DUP3 MSTORE PUSH1 0x20 DUP3 ADD SWAP1 POP SWAP3 SWAP2 POP POP JUMP JUMPDEST PUSH32 0x43616E6E6F7420736574206F776E657220746F207A65726F0000000000000000 PUSH1 0x0 DUP3 ADD MSTORE POP JUMP JUMPDEST PUSH1 0x0 PUSH3 0x38D PUSH1 0x18 DUP4 PUSH3 0x344 JUMP JUMPDEST SWAP2 POP PUSH3 0x39A DUP3 PUSH3 0x355 JUMP JUMPDEST PUSH1 0x20 DUP3 ADD SWAP1 POP SWAP2 SWAP1 POP JUMP JUMPDEST PUSH1 0x0 PUSH1 0x20 DUP3 ADD SWAP1 POP DUP2 DUP2 SUB PUSH1 0x0 DUP4 ADD MSTORE PUSH3 0x3C0 DUP2 PUSH3 0x37E JUMP JUMPDEST SWAP1 POP SWAP2 SWAP1 POP JUMP JUMPDEST PUSH32 0x43616E6E6F74207472616E7366657220746F2073656C66000000000000000000 PUSH1 0x0 DUP3 ADD MSTORE POP JUMP JUMPDEST PUSH1 0x0 PUSH3 0x3FF PUSH1 0x17 DUP4 PUSH3 0x344 JUMP JUMPDEST SWAP2 POP PUSH3 0x40C DUP3 PUSH3 0x3C7 JUMP JUMPDEST PUSH1 0x20 DUP3 ADD SWAP1 POP SWAP2 SWAP1 POP JUMP JUMPDEST PUSH1 0x0 PUSH1 0x20 DUP3 ADD SWAP1 POP DUP2 DUP2 SUB PUSH1 0x0 DUP4 ADD MSTORE PUSH3 0x432 DUP2 PUSH3 0x3F0 JUMP JUMPDEST SWAP1 POP SWAP2 SWAP1 POP JUMP JUMPDEST PUSH1 0x80 MLOAD PUSH2 0x2A43 PUSH3 0x45C PUSH1 0x0 CODECOPY PUSH1 0x0 DUP2 DUP2 PUSH2 0x28B ADD MSTORE PUSH2 0xEFE ADD MSTORE PUSH2 0x2A43 PUSH1 0x0 RETURN INVALID PUSH1 0x80 PUSH1 0x40 MSTORE CALLVALUE DUP1 ISZERO PUSH2 0x10 JUMPI PUSH1 0x0 DUP1 REVERT JUMPDEST POP PUSH1 0x4 CALLDATASIZE LT PUSH2 0xEA JUMPI PUSH1 0x0 CALLDATALOAD PUSH1 0xE0 SHR DUP1 PUSH4 0x79BA5097 GT PUSH2 0x8C JUMPI DUP1 PUSH4 0x9681096F GT PUSH2 0x66 JUMPI DUP1 PUSH4 0x9681096F EQ PUSH2 0x215 JUMPI DUP1 PUSH4 0xB1E21749 EQ PUSH2 0x245 JUMPI DUP1 PUSH4 0xD09DE08A EQ PUSH2 0x263 JUMPI DUP1 PUSH4 0xF2FDE38B EQ PUSH2 0x26D JUMPI PUSH2 0xEA JUMP JUMPDEST DUP1 PUSH4 0x79BA5097 EQ PUSH2 0x1CF JUMPI DUP1 PUSH4 0x8381F58A EQ PUSH2 0x1D9 JUMPI DUP1 PUSH4 0x8DA5CB5B EQ PUSH2 0x1F7 JUMPI PUSH2 0xEA JUMP JUMPDEST DUP1 PUSH4 0x4B0795A8 GT PUSH2 0xC8 JUMPI DUP1 PUSH4 0x4B0795A8 EQ PUSH2 0x147 JUMPI DUP1 PUSH4 0x52A81EEB EQ PUSH2 0x165 JUMPI DUP1 PUSH4 0x6057361D EQ PUSH2 0x195 JUMPI DUP1 PUSH4 0x61BC221A EQ PUSH2 0x1B1 JUMPI PUSH2 0xEA JUMP JUMPDEST DUP1 PUSH4 0xCA76175 EQ PUSH2 0xEF JUMPI DUP1 PUSH4 0x2E64CEC1 EQ PUSH2 0x10B JUMPI DUP1 PUSH4 0x3944EA3A EQ PUSH2 0x129 JUMPI JUMPDEST PUSH1 0x0 DUP1 REVERT JUMPDEST PUSH2 0x109 PUSH1 0x4 DUP1 CALLDATASIZE SUB DUP2 ADD SWAP1 PUSH2 0x104 SWAP2 SWAP1 PUSH2 0x1979 JUMP JUMPDEST PUSH2 0x289 JUMP JUMPDEST STOP JUMPDEST PUSH2 0x113 PUSH2 0x34B JUMP JUMPDEST PUSH1 0x40 MLOAD PUSH2 0x120 SWAP2 SWAP1 PUSH2 0x1A1D JUMP JUMPDEST PUSH1 0x40 MLOAD DUP1 SWAP2 SUB SWAP1 RETURN JUMPDEST PUSH2 0x131 PUSH2 0x355 JUMP JUMPDEST PUSH1 0x40 MLOAD PUSH2 0x13E SWAP2 SWAP1 PUSH2 0x1AB7 JUMP JUMPDEST PUSH1 0x40 MLOAD DUP1 SWAP2 SUB SWAP1 RETURN JUMPDEST PUSH2 0x14F PUSH2 0x3E3 JUMP JUMPDEST PUSH1 0x40 MLOAD PUSH2 0x15C SWAP2 SWAP1 PUSH2 0x1AB7 JUMP JUMPDEST PUSH1 0x40 MLOAD DUP1 SWAP2 SUB SWAP1 RETURN JUMPDEST PUSH2 0x17F PUSH1 0x4 DUP1 CALLDATASIZE SUB DUP2 ADD SWAP1 PUSH2 0x17A SWAP2 SWAP1 PUSH2 0x1DF6 JUMP JUMPDEST PUSH2 0x471 JUMP JUMPDEST PUSH1 0x40 MLOAD PUSH2 0x18C SWAP2 SWAP1 PUSH2 0x1F3F JUMP JUMPDEST PUSH1 0x40 MLOAD DUP1 SWAP2 SUB SWAP1 RETURN JUMPDEST PUSH2 0x1AF PUSH1 0x4 DUP1 CALLDATASIZE SUB DUP2 ADD SWAP1 PUSH2 0x1AA SWAP2 SWAP1 PUSH2 0x1F86 JUMP JUMPDEST PUSH2 0x54B JUMP JUMPDEST STOP JUMPDEST PUSH2 0x1B9 PUSH2 0x555 JUMP JUMPDEST PUSH1 0x40 MLOAD PUSH2 0x1C6 SWAP2 SWAP1 PUSH2 0x1A1D JUMP JUMPDEST PUSH1 0x40 MLOAD DUP1 SWAP2 SUB SWAP1 RETURN JUMPDEST PUSH2 0x1D7 PUSH2 0x55B JUMP JUMPDEST STOP JUMPDEST PUSH2 0x1E1 PUSH2 0x6F0 JUMP JUMPDEST PUSH1 0x40 MLOAD PUSH2 0x1EE SWAP2 SWAP1 PUSH2 0x1A1D JUMP JUMPDEST PUSH1 0x40 MLOAD DUP1 SWAP2 SUB SWAP1 RETURN JUMPDEST PUSH2 0x1FF PUSH2 0x6F6 JUMP JUMPDEST PUSH1 0x40 MLOAD PUSH2 0x20C SWAP2 SWAP1 PUSH2 0x1FF4 JUMP JUMPDEST PUSH1 0x40 MLOAD DUP1 SWAP2 SUB SWAP1 RETURN JUMPDEST PUSH2 0x22F PUSH1 0x4 DUP1 CALLDATASIZE SUB DUP2 ADD SWAP1 PUSH2 0x22A SWAP2 SWAP1 PUSH2 0x200F JUMP JUMPDEST PUSH2 0x71F JUMP JUMPDEST PUSH1 0x40 MLOAD PUSH2 0x23C SWAP2 SWAP1 PUSH2 0x1F3F JUMP JUMPDEST PUSH1 0x40 MLOAD DUP1 SWAP2 SUB SWAP1 RETURN JUMPDEST PUSH2 0x24D PUSH2 0x748 JUMP JUMPDEST PUSH1 0x40 MLOAD PUSH2 0x25A SWAP2 SWAP1 PUSH2 0x1F3F JUMP JUMPDEST PUSH1 0x40 MLOAD DUP1 SWAP2 SUB SWAP1 RETURN JUMPDEST PUSH2 0x26B PUSH2 0x74E JUMP JUMPDEST STOP JUMPDEST PUSH2 0x287 PUSH1 0x4 DUP1 CALLDATASIZE SUB DUP2 ADD SWAP1 PUSH2 0x282 SWAP2 SWAP1 PUSH2 0x20BE JUMP JUMPDEST PUSH2 0x768 JUMP JUMPDEST STOP JUMPDEST PUSH32 0x0 PUSH20 0xFFFFFFFFFFFFFFFFFFFFFFFFFFFFFFFFFFFFFFFF AND CALLER PUSH20 0xFFFFFFFFFFFFFFFFFFFFFFFFFFFFFFFFFFFFFFFF AND EQ PUSH2 0x30E JUMPI PUSH1 0x40 MLOAD PUSH32 0xC6829F8300000000000000000000000000000000000000000000000000000000 DUP2 MSTORE PUSH1 0x4 ADD PUSH1 0x40 MLOAD DUP1 SWAP2 SUB SWAP1 REVERT JUMPDEST PUSH2 0x319 DUP4 DUP4 DUP4 PUSH2 0x77C JUMP JUMPDEST DUP3 PUSH32 0x85E1543BF2F84FE80C6BADBCE3648C8539AD1DF4D2B3D822938CA0538BE727E6 PUSH1 0x40 MLOAD PUSH1 0x40 MLOAD DUP1 SWAP2 SUB SWAP1 LOG2 POP POP POP JUMP JUMPDEST PUSH1 0x0 PUSH1 0x2 SLOAD SWAP1 POP SWAP1 JUMP JUMPDEST PUSH1 0x5 DUP1 SLOAD PUSH2 0x362 SWAP1 PUSH2 0x211A JUMP JUMPDEST DUP1 PUSH1 0x1F ADD PUSH1 0x20 DUP1 SWAP2 DIV MUL PUSH1 0x20 ADD PUSH1 0x40 MLOAD SWAP1 DUP2 ADD PUSH1 0x40 MSTORE DUP1 SWAP3 SWAP2 SWAP1 DUP2 DUP2 MSTORE PUSH1 0x20 ADD DUP3 DUP1 SLOAD PUSH2 0x38E SWAP1 PUSH2 0x211A JUMP JUMPDEST DUP1 ISZERO PUSH2 0x3DB JUMPI DUP1 PUSH1 0x1F LT PUSH2 0x3B0 JUMPI PUSH2 0x100 DUP1 DUP4 SLOAD DIV MUL DUP4 MSTORE SWAP2 PUSH1 0x20 ADD SWAP2 PUSH2 0x3DB JUMP JUMPDEST DUP3 ADD SWAP2 SWAP1 PUSH1 0x0 MSTORE PUSH1 0x20 PUSH1 0x0 KECCAK256 SWAP1 JUMPDEST DUP2 SLOAD DUP2 MSTORE SWAP1 PUSH1 0x1 ADD SWAP1 PUSH1 0x20 ADD DUP1 DUP4 GT PUSH2 0x3BE JUMPI DUP3 SWAP1 SUB PUSH1 0x1F AND DUP3 ADD SWAP2 JUMPDEST POP POP POP POP POP DUP2 JUMP JUMPDEST PUSH1 0x6 DUP1 SLOAD PUSH2 0x3F0 SWAP1 PUSH2 0x211A JUMP JUMPDEST DUP1 PUSH1 0x1F ADD PUSH1 0x20 DUP1 SWAP2 DIV MUL PUSH1 0x20 ADD PUSH1 0x40 MLOAD SWAP1 DUP2 ADD PUSH1 0x40 MSTORE DUP1 SWAP3 SWAP2 SWAP1 DUP2 DUP2 MSTORE PUSH1 0x20 ADD DUP3 DUP1 SLOAD PUSH2 0x41C SWAP1 PUSH2 0x211A JUMP JUMPDEST DUP1 ISZERO PUSH2 0x469 JUMPI DUP1 PUSH1 0x1F LT PUSH2 0x43E JUMPI PUSH2 0x100 DUP1 DUP4 SLOAD DIV MUL DUP4 MSTORE SWAP2 PUSH1 0x20 ADD SWAP2 PUSH2 0x469 JUMP JUMPDEST DUP3 ADD SWAP2 SWAP1 PUSH1 0x0 MSTORE PUSH1 0x20 PUSH1 0x0 KECCAK256 SWAP1 JUMPDEST DUP2 SLOAD DUP2 MSTORE SWAP1 PUSH1 0x1 ADD SWAP1 PUSH1 0x20 ADD DUP1 DUP4 GT PUSH2 0x44C JUMPI DUP3 SWAP1 SUB PUSH1 0x1F AND DUP3 ADD SWAP2 JUMPDEST POP POP POP POP POP DUP2 JUMP JUMPDEST PUSH1 0x0 PUSH2 0x47B PUSH2 0x823 JUMP JUMPDEST PUSH2 0x483 PUSH2 0x173D JUMP JUMPDEST PUSH2 0x496 DUP12 DUP3 PUSH2 0x8B3 SWAP1 SWAP2 SWAP1 PUSH4 0xFFFFFFFF AND JUMP JUMPDEST PUSH1 0x0 DUP11 MLOAD GT ISZERO PUSH2 0x4B8 JUMPI PUSH2 0x4B3 DUP11 DUP3 PUSH2 0x8C4 SWAP1 SWAP2 SWAP1 PUSH4 0xFFFFFFFF AND JUMP JUMPDEST PUSH2 0x4E2 JUMP JUMPDEST PUSH1 0x0 DUP9 PUSH8 0xFFFFFFFFFFFFFFFF AND GT ISZERO PUSH2 0x4E1 JUMPI PUSH2 0x4E0 DUP10 DUP10 DUP4 PUSH2 0x93D SWAP1 SWAP3 SWAP2 SWAP1 PUSH4 0xFFFFFFFF AND JUMP JUMPDEST JUMPDEST JUMPDEST PUSH1 0x0 DUP8 MLOAD GT ISZERO PUSH2 0x500 JUMPI PUSH2 0x4FF DUP8 DUP3 PUSH2 0xA4D SWAP1 SWAP2 SWAP1 PUSH4 0xFFFFFFFF AND JUMP JUMPDEST JUMPDEST PUSH1 0x0 DUP7 MLOAD GT ISZERO PUSH2 0x51E JUMPI PUSH2 0x51D DUP7 DUP3 PUSH2 0xA95 SWAP1 SWAP2 SWAP1 PUSH4 0xFFFFFFFF AND JUMP JUMPDEST JUMPDEST PUSH2 0x532 PUSH2 0x52A DUP3 PUSH2 0xADD JUMP JUMPDEST DUP7 DUP7 DUP7 PUSH2 0xEF9 JUMP JUMPDEST PUSH1 0x4 DUP2 SWAP1 SSTORE POP PUSH1 0x4 SLOAD SWAP2 POP POP SWAP10 SWAP9 POP POP POP POP POP POP POP POP POP JUMP JUMPDEST DUP1 PUSH1 0x2 DUP2 SWAP1 SSTORE POP POP JUMP JUMPDEST PUSH1 0x3 SLOAD DUP2 JUMP JUMPDEST PUSH1 0x1 PUSH1 0x0 SWAP1 SLOAD SWAP1 PUSH2 0x100 EXP SWAP1 DIV PUSH20 0xFFFFFFFFFFFFFFFFFFFFFFFFFFFFFFFFFFFFFFFF AND PUSH20 0xFFFFFFFFFFFFFFFFFFFFFFFFFFFFFFFFFFFFFFFF AND CALLER PUSH20 0xFFFFFFFFFFFFFFFFFFFFFFFFFFFFFFFFFFFFFFFF AND EQ PUSH2 0x5EB JUMPI PUSH1 0x40 MLOAD PUSH32 0x8C379A000000000000000000000000000000000000000000000000000000000 DUP2 MSTORE PUSH1 0x4 ADD PUSH2 0x5E2 SWAP1 PUSH2 0x21A8 JUMP JUMPDEST PUSH1 0x40 MLOAD DUP1 SWAP2 SUB SWAP1 REVERT JUMPDEST PUSH1 0x0 DUP1 PUSH1 0x0 SWAP1 SLOAD SWAP1 PUSH2 0x100 EXP SWAP1 DIV PUSH20 0xFFFFFFFFFFFFFFFFFFFFFFFFFFFFFFFFFFFFFFFF AND SWAP1 POP CALLER PUSH1 0x0 DUP1 PUSH2 0x100 EXP DUP2 SLOAD DUP2 PUSH20 0xFFFFFFFFFFFFFFFFFFFFFFFFFFFFFFFFFFFFFFFF MUL NOT AND SWAP1 DUP4 PUSH20 0xFFFFFFFFFFFFFFFFFFFFFFFFFFFFFFFFFFFFFFFF AND MUL OR SWAP1 SSTORE POP PUSH1 0x0 PUSH1 0x1 PUSH1 0x0 PUSH2 0x100 EXP DUP2 SLOAD DUP2 PUSH20 0xFFFFFFFFFFFFFFFFFFFFFFFFFFFFFFFFFFFFFFFF MUL NOT AND SWAP1 DUP4 PUSH20 0xFFFFFFFFFFFFFFFFFFFFFFFFFFFFFFFFFFFFFFFF AND MUL OR SWAP1 SSTORE POP CALLER PUSH20 0xFFFFFFFFFFFFFFFFFFFFFFFFFFFFFFFFFFFFFFFF AND DUP2 PUSH20 0xFFFFFFFFFFFFFFFFFFFFFFFFFFFFFFFFFFFFFFFF AND PUSH32 0x8BE0079C531659141344CD1FD0A4F28419497F9722A3DAAFE3B4186F6B6457E0 PUSH1 0x40 MLOAD PUSH1 0x40 MLOAD DUP1 SWAP2 SUB SWAP1 LOG3 POP JUMP JUMPDEST PUSH1 0x2 SLOAD DUP2 JUMP JUMPDEST PUSH1 0x0 DUP1 PUSH1 0x0 SWAP1 SLOAD SWAP1 PUSH2 0x100 EXP SWAP1 DIV PUSH20 0xFFFFFFFFFFFFFFFFFFFFFFFFFFFFFFFFFFFFFFFF AND SWAP1 POP SWAP1 JUMP JUMPDEST PUSH1 0x0 PUSH2 0x729 PUSH2 0x823 JUMP JUMPDEST PUSH2 0x735 DUP6 DUP6 DUP6 DUP6 PUSH2 0xEF9 JUMP JUMPDEST PUSH1 0x4 DUP2 SWAP1 SSTORE POP PUSH1 0x4 SLOAD SWAP1 POP SWAP5 SWAP4 POP POP POP POP JUMP JUMPDEST PUSH1 0x4 SLOAD DUP2 JUMP JUMPDEST PUSH1 0x3 PUSH1 0x0 DUP2 SLOAD DUP1 SWAP3 SWAP2 SWAP1 PUSH2 0x761 SWAP1 PUSH2 0x21F7 JUMP JUMPDEST SWAP2 SWAP1 POP SSTORE POP JUMP JUMPDEST PUSH2 0x770 PUSH2 0x823 JUMP JUMPDEST PUSH2 0x779 DUP2 PUSH2 0xFDC JUMP JUMPDEST POP JUMP JUMPDEST DUP3 PUSH1 0x4 SLOAD EQ PUSH2 0x7C2 JUMPI DUP3 PUSH1 0x40 MLOAD PUSH32 0xD068BF5B00000000000000000000000000000000000000000000000000000000 DUP2 MSTORE PUSH1 0x4 ADD PUSH2 0x7B9 SWAP2 SWAP1 PUSH2 0x1F3F JUMP JUMPDEST PUSH1 0x40 MLOAD DUP1 SWAP2 SUB SWAP1 REVERT JUMPDEST DUP2 PUSH1 0x5 SWAP1 DUP2 PUSH2 0x7D1 SWAP2 SWAP1 PUSH2 0x23EB JUMP JUMPDEST POP DUP1 PUSH1 0x6 SWAP1 DUP2 PUSH2 0x7E1 SWAP2 SWAP1 PUSH2 0x23EB JUMP JUMPDEST POP DUP3 PUSH32 0x7873807BF6DDC50401CD3D29BBE0DECEE23FD4D68D273F4B5EB83CDED4D2F172 PUSH1 0x5 PUSH1 0x6 PUSH1 0x40 MLOAD PUSH2 0x816 SWAP3 SWAP2 SWAP1 PUSH2 0x2541 JUMP JUMPDEST PUSH1 0x40 MLOAD DUP1 SWAP2 SUB SWAP1 LOG2 POP POP POP JUMP JUMPDEST PUSH1 0x0 DUP1 SLOAD SWAP1 PUSH2 0x100 EXP SWAP1 DIV PUSH20 0xFFFFFFFFFFFFFFFFFFFFFFFFFFFFFFFFFFFFFFFF AND PUSH20 0xFFFFFFFFFFFFFFFFFFFFFFFFFFFFFFFFFFFFFFFF AND CALLER PUSH20 0xFFFFFFFFFFFFFFFFFFFFFFFFFFFFFFFFFFFFFFFF AND EQ PUSH2 0x8B1 JUMPI PUSH1 0x40 MLOAD PUSH32 0x8C379A000000000000000000000000000000000000000000000000000000000 DUP2 MSTORE PUSH1 0x4 ADD PUSH2 0x8A8 SWAP1 PUSH2 0x25C4 JUMP JUMPDEST PUSH1 0x40 MLOAD DUP1 SWAP2 SUB SWAP1 REVERT JUMPDEST JUMP JUMPDEST PUSH2 0x8C0 DUP3 PUSH1 0x0 DUP1 DUP5 PUSH2 0x1108 JUMP JUMPDEST POP POP JUMP JUMPDEST PUSH1 0x0 DUP2 MLOAD SUB PUSH2 0x8FF JUMPI PUSH1 0x40 MLOAD PUSH32 0xE889636F00000000000000000000000000000000000000000000000000000000 DUP2 MSTORE PUSH1 0x4 ADD PUSH1 0x40 MLOAD DUP1 SWAP2 SUB SWAP1 REVERT JUMPDEST PUSH1 0x1 DUP3 PUSH1 0x20 ADD SWAP1 PUSH1 0x2 DUP2 GT ISZERO PUSH2 0x918 JUMPI PUSH2 0x917 PUSH2 0x25E4 JUMP JUMPDEST JUMPDEST SWAP1 DUP2 PUSH1 0x2 DUP2 GT ISZERO PUSH2 0x92C JUMPI PUSH2 0x92B PUSH2 0x25E4 JUMP JUMPDEST JUMPDEST DUP2 MSTORE POP POP DUP1 DUP3 PUSH1 0x80 ADD DUP2 SWAP1 MSTORE POP POP POP JUMP JUMPDEST PUSH1 0x0 PUSH2 0x94A PUSH2 0x100 PUSH2 0x11B2 JUMP JUMPDEST SWAP1 POP PUSH2 0x994 PUSH1 0x40 MLOAD DUP1 PUSH1 0x40 ADD PUSH1 0x40 MSTORE DUP1 PUSH1 0x6 DUP2 MSTORE PUSH1 0x20 ADD PUSH32 0x736C6F7449440000000000000000000000000000000000000000000000000000 DUP2 MSTORE POP DUP3 PUSH2 0x11D9 SWAP1 SWAP2 SWAP1 PUSH4 0xFFFFFFFF AND JUMP JUMPDEST PUSH2 0x9AA DUP4 PUSH1 0xFF AND DUP3 PUSH2 0x1202 SWAP1 SWAP2 SWAP1 PUSH4 0xFFFFFFFF AND JUMP JUMPDEST PUSH2 0x9F2 PUSH1 0x40 MLOAD DUP1 PUSH1 0x40 ADD PUSH1 0x40 MSTORE DUP1 PUSH1 0x7 DUP2 MSTORE PUSH1 0x20 ADD PUSH32 0x76657273696F6E00000000000000000000000000000000000000000000000000 DUP2 MSTORE POP DUP3 PUSH2 0x11D9 SWAP1 SWAP2 SWAP1 PUSH4 0xFFFFFFFF AND JUMP JUMPDEST PUSH2 0xA05 DUP3 DUP3 PUSH2 0x1202 SWAP1 SWAP2 SWAP1 PUSH4 0xFFFFFFFF AND JUMP JUMPDEST PUSH1 0x2 DUP5 PUSH1 0x20 ADD SWAP1 PUSH1 0x2 DUP2 GT ISZERO PUSH2 0xA1E JUMPI PUSH2 0xA1D PUSH2 0x25E4 JUMP JUMPDEST JUMPDEST SWAP1 DUP2 PUSH1 0x2 DUP2 GT ISZERO PUSH2 0xA32 JUMPI PUSH2 0xA31 PUSH2 0x25E4 JUMP JUMPDEST JUMPDEST DUP2 MSTORE POP POP DUP1 PUSH1 0x0 ADD MLOAD PUSH1 0x0 ADD MLOAD DUP5 PUSH1 0x80 ADD DUP2 SWAP1 MSTORE POP POP POP POP POP JUMP JUMPDEST PUSH1 0x0 DUP2 MLOAD SUB PUSH2 0xA88 JUMPI PUSH1 0x40 MLOAD PUSH32 0xFE936CB700000000000000000000000000000000000000000000000000000000 DUP2 MSTORE PUSH1 0x4 ADD PUSH1 0x40 MLOAD DUP1 SWAP2 SUB SWAP1 REVERT JUMPDEST DUP1 DUP3 PUSH1 0xA0 ADD DUP2 SWAP1 MSTORE POP POP POP JUMP JUMPDEST PUSH1 0x0 DUP2 MLOAD SUB PUSH2 0xAD0 JUMPI PUSH1 0x40 MLOAD PUSH32 0xFE936CB700000000000000000000000000000000000000000000000000000000 DUP2 MSTORE PUSH1 0x4 ADD PUSH1 0x40 MLOAD DUP1 SWAP2 SUB SWAP1 REVERT JUMPDEST DUP1 DUP3 PUSH1 0xC0 ADD DUP2 SWAP1 MSTORE POP POP POP JUMP JUMPDEST PUSH1 0x60 PUSH1 0x0 PUSH2 0xAEC PUSH2 0x100 PUSH2 0x11B2 JUMP JUMPDEST SWAP1 POP PUSH2 0xB36 PUSH1 0x40 MLOAD DUP1 PUSH1 0x40 ADD PUSH1 0x40 MSTORE DUP1 PUSH1 0xC DUP2 MSTORE PUSH1 0x20 ADD PUSH32 0x636F64654C6F636174696F6E0000000000000000000000000000000000000000 DUP2 MSTORE POP DUP3 PUSH2 0x11D9 SWAP1 SWAP2 SWAP1 PUSH4 0xFFFFFFFF AND JUMP JUMPDEST PUSH2 0xB5F DUP4 PUSH1 0x0 ADD MLOAD PUSH1 0x2 DUP2 GT ISZERO PUSH2 0xB50 JUMPI PUSH2 0xB4F PUSH2 0x25E4 JUMP JUMPDEST JUMPDEST DUP3 PUSH2 0x1212 SWAP1 SWAP2 SWAP1 PUSH4 0xFFFFFFFF AND JUMP JUMPDEST PUSH2 0xBA7 PUSH1 0x40 MLOAD DUP1 PUSH1 0x40 ADD PUSH1 0x40 MSTORE DUP1 PUSH1 0x8 DUP2 MSTORE PUSH1 0x20 ADD PUSH32 0x6C616E6775616765000000000000000000000000000000000000000000000000 DUP2 MSTORE POP DUP3 PUSH2 0x11D9 SWAP1 SWAP2 SWAP1 PUSH4 0xFFFFFFFF AND JUMP JUMPDEST PUSH2 0xBD0 DUP4 PUSH1 0x40 ADD MLOAD PUSH1 0x0 DUP2 GT ISZERO PUSH2 0xBC1 JUMPI PUSH2 0xBC0 PUSH2 0x25E4 JUMP JUMPDEST JUMPDEST DUP3 PUSH2 0x1212 SWAP1 SWAP2 SWAP1 PUSH4 0xFFFFFFFF AND JUMP JUMPDEST PUSH2 0xC18 PUSH1 0x40 MLOAD DUP1 PUSH1 0x40 ADD PUSH1 0x40 MSTORE DUP1 PUSH1 0x6 DUP2 MSTORE PUSH1 0x20 ADD PUSH32 0x736F757263650000000000000000000000000000000000000000000000000000 DUP2 MSTORE POP DUP3 PUSH2 0x11D9 SWAP1 SWAP2 SWAP1 PUSH4 0xFFFFFFFF AND JUMP JUMPDEST PUSH2 0xC2F DUP4 PUSH1 0x60 ADD MLOAD DUP3 PUSH2 0x11D9 SWAP1 SWAP2 SWAP1 PUSH4 0xFFFFFFFF AND JUMP JUMPDEST PUSH1 0x0 DUP4 PUSH1 0xA0 ADD MLOAD MLOAD GT ISZERO PUSH2 0xCEB JUMPI PUSH2 0xC85 PUSH1 0x40 MLOAD DUP1 PUSH1 0x40 ADD PUSH1 0x40 MSTORE DUP1 PUSH1 0x4 DUP2 MSTORE PUSH1 0x20 ADD PUSH32 0x6172677300000000000000000000000000000000000000000000000000000000 DUP2 MSTORE POP DUP3 PUSH2 0x11D9 SWAP1 SWAP2 SWAP1 PUSH4 0xFFFFFFFF AND JUMP JUMPDEST PUSH2 0xC8E DUP2 PUSH2 0x1262 JUMP JUMPDEST PUSH1 0x0 JUMPDEST DUP4 PUSH1 0xA0 ADD MLOAD MLOAD DUP2 LT ISZERO PUSH2 0xCE0 JUMPI PUSH2 0xCCF DUP5 PUSH1 0xA0 ADD MLOAD DUP3 DUP2 MLOAD DUP2 LT PUSH2 0xCB8 JUMPI PUSH2 0xCB7 PUSH2 0x2613 JUMP JUMPDEST JUMPDEST PUSH1 0x20 MUL PUSH1 0x20 ADD ADD MLOAD DUP4 PUSH2 0x11D9 SWAP1 SWAP2 SWAP1 PUSH4 0xFFFFFFFF AND JUMP JUMPDEST DUP1 PUSH2 0xCD9 SWAP1 PUSH2 0x21F7 JUMP JUMPDEST SWAP1 POP PUSH2 0xC91 JUMP JUMPDEST POP PUSH2 0xCEA DUP2 PUSH2 0x128A JUMP JUMPDEST JUMPDEST PUSH1 0x0 DUP4 PUSH1 0x80 ADD MLOAD MLOAD GT ISZERO PUSH2 0xE2C JUMPI PUSH1 0x0 PUSH1 0x2 DUP2 GT ISZERO PUSH2 0xD0D JUMPI PUSH2 0xD0C PUSH2 0x25E4 JUMP JUMPDEST JUMPDEST DUP4 PUSH1 0x20 ADD MLOAD PUSH1 0x2 DUP2 GT ISZERO PUSH2 0xD24 JUMPI PUSH2 0xD23 PUSH2 0x25E4 JUMP JUMPDEST JUMPDEST SUB PUSH2 0xD5B JUMPI PUSH1 0x40 MLOAD PUSH32 0xA80D31F700000000000000000000000000000000000000000000000000000000 DUP2 MSTORE PUSH1 0x4 ADD PUSH1 0x40 MLOAD DUP1 SWAP2 SUB SWAP1 REVERT JUMPDEST PUSH2 0xDA3 PUSH1 0x40 MLOAD DUP1 PUSH1 0x40 ADD PUSH1 0x40 MSTORE DUP1 PUSH1 0xF DUP2 MSTORE PUSH1 0x20 ADD PUSH32 0x736563726574734C6F636174696F6E0000000000000000000000000000000000 DUP2 MSTORE POP DUP3 PUSH2 0x11D9 SWAP1 SWAP2 SWAP1 PUSH4 0xFFFFFFFF AND JUMP JUMPDEST PUSH2 0xDCC DUP4 PUSH1 0x20 ADD MLOAD PUSH1 0x2 DUP2 GT ISZERO PUSH2 0xDBD JUMPI PUSH2 0xDBC PUSH2 0x25E4 JUMP JUMPDEST JUMPDEST DUP3 PUSH2 0x1212 SWAP1 SWAP2 SWAP1 PUSH4 0xFFFFFFFF AND JUMP JUMPDEST PUSH2 0xE14 PUSH1 0x40 MLOAD DUP1 PUSH1 0x40 ADD PUSH1 0x40 MSTORE DUP1 PUSH1 0x7 DUP2 MSTORE PUSH1 0x20 ADD PUSH32 0x7365637265747300000000000000000000000000000000000000000000000000 DUP2 MSTORE POP DUP3 PUSH2 0x11D9 SWAP1 SWAP2 SWAP1 PUSH4 0xFFFFFFFF AND JUMP JUMPDEST PUSH2 0xE2B DUP4 PUSH1 0x80 ADD MLOAD DUP3 PUSH2 0x12B2 SWAP1 SWAP2 SWAP1 PUSH4 0xFFFFFFFF AND JUMP JUMPDEST JUMPDEST PUSH1 0x0 DUP4 PUSH1 0xC0 ADD MLOAD MLOAD GT ISZERO PUSH2 0xEE8 JUMPI PUSH2 0xE82 PUSH1 0x40 MLOAD DUP1 PUSH1 0x40 ADD PUSH1 0x40 MSTORE DUP1 PUSH1 0x9 DUP2 MSTORE PUSH1 0x20 ADD PUSH32 0x6279746573417267730000000000000000000000000000000000000000000000 DUP2 MSTORE POP DUP3 PUSH2 0x11D9 SWAP1 SWAP2 SWAP1 PUSH4 0xFFFFFFFF AND JUMP JUMPDEST PUSH2 0xE8B DUP2 PUSH2 0x1262 JUMP JUMPDEST PUSH1 0x0 JUMPDEST DUP4 PUSH1 0xC0 ADD MLOAD MLOAD DUP2 LT ISZERO PUSH2 0xEDD JUMPI PUSH2 0xECC DUP5 PUSH1 0xC0 ADD MLOAD DUP3 DUP2 MLOAD DUP2 LT PUSH2 0xEB5 JUMPI PUSH2 0xEB4 PUSH2 0x2613 JUMP JUMPDEST JUMPDEST PUSH1 0x20 MUL PUSH1 0x20 ADD ADD MLOAD DUP4 PUSH2 0x12B2 SWAP1 SWAP2 SWAP1 PUSH4 0xFFFFFFFF AND JUMP JUMPDEST DUP1 PUSH2 0xED6 SWAP1 PUSH2 0x21F7 JUMP JUMPDEST SWAP1 POP PUSH2 0xE8E JUMP JUMPDEST POP PUSH2 0xEE7 DUP2 PUSH2 0x128A JUMP JUMPDEST JUMPDEST DUP1 PUSH1 0x0 ADD MLOAD PUSH1 0x0 ADD MLOAD SWAP2 POP POP SWAP2 SWAP1 POP JUMP JUMPDEST PUSH1 0x0 DUP1 PUSH32 0x0 PUSH20 0xFFFFFFFFFFFFFFFFFFFFFFFFFFFFFFFFFFFFFFFF AND PUSH4 0x461D2762 DUP7 DUP9 PUSH1 0x1 DUP9 DUP9 PUSH1 0x40 MLOAD DUP7 PUSH4 0xFFFFFFFF AND PUSH1 0xE0 SHL DUP2 MSTORE PUSH1 0x4 ADD PUSH2 0xF5E SWAP6 SWAP5 SWAP4 SWAP3 SWAP2 SWAP1 PUSH2 0x267D JUMP JUMPDEST PUSH1 0x20 PUSH1 0x40 MLOAD DUP1 DUP4 SUB DUP2 PUSH1 0x0 DUP8 GAS CALL ISZERO DUP1 ISZERO PUSH2 0xF7D JUMPI RETURNDATASIZE PUSH1 0x0 DUP1 RETURNDATACOPY RETURNDATASIZE PUSH1 0x0 REVERT JUMPDEST POP POP POP POP PUSH1 0x40 MLOAD RETURNDATASIZE PUSH1 0x1F NOT PUSH1 0x1F DUP3 ADD AND DUP3 ADD DUP1 PUSH1 0x40 MSTORE POP DUP2 ADD SWAP1 PUSH2 0xFA1 SWAP2 SWAP1 PUSH2 0x26EC JUMP JUMPDEST SWAP1 POP DUP1 PUSH32 0x1131472297A800FEE664D1D89CFA8F7676FF07189ECC53F80BBB5F4969099DB8 PUSH1 0x40 MLOAD PUSH1 0x40 MLOAD DUP1 SWAP2 SUB SWAP1 LOG2 DUP1 SWAP2 POP POP SWAP5 SWAP4 POP POP POP POP JUMP JUMPDEST CALLER PUSH20 0xFFFFFFFFFFFFFFFFFFFFFFFFFFFFFFFFFFFFFFFF AND DUP2 PUSH20 0xFFFFFFFFFFFFFFFFFFFFFFFFFFFFFFFFFFFFFFFF AND SUB PUSH2 0x104A JUMPI PUSH1 0x40 MLOAD PUSH32 0x8C379A000000000000000000000000000000000000000000000000000000000 DUP2 MSTORE PUSH1 0x4 ADD PUSH2 0x1041 SWAP1 PUSH2 0x2765 JUMP JUMPDEST PUSH1 0x40 MLOAD DUP1 SWAP2 SUB SWAP1 REVERT JUMPDEST DUP1 PUSH1 0x1 PUSH1 0x0 PUSH2 0x100 EXP DUP2 SLOAD DUP2 PUSH20 0xFFFFFFFFFFFFFFFFFFFFFFFFFFFFFFFFFFFFFFFF MUL NOT AND SWAP1 DUP4 PUSH20 0xFFFFFFFFFFFFFFFFFFFFFFFFFFFFFFFFFFFFFFFF AND MUL OR SWAP1 SSTORE POP DUP1 PUSH20 0xFFFFFFFFFFFFFFFFFFFFFFFFFFFFFFFFFFFFFFFF AND PUSH1 0x0 DUP1 SLOAD SWAP1 PUSH2 0x100 EXP SWAP1 DIV PUSH20 0xFFFFFFFFFFFFFFFFFFFFFFFFFFFFFFFFFFFFFFFF AND PUSH20 0xFFFFFFFFFFFFFFFFFFFFFFFFFFFFFFFFFFFFFFFF AND PUSH32 0xED8889F560326EB138920D842192F0EB3DD22B4F139C87A2C57538E05BAE1278 PUSH1 0x40 MLOAD PUSH1 0x40 MLOAD DUP1 SWAP2 SUB SWAP1 LOG3 POP JUMP JUMPDEST PUSH1 0x0 DUP2 MLOAD SUB PUSH2 0x1143 JUMPI PUSH1 0x40 MLOAD PUSH32 0x22CE3EDD00000000000000000000000000000000000000000000000000000000 DUP2 MSTORE PUSH1 0x4 ADD PUSH1 0x40 MLOAD DUP1 SWAP2 SUB SWAP1 REVERT JUMPDEST DUP3 DUP5 PUSH1 0x0 ADD SWAP1 PUSH1 0x2 DUP2 GT ISZERO PUSH2 0x115B JUMPI PUSH2 0x115A PUSH2 0x25E4 JUMP JUMPDEST JUMPDEST SWAP1 DUP2 PUSH1 0x2 DUP2 GT ISZERO PUSH2 0x116F JUMPI PUSH2 0x116E PUSH2 0x25E4 JUMP JUMPDEST JUMPDEST DUP2 MSTORE POP POP DUP2 DUP5 PUSH1 0x40 ADD SWAP1 PUSH1 0x0 DUP2 GT ISZERO PUSH2 0x118B JUMPI PUSH2 0x118A PUSH2 0x25E4 JUMP JUMPDEST JUMPDEST SWAP1 DUP2 PUSH1 0x0 DUP2 GT ISZERO PUSH2 0x119F JUMPI PUSH2 0x119E PUSH2 0x25E4 JUMP JUMPDEST JUMPDEST DUP2 MSTORE POP POP DUP1 DUP5 PUSH1 0x60 ADD DUP2 SWAP1 MSTORE POP POP POP POP POP JUMP JUMPDEST PUSH2 0x11BA PUSH2 0x17AF JUMP JUMPDEST PUSH2 0x11C8 DUP2 PUSH1 0x0 ADD MLOAD DUP4 PUSH2 0x12DB JUMP JUMPDEST POP PUSH1 0x0 DUP2 PUSH1 0x20 ADD DUP2 DUP2 MSTORE POP POP SWAP2 SWAP1 POP JUMP JUMPDEST PUSH2 0x11E6 DUP3 PUSH1 0x3 DUP4 MLOAD PUSH2 0x1354 JUMP JUMPDEST PUSH2 0x11FD DUP2 DUP4 PUSH1 0x0 ADD MLOAD PUSH2 0x14FD SWAP1 SWAP2 SWAP1 PUSH4 0xFFFFFFFF AND JUMP JUMPDEST POP POP POP JUMP JUMPDEST PUSH2 0x120E DUP3 PUSH1 0x0 DUP4 PUSH2 0x1354 JUMP JUMPDEST POP POP JUMP JUMPDEST PUSH2 0x1234 PUSH1 0x2 PUSH1 0x5 PUSH1 0x6 PUSH1 0xFF AND SWAP1 SHL OR DUP4 PUSH1 0x0 ADD MLOAD PUSH2 0x1519 SWAP1 SWAP2 SWAP1 PUSH4 0xFFFFFFFF AND JUMP JUMPDEST POP PUSH2 0x125E DUP3 DUP3 PUSH1 0x40 MLOAD PUSH1 0x20 ADD PUSH2 0x124A SWAP2 SWAP1 PUSH2 0x1A1D JUMP JUMPDEST PUSH1 0x40 MLOAD PUSH1 0x20 DUP2 DUP4 SUB SUB DUP2 MSTORE SWAP1 PUSH1 0x40 MSTORE PUSH2 0x12B2 JUMP JUMPDEST POP POP JUMP JUMPDEST PUSH2 0x126D DUP2 PUSH1 0x4 PUSH2 0x1583 JUMP JUMPDEST PUSH1 0x1 DUP2 PUSH1 0x20 ADD DUP2 DUP2 MLOAD PUSH2 0x1280 SWAP2 SWAP1 PUSH2 0x2785 JUMP JUMPDEST SWAP2 POP DUP2 DUP2 MSTORE POP POP POP JUMP JUMPDEST PUSH2 0x1295 DUP2 PUSH1 0x7 PUSH2 0x1583 JUMP JUMPDEST PUSH1 0x1 DUP2 PUSH1 0x20 ADD DUP2 DUP2 MLOAD PUSH2 0x12A8 SWAP2 SWAP1 PUSH2 0x27B9 JUMP JUMPDEST SWAP2 POP DUP2 DUP2 MSTORE POP POP POP JUMP JUMPDEST PUSH2 0x12BF DUP3 PUSH1 0x2 DUP4 MLOAD PUSH2 0x1354 JUMP JUMPDEST PUSH2 0x12D6 DUP2 DUP4 PUSH1 0x0 ADD MLOAD PUSH2 0x14FD SWAP1 SWAP2 SWAP1 PUSH4 0xFFFFFFFF AND JUMP JUMPDEST POP POP POP JUMP JUMPDEST PUSH2 0x12E3 PUSH2 0x17CF JUMP JUMPDEST PUSH1 0x0 PUSH1 0x20 DUP4 PUSH2 0x12F2 SWAP2 SWAP1 PUSH2 0x281C JUMP JUMPDEST EQ PUSH2 0x131E JUMPI PUSH1 0x20 DUP3 PUSH2 0x1304 SWAP2 SWAP1 PUSH2 0x281C JUMP JUMPDEST PUSH1 0x20 PUSH2 0x1310 SWAP2 SWAP1 PUSH2 0x27B9 JUMP JUMPDEST DUP3 PUSH2 0x131B SWAP2 SWAP1 PUSH2 0x2785 JUMP JUMPDEST SWAP2 POP JUMPDEST DUP2 DUP4 PUSH1 0x20 ADD DUP2 DUP2 MSTORE POP POP PUSH1 0x40 MLOAD DUP1 DUP5 MSTORE PUSH1 0x0 DUP2 MSTORE DUP3 DUP2 ADD PUSH1 0x20 ADD DUP2 DUP2 LT ISZERO PUSH2 0x1345 JUMPI PUSH1 0x0 DUP1 REVERT JUMPDEST DUP1 PUSH1 0x40 MSTORE POP POP DUP3 SWAP1 POP SWAP3 SWAP2 POP POP JUMP JUMPDEST PUSH1 0x17 DUP2 PUSH8 0xFFFFFFFFFFFFFFFF AND GT PUSH2 0x138F JUMPI PUSH2 0x1389 DUP2 PUSH1 0x5 DUP5 PUSH1 0xFF AND SWAP1 SHL PUSH1 0xFF AND OR DUP5 PUSH1 0x0 ADD MLOAD PUSH2 0x1519 SWAP1 SWAP2 SWAP1 PUSH4 0xFFFFFFFF AND JUMP JUMPDEST POP PUSH2 0x14F8 JUMP JUMPDEST PUSH1 0xFF DUP2 PUSH8 0xFFFFFFFFFFFFFFFF AND GT PUSH2 0x13ED JUMPI PUSH2 0x13C2 PUSH1 0x18 PUSH1 0x5 DUP5 PUSH1 0xFF AND SWAP1 SHL OR DUP5 PUSH1 0x0 ADD MLOAD PUSH2 0x1519 SWAP1 SWAP2 SWAP1 PUSH4 0xFFFFFFFF AND JUMP JUMPDEST POP PUSH2 0x13E7 DUP2 PUSH8 0xFFFFFFFFFFFFFFFF AND PUSH1 0x1 DUP6 PUSH1 0x0 ADD MLOAD PUSH2 0x15A9 SWAP1 SWAP3 SWAP2 SWAP1 PUSH4 0xFFFFFFFF AND JUMP JUMPDEST POP PUSH2 0x14F7 JUMP JUMPDEST PUSH2 0xFFFF DUP2 PUSH8 0xFFFFFFFFFFFFFFFF AND GT PUSH2 0x144C JUMPI PUSH2 0x1421 PUSH1 0x19 PUSH1 0x5 DUP5 PUSH1 0xFF AND SWAP1 SHL OR DUP5 PUSH1 0x0 ADD MLOAD PUSH2 0x1519 SWAP1 SWAP2 SWAP1 PUSH4 0xFFFFFFFF AND JUMP JUMPDEST POP PUSH2 0x1446 DUP2 PUSH8 0xFFFFFFFFFFFFFFFF AND PUSH1 0x2 DUP6 PUSH1 0x0 ADD MLOAD PUSH2 0x15A9 SWAP1 SWAP3 SWAP2 SWAP1 PUSH4 0xFFFFFFFF AND JUMP JUMPDEST POP PUSH2 0x14F6 JUMP JUMPDEST PUSH4 0xFFFFFFFF DUP2 PUSH8 0xFFFFFFFFFFFFFFFF AND GT PUSH2 0x14AD JUMPI PUSH2 0x1482 PUSH1 0x1A PUSH1 0x5 DUP5 PUSH1 0xFF AND SWAP1 SHL OR DUP5 PUSH1 0x0 ADD MLOAD PUSH2 0x1519 SWAP1 SWAP2 SWAP1 PUSH4 0xFFFFFFFF AND JUMP JUMPDEST POP PUSH2 0x14A7 DUP2 PUSH8 0xFFFFFFFFFFFFFFFF AND PUSH1 0x4 DUP6 PUSH1 0x0 ADD MLOAD PUSH2 0x15A9 SWAP1 SWAP3 SWAP2 SWAP1 PUSH4 0xFFFFFFFF AND JUMP JUMPDEST POP PUSH2 0x14F5 JUMP JUMPDEST PUSH2 0x14CE PUSH1 0x1B PUSH1 0x5 DUP5 PUSH1 0xFF AND SWAP1 SHL OR DUP5 PUSH1 0x0 ADD MLOAD PUSH2 0x1519 SWAP1 SWAP2 SWAP1 PUSH4 0xFFFFFFFF AND JUMP JUMPDEST POP PUSH2 0x14F3 DUP2 PUSH8 0xFFFFFFFFFFFFFFFF AND PUSH1 0x8 DUP6 PUSH1 0x0 ADD MLOAD PUSH2 0x15A9 SWAP1 SWAP3 SWAP2 SWAP1 PUSH4 0xFFFFFFFF AND JUMP JUMPDEST POP JUMPDEST JUMPDEST JUMPDEST JUMPDEST POP POP POP JUMP JUMPDEST PUSH2 0x1505 PUSH2 0x17CF JUMP JUMPDEST PUSH2 0x1511 DUP4 DUP4 DUP5 MLOAD PUSH2 0x1636 JUMP JUMPDEST SWAP1 POP SWAP3 SWAP2 POP POP JUMP JUMPDEST PUSH2 0x1521 PUSH2 0x17CF JUMP JUMPDEST PUSH1 0x0 DUP4 PUSH1 0x0 ADD MLOAD MLOAD SWAP1 POP PUSH1 0x0 PUSH1 0x1 DUP3 PUSH2 0x153A SWAP2 SWAP1 PUSH2 0x2785 JUMP JUMPDEST SWAP1 POP DUP5 PUSH1 0x20 ADD MLOAD DUP3 LT PUSH2 0x155E JUMPI PUSH2 0x155D DUP6 PUSH1 0x2 DUP4 PUSH2 0x1558 SWAP2 SWAP1 PUSH2 0x284D JUMP JUMPDEST PUSH2 0x1719 JUMP JUMPDEST JUMPDEST DUP5 MLOAD PUSH1 0x20 DUP4 DUP3 ADD ADD DUP6 DUP2 MSTORE8 DUP2 MLOAD DUP4 GT ISZERO PUSH2 0x1576 JUMPI DUP3 DUP3 MSTORE JUMPDEST POP POP DUP5 SWAP3 POP POP POP SWAP3 SWAP2 POP POP JUMP JUMPDEST PUSH2 0x15A4 PUSH1 0x1F PUSH1 0x5 DUP4 PUSH1 0xFF AND SWAP1 SHL OR DUP4 PUSH1 0x0 ADD MLOAD PUSH2 0x1519 SWAP1 SWAP2 SWAP1 PUSH4 0xFFFFFFFF AND JUMP JUMPDEST POP POP POP JUMP JUMPDEST PUSH2 0x15B1 PUSH2 0x17CF JUMP JUMPDEST PUSH1 0x0 DUP5 PUSH1 0x0 ADD MLOAD MLOAD SWAP1 POP PUSH1 0x0 DUP2 DUP5 PUSH2 0x15C9 SWAP2 SWAP1 PUSH2 0x2785 JUMP JUMPDEST SWAP1 POP DUP6 PUSH1 0x20 ADD MLOAD DUP2 GT ISZERO PUSH2 0x15EE JUMPI PUSH2 0x15ED DUP7 PUSH1 0x2 DUP4 PUSH2 0x15E8 SWAP2 SWAP1 PUSH2 0x284D JUMP JUMPDEST PUSH2 0x1719 JUMP JUMPDEST JUMPDEST PUSH1 0x0 PUSH1 0x1 DUP6 PUSH2 0x100 PUSH2 0x1600 SWAP2 SWAP1 PUSH2 0x29C2 JUMP JUMPDEST PUSH2 0x160A SWAP2 SWAP1 PUSH2 0x27B9 JUMP JUMPDEST SWAP1 POP DUP7 MLOAD DUP3 DUP2 ADD DUP8 DUP4 NOT DUP3 MLOAD AND OR DUP2 MSTORE DUP2 MLOAD DUP5 GT ISZERO PUSH2 0x1627 JUMPI DUP4 DUP3 MSTORE JUMPDEST POP POP DUP7 SWAP4 POP POP POP POP SWAP4 SWAP3 POP POP POP JUMP JUMPDEST PUSH2 0x163E PUSH2 0x17CF JUMP JUMPDEST DUP3 MLOAD DUP3 GT ISZERO PUSH2 0x164C JUMPI PUSH1 0x0 DUP1 REVERT JUMPDEST PUSH1 0x0 DUP5 PUSH1 0x0 ADD MLOAD MLOAD SWAP1 POP PUSH1 0x0 DUP4 DUP3 PUSH2 0x1664 SWAP2 SWAP1 PUSH2 0x2785 JUMP JUMPDEST SWAP1 POP DUP6 PUSH1 0x20 ADD MLOAD DUP2 GT ISZERO PUSH2 0x1689 JUMPI PUSH2 0x1688 DUP7 PUSH1 0x2 DUP4 PUSH2 0x1683 SWAP2 SWAP1 PUSH2 0x284D JUMP JUMPDEST PUSH2 0x1719 JUMP JUMPDEST JUMPDEST PUSH1 0x0 DUP1 DUP8 MLOAD DUP1 MLOAD DUP6 PUSH1 0x20 DUP4 ADD ADD SWAP4 POP DUP1 DUP6 GT ISZERO PUSH2 0x16A4 JUMPI DUP5 DUP3 MSTORE JUMPDEST PUSH1 0x20 DUP10 ADD SWAP3 POP POP POP JUMPDEST PUSH1 0x20 DUP7 LT PUSH2 0x16EB JUMPI DUP1 MLOAD DUP3 MSTORE PUSH1 0x20 DUP3 PUSH2 0x16C6 SWAP2 SWAP1 PUSH2 0x2785 JUMP JUMPDEST SWAP2 POP PUSH1 0x20 DUP2 PUSH2 0x16D5 SWAP2 SWAP1 PUSH2 0x2785 JUMP JUMPDEST SWAP1 POP PUSH1 0x20 DUP7 PUSH2 0x16E4 SWAP2 SWAP1 PUSH2 0x27B9 JUMP JUMPDEST SWAP6 POP PUSH2 0x16AD JUMP JUMPDEST PUSH1 0x0 PUSH1 0x1 DUP8 PUSH1 0x20 SUB PUSH2 0x100 EXP SUB SWAP1 POP DUP1 NOT DUP3 MLOAD AND DUP2 DUP5 MLOAD AND DUP2 DUP2 OR DUP6 MSTORE POP POP POP DUP8 SWAP5 POP POP POP POP POP SWAP4 SWAP3 POP POP POP JUMP JUMPDEST PUSH1 0x0 DUP3 PUSH1 0x0 ADD MLOAD SWAP1 POP PUSH2 0x172C DUP4 DUP4 PUSH2 0x12DB JUMP JUMPDEST POP PUSH2 0x1737 DUP4 DUP3 PUSH2 0x14FD JUMP JUMPDEST POP POP POP POP JUMP JUMPDEST PUSH1 0x40 MLOAD DUP1 PUSH1 0xE0 ADD PUSH1 0x40 MSTORE DUP1 PUSH1 0x0 PUSH1 0x2 DUP2 GT ISZERO PUSH2 0x175C JUMPI PUSH2 0x175B PUSH2 0x25E4 JUMP JUMPDEST JUMPDEST DUP2 MSTORE PUSH1 0x20 ADD PUSH1 0x0 PUSH1 0x2 DUP2 GT ISZERO PUSH2 0x1775 JUMPI PUSH2 0x1774 PUSH2 0x25E4 JUMP JUMPDEST JUMPDEST DUP2 MSTORE PUSH1 0x20 ADD PUSH1 0x0 DUP1 DUP2 GT ISZERO PUSH2 0x178D JUMPI PUSH2 0x178C PUSH2 0x25E4 JUMP JUMPDEST JUMPDEST DUP2 MSTORE PUSH1 0x20 ADD PUSH1 0x60 DUP2 MSTORE PUSH1 0x20 ADD PUSH1 0x60 DUP2 MSTORE PUSH1 0x20 ADD PUSH1 0x60 DUP2 MSTORE PUSH1 0x20 ADD PUSH1 0x60 DUP2 MSTORE POP SWAP1 JUMP JUMPDEST PUSH1 0x40 MLOAD DUP1 PUSH1 0x40 ADD PUSH1 0x40 MSTORE DUP1 PUSH2 0x17C2 PUSH2 0x17CF JUMP JUMPDEST DUP2 MSTORE PUSH1 0x20 ADD PUSH1 0x0 DUP2 MSTORE POP SWAP1 JUMP JUMPDEST PUSH1 0x40 MLOAD DUP1 PUSH1 0x40 ADD PUSH1 0x40 MSTORE DUP1 PUSH1 0x60 DUP2 MSTORE PUSH1 0x20 ADD PUSH1 0x0 DUP2 MSTORE POP SWAP1 JUMP JUMPDEST PUSH1 0x0 PUSH1 0x40 MLOAD SWAP1 POP SWAP1 JUMP JUMPDEST PUSH1 0x0 DUP1 REVERT JUMPDEST PUSH1 0x0 DUP1 REVERT JUMPDEST PUSH1 0x0 DUP2 SWAP1 POP SWAP2 SWAP1 POP JUMP JUMPDEST PUSH2 0x1810 DUP2 PUSH2 0x17FD JUMP JUMPDEST DUP2 EQ PUSH2 0x181B JUMPI PUSH1 0x0 DUP1 REVERT JUMPDEST POP JUMP JUMPDEST PUSH1 0x0 DUP2 CALLDATALOAD SWAP1 POP PUSH2 0x182D DUP2 PUSH2 0x1807 JUMP JUMPDEST SWAP3 SWAP2 POP POP JUMP JUMPDEST PUSH1 0x0 DUP1 REVERT JUMPDEST PUSH1 0x0 DUP1 REVERT JUMPDEST PUSH1 0x0 PUSH1 0x1F NOT PUSH1 0x1F DUP4 ADD AND SWAP1 POP SWAP2 SWAP1 POP JUMP JUMPDEST PUSH32 0x4E487B7100000000000000000000000000000000000000000000000000000000 PUSH1 0x0 MSTORE PUSH1 0x41 PUSH1 0x4 MSTORE PUSH1 0x24 PUSH1 0x0 REVERT JUMPDEST PUSH2 0x1886 DUP3 PUSH2 0x183D JUMP JUMPDEST DUP2 ADD DUP2 DUP2 LT PUSH8 0xFFFFFFFFFFFFFFFF DUP3 GT OR ISZERO PUSH2 0x18A5 JUMPI PUSH2 0x18A4 PUSH2 0x184E JUMP JUMPDEST JUMPDEST DUP1 PUSH1 0x40 MSTORE POP POP POP JUMP JUMPDEST PUSH1 0x0 PUSH2 0x18B8 PUSH2 0x17E9 JUMP JUMPDEST SWAP1 POP PUSH2 0x18C4 DUP3 DUP3 PUSH2 0x187D JUMP JUMPDEST SWAP2 SWAP1 POP JUMP JUMPDEST PUSH1 0x0 PUSH8 0xFFFFFFFFFFFFFFFF DUP3 GT ISZERO PUSH2 0x18E4 JUMPI PUSH2 0x18E3 PUSH2 0x184E JUMP JUMPDEST JUMPDEST PUSH2 0x18ED DUP3 PUSH2 0x183D JUMP JUMPDEST SWAP1 POP PUSH1 0x20 DUP2 ADD SWAP1 POP SWAP2 SWAP1 POP JUMP JUMPDEST DUP3 DUP2 DUP4 CALLDATACOPY PUSH1 0x0 DUP4 DUP4 ADD MSTORE POP POP POP JUMP JUMPDEST PUSH1 0x0 PUSH2 0x191C PUSH2 0x1917 DUP5 PUSH2 0x18C9 JUMP JUMPDEST PUSH2 0x18AE JUMP JUMPDEST SWAP1 POP DUP3 DUP2 MSTORE PUSH1 0x20 DUP2 ADD DUP5 DUP5 DUP5 ADD GT ISZERO PUSH2 0x1938 JUMPI PUSH2 0x1937 PUSH2 0x1838 JUMP JUMPDEST JUMPDEST PUSH2 0x1943 DUP5 DUP3 DUP6 PUSH2 0x18FA JUMP JUMPDEST POP SWAP4 SWAP3 POP POP POP JUMP JUMPDEST PUSH1 0x0 DUP3 PUSH1 0x1F DUP4 ADD SLT PUSH2 0x1960 JUMPI PUSH2 0x195F PUSH2 0x1833 JUMP JUMPDEST JUMPDEST DUP2 CALLDATALOAD PUSH2 0x1970 DUP5 DUP3 PUSH1 0x20 DUP7 ADD PUSH2 0x1909 JUMP JUMPDEST SWAP2 POP POP SWAP3 SWAP2 POP POP JUMP JUMPDEST PUSH1 0x0 DUP1 PUSH1 0x0 PUSH1 0x60 DUP5 DUP7 SUB SLT ISZERO PUSH2 0x1992 JUMPI PUSH2 0x1991 PUSH2 0x17F3 JUMP JUMPDEST JUMPDEST PUSH1 0x0 PUSH2 0x19A0 DUP7 DUP3 DUP8 ADD PUSH2 0x181E JUMP JUMPDEST SWAP4 POP POP PUSH1 0x20 DUP5 ADD CALLDATALOAD PUSH8 0xFFFFFFFFFFFFFFFF DUP2 GT ISZERO PUSH2 0x19C1 JUMPI PUSH2 0x19C0 PUSH2 0x17F8 JUMP JUMPDEST JUMPDEST PUSH2 0x19CD DUP7 DUP3 DUP8 ADD PUSH2 0x194B JUMP JUMPDEST SWAP3 POP POP PUSH1 0x40 DUP5 ADD CALLDATALOAD PUSH8 0xFFFFFFFFFFFFFFFF DUP2 GT ISZERO PUSH2 0x19EE JUMPI PUSH2 0x19ED PUSH2 0x17F8 JUMP JUMPDEST JUMPDEST PUSH2 0x19FA DUP7 DUP3 DUP8 ADD PUSH2 0x194B JUMP JUMPDEST SWAP2 POP POP SWAP3 POP SWAP3 POP SWAP3 JUMP JUMPDEST PUSH1 0x0 DUP2 SWAP1 POP SWAP2 SWAP1 POP JUMP JUMPDEST PUSH2 0x1A17 DUP2 PUSH2 0x1A04 JUMP JUMPDEST DUP3 MSTORE POP POP JUMP JUMPDEST PUSH1 0x0 PUSH1 0x20 DUP3 ADD SWAP1 POP PUSH2 0x1A32 PUSH1 0x0 DUP4 ADD DUP5 PUSH2 0x1A0E JUMP JUMPDEST SWAP3 SWAP2 POP POP JUMP JUMPDEST PUSH1 0x0 DUP2 MLOAD SWAP1 POP SWAP2 SWAP1 POP JUMP JUMPDEST PUSH1 0x0 DUP3 DUP3 MSTORE PUSH1 0x20 DUP3 ADD SWAP1 POP SWAP3 SWAP2 POP POP JUMP JUMPDEST PUSH1 0x0 JUMPDEST DUP4 DUP2 LT ISZERO PUSH2 0x1A72 JUMPI DUP1 DUP3 ADD MLOAD DUP2 DUP5 ADD MSTORE PUSH1 0x20 DUP2 ADD SWAP1 POP PUSH2 0x1A57 JUMP JUMPDEST PUSH1 0x0 DUP5 DUP5 ADD MSTORE POP POP POP POP JUMP JUMPDEST PUSH1 0x0 PUSH2 0x1A89 DUP3 PUSH2 0x1A38 JUMP JUMPDEST PUSH2 0x1A93 DUP2 DUP6 PUSH2 0x1A43 JUMP JUMPDEST SWAP4 POP PUSH2 0x1AA3 DUP2 DUP6 PUSH1 0x20 DUP7 ADD PUSH2 0x1A54 JUMP JUMPDEST PUSH2 0x1AAC DUP2 PUSH2 0x183D JUMP JUMPDEST DUP5 ADD SWAP2 POP POP SWAP3 SWAP2 POP POP JUMP JUMPDEST PUSH1 0x0 PUSH1 0x20 DUP3 ADD SWAP1 POP DUP2 DUP2 SUB PUSH1 0x0 DUP4 ADD MSTORE PUSH2 0x1AD1 DUP2 DUP5 PUSH2 0x1A7E JUMP JUMPDEST SWAP1 POP SWAP3 SWAP2 POP POP JUMP JUMPDEST PUSH1 0x0 PUSH8 0xFFFFFFFFFFFFFFFF DUP3 GT ISZERO PUSH2 0x1AF4 JUMPI PUSH2 0x1AF3 PUSH2 0x184E JUMP JUMPDEST JUMPDEST PUSH2 0x1AFD DUP3 PUSH2 0x183D JUMP JUMPDEST SWAP1 POP PUSH1 0x20 DUP2 ADD SWAP1 POP SWAP2 SWAP1 POP JUMP JUMPDEST PUSH1 0x0 PUSH2 0x1B1D PUSH2 0x1B18 DUP5 PUSH2 0x1AD9 JUMP JUMPDEST PUSH2 0x18AE JUMP JUMPDEST SWAP1 POP DUP3 DUP2 MSTORE PUSH1 0x20 DUP2 ADD DUP5 DUP5 DUP5 ADD GT ISZERO PUSH2 0x1B39 JUMPI PUSH2 0x1B38 PUSH2 0x1838 JUMP JUMPDEST JUMPDEST PUSH2 0x1B44 DUP5 DUP3 DUP6 PUSH2 0x18FA JUMP JUMPDEST POP SWAP4 SWAP3 POP POP POP JUMP JUMPDEST PUSH1 0x0 DUP3 PUSH1 0x1F DUP4 ADD SLT PUSH2 0x1B61 JUMPI PUSH2 0x1B60 PUSH2 0x1833 JUMP JUMPDEST JUMPDEST DUP2 CALLDATALOAD PUSH2 0x1B71 DUP5 DUP3 PUSH1 0x20 DUP7 ADD PUSH2 0x1B0A JUMP JUMPDEST SWAP2 POP POP SWAP3 SWAP2 POP POP JUMP JUMPDEST PUSH1 0x0 PUSH1 0xFF DUP3 AND SWAP1 POP SWAP2 SWAP1 POP JUMP JUMPDEST PUSH2 0x1B90 DUP2 PUSH2 0x1B7A JUMP JUMPDEST DUP2 EQ PUSH2 0x1B9B JUMPI PUSH1 0x0 DUP1 REVERT JUMPDEST POP JUMP JUMPDEST PUSH1 0x0 DUP2 CALLDATALOAD SWAP1 POP PUSH2 0x1BAD DUP2 PUSH2 0x1B87 JUMP JUMPDEST SWAP3 SWAP2 POP POP JUMP JUMPDEST PUSH1 0x0 PUSH8 0xFFFFFFFFFFFFFFFF DUP3 AND SWAP1 POP SWAP2 SWAP1 POP JUMP JUMPDEST PUSH2 0x1BD0 DUP2 PUSH2 0x1BB3 JUMP JUMPDEST DUP2 EQ PUSH2 0x1BDB JUMPI PUSH1 0x0 DUP1 REVERT JUMPDEST POP JUMP JUMPDEST PUSH1 0x0 DUP2 CALLDATALOAD SWAP1 POP PUSH2 0x1BED DUP2 PUSH2 0x1BC7 JUMP JUMPDEST SWAP3 SWAP2 POP POP JUMP JUMPDEST PUSH1 0x0 PUSH8 0xFFFFFFFFFFFFFFFF DUP3 GT ISZERO PUSH2 0x1C0E JUMPI PUSH2 0x1C0D PUSH2 0x184E JUMP JUMPDEST JUMPDEST PUSH1 0x20 DUP3 MUL SWAP1 POP PUSH1 0x20 DUP2 ADD SWAP1 POP SWAP2 SWAP1 POP JUMP JUMPDEST PUSH1 0x0 DUP1 REVERT JUMPDEST PUSH1 0x0 PUSH2 0x1C37 PUSH2 0x1C32 DUP5 PUSH2 0x1BF3 JUMP JUMPDEST PUSH2 0x18AE JUMP JUMPDEST SWAP1 POP DUP1 DUP4 DUP3 MSTORE PUSH1 0x20 DUP3 ADD SWAP1 POP PUSH1 0x20 DUP5 MUL DUP4 ADD DUP6 DUP2 GT ISZERO PUSH2 0x1C5A JUMPI PUSH2 0x1C59 PUSH2 0x1C1F JUMP JUMPDEST JUMPDEST DUP4 JUMPDEST DUP2 DUP2 LT ISZERO PUSH2 0x1CA1 JUMPI DUP1 CALLDATALOAD PUSH8 0xFFFFFFFFFFFFFFFF DUP2 GT ISZERO PUSH2 0x1C7F JUMPI PUSH2 0x1C7E PUSH2 0x1833 JUMP JUMPDEST JUMPDEST DUP1 DUP7 ADD PUSH2 0x1C8C DUP10 DUP3 PUSH2 0x1B4C JUMP JUMPDEST DUP6 MSTORE PUSH1 0x20 DUP6 ADD SWAP5 POP POP POP PUSH1 0x20 DUP2 ADD SWAP1 POP PUSH2 0x1C5C JUMP JUMPDEST POP POP POP SWAP4 SWAP3 POP POP POP JUMP JUMPDEST PUSH1 0x0 DUP3 PUSH1 0x1F DUP4 ADD SLT PUSH2 0x1CC0 JUMPI PUSH2 0x1CBF PUSH2 0x1833 JUMP JUMPDEST JUMPDEST DUP2 CALLDATALOAD PUSH2 0x1CD0 DUP5 DUP3 PUSH1 0x20 DUP7 ADD PUSH2 0x1C24 JUMP JUMPDEST SWAP2 POP POP SWAP3 SWAP2 POP POP JUMP JUMPDEST PUSH1 0x0 PUSH8 0xFFFFFFFFFFFFFFFF DUP3 GT ISZERO PUSH2 0x1CF4 JUMPI PUSH2 0x1CF3 PUSH2 0x184E JUMP JUMPDEST JUMPDEST PUSH1 0x20 DUP3 MUL SWAP1 POP PUSH1 0x20 DUP2 ADD SWAP1 POP SWAP2 SWAP1 POP JUMP JUMPDEST PUSH1 0x0 PUSH2 0x1D18 PUSH2 0x1D13 DUP5 PUSH2 0x1CD9 JUMP JUMPDEST PUSH2 0x18AE JUMP JUMPDEST SWAP1 POP DUP1 DUP4 DUP3 MSTORE PUSH1 0x20 DUP3 ADD SWAP1 POP PUSH1 0x20 DUP5 MUL DUP4 ADD DUP6 DUP2 GT ISZERO PUSH2 0x1D3B JUMPI PUSH2 0x1D3A PUSH2 0x1C1F JUMP JUMPDEST JUMPDEST DUP4 JUMPDEST DUP2 DUP2 LT ISZERO PUSH2 0x1D82 JUMPI DUP1 CALLDATALOAD PUSH8 0xFFFFFFFFFFFFFFFF DUP2 GT ISZERO PUSH2 0x1D60 JUMPI PUSH2 0x1D5F PUSH2 0x1833 JUMP JUMPDEST JUMPDEST DUP1 DUP7 ADD PUSH2 0x1D6D DUP10 DUP3 PUSH2 0x194B JUMP JUMPDEST DUP6 MSTORE PUSH1 0x20 DUP6 ADD SWAP5 POP POP POP PUSH1 0x20 DUP2 ADD SWAP1 POP PUSH2 0x1D3D JUMP JUMPDEST POP POP POP SWAP4 SWAP3 POP POP POP JUMP JUMPDEST PUSH1 0x0 DUP3 PUSH1 0x1F DUP4 ADD SLT PUSH2 0x1DA1 JUMPI PUSH2 0x1DA0 PUSH2 0x1833 JUMP JUMPDEST JUMPDEST DUP2 CALLDATALOAD PUSH2 0x1DB1 DUP5 DUP3 PUSH1 0x20 DUP7 ADD PUSH2 0x1D05 JUMP JUMPDEST SWAP2 POP POP SWAP3 SWAP2 POP POP JUMP JUMPDEST PUSH1 0x0 PUSH4 0xFFFFFFFF DUP3 AND SWAP1 POP SWAP2 SWAP1 POP JUMP JUMPDEST PUSH2 0x1DD3 DUP2 PUSH2 0x1DBA JUMP JUMPDEST DUP2 EQ PUSH2 0x1DDE JUMPI PUSH1 0x0 DUP1 REVERT JUMPDEST POP JUMP JUMPDEST PUSH1 0x0 DUP2 CALLDATALOAD SWAP1 POP PUSH2 0x1DF0 DUP2 PUSH2 0x1DCA JUMP JUMPDEST SWAP3 SWAP2 POP POP JUMP JUMPDEST PUSH1 0x0 DUP1 PUSH1 0x0 DUP1 PUSH1 0x0 DUP1 PUSH1 0x0 DUP1 PUSH1 0x0 PUSH2 0x120 DUP11 DUP13 SUB SLT ISZERO PUSH2 0x1E19 JUMPI PUSH2 0x1E18 PUSH2 0x17F3 JUMP JUMPDEST JUMPDEST PUSH1 0x0 DUP11 ADD CALLDATALOAD PUSH8 0xFFFFFFFFFFFFFFFF DUP2 GT ISZERO PUSH2 0x1E37 JUMPI PUSH2 0x1E36 PUSH2 0x17F8 JUMP JUMPDEST JUMPDEST PUSH2 0x1E43 DUP13 DUP3 DUP14 ADD PUSH2 0x1B4C JUMP JUMPDEST SWAP10 POP POP PUSH1 0x20 DUP11 ADD CALLDATALOAD PUSH8 0xFFFFFFFFFFFFFFFF DUP2 GT ISZERO PUSH2 0x1E64 JUMPI PUSH2 0x1E63 PUSH2 0x17F8 JUMP JUMPDEST JUMPDEST PUSH2 0x1E70 DUP13 DUP3 DUP14 ADD PUSH2 0x194B JUMP JUMPDEST SWAP9 POP POP PUSH1 0x40 PUSH2 0x1E81 DUP13 DUP3 DUP14 ADD PUSH2 0x1B9E JUMP JUMPDEST SWAP8 POP POP PUSH1 0x60 PUSH2 0x1E92 DUP13 DUP3 DUP14 ADD PUSH2 0x1BDE JUMP JUMPDEST SWAP7 POP POP PUSH1 0x80 DUP11 ADD CALLDATALOAD PUSH8 0xFFFFFFFFFFFFFFFF DUP2 GT ISZERO PUSH2 0x1EB3 JUMPI PUSH2 0x1EB2 PUSH2 0x17F8 JUMP JUMPDEST JUMPDEST PUSH2 0x1EBF DUP13 DUP3 DUP14 ADD PUSH2 0x1CAB JUMP JUMPDEST SWAP6 POP POP PUSH1 0xA0 DUP11 ADD CALLDATALOAD PUSH8 0xFFFFFFFFFFFFFFFF DUP2 GT ISZERO PUSH2 0x1EE0 JUMPI PUSH2 0x1EDF PUSH2 0x17F8 JUMP JUMPDEST JUMPDEST PUSH2 0x1EEC DUP13 DUP3 DUP14 ADD PUSH2 0x1D8C JUMP JUMPDEST SWAP5 POP POP PUSH1 0xC0 PUSH2 0x1EFD DUP13 DUP3 DUP14 ADD PUSH2 0x1BDE JUMP JUMPDEST SWAP4 POP POP PUSH1 0xE0 PUSH2 0x1F0E DUP13 DUP3 DUP14 ADD PUSH2 0x1DE1 JUMP JUMPDEST SWAP3 POP POP PUSH2 0x100 PUSH2 0x1F20 DUP13 DUP3 DUP14 ADD PUSH2 0x181E JUMP JUMPDEST SWAP2 POP POP SWAP3 SWAP6 SWAP9 POP SWAP3 SWAP6 SWAP9 POP SWAP3 SWAP6 SWAP9 JUMP JUMPDEST PUSH2 0x1F39 DUP2 PUSH2 0x17FD JUMP JUMPDEST DUP3 MSTORE POP POP JUMP JUMPDEST PUSH1 0x0 PUSH1 0x20 DUP3 ADD SWAP1 POP PUSH2 0x1F54 PUSH1 0x0 DUP4 ADD DUP5 PUSH2 0x1F30 JUMP JUMPDEST SWAP3 SWAP2 POP POP JUMP JUMPDEST PUSH2 0x1F63 DUP2 PUSH2 0x1A04 JUMP JUMPDEST DUP2 EQ PUSH2 0x1F6E JUMPI PUSH1 0x0 DUP1 REVERT JUMPDEST POP JUMP JUMPDEST PUSH1 0x0 DUP2 CALLDATALOAD SWAP1 POP PUSH2 0x1F80 DUP2 PUSH2 0x1F5A JUMP JUMPDEST SWAP3 SWAP2 POP POP JUMP JUMPDEST PUSH1 0x0 PUSH1 0x20 DUP3 DUP5 SUB SLT ISZERO PUSH2 0x1F9C JUMPI PUSH2 0x1F9B PUSH2 0x17F3 JUMP JUMPDEST JUMPDEST PUSH1 0x0 PUSH2 0x1FAA DUP5 DUP3 DUP6 ADD PUSH2 0x1F71 JUMP JUMPDEST SWAP2 POP POP SWAP3 SWAP2 POP POP JUMP JUMPDEST PUSH1 0x0 PUSH20 0xFFFFFFFFFFFFFFFFFFFFFFFFFFFFFFFFFFFFFFFF DUP3 AND SWAP1 POP SWAP2 SWAP1 POP JUMP JUMPDEST PUSH1 0x0 PUSH2 0x1FDE DUP3 PUSH2 0x1FB3 JUMP JUMPDEST SWAP1 POP SWAP2 SWAP1 POP JUMP JUMPDEST PUSH2 0x1FEE DUP2 PUSH2 0x1FD3 JUMP JUMPDEST DUP3 MSTORE POP POP JUMP JUMPDEST PUSH1 0x0 PUSH1 0x20 DUP3 ADD SWAP1 POP PUSH2 0x2009 PUSH1 0x0 DUP4 ADD DUP5 PUSH2 0x1FE5 JUMP JUMPDEST SWAP3 SWAP2 POP POP JUMP JUMPDEST PUSH1 0x0 DUP1 PUSH1 0x0 DUP1 PUSH1 0x80 DUP6 DUP8 SUB SLT ISZERO PUSH2 0x2029 JUMPI PUSH2 0x2028 PUSH2 0x17F3 JUMP JUMPDEST JUMPDEST PUSH1 0x0 DUP6 ADD CALLDATALOAD PUSH8 0xFFFFFFFFFFFFFFFF DUP2 GT ISZERO PUSH2 0x2047 JUMPI PUSH2 0x2046 PUSH2 0x17F8 JUMP JUMPDEST JUMPDEST PUSH2 0x2053 DUP8 DUP3 DUP9 ADD PUSH2 0x194B JUMP JUMPDEST SWAP5 POP POP PUSH1 0x20 PUSH2 0x2064 DUP8 DUP3 DUP9 ADD PUSH2 0x1BDE JUMP JUMPDEST SWAP4 POP POP PUSH1 0x40 PUSH2 0x2075 DUP8 DUP3 DUP9 ADD PUSH2 0x1DE1 JUMP JUMPDEST SWAP3 POP POP PUSH1 0x60 PUSH2 0x2086 DUP8 DUP3 DUP9 ADD PUSH2 0x181E JUMP JUMPDEST SWAP2 POP POP SWAP3 SWAP6 SWAP2 SWAP5 POP SWAP3 POP JUMP JUMPDEST PUSH2 0x209B DUP2 PUSH2 0x1FD3 JUMP JUMPDEST DUP2 EQ PUSH2 0x20A6 JUMPI PUSH1 0x0 DUP1 REVERT JUMPDEST POP JUMP JUMPDEST PUSH1 0x0 DUP2 CALLDATALOAD SWAP1 POP PUSH2 0x20B8 DUP2 PUSH2 0x2092 JUMP JUMPDEST SWAP3 SWAP2 POP POP JUMP JUMPDEST PUSH1 0x0 PUSH1 0x20 DUP3 DUP5 SUB SLT ISZERO PUSH2 0x20D4 JUMPI PUSH2 0x20D3 PUSH2 0x17F3 JUMP JUMPDEST JUMPDEST PUSH1 0x0 PUSH2 0x20E2 DUP5 DUP3 DUP6 ADD PUSH2 0x20A9 JUMP JUMPDEST SWAP2 POP POP SWAP3 SWAP2 POP POP JUMP JUMPDEST PUSH32 0x4E487B7100000000000000000000000000000000000000000000000000000000 PUSH1 0x0 MSTORE PUSH1 0x22 PUSH1 0x4 MSTORE PUSH1 0x24 PUSH1 0x0 REVERT JUMPDEST PUSH1 0x0 PUSH1 0x2 DUP3 DIV SWAP1 POP PUSH1 0x1 DUP3 AND DUP1 PUSH2 0x2132 JUMPI PUSH1 0x7F DUP3 AND SWAP2 POP JUMPDEST PUSH1 0x20 DUP3 LT DUP2 SUB PUSH2 0x2145 JUMPI PUSH2 0x2144 PUSH2 0x20EB JUMP JUMPDEST JUMPDEST POP SWAP2 SWAP1 POP JUMP JUMPDEST PUSH1 0x0 DUP3 DUP3 MSTORE PUSH1 0x20 DUP3 ADD SWAP1 POP SWAP3 SWAP2 POP POP JUMP JUMPDEST PUSH32 0x4D7573742062652070726F706F736564206F776E657200000000000000000000 PUSH1 0x0 DUP3 ADD MSTORE POP JUMP JUMPDEST PUSH1 0x0 PUSH2 0x2192 PUSH1 0x16 DUP4 PUSH2 0x214B JUMP JUMPDEST SWAP2 POP PUSH2 0x219D DUP3 PUSH2 0x215C JUMP JUMPDEST PUSH1 0x20 DUP3 ADD SWAP1 POP SWAP2 SWAP1 POP JUMP JUMPDEST PUSH1 0x0 PUSH1 0x20 DUP3 ADD SWAP1 POP DUP2 DUP2 SUB PUSH1 0x0 DUP4 ADD MSTORE PUSH2 0x21C1 DUP2 PUSH2 0x2185 JUMP JUMPDEST SWAP1 POP SWAP2 SWAP1 POP JUMP JUMPDEST PUSH32 0x4E487B7100000000000000000000000000000000000000000000000000000000 PUSH1 0x0 MSTORE PUSH1 0x11 PUSH1 0x4 MSTORE PUSH1 0x24 PUSH1 0x0 REVERT JUMPDEST PUSH1 0x0 PUSH2 0x2202 DUP3 PUSH2 0x1A04 JUMP JUMPDEST SWAP2 POP PUSH32 0xFFFFFFFFFFFFFFFFFFFFFFFFFFFFFFFFFFFFFFFFFFFFFFFFFFFFFFFFFFFFFFFF DUP3 SUB PUSH2 0x2234 JUMPI PUSH2 0x2233 PUSH2 0x21C8 JUMP JUMPDEST JUMPDEST PUSH1 0x1 DUP3 ADD SWAP1 POP SWAP2 SWAP1 POP JUMP JUMPDEST PUSH1 0x0 DUP2 SWAP1 POP DUP2 PUSH1 0x0 MSTORE PUSH1 0x20 PUSH1 0x0 KECCAK256 SWAP1 POP SWAP2 SWAP1 POP JUMP JUMPDEST PUSH1 0x0 PUSH1 0x20 PUSH1 0x1F DUP4 ADD DIV SWAP1 POP SWAP2 SWAP1 POP JUMP JUMPDEST PUSH1 0x0 DUP3 DUP3 SHL SWAP1 POP SWAP3 SWAP2 POP POP JUMP JUMPDEST PUSH1 0x0 PUSH1 0x8 DUP4 MUL PUSH2 0x22A1 PUSH32 0xFFFFFFFFFFFFFFFFFFFFFFFFFFFFFFFFFFFFFFFFFFFFFFFFFFFFFFFFFFFFFFFF DUP3 PUSH2 0x2264 JUMP JUMPDEST PUSH2 0x22AB DUP7 DUP4 PUSH2 0x2264 JUMP JUMPDEST SWAP6 POP DUP1 NOT DUP5 AND SWAP4 POP DUP1 DUP7 AND DUP5 OR SWAP3 POP POP POP SWAP4 SWAP3 POP POP POP JUMP JUMPDEST PUSH1 0x0 DUP2 SWAP1 POP SWAP2 SWAP1 POP JUMP JUMPDEST PUSH1 0x0 PUSH2 0x22E8 PUSH2 0x22E3 PUSH2 0x22DE DUP5 PUSH2 0x1A04 JUMP JUMPDEST PUSH2 0x22C3 JUMP JUMPDEST PUSH2 0x1A04 JUMP JUMPDEST SWAP1 POP SWAP2 SWAP1 POP JUMP JUMPDEST PUSH1 0x0 DUP2 SWAP1 POP SWAP2 SWAP1 POP JUMP JUMPDEST PUSH2 0x2302 DUP4 PUSH2 0x22CD JUMP JUMPDEST PUSH2 0x2316 PUSH2 0x230E DUP3 PUSH2 0x22EF JUMP JUMPDEST DUP5 DUP5 SLOAD PUSH2 0x2271 JUMP JUMPDEST DUP3 SSTORE POP POP POP POP JUMP JUMPDEST PUSH1 0x0 SWAP1 JUMP JUMPDEST PUSH2 0x232B PUSH2 0x231E JUMP JUMPDEST PUSH2 0x2336 DUP2 DUP5 DUP5 PUSH2 0x22F9 JUMP JUMPDEST POP POP POP JUMP JUMPDEST JUMPDEST DUP2 DUP2 LT ISZERO PUSH2 0x235A JUMPI PUSH2 0x234F PUSH1 0x0 DUP3 PUSH2 0x2323 JUMP JUMPDEST PUSH1 0x1 DUP2 ADD SWAP1 POP PUSH2 0x233C JUMP JUMPDEST POP POP JUMP JUMPDEST PUSH1 0x1F DUP3 GT ISZERO PUSH2 0x239F JUMPI PUSH2 0x2370 DUP2 PUSH2 0x223F JUMP JUMPDEST PUSH2 0x2379 DUP5 PUSH2 0x2254 JUMP JUMPDEST DUP2 ADD PUSH1 0x20 DUP6 LT ISZERO PUSH2 0x2388 JUMPI DUP2 SWAP1 POP JUMPDEST PUSH2 0x239C PUSH2 0x2394 DUP6 PUSH2 0x2254 JUMP JUMPDEST DUP4 ADD DUP3 PUSH2 0x233B JUMP JUMPDEST POP POP JUMPDEST POP POP POP JUMP JUMPDEST PUSH1 0x0 DUP3 DUP3 SHR SWAP1 POP SWAP3 SWAP2 POP POP JUMP JUMPDEST PUSH1 0x0 PUSH2 0x23C2 PUSH1 0x0 NOT DUP5 PUSH1 0x8 MUL PUSH2 0x23A4 JUMP JUMPDEST NOT DUP1 DUP4 AND SWAP2 POP POP SWAP3 SWAP2 POP POP JUMP JUMPDEST PUSH1 0x0 PUSH2 0x23DB DUP4 DUP4 PUSH2 0x23B1 JUMP JUMPDEST SWAP2 POP DUP3 PUSH1 0x2 MUL DUP3 OR SWAP1 POP SWAP3 SWAP2 POP POP JUMP JUMPDEST PUSH2 0x23F4 DUP3 PUSH2 0x1A38 JUMP JUMPDEST PUSH8 0xFFFFFFFFFFFFFFFF DUP2 GT ISZERO PUSH2 0x240D JUMPI PUSH2 0x240C PUSH2 0x184E JUMP JUMPDEST JUMPDEST PUSH2 0x2417 DUP3 SLOAD PUSH2 0x211A JUMP JUMPDEST PUSH2 0x2422 DUP3 DUP3 DUP6 PUSH2 0x235E JUMP JUMPDEST PUSH1 0x0 PUSH1 0x20 SWAP1 POP PUSH1 0x1F DUP4 GT PUSH1 0x1 DUP2 EQ PUSH2 0x2455 JUMPI PUSH1 0x0 DUP5 ISZERO PUSH2 0x2443 JUMPI DUP3 DUP8 ADD MLOAD SWAP1 POP JUMPDEST PUSH2 0x244D DUP6 DUP3 PUSH2 0x23CF JUMP JUMPDEST DUP7 SSTORE POP PUSH2 0x24B5 JUMP JUMPDEST PUSH1 0x1F NOT DUP5 AND PUSH2 0x2463 DUP7 PUSH2 0x223F JUMP JUMPDEST PUSH1 0x0 JUMPDEST DUP3 DUP2 LT ISZERO PUSH2 0x248B JUMPI DUP5 DUP10 ADD MLOAD DUP3 SSTORE PUSH1 0x1 DUP3 ADD SWAP2 POP PUSH1 0x20 DUP6 ADD SWAP5 POP PUSH1 0x20 DUP2 ADD SWAP1 POP PUSH2 0x2466 JUMP JUMPDEST DUP7 DUP4 LT ISZERO PUSH2 0x24A8 JUMPI DUP5 DUP10 ADD MLOAD PUSH2 0x24A4 PUSH1 0x1F DUP10 AND DUP3 PUSH2 0x23B1 JUMP JUMPDEST DUP4 SSTORE POP JUMPDEST PUSH1 0x1 PUSH1 0x2 DUP9 MUL ADD DUP9 SSTORE POP POP POP JUMPDEST POP POP POP POP POP POP JUMP JUMPDEST PUSH1 0x0 DUP2 SLOAD PUSH2 0x24CA DUP2 PUSH2 0x211A JUMP JUMPDEST PUSH2 0x24D4 DUP2 DUP7 PUSH2 0x1A43 JUMP JUMPDEST SWAP5 POP PUSH1 0x1 DUP3 AND PUSH1 0x0 DUP2 EQ PUSH2 0x24EF JUMPI PUSH1 0x1 DUP2 EQ PUSH2 0x2505 JUMPI PUSH2 0x2538 JUMP JUMPDEST PUSH1 0xFF NOT DUP4 AND DUP7 MSTORE DUP2 ISZERO ISZERO PUSH1 0x20 MUL DUP7 ADD SWAP4 POP PUSH2 0x2538 JUMP JUMPDEST PUSH2 0x250E DUP6 PUSH2 0x223F JUMP JUMPDEST PUSH1 0x0 JUMPDEST DUP4 DUP2 LT ISZERO PUSH2 0x2530 JUMPI DUP2 SLOAD DUP2 DUP10 ADD MSTORE PUSH1 0x1 DUP3 ADD SWAP2 POP PUSH1 0x20 DUP2 ADD SWAP1 POP PUSH2 0x2511 JUMP JUMPDEST DUP1 DUP9 ADD SWAP6 POP POP POP JUMPDEST POP POP POP SWAP3 SWAP2 POP POP JUMP JUMPDEST PUSH1 0x0 PUSH1 0x40 DUP3 ADD SWAP1 POP DUP2 DUP2 SUB PUSH1 0x0 DUP4 ADD MSTORE PUSH2 0x255B DUP2 DUP6 PUSH2 0x24BD JUMP JUMPDEST SWAP1 POP DUP2 DUP2 SUB PUSH1 0x20 DUP4 ADD MSTORE PUSH2 0x256F DUP2 DUP5 PUSH2 0x24BD JUMP JUMPDEST SWAP1 POP SWAP4 SWAP3 POP POP POP JUMP JUMPDEST PUSH32 0x4F6E6C792063616C6C61626C65206279206F776E657200000000000000000000 PUSH1 0x0 DUP3 ADD MSTORE POP JUMP JUMPDEST PUSH1 0x0 PUSH2 0x25AE PUSH1 0x16 DUP4 PUSH2 0x214B JUMP JUMPDEST SWAP2 POP PUSH2 0x25B9 DUP3 PUSH2 0x2578 JUMP JUMPDEST PUSH1 0x20 DUP3 ADD SWAP1 POP SWAP2 SWAP1 POP JUMP JUMPDEST PUSH1 0x0 PUSH1 0x20 DUP3 ADD SWAP1 POP DUP2 DUP2 SUB PUSH1 0x0 DUP4 ADD MSTORE PUSH2 0x25DD DUP2 PUSH2 0x25A1 JUMP JUMPDEST SWAP1 POP SWAP2 SWAP1 POP JUMP JUMPDEST PUSH32 0x4E487B7100000000000000000000000000000000000000000000000000000000 PUSH1 0x0 MSTORE PUSH1 0x21 PUSH1 0x4 MSTORE PUSH1 0x24 PUSH1 0x0 REVERT JUMPDEST PUSH32 0x4E487B7100000000000000000000000000000000000000000000000000000000 PUSH1 0x0 MSTORE PUSH1 0x32 PUSH1 0x4 MSTORE PUSH1 0x24 PUSH1 0x0 REVERT JUMPDEST PUSH2 0x264B DUP2 PUSH2 0x1BB3 JUMP JUMPDEST DUP3 MSTORE POP POP JUMP JUMPDEST PUSH1 0x0 PUSH2 0xFFFF DUP3 AND SWAP1 POP SWAP2 SWAP1 POP JUMP JUMPDEST PUSH2 0x2668 DUP2 PUSH2 0x2651 JUMP JUMPDEST DUP3 MSTORE POP POP JUMP JUMPDEST PUSH2 0x2677 DUP2 PUSH2 0x1DBA JUMP JUMPDEST DUP3 MSTORE POP POP JUMP JUMPDEST PUSH1 0x0 PUSH1 0xA0 DUP3 ADD SWAP1 POP PUSH2 0x2692 PUSH1 0x0 DUP4 ADD DUP9 PUSH2 0x2642 JUMP JUMPDEST DUP2 DUP2 SUB PUSH1 0x20 DUP4 ADD MSTORE PUSH2 0x26A4 DUP2 DUP8 PUSH2 0x1A7E JUMP JUMPDEST SWAP1 POP PUSH2 0x26B3 PUSH1 0x40 DUP4 ADD DUP7 PUSH2 0x265F JUMP JUMPDEST PUSH2 0x26C0 PUSH1 0x60 DUP4 ADD DUP6 PUSH2 0x266E JUMP JUMPDEST PUSH2 0x26CD PUSH1 0x80 DUP4 ADD DUP5 PUSH2 0x1F30 JUMP JUMPDEST SWAP7 SWAP6 POP POP POP POP POP POP JUMP JUMPDEST PUSH1 0x0 DUP2 MLOAD SWAP1 POP PUSH2 0x26E6 DUP2 PUSH2 0x1807 JUMP JUMPDEST SWAP3 SWAP2 POP POP JUMP JUMPDEST PUSH1 0x0 PUSH1 0x20 DUP3 DUP5 SUB SLT ISZERO PUSH2 0x2702 JUMPI PUSH2 0x2701 PUSH2 0x17F3 JUMP JUMPDEST JUMPDEST PUSH1 0x0 PUSH2 0x2710 DUP5 DUP3 DUP6 ADD PUSH2 0x26D7 JUMP JUMPDEST SWAP2 POP POP SWAP3 SWAP2 POP POP JUMP JUMPDEST PUSH32 0x43616E6E6F74207472616E7366657220746F2073656C66000000000000000000 PUSH1 0x0 DUP3 ADD MSTORE POP JUMP JUMPDEST PUSH1 0x0 PUSH2 0x274F PUSH1 0x17 DUP4 PUSH2 0x214B JUMP JUMPDEST SWAP2 POP PUSH2 0x275A DUP3 PUSH2 0x2719 JUMP JUMPDEST PUSH1 0x20 DUP3 ADD SWAP1 POP SWAP2 SWAP1 POP JUMP JUMPDEST PUSH1 0x0 PUSH1 0x20 DUP3 ADD SWAP1 POP DUP2 DUP2 SUB PUSH1 0x0 DUP4 ADD MSTORE PUSH2 0x277E DUP2 PUSH2 0x2742 JUMP JUMPDEST SWAP1 POP SWAP2 SWAP1 POP JUMP JUMPDEST PUSH1 0x0 PUSH2 0x2790 DUP3 PUSH2 0x1A04 JUMP JUMPDEST SWAP2 POP PUSH2 0x279B DUP4 PUSH2 0x1A04 JUMP JUMPDEST SWAP3 POP DUP3 DUP3 ADD SWAP1 POP DUP1 DUP3 GT ISZERO PUSH2 0x27B3 JUMPI PUSH2 0x27B2 PUSH2 0x21C8 JUMP JUMPDEST JUMPDEST SWAP3 SWAP2 POP POP JUMP JUMPDEST PUSH1 0x0 PUSH2 0x27C4 DUP3 PUSH2 0x1A04 JUMP JUMPDEST SWAP2 POP PUSH2 0x27CF DUP4 PUSH2 0x1A04 JUMP JUMPDEST SWAP3 POP DUP3 DUP3 SUB SWAP1 POP DUP2 DUP2 GT ISZERO PUSH2 0x27E7 JUMPI PUSH2 0x27E6 PUSH2 0x21C8 JUMP JUMPDEST JUMPDEST SWAP3 SWAP2 POP POP JUMP JUMPDEST PUSH32 0x4E487B7100000000000000000000000000000000000000000000000000000000 PUSH1 0x0 MSTORE PUSH1 0x12 PUSH1 0x4 MSTORE PUSH1 0x24 PUSH1 0x0 REVERT JUMPDEST PUSH1 0x0 PUSH2 0x2827 DUP3 PUSH2 0x1A04 JUMP JUMPDEST SWAP2 POP PUSH2 0x2832 DUP4 PUSH2 0x1A04 JUMP JUMPDEST SWAP3 POP DUP3 PUSH2 0x2842 JUMPI PUSH2 0x2841 PUSH2 0x27ED JUMP JUMPDEST JUMPDEST DUP3 DUP3 MOD SWAP1 POP SWAP3 SWAP2 POP POP JUMP JUMPDEST PUSH1 0x0 PUSH2 0x2858 DUP3 PUSH2 0x1A04 JUMP JUMPDEST SWAP2 POP PUSH2 0x2863 DUP4 PUSH2 0x1A04 JUMP JUMPDEST SWAP3 POP DUP3 DUP3 MUL PUSH2 0x2871 DUP2 PUSH2 0x1A04 JUMP JUMPDEST SWAP2 POP DUP3 DUP3 DIV DUP5 EQ DUP4 ISZERO OR PUSH2 0x2888 JUMPI PUSH2 0x2887 PUSH2 0x21C8 JUMP JUMPDEST JUMPDEST POP SWAP3 SWAP2 POP POP JUMP JUMPDEST PUSH1 0x0 DUP2 PUSH1 0x1 SHR SWAP1 POP SWAP2 SWAP1 POP JUMP JUMPDEST PUSH1 0x0 DUP1 DUP3 SWAP2 POP DUP4 SWAP1 POP JUMPDEST PUSH1 0x1 DUP6 GT ISZERO PUSH2 0x28E6 JUMPI DUP1 DUP7 DIV DUP2 GT ISZERO PUSH2 0x28C2 JUMPI PUSH2 0x28C1 PUSH2 0x21C8 JUMP JUMPDEST JUMPDEST PUSH1 0x1 DUP6 AND ISZERO PUSH2 0x28D1 JUMPI DUP1 DUP3 MUL SWAP2 POP JUMPDEST DUP1 DUP2 MUL SWAP1 POP PUSH2 0x28DF DUP6 PUSH2 0x288F JUMP JUMPDEST SWAP5 POP PUSH2 0x28A6 JUMP JUMPDEST SWAP5 POP SWAP5 SWAP3 POP POP POP JUMP JUMPDEST PUSH1 0x0 DUP3 PUSH2 0x28FF JUMPI PUSH1 0x1 SWAP1 POP PUSH2 0x29BB JUMP JUMPDEST DUP2 PUSH2 0x290D JUMPI PUSH1 0x0 SWAP1 POP PUSH2 0x29BB JUMP JUMPDEST DUP2 PUSH1 0x1 DUP2 EQ PUSH2 0x2923 JUMPI PUSH1 0x2 DUP2 EQ PUSH2 0x292D JUMPI PUSH2 0x295C JUMP JUMPDEST PUSH1 0x1 SWAP2 POP POP PUSH2 0x29BB JUMP JUMPDEST PUSH1 0xFF DUP5 GT ISZERO PUSH2 0x293F JUMPI PUSH2 0x293E PUSH2 0x21C8 JUMP JUMPDEST JUMPDEST DUP4 PUSH1 0x2 EXP SWAP2 POP DUP5 DUP3 GT ISZERO PUSH2 0x2956 JUMPI PUSH2 0x2955 PUSH2 0x21C8 JUMP JUMPDEST JUMPDEST POP PUSH2 0x29BB JUMP JUMPDEST POP PUSH1 0x20 DUP4 LT PUSH2 0x133 DUP4 LT AND PUSH1 0x4E DUP5 LT PUSH1 0xB DUP5 LT AND OR ISZERO PUSH2 0x2991 JUMPI DUP3 DUP3 EXP SWAP1 POP DUP4 DUP2 GT ISZERO PUSH2 0x298C JUMPI PUSH2 0x298B PUSH2 0x21C8 JUMP JUMPDEST JUMPDEST PUSH2 0x29BB JUMP JUMPDEST PUSH2 0x299E DUP5 DUP5 DUP5 PUSH1 0x1 PUSH2 0x289C JUMP JUMPDEST SWAP3 POP SWAP1 POP DUP2 DUP5 DIV DUP2 GT ISZERO PUSH2 0x29B5 JUMPI PUSH2 0x29B4 PUSH2 0x21C8 JUMP JUMPDEST JUMPDEST DUP2 DUP2 MUL SWAP1 POP JUMPDEST SWAP4 SWAP3 POP POP POP JUMP JUMPDEST PUSH1 0x0 PUSH2 0x29CD DUP3 PUSH2 0x1A04 JUMP JUMPDEST SWAP2 POP PUSH2 0x29D8 DUP4 PUSH2 0x1A04 JUMP JUMPDEST SWAP3 POP PUSH2 0x2A05 PUSH32 0xFFFFFFFFFFFFFFFFFFFFFFFFFFFFFFFFFFFFFFFFFFFFFFFFFFFFFFFFFFFFFFFF DUP5 DUP5 PUSH2 0x28EF JUMP JUMPDEST SWAP1 POP SWAP3 SWAP2 POP POP JUMP INVALID LOG2 PUSH5 0x6970667358 0x22 SLT KECCAK256 0xB0 0xEF 0xE5 0xDF DUP3 DUP13 0xB9 ADDMOD 0xB3 PUSH31 0xB670A7C8FC3E585E7A7722D00B62DED828CD0F5464F764736F6C6343000813 STOP CALLER "
		},
		"gasEstimates": {
			"creation": {
				"codeDepositCost": "2163800",
				"executionCost": "infinite",
				"totalCost": "infinite"
			},
			"external": {
				"acceptOwnership()": "54563",
				"counter()": "2518",
				"handleOracleFulfillment(bytes32,bytes,bytes)": "infinite",
				"increment()": "24567",
				"number()": "2474",
				"owner()": "2589",
				"retrieve()": "2483",
				"s_lastError()": "infinite",
				"s_lastRequestId()": "2473",
				"s_lastResponse()": "infinite",
				"sendRequest(string,bytes,uint8,uint64,string[],bytes[],uint64,uint32,bytes32)": "infinite",
				"sendRequestCBOR(bytes,uint64,uint32,bytes32)": "infinite",
				"store(uint256)": "22587",
				"transferOwnership(address)": "30742"
			},
			"internal": {
				"fulfillRequest(bytes32,bytes memory,bytes memory)": "infinite"
			}
		},
		"methodIdentifiers": {
			"acceptOwnership()": "79ba5097",
			"counter()": "61bc221a",
			"handleOracleFulfillment(bytes32,bytes,bytes)": "0ca76175",
			"increment()": "d09de08a",
			"number()": "8381f58a",
			"owner()": "8da5cb5b",
			"retrieve()": "2e64cec1",
			"s_lastError()": "4b0795a8",
			"s_lastRequestId()": "b1e21749",
			"s_lastResponse()": "3944ea3a",
			"sendRequest(string,bytes,uint8,uint64,string[],bytes[],uint64,uint32,bytes32)": "52a81eeb",
			"sendRequestCBOR(bytes,uint64,uint32,bytes32)": "9681096f",
			"store(uint256)": "6057361d",
			"transferOwnership(address)": "f2fde38b"
		}
	},
	"abi": [
		{
			"inputs": [
				{
					"internalType": "address",
					"name": "router",
					"type": "address"
				}
			],
			"stateMutability": "nonpayable",
			"type": "constructor"
		},
		{
			"inputs": [],
			"name": "EmptyArgs",
			"type": "error"
		},
		{
			"inputs": [],
			"name": "EmptySecrets",
			"type": "error"
		},
		{
			"inputs": [],
			"name": "EmptySource",
			"type": "error"
		},
		{
			"inputs": [],
			"name": "NoInlineSecrets",
			"type": "error"
		},
		{
			"inputs": [],
			"name": "OnlyRouterCanFulfill",
			"type": "error"
		},
		{
			"inputs": [
				{
					"internalType": "bytes32",
					"name": "requestId",
					"type": "bytes32"
				}
			],
			"name": "UnexpectedRequestID",
			"type": "error"
		},
		{
			"anonymous": false,
			"inputs": [
				{
					"indexed": true,
					"internalType": "address",
					"name": "from",
					"type": "address"
				},
				{
					"indexed": true,
					"internalType": "address",
					"name": "to",
					"type": "address"
				}
			],
			"name": "OwnershipTransferRequested",
			"type": "event"
		},
		{
			"anonymous": false,
			"inputs": [
				{
					"indexed": true,
					"internalType": "address",
					"name": "from",
					"type": "address"
				},
				{
					"indexed": true,
					"internalType": "address",
					"name": "to",
					"type": "address"
				}
			],
			"name": "OwnershipTransferred",
			"type": "event"
		},
		{
			"anonymous": false,
			"inputs": [
				{
					"indexed": true,
					"internalType": "bytes32",
					"name": "id",
					"type": "bytes32"
				}
			],
			"name": "RequestFulfilled",
			"type": "event"
		},
		{
			"anonymous": false,
			"inputs": [
				{
					"indexed": true,
					"internalType": "bytes32",
					"name": "id",
					"type": "bytes32"
				}
			],
			"name": "RequestSent",
			"type": "event"
		},
		{
			"anonymous": false,
			"inputs": [
				{
					"indexed": true,
					"internalType": "bytes32",
					"name": "requestId",
					"type": "bytes32"
				},
				{
					"indexed": false,
					"internalType": "bytes",
					"name": "response",
					"type": "bytes"
				},
				{
					"indexed": false,
					"internalType": "bytes",
					"name": "err",
					"type": "bytes"
				}
			],
			"name": "Response",
			"type": "event"
		},
		{
			"inputs": [],
			"name": "acceptOwnership",
			"outputs": [],
			"stateMutability": "nonpayable",
			"type": "function"
		},
		{
			"inputs": [],
			"name": "counter",
			"outputs": [
				{
					"internalType": "uint256",
					"name": "",
					"type": "uint256"
				}
			],
			"stateMutability": "view",
			"type": "function"
		},
		{
			"inputs": [
				{
					"internalType": "bytes32",
					"name": "requestId",
					"type": "bytes32"
				},
				{
					"internalType": "bytes",
					"name": "response",
					"type": "bytes"
				},
				{
					"internalType": "bytes",
					"name": "err",
					"type": "bytes"
				}
			],
			"name": "handleOracleFulfillment",
			"outputs": [],
			"stateMutability": "nonpayable",
			"type": "function"
		},
		{
			"inputs": [],
			"name": "increment",
			"outputs": [],
			"stateMutability": "nonpayable",
			"type": "function"
		},
		{
			"inputs": [],
			"name": "number",
			"outputs": [
				{
					"internalType": "uint256",
					"name": "",
					"type": "uint256"
				}
			],
			"stateMutability": "view",
			"type": "function"
		},
		{
			"inputs": [],
			"name": "owner",
			"outputs": [
				{
					"internalType": "address",
					"name": "",
					"type": "address"
				}
			],
			"stateMutability": "view",
			"type": "function"
		},
		{
			"inputs": [],
			"name": "retrieve",
			"outputs": [
				{
					"internalType": "uint256",
					"name": "",
					"type": "uint256"
				}
			],
			"stateMutability": "view",
			"type": "function"
		},
		{
			"inputs": [],
			"name": "s_lastError",
			"outputs": [
				{
					"internalType": "bytes",
					"name": "",
					"type": "bytes"
				}
			],
			"stateMutability": "view",
			"type": "function"
		},
		{
			"inputs": [],
			"name": "s_lastRequestId",
			"outputs": [
				{
					"internalType": "bytes32",
					"name": "",
					"type": "bytes32"
				}
			],
			"stateMutability": "view",
			"type": "function"
		},
		{
			"inputs": [],
			"name": "s_lastResponse",
			"outputs": [
				{
					"internalType": "bytes",
					"name": "",
					"type": "bytes"
				}
			],
			"stateMutability": "view",
			"type": "function"
		},
		{
			"inputs": [
				{
					"internalType": "string",
					"name": "source",
					"type": "string"
				},
				{
					"internalType": "bytes",
					"name": "encryptedSecretsUrls",
					"type": "bytes"
				},
				{
					"internalType": "uint8",
					"name": "donHostedSecretsSlotID",
					"type": "uint8"
				},
				{
					"internalType": "uint64",
					"name": "donHostedSecretsVersion",
					"type": "uint64"
				},
				{
					"internalType": "string[]",
					"name": "args",
					"type": "string[]"
				},
				{
					"internalType": "bytes[]",
					"name": "bytesArgs",
					"type": "bytes[]"
				},
				{
					"internalType": "uint64",
					"name": "subscriptionId",
					"type": "uint64"
				},
				{
					"internalType": "uint32",
					"name": "gasLimit",
					"type": "uint32"
				},
				{
					"internalType": "bytes32",
					"name": "donID",
					"type": "bytes32"
				}
			],
			"name": "sendRequest",
			"outputs": [
				{
					"internalType": "bytes32",
					"name": "requestId",
					"type": "bytes32"
				}
			],
			"stateMutability": "nonpayable",
			"type": "function"
		},
		{
			"inputs": [
				{
					"internalType": "bytes",
					"name": "request",
					"type": "bytes"
				},
				{
					"internalType": "uint64",
					"name": "subscriptionId",
					"type": "uint64"
				},
				{
					"internalType": "uint32",
					"name": "gasLimit",
					"type": "uint32"
				},
				{
					"internalType": "bytes32",
					"name": "donID",
					"type": "bytes32"
				}
			],
			"name": "sendRequestCBOR",
			"outputs": [
				{
					"internalType": "bytes32",
					"name": "requestId",
					"type": "bytes32"
				}
			],
			"stateMutability": "nonpayable",
			"type": "function"
		},
		{
			"inputs": [
				{
					"internalType": "uint256",
					"name": "num",
					"type": "uint256"
				}
			],
			"name": "store",
			"outputs": [],
			"stateMutability": "nonpayable",
			"type": "function"
		},
		{
			"inputs": [
				{
					"internalType": "address",
					"name": "to",
					"type": "address"
				}
			],
			"name": "transferOwnership",
			"outputs": [],
			"stateMutability": "nonpayable",
			"type": "function"
		}
	]
}