{
	"docs.chain.link/samples/ChainlinkFunctions/Storage.sol": {
		"Storage": {
			"abi": [
				{
					"inputs": [
						{
							"internalType": "address",
							"name": "router",
							"type": "address"
						}
					],
					"stateMutability": "nonpayable",
					"type": "constructor"
				},
				{
					"inputs": [],
					"name": "EmptyArgs",
					"type": "error"
				},
				{
					"inputs": [],
					"name": "EmptySecrets",
					"type": "error"
				},
				{
					"inputs": [],
					"name": "EmptySource",
					"type": "error"
				},
				{
					"inputs": [],
					"name": "NoInlineSecrets",
					"type": "error"
				},
				{
					"inputs": [],
					"name": "OnlyRouterCanFulfill",
					"type": "error"
				},
				{
					"inputs": [
						{
							"internalType": "bytes32",
							"name": "requestId",
							"type": "bytes32"
						}
					],
					"name": "UnexpectedRequestID",
					"type": "error"
				},
				{
					"anonymous": false,
					"inputs": [
						{
							"indexed": true,
							"internalType": "address",
							"name": "from",
							"type": "address"
						},
						{
							"indexed": true,
							"internalType": "address",
							"name": "to",
							"type": "address"
						}
					],
					"name": "OwnershipTransferRequested",
					"type": "event"
				},
				{
					"anonymous": false,
					"inputs": [
						{
							"indexed": true,
							"internalType": "address",
							"name": "from",
							"type": "address"
						},
						{
							"indexed": true,
							"internalType": "address",
							"name": "to",
							"type": "address"
						}
					],
					"name": "OwnershipTransferred",
					"type": "event"
				},
				{
					"anonymous": false,
					"inputs": [
						{
							"indexed": true,
							"internalType": "bytes32",
							"name": "id",
							"type": "bytes32"
						}
					],
					"name": "RequestFulfilled",
					"type": "event"
				},
				{
					"anonymous": false,
					"inputs": [
						{
							"indexed": true,
							"internalType": "bytes32",
							"name": "id",
							"type": "bytes32"
						}
					],
					"name": "RequestSent",
					"type": "event"
				},
				{
					"anonymous": false,
					"inputs": [
						{
							"indexed": true,
							"internalType": "bytes32",
							"name": "requestId",
							"type": "bytes32"
						},
						{
							"indexed": false,
							"internalType": "bytes",
							"name": "response",
							"type": "bytes"
						},
						{
							"indexed": false,
							"internalType": "bytes",
							"name": "err",
							"type": "bytes"
						}
					],
					"name": "Response",
					"type": "event"
				},
				{
					"inputs": [],
					"name": "acceptOwnership",
					"outputs": [],
					"stateMutability": "nonpayable",
					"type": "function"
				},
				{
					"inputs": [],
					"name": "counter",
					"outputs": [
						{
							"internalType": "uint256",
							"name": "",
							"type": "uint256"
						}
					],
					"stateMutability": "view",
					"type": "function"
				},
				{
					"inputs": [
						{
							"internalType": "bytes32",
							"name": "requestId",
							"type": "bytes32"
						},
						{
							"internalType": "bytes",
							"name": "response",
							"type": "bytes"
						},
						{
							"internalType": "bytes",
							"name": "err",
							"type": "bytes"
						}
					],
					"name": "handleOracleFulfillment",
					"outputs": [],
					"stateMutability": "nonpayable",
					"type": "function"
				},
				{
					"inputs": [],
					"name": "increment",
					"outputs": [],
					"stateMutability": "nonpayable",
					"type": "function"
				},
				{
					"inputs": [],
					"name": "number",
					"outputs": [
						{
							"internalType": "uint256",
							"name": "",
							"type": "uint256"
						}
					],
					"stateMutability": "view",
					"type": "function"
				},
				{
					"inputs": [],
					"name": "owner",
					"outputs": [
						{
							"internalType": "address",
							"name": "",
							"type": "address"
						}
					],
					"stateMutability": "view",
					"type": "function"
				},
				{
					"inputs": [],
					"name": "retrieve",
					"outputs": [
						{
							"internalType": "uint256",
							"name": "",
							"type": "uint256"
						}
					],
					"stateMutability": "view",
					"type": "function"
				},
				{
					"inputs": [],
					"name": "s_lastError",
					"outputs": [
						{
							"internalType": "bytes",
							"name": "",
							"type": "bytes"
						}
					],
					"stateMutability": "view",
					"type": "function"
				},
				{
					"inputs": [],
					"name": "s_lastRequestId",
					"outputs": [
						{
							"internalType": "bytes32",
							"name": "",
							"type": "bytes32"
						}
					],
					"stateMutability": "view",
					"type": "function"
				},
				{
					"inputs": [],
					"name": "s_lastResponse",
					"outputs": [
						{
							"internalType": "bytes",
							"name": "",
							"type": "bytes"
						}
					],
					"stateMutability": "view",
					"type": "function"
				},
				{
					"inputs": [
						{
							"internalType": "string",
							"name": "source",
							"type": "string"
						},
						{
							"internalType": "bytes",
							"name": "encryptedSecretsUrls",
							"type": "bytes"
						},
						{
							"internalType": "uint8",
							"name": "donHostedSecretsSlotID",
							"type": "uint8"
						},
						{
							"internalType": "uint64",
							"name": "donHostedSecretsVersion",
							"type": "uint64"
						},
						{
							"internalType": "string[]",
							"name": "args",
							"type": "string[]"
						},
						{
							"internalType": "bytes[]",
							"name": "bytesArgs",
							"type": "bytes[]"
						},
						{
							"internalType": "uint64",
							"name": "subscriptionId",
							"type": "uint64"
						},
						{
							"internalType": "uint32",
							"name": "gasLimit",
							"type": "uint32"
						},
						{
							"internalType": "bytes32",
							"name": "donID",
							"type": "bytes32"
						}
					],
					"name": "sendRequest",
					"outputs": [
						{
							"internalType": "bytes32",
							"name": "requestId",
							"type": "bytes32"
						}
					],
					"stateMutability": "nonpayable",
					"type": "function"
				},
				{
					"inputs": [
						{
							"internalType": "bytes",
							"name": "request",
							"type": "bytes"
						},
						{
							"internalType": "uint64",
							"name": "subscriptionId",
							"type": "uint64"
						},
						{
							"internalType": "uint32",
							"name": "gasLimit",
							"type": "uint32"
						},
						{
							"internalType": "bytes32",
							"name": "donID",
							"type": "bytes32"
						}
					],
					"name": "sendRequestCBOR",
					"outputs": [
						{
							"internalType": "bytes32",
							"name": "requestId",
							"type": "bytes32"
						}
					],
					"stateMutability": "nonpayable",
					"type": "function"
				},
				{
					"inputs": [
						{
							"internalType": "uint256",
							"name": "num",
							"type": "uint256"
						}
					],
					"name": "store",
					"outputs": [],
					"stateMutability": "nonpayable",
					"type": "function"
				},
				{
					"inputs": [
						{
							"internalType": "address",
							"name": "to",
							"type": "address"
						}
					],
					"name": "transferOwnership",
					"outputs": [],
					"stateMutability": "nonpayable",
					"type": "function"
				}
			],
			"devdoc": {
				"kind": "dev",
				"methods": {
					"handleOracleFulfillment(bytes32,bytes,bytes)": {
						"details": "Either response or error parameter will be set, but never both.",
						"params": {
							"err": "Aggregated error either from the request's source code or from the execution pipeline.",
							"requestId": "The requestId returned by FunctionsClient.sendRequest().",
							"response": "Aggregated response from the request's source code."
						}
					}
				},
				"version": 1
			},
			"evm": {
				"assembly": "    /* \"docs.chain.link/samples/ChainlinkFunctions/Storage.sol\":397:2931  contract Storage is FunctionsClient, ConfirmedOwner {... */\n  mstore(0x40, 0xa0)\n    /* \"docs.chain.link/samples/ChainlinkFunctions/Storage.sol\":565:566  0 */\n  0x00\n    /* \"docs.chain.link/samples/ChainlinkFunctions/Storage.sol\":540:566  uint256 public counter = 0 */\n  0x03\n  sstore\n    /* \"docs.chain.link/samples/ChainlinkFunctions/Storage.sol\":799:894  constructor(... */\n  callvalue\n  dup1\n  iszero\n  tag_1\n  jumpi\n  0x00\n  dup1\n  revert\ntag_1:\n  pop\n  mload(0x40)\n  sub(codesize, bytecodeSize)\n  dup1\n  bytecodeSize\n  dup4\n  codecopy\n  dup2\n  dup2\n  add\n  0x40\n  mstore\n  dup2\n  add\n  swap1\n  tag_2\n  swap2\n  swap1\n  tag_3\n  jump\t// in\ntag_2:\n    /* \"docs.chain.link/samples/ChainlinkFunctions/Storage.sol\":880:890  msg.sender */\n  caller\n    /* \"@chainlink/contracts@1.2.0/src/v0.8/shared/access/ConfirmedOwner.sol\":355:363  newOwner */\n  dup1\n    /* \"@chainlink/contracts@1.2.0/src/v0.8/shared/access/ConfirmedOwner.sol\":373:374  0 */\n  0x00\n    /* \"docs.chain.link/samples/ChainlinkFunctions/Storage.sol\":857:863  router */\n  dup4\n    /* \"@chainlink/contracts@1.2.0/src/v0.8/functions/v1_0_0/FunctionsClient.sol\":764:770  router */\n  dup1\n    /* \"@chainlink/contracts@1.2.0/src/v0.8/functions/v1_0_0/FunctionsClient.sol\":736:771  i_router = IFunctionsRouter(router) */\n  0xffffffffffffffffffffffffffffffffffffffff\n  and\n  0x80\n  dup2\n  0xffffffffffffffffffffffffffffffffffffffff\n  and\n  dup2\n  mstore\n  pop\n  pop\n    /* \"@chainlink/contracts@1.2.0/src/v0.8/functions/v1_0_0/FunctionsClient.sol\":702:776  constructor(address router) {... */\n  pop\n    /* \"@chainlink/contracts@1.2.0/src/v0.8/shared/access/ConfirmedOwnerWithProposal.sol\":618:619  0 */\n  0x00\n    /* \"@chainlink/contracts@1.2.0/src/v0.8/shared/access/ConfirmedOwnerWithProposal.sol\":598:620  newOwner != address(0) */\n  0xffffffffffffffffffffffffffffffffffffffff\n  and\n    /* \"@chainlink/contracts@1.2.0/src/v0.8/shared/access/ConfirmedOwnerWithProposal.sol\":598:606  newOwner */\n  dup3\n    /* \"@chainlink/contracts@1.2.0/src/v0.8/shared/access/ConfirmedOwnerWithProposal.sol\":598:620  newOwner != address(0) */\n  0xffffffffffffffffffffffffffffffffffffffff\n  and\n  sub\n    /* \"@chainlink/contracts@1.2.0/src/v0.8/shared/access/ConfirmedOwnerWithProposal.sol\":590:649  require(newOwner != address(0), \"Cannot set owner to zero\") */\n  tag_10\n  jumpi\n  mload(0x40)\n  0x08c379a000000000000000000000000000000000000000000000000000000000\n  dup2\n  mstore\n  0x04\n  add\n  tag_11\n  swap1\n  tag_12\n  jump\t// in\ntag_11:\n  mload(0x40)\n  dup1\n  swap2\n  sub\n  swap1\n  revert\ntag_10:\n    /* \"@chainlink/contracts@1.2.0/src/v0.8/shared/access/ConfirmedOwnerWithProposal.sol\":666:674  newOwner */\n  dup2\n    /* \"@chainlink/contracts@1.2.0/src/v0.8/shared/access/ConfirmedOwnerWithProposal.sol\":656:663  s_owner */\n  0x00\n  dup1\n    /* \"@chainlink/contracts@1.2.0/src/v0.8/shared/access/ConfirmedOwnerWithProposal.sol\":656:674  s_owner = newOwner */\n  0x0100\n  exp\n  dup2\n  sload\n  dup2\n  0xffffffffffffffffffffffffffffffffffffffff\n  mul\n  not\n  and\n  swap1\n  dup4\n  0xffffffffffffffffffffffffffffffffffffffff\n  and\n  mul\n  or\n  swap1\n  sstore\n  pop\n    /* \"@chainlink/contracts@1.2.0/src/v0.8/shared/access/ConfirmedOwnerWithProposal.sol\":708:709  0 */\n  0x00\n    /* \"@chainlink/contracts@1.2.0/src/v0.8/shared/access/ConfirmedOwnerWithProposal.sol\":684:710  pendingOwner != address(0) */\n  0xffffffffffffffffffffffffffffffffffffffff\n  and\n    /* \"@chainlink/contracts@1.2.0/src/v0.8/shared/access/ConfirmedOwnerWithProposal.sol\":684:696  pendingOwner */\n  dup2\n    /* \"@chainlink/contracts@1.2.0/src/v0.8/shared/access/ConfirmedOwnerWithProposal.sol\":684:710  pendingOwner != address(0) */\n  0xffffffffffffffffffffffffffffffffffffffff\n  and\n  eq\n    /* \"@chainlink/contracts@1.2.0/src/v0.8/shared/access/ConfirmedOwnerWithProposal.sol\":680:759  if (pendingOwner != address(0)) {... */\n  tag_13\n  jumpi\n    /* \"@chainlink/contracts@1.2.0/src/v0.8/shared/access/ConfirmedOwnerWithProposal.sol\":720:752  _transferOwnership(pendingOwner) */\n  tag_14\n    /* \"@chainlink/contracts@1.2.0/src/v0.8/shared/access/ConfirmedOwnerWithProposal.sol\":739:751  pendingOwner */\n  dup2\n    /* \"@chainlink/contracts@1.2.0/src/v0.8/shared/access/ConfirmedOwnerWithProposal.sol\":720:738  _transferOwnership */\n  shl(0x20, tag_15)\n    /* \"@chainlink/contracts@1.2.0/src/v0.8/shared/access/ConfirmedOwnerWithProposal.sol\":720:752  _transferOwnership(pendingOwner) */\n  0x20\n  shr\n  jump\t// in\ntag_14:\n    /* \"@chainlink/contracts@1.2.0/src/v0.8/shared/access/ConfirmedOwnerWithProposal.sol\":680:759  if (pendingOwner != address(0)) {... */\ntag_13:\n    /* \"@chainlink/contracts@1.2.0/src/v0.8/shared/access/ConfirmedOwnerWithProposal.sol\":481:763  constructor(address newOwner, address pendingOwner) {... */\n  pop\n  pop\n    /* \"@chainlink/contracts@1.2.0/src/v0.8/shared/access/ConfirmedOwner.sol\":298:379  constructor(address newOwner) ConfirmedOwnerWithProposal(newOwner, address(0)) {} */\n  pop\n    /* \"docs.chain.link/samples/ChainlinkFunctions/Storage.sol\":799:894  constructor(... */\n  pop\n    /* \"docs.chain.link/samples/ChainlinkFunctions/Storage.sol\":397:2931  contract Storage is FunctionsClient, ConfirmedOwner {... */\n  jump(tag_18)\n    /* \"@chainlink/contracts@1.2.0/src/v0.8/shared/access/ConfirmedOwnerWithProposal.sol\":1536:1775  function _transferOwnership(address to) private {... */\ntag_15:\n    /* \"@chainlink/contracts@1.2.0/src/v0.8/shared/access/ConfirmedOwnerWithProposal.sol\":1655:1665  msg.sender */\n  caller\n    /* \"@chainlink/contracts@1.2.0/src/v0.8/shared/access/ConfirmedOwnerWithProposal.sol\":1649:1665  to != msg.sender */\n  0xffffffffffffffffffffffffffffffffffffffff\n  and\n    /* \"@chainlink/contracts@1.2.0/src/v0.8/shared/access/ConfirmedOwnerWithProposal.sol\":1649:1651  to */\n  dup2\n    /* \"@chainlink/contracts@1.2.0/src/v0.8/shared/access/ConfirmedOwnerWithProposal.sol\":1649:1665  to != msg.sender */\n  0xffffffffffffffffffffffffffffffffffffffff\n  and\n  sub\n    /* \"@chainlink/contracts@1.2.0/src/v0.8/shared/access/ConfirmedOwnerWithProposal.sol\":1641:1693  require(to != msg.sender, \"Cannot transfer to self\") */\n  tag_20\n  jumpi\n  mload(0x40)\n  0x08c379a000000000000000000000000000000000000000000000000000000000\n  dup2\n  mstore\n  0x04\n  add\n  tag_21\n  swap1\n  tag_22\n  jump\t// in\ntag_21:\n  mload(0x40)\n  dup1\n  swap2\n  sub\n  swap1\n  revert\ntag_20:\n    /* \"@chainlink/contracts@1.2.0/src/v0.8/shared/access/ConfirmedOwnerWithProposal.sol\":1717:1719  to */\n  dup1\n    /* \"@chainlink/contracts@1.2.0/src/v0.8/shared/access/ConfirmedOwnerWithProposal.sol\":1700:1714  s_pendingOwner */\n  0x01\n  0x00\n    /* \"@chainlink/contracts@1.2.0/src/v0.8/shared/access/ConfirmedOwnerWithProposal.sol\":1700:1719  s_pendingOwner = to */\n  0x0100\n  exp\n  dup2\n  sload\n  dup2\n  0xffffffffffffffffffffffffffffffffffffffff\n  mul\n  not\n  and\n  swap1\n  dup4\n  0xffffffffffffffffffffffffffffffffffffffff\n  and\n  mul\n  or\n  swap1\n  sstore\n  pop\n    /* \"@chainlink/contracts@1.2.0/src/v0.8/shared/access/ConfirmedOwnerWithProposal.sol\":1767:1769  to */\n  dup1\n    /* \"@chainlink/contracts@1.2.0/src/v0.8/shared/access/ConfirmedOwnerWithProposal.sol\":1731:1770  OwnershipTransferRequested(s_owner, to) */\n  0xffffffffffffffffffffffffffffffffffffffff\n  and\n    /* \"@chainlink/contracts@1.2.0/src/v0.8/shared/access/ConfirmedOwnerWithProposal.sol\":1758:1765  s_owner */\n  0x00\n  dup1\n  sload\n  swap1\n  0x0100\n  exp\n  swap1\n  div\n  0xffffffffffffffffffffffffffffffffffffffff\n  and\n    /* \"@chainlink/contracts@1.2.0/src/v0.8/shared/access/ConfirmedOwnerWithProposal.sol\":1731:1770  OwnershipTransferRequested(s_owner, to) */\n  0xffffffffffffffffffffffffffffffffffffffff\n  and\n  0xed8889f560326eb138920d842192f0eb3dd22b4f139c87a2c57538e05bae1278\n  mload(0x40)\n  mload(0x40)\n  dup1\n  swap2\n  sub\n  swap1\n  log3\n    /* \"@chainlink/contracts@1.2.0/src/v0.8/shared/access/ConfirmedOwnerWithProposal.sol\":1536:1775  function _transferOwnership(address to) private {... */\n  pop\n  jump\t// out\n    /* \"#utility.yul\":88:205   */\ntag_24:\n    /* \"#utility.yul\":197:198   */\n  0x00\n    /* \"#utility.yul\":194:195   */\n  dup1\n    /* \"#utility.yul\":187:199   */\n  revert\n    /* \"#utility.yul\":334:460   */\ntag_26:\n    /* \"#utility.yul\":371:378   */\n  0x00\n    /* \"#utility.yul\":411:453   */\n  0xffffffffffffffffffffffffffffffffffffffff\n    /* \"#utility.yul\":404:409   */\n  dup3\n    /* \"#utility.yul\":400:454   */\n  and\n    /* \"#utility.yul\":389:454   */\n  swap1\n  pop\n    /* \"#utility.yul\":334:460   */\n  swap2\n  swap1\n  pop\n  jump\t// out\n    /* \"#utility.yul\":466:562   */\ntag_27:\n    /* \"#utility.yul\":503:510   */\n  0x00\n    /* \"#utility.yul\":532:556   */\n  tag_41\n    /* \"#utility.yul\":550:555   */\n  dup3\n    /* \"#utility.yul\":532:556   */\n  tag_26\n  jump\t// in\ntag_41:\n    /* \"#utility.yul\":521:556   */\n  swap1\n  pop\n    /* \"#utility.yul\":466:562   */\n  swap2\n  swap1\n  pop\n  jump\t// out\n    /* \"#utility.yul\":568:690   */\ntag_28:\n    /* \"#utility.yul\":641:665   */\n  tag_43\n    /* \"#utility.yul\":659:664   */\n  dup2\n    /* \"#utility.yul\":641:665   */\n  tag_27\n  jump\t// in\ntag_43:\n    /* \"#utility.yul\":634:639   */\n  dup2\n    /* \"#utility.yul\":631:666   */\n  eq\n    /* \"#utility.yul\":621:684   */\n  tag_44\n  jumpi\n    /* \"#utility.yul\":680:681   */\n  0x00\n    /* \"#utility.yul\":677:678   */\n  dup1\n    /* \"#utility.yul\":670:682   */\n  revert\n    /* \"#utility.yul\":621:684   */\ntag_44:\n    /* \"#utility.yul\":568:690   */\n  pop\n  jump\t// out\n    /* \"#utility.yul\":696:839   */\ntag_29:\n    /* \"#utility.yul\":753:758   */\n  0x00\n    /* \"#utility.yul\":784:790   */\n  dup2\n    /* \"#utility.yul\":778:791   */\n  mload\n    /* \"#utility.yul\":769:791   */\n  swap1\n  pop\n    /* \"#utility.yul\":800:833   */\n  tag_46\n    /* \"#utility.yul\":827:832   */\n  dup2\n    /* \"#utility.yul\":800:833   */\n  tag_28\n  jump\t// in\ntag_46:\n    /* \"#utility.yul\":696:839   */\n  swap3\n  swap2\n  pop\n  pop\n  jump\t// out\n    /* \"#utility.yul\":845:1196   */\ntag_3:\n    /* \"#utility.yul\":915:921   */\n  0x00\n    /* \"#utility.yul\":964:966   */\n  0x20\n    /* \"#utility.yul\":952:961   */\n  dup3\n    /* \"#utility.yul\":943:950   */\n  dup5\n    /* \"#utility.yul\":939:962   */\n  sub\n    /* \"#utility.yul\":935:967   */\n  slt\n    /* \"#utility.yul\":932:1051   */\n  iszero\n  tag_48\n  jumpi\n    /* \"#utility.yul\":970:1049   */\n  tag_49\n  tag_24\n  jump\t// in\ntag_49:\n    /* \"#utility.yul\":932:1051   */\ntag_48:\n    /* \"#utility.yul\":1090:1091   */\n  0x00\n    /* \"#utility.yul\":1115:1179   */\n  tag_50\n    /* \"#utility.yul\":1171:1178   */\n  dup5\n    /* \"#utility.yul\":1162:1168   */\n  dup3\n    /* \"#utility.yul\":1151:1160   */\n  dup6\n    /* \"#utility.yul\":1147:1169   */\n  add\n    /* \"#utility.yul\":1115:1179   */\n  tag_29\n  jump\t// in\ntag_50:\n    /* \"#utility.yul\":1105:1179   */\n  swap2\n  pop\n    /* \"#utility.yul\":1061:1189   */\n  pop\n    /* \"#utility.yul\":845:1196   */\n  swap3\n  swap2\n  pop\n  pop\n  jump\t// out\n    /* \"#utility.yul\":1202:1371   */\ntag_30:\n    /* \"#utility.yul\":1286:1297   */\n  0x00\n    /* \"#utility.yul\":1320:1326   */\n  dup3\n    /* \"#utility.yul\":1315:1318   */\n  dup3\n    /* \"#utility.yul\":1308:1327   */\n  mstore\n    /* \"#utility.yul\":1360:1364   */\n  0x20\n    /* \"#utility.yul\":1355:1358   */\n  dup3\n    /* \"#utility.yul\":1351:1365   */\n  add\n    /* \"#utility.yul\":1336:1365   */\n  swap1\n  pop\n    /* \"#utility.yul\":1202:1371   */\n  swap3\n  swap2\n  pop\n  pop\n  jump\t// out\n    /* \"#utility.yul\":1377:1551   */\ntag_31:\n    /* \"#utility.yul\":1517:1543   */\n  0x43616e6e6f7420736574206f776e657220746f207a65726f0000000000000000\n    /* \"#utility.yul\":1513:1514   */\n  0x00\n    /* \"#utility.yul\":1505:1511   */\n  dup3\n    /* \"#utility.yul\":1501:1515   */\n  add\n    /* \"#utility.yul\":1494:1544   */\n  mstore\n    /* \"#utility.yul\":1377:1551   */\n  pop\n  jump\t// out\n    /* \"#utility.yul\":1557:1923   */\ntag_32:\n    /* \"#utility.yul\":1699:1702   */\n  0x00\n    /* \"#utility.yul\":1720:1787   */\n  tag_54\n    /* \"#utility.yul\":1784:1786   */\n  0x18\n    /* \"#utility.yul\":1779:1782   */\n  dup4\n    /* \"#utility.yul\":1720:1787   */\n  tag_30\n  jump\t// in\ntag_54:\n    /* \"#utility.yul\":1713:1787   */\n  swap2\n  pop\n    /* \"#utility.yul\":1796:1889   */\n  tag_55\n    /* \"#utility.yul\":1885:1888   */\n  dup3\n    /* \"#utility.yul\":1796:1889   */\n  tag_31\n  jump\t// in\ntag_55:\n    /* \"#utility.yul\":1914:1916   */\n  0x20\n    /* \"#utility.yul\":1909:1912   */\n  dup3\n    /* \"#utility.yul\":1905:1917   */\n  add\n    /* \"#utility.yul\":1898:1917   */\n  swap1\n  pop\n    /* \"#utility.yul\":1557:1923   */\n  swap2\n  swap1\n  pop\n  jump\t// out\n    /* \"#utility.yul\":1929:2348   */\ntag_12:\n    /* \"#utility.yul\":2095:2099   */\n  0x00\n    /* \"#utility.yul\":2133:2135   */\n  0x20\n    /* \"#utility.yul\":2122:2131   */\n  dup3\n    /* \"#utility.yul\":2118:2136   */\n  add\n    /* \"#utility.yul\":2110:2136   */\n  swap1\n  pop\n    /* \"#utility.yul\":2182:2191   */\n  dup2\n    /* \"#utility.yul\":2176:2180   */\n  dup2\n    /* \"#utility.yul\":2172:2192   */\n  sub\n    /* \"#utility.yul\":2168:2169   */\n  0x00\n    /* \"#utility.yul\":2157:2166   */\n  dup4\n    /* \"#utility.yul\":2153:2170   */\n  add\n    /* \"#utility.yul\":2146:2193   */\n  mstore\n    /* \"#utility.yul\":2210:2341   */\n  tag_57\n    /* \"#utility.yul\":2336:2340   */\n  dup2\n    /* \"#utility.yul\":2210:2341   */\n  tag_32\n  jump\t// in\ntag_57:\n    /* \"#utility.yul\":2202:2341   */\n  swap1\n  pop\n    /* \"#utility.yul\":1929:2348   */\n  swap2\n  swap1\n  pop\n  jump\t// out\n    /* \"#utility.yul\":2354:2527   */\ntag_33:\n    /* \"#utility.yul\":2494:2519   */\n  0x43616e6e6f74207472616e7366657220746f2073656c66000000000000000000\n    /* \"#utility.yul\":2490:2491   */\n  0x00\n    /* \"#utility.yul\":2482:2488   */\n  dup3\n    /* \"#utility.yul\":2478:2492   */\n  add\n    /* \"#utility.yul\":2471:2520   */\n  mstore\n    /* \"#utility.yul\":2354:2527   */\n  pop\n  jump\t// out\n    /* \"#utility.yul\":2533:2899   */\ntag_34:\n    /* \"#utility.yul\":2675:2678   */\n  0x00\n    /* \"#utility.yul\":2696:2763   */\n  tag_60\n    /* \"#utility.yul\":2760:2762   */\n  0x17\n    /* \"#utility.yul\":2755:2758   */\n  dup4\n    /* \"#utility.yul\":2696:2763   */\n  tag_30\n  jump\t// in\ntag_60:\n    /* \"#utility.yul\":2689:2763   */\n  swap2\n  pop\n    /* \"#utility.yul\":2772:2865   */\n  tag_61\n    /* \"#utility.yul\":2861:2864   */\n  dup3\n    /* \"#utility.yul\":2772:2865   */\n  tag_33\n  jump\t// in\ntag_61:\n    /* \"#utility.yul\":2890:2892   */\n  0x20\n    /* \"#utility.yul\":2885:2888   */\n  dup3\n    /* \"#utility.yul\":2881:2893   */\n  add\n    /* \"#utility.yul\":2874:2893   */\n  swap1\n  pop\n    /* \"#utility.yul\":2533:2899   */\n  swap2\n  swap1\n  pop\n  jump\t// out\n    /* \"#utility.yul\":2905:3324   */\ntag_22:\n    /* \"#utility.yul\":3071:3075   */\n  0x00\n    /* \"#utility.yul\":3109:3111   */\n  0x20\n    /* \"#utility.yul\":3098:3107   */\n  dup3\n    /* \"#utility.yul\":3094:3112   */\n  add\n    /* \"#utility.yul\":3086:3112   */\n  swap1\n  pop\n    /* \"#utility.yul\":3158:3167   */\n  dup2\n    /* \"#utility.yul\":3152:3156   */\n  dup2\n    /* \"#utility.yul\":3148:3168   */\n  sub\n    /* \"#utility.yul\":3144:3145   */\n  0x00\n    /* \"#utility.yul\":3133:3142   */\n  dup4\n    /* \"#utility.yul\":3129:3146   */\n  add\n    /* \"#utility.yul\":3122:3169   */\n  mstore\n    /* \"#utility.yul\":3186:3317   */\n  tag_63\n    /* \"#utility.yul\":3312:3316   */\n  dup2\n    /* \"#utility.yul\":3186:3317   */\n  tag_34\n  jump\t// in\ntag_63:\n    /* \"#utility.yul\":3178:3317   */\n  swap1\n  pop\n    /* \"#utility.yul\":2905:3324   */\n  swap2\n  swap1\n  pop\n  jump\t// out\n    /* \"docs.chain.link/samples/ChainlinkFunctions/Storage.sol\":397:2931  contract Storage is FunctionsClient, ConfirmedOwner {... */\ntag_18:\n  mload(0x80)\n  codecopy(0x00, dataOffset(sub_0), dataSize(sub_0))\n  0x00\n  assignImmutable(\"0x8e8fab5f003314da8d1873ea7720e8d9f47650136d916064d1edb8a11d682624\")\n  return(0x00, dataSize(sub_0))\nstop\n\nsub_0: assembly {\n        /* \"docs.chain.link/samples/ChainlinkFunctions/Storage.sol\":397:2931  contract Storage is FunctionsClient, ConfirmedOwner {... */\n      mstore(0x40, 0x80)\n      callvalue\n      dup1\n      iszero\n      tag_1\n      jumpi\n      0x00\n      dup1\n      revert\n    tag_1:\n      pop\n      jumpi(tag_2, lt(calldatasize, 0x04))\n      shr(0xe0, calldataload(0x00))\n      dup1\n      0x79ba5097\n      gt\n      tag_17\n      jumpi\n      dup1\n      0x9681096f\n      gt\n      tag_18\n      jumpi\n      dup1\n      0x9681096f\n      eq\n      tag_13\n      jumpi\n      dup1\n      0xb1e21749\n      eq\n      tag_14\n      jumpi\n      dup1\n      0xd09de08a\n      eq\n      tag_15\n      jumpi\n      dup1\n      0xf2fde38b\n      eq\n      tag_16\n      jumpi\n      jump(tag_2)\n    tag_18:\n      dup1\n      0x79ba5097\n      eq\n      tag_10\n      jumpi\n      dup1\n      0x8381f58a\n      eq\n      tag_11\n      jumpi\n      dup1\n      0x8da5cb5b\n      eq\n      tag_12\n      jumpi\n      jump(tag_2)\n    tag_17:\n      dup1\n      0x4b0795a8\n      gt\n      tag_19\n      jumpi\n      dup1\n      0x4b0795a8\n      eq\n      tag_6\n      jumpi\n      dup1\n      0x52a81eeb\n      eq\n      tag_7\n      jumpi\n      dup1\n      0x6057361d\n      eq\n      tag_8\n      jumpi\n      dup1\n      0x61bc221a\n      eq\n      tag_9\n      jumpi\n      jump(tag_2)\n    tag_19:\n      dup1\n      0x0ca76175\n      eq\n      tag_3\n      jumpi\n      dup1\n      0x2e64cec1\n      eq\n      tag_4\n      jumpi\n      dup1\n      0x3944ea3a\n      eq\n      tag_5\n      jumpi\n    tag_2:\n      0x00\n      dup1\n      revert\n        /* \"@chainlink/contracts@1.2.0/src/v0.8/functions/v1_0_0/FunctionsClient.sol\":2078:2364  function handleOracleFulfillment(bytes32 requestId, bytes memory response, bytes memory err) external override {... */\n    tag_3:\n      tag_20\n      0x04\n      dup1\n      calldatasize\n      sub\n      dup2\n      add\n      swap1\n      tag_21\n      swap2\n      swap1\n      tag_22\n      jump\t// in\n    tag_21:\n      tag_23\n      jump\t// in\n    tag_20:\n      stop\n        /* \"docs.chain.link/samples/ChainlinkFunctions/Storage.sol\":970:1050  function retrieve() public view returns (uint256) {... */\n    tag_4:\n      tag_24\n      tag_25\n      jump\t// in\n    tag_24:\n      mload(0x40)\n      tag_26\n      swap2\n      swap1\n      tag_27\n      jump\t// in\n    tag_26:\n      mload(0x40)\n      dup1\n      swap2\n      sub\n      swap1\n      return\n        /* \"docs.chain.link/samples/ChainlinkFunctions/Storage.sol\":609:636  bytes public s_lastResponse */\n    tag_5:\n      tag_28\n      tag_29\n      jump\t// in\n    tag_28:\n      mload(0x40)\n      tag_30\n      swap2\n      swap1\n      tag_31\n      jump\t// in\n    tag_30:\n      mload(0x40)\n      dup1\n      swap2\n      sub\n      swap1\n      return\n        /* \"docs.chain.link/samples/ChainlinkFunctions/Storage.sol\":642:666  bytes public s_lastError */\n    tag_6:\n      tag_32\n      tag_33\n      jump\t// in\n    tag_32:\n      mload(0x40)\n      tag_34\n      swap2\n      swap1\n      tag_31\n      jump\t// in\n    tag_34:\n      mload(0x40)\n      dup1\n      swap2\n      sub\n      swap1\n      return\n        /* \"docs.chain.link/samples/ChainlinkFunctions/Storage.sol\":1118:2182  function sendRequest(... */\n    tag_7:\n      tag_35\n      0x04\n      dup1\n      calldatasize\n      sub\n      dup2\n      add\n      swap1\n      tag_36\n      swap2\n      swap1\n      tag_37\n      jump\t// in\n    tag_36:\n      tag_38\n      jump\t// in\n    tag_35:\n      mload(0x40)\n      tag_39\n      swap2\n      swap1\n      tag_40\n      jump\t// in\n    tag_39:\n      mload(0x40)\n      dup1\n      swap2\n      sub\n      swap1\n      return\n        /* \"docs.chain.link/samples/ChainlinkFunctions/Storage.sol\":900:964  function store(uint256 num) public {... */\n    tag_8:\n      tag_41\n      0x04\n      dup1\n      calldatasize\n      sub\n      dup2\n      add\n      swap1\n      tag_42\n      swap2\n      swap1\n      tag_43\n      jump\t// in\n    tag_42:\n      tag_44\n      jump\t// in\n    tag_41:\n      stop\n        /* \"docs.chain.link/samples/ChainlinkFunctions/Storage.sol\":540:566  uint256 public counter = 0 */\n    tag_9:\n      tag_45\n      tag_46\n      jump\t// in\n    tag_45:\n      mload(0x40)\n      tag_47\n      swap2\n      swap1\n      tag_27\n      jump\t// in\n    tag_47:\n      mload(0x40)\n      dup1\n      swap2\n      sub\n      swap1\n      return\n        /* \"@chainlink/contracts@1.2.0/src/v0.8/shared/access/ConfirmedOwnerWithProposal.sol\":1026:1342  function acceptOwnership() external override {... */\n    tag_10:\n      tag_48\n      tag_49\n      jump\t// in\n    tag_48:\n      stop\n        /* \"docs.chain.link/samples/ChainlinkFunctions/Storage.sol\":513:534  uint256 public number */\n    tag_11:\n      tag_50\n      tag_51\n      jump\t// in\n    tag_50:\n      mload(0x40)\n      tag_52\n      swap2\n      swap1\n      tag_27\n      jump\t// in\n    tag_52:\n      mload(0x40)\n      dup1\n      swap2\n      sub\n      swap1\n      return\n        /* \"@chainlink/contracts@1.2.0/src/v0.8/shared/access/ConfirmedOwnerWithProposal.sol\":1382:1463  function owner() public view override returns (address) {... */\n    tag_12:\n      tag_53\n      tag_54\n      jump\t// in\n    tag_53:\n      mload(0x40)\n      tag_55\n      swap2\n      swap1\n      tag_56\n      jump\t// in\n    tag_55:\n      mload(0x40)\n      dup1\n      swap2\n      sub\n      swap1\n      return\n        /* \"docs.chain.link/samples/ChainlinkFunctions/Storage.sol\":2188:2554  function sendRequestCBOR(... */\n    tag_13:\n      tag_57\n      0x04\n      dup1\n      calldatasize\n      sub\n      dup2\n      add\n      swap1\n      tag_58\n      swap2\n      swap1\n      tag_59\n      jump\t// in\n    tag_58:\n      tag_60\n      jump\t// in\n    tag_57:\n      mload(0x40)\n      tag_61\n      swap2\n      swap1\n      tag_40\n      jump\t// in\n    tag_61:\n      mload(0x40)\n      dup1\n      swap2\n      sub\n      swap1\n      return\n        /* \"docs.chain.link/samples/ChainlinkFunctions/Storage.sol\":573:603  bytes32 public s_lastRequestId */\n    tag_14:\n      tag_62\n      tag_63\n      jump\t// in\n    tag_62:\n      mload(0x40)\n      tag_64\n      swap2\n      swap1\n      tag_40\n      jump\t// in\n    tag_64:\n      mload(0x40)\n      dup1\n      swap2\n      sub\n      swap1\n      return\n        /* \"docs.chain.link/samples/ChainlinkFunctions/Storage.sol\":1056:1112  function increment() external {... */\n    tag_15:\n      tag_65\n      tag_66\n      jump\t// in\n    tag_65:\n      stop\n        /* \"@chainlink/contracts@1.2.0/src/v0.8/shared/access/ConfirmedOwnerWithProposal.sol\":847:945  function transferOwnership(address to) public override onlyOwner {... */\n    tag_16:\n      tag_67\n      0x04\n      dup1\n      calldatasize\n      sub\n      dup2\n      add\n      swap1\n      tag_68\n      swap2\n      swap1\n      tag_69\n      jump\t// in\n    tag_68:\n      tag_70\n      jump\t// in\n    tag_67:\n      stop\n        /* \"@chainlink/contracts@1.2.0/src/v0.8/functions/v1_0_0/FunctionsClient.sol\":2078:2364  function handleOracleFulfillment(bytes32 requestId, bytes memory response, bytes memory err) external override {... */\n    tag_23:\n        /* \"@chainlink/contracts@1.2.0/src/v0.8/functions/v1_0_0/FunctionsClient.sol\":2221:2229  i_router */\n      immutable(\"0x8e8fab5f003314da8d1873ea7720e8d9f47650136d916064d1edb8a11d682624\")\n        /* \"@chainlink/contracts@1.2.0/src/v0.8/functions/v1_0_0/FunctionsClient.sol\":2199:2230  msg.sender != address(i_router) */\n      0xffffffffffffffffffffffffffffffffffffffff\n      and\n        /* \"@chainlink/contracts@1.2.0/src/v0.8/functions/v1_0_0/FunctionsClient.sol\":2199:2209  msg.sender */\n      caller\n        /* \"@chainlink/contracts@1.2.0/src/v0.8/functions/v1_0_0/FunctionsClient.sol\":2199:2230  msg.sender != address(i_router) */\n      0xffffffffffffffffffffffffffffffffffffffff\n      and\n      eq\n        /* \"@chainlink/contracts@1.2.0/src/v0.8/functions/v1_0_0/FunctionsClient.sol\":2195:2276  if (msg.sender != address(i_router)) {... */\n      tag_72\n      jumpi\n        /* \"@chainlink/contracts@1.2.0/src/v0.8/functions/v1_0_0/FunctionsClient.sol\":2247:2269  OnlyRouterCanFulfill() */\n      mload(0x40)\n      0xc6829f8300000000000000000000000000000000000000000000000000000000\n      dup2\n      mstore\n      0x04\n      add\n      mload(0x40)\n      dup1\n      swap2\n      sub\n      swap1\n      revert\n        /* \"@chainlink/contracts@1.2.0/src/v0.8/functions/v1_0_0/FunctionsClient.sol\":2195:2276  if (msg.sender != address(i_router)) {... */\n    tag_72:\n        /* \"@chainlink/contracts@1.2.0/src/v0.8/functions/v1_0_0/FunctionsClient.sol\":2281:2321  fulfillRequest(requestId, response, err) */\n      tag_73\n        /* \"@chainlink/contracts@1.2.0/src/v0.8/functions/v1_0_0/FunctionsClient.sol\":2296:2305  requestId */\n      dup4\n        /* \"@chainlink/contracts@1.2.0/src/v0.8/functions/v1_0_0/FunctionsClient.sol\":2307:2315  response */\n      dup4\n        /* \"@chainlink/contracts@1.2.0/src/v0.8/functions/v1_0_0/FunctionsClient.sol\":2317:2320  err */\n      dup4\n        /* \"@chainlink/contracts@1.2.0/src/v0.8/functions/v1_0_0/FunctionsClient.sol\":2281:2295  fulfillRequest */\n      tag_74\n        /* \"@chainlink/contracts@1.2.0/src/v0.8/functions/v1_0_0/FunctionsClient.sol\":2281:2321  fulfillRequest(requestId, response, err) */\n      jump\t// in\n    tag_73:\n        /* \"@chainlink/contracts@1.2.0/src/v0.8/functions/v1_0_0/FunctionsClient.sol\":2349:2358  requestId */\n      dup3\n        /* \"@chainlink/contracts@1.2.0/src/v0.8/functions/v1_0_0/FunctionsClient.sol\":2332:2359  RequestFulfilled(requestId) */\n      0x85e1543bf2f84fe80c6badbce3648c8539ad1df4d2b3d822938ca0538be727e6\n      mload(0x40)\n      mload(0x40)\n      dup1\n      swap2\n      sub\n      swap1\n      log2\n        /* \"@chainlink/contracts@1.2.0/src/v0.8/functions/v1_0_0/FunctionsClient.sol\":2078:2364  function handleOracleFulfillment(bytes32 requestId, bytes memory response, bytes memory err) external override {... */\n      pop\n      pop\n      pop\n      jump\t// out\n        /* \"docs.chain.link/samples/ChainlinkFunctions/Storage.sol\":970:1050  function retrieve() public view returns (uint256) {... */\n    tag_25:\n        /* \"docs.chain.link/samples/ChainlinkFunctions/Storage.sol\":1011:1018  uint256 */\n      0x00\n        /* \"docs.chain.link/samples/ChainlinkFunctions/Storage.sol\":1037:1043  number */\n      sload(0x02)\n        /* \"docs.chain.link/samples/ChainlinkFunctions/Storage.sol\":1030:1043  return number */\n      swap1\n      pop\n        /* \"docs.chain.link/samples/ChainlinkFunctions/Storage.sol\":970:1050  function retrieve() public view returns (uint256) {... */\n      swap1\n      jump\t// out\n        /* \"docs.chain.link/samples/ChainlinkFunctions/Storage.sol\":609:636  bytes public s_lastResponse */\n    tag_29:\n      0x05\n      dup1\n      sload\n      tag_76\n      swap1\n      tag_77\n      jump\t// in\n    tag_76:\n      dup1\n      0x1f\n      add\n      0x20\n      dup1\n      swap2\n      div\n      mul\n      0x20\n      add\n      mload(0x40)\n      swap1\n      dup2\n      add\n      0x40\n      mstore\n      dup1\n      swap3\n      swap2\n      swap1\n      dup2\n      dup2\n      mstore\n      0x20\n      add\n      dup3\n      dup1\n      sload\n      tag_78\n      swap1\n      tag_77\n      jump\t// in\n    tag_78:\n      dup1\n      iszero\n      tag_79\n      jumpi\n      dup1\n      0x1f\n      lt\n      tag_80\n      jumpi\n      0x0100\n      dup1\n      dup4\n      sload\n      div\n      mul\n      dup4\n      mstore\n      swap2\n      0x20\n      add\n      swap2\n      jump(tag_79)\n    tag_80:\n      dup3\n      add\n      swap2\n      swap1\n      0x00\n      mstore\n      keccak256(0x00, 0x20)\n      swap1\n    tag_81:\n      dup2\n      sload\n      dup2\n      mstore\n      swap1\n      0x01\n      add\n      swap1\n      0x20\n      add\n      dup1\n      dup4\n      gt\n      tag_81\n      jumpi\n      dup3\n      swap1\n      sub\n      0x1f\n      and\n      dup3\n      add\n      swap2\n    tag_79:\n      pop\n      pop\n      pop\n      pop\n      pop\n      dup2\n      jump\t// out\n        /* \"docs.chain.link/samples/ChainlinkFunctions/Storage.sol\":642:666  bytes public s_lastError */\n    tag_33:\n      0x06\n      dup1\n      sload\n      tag_82\n      swap1\n      tag_77\n      jump\t// in\n    tag_82:\n      dup1\n      0x1f\n      add\n      0x20\n      dup1\n      swap2\n      div\n      mul\n      0x20\n      add\n      mload(0x40)\n      swap1\n      dup2\n      add\n      0x40\n      mstore\n      dup1\n      swap3\n      swap2\n      swap1\n      dup2\n      dup2\n      mstore\n      0x20\n      add\n      dup3\n      dup1\n      sload\n      tag_83\n      swap1\n      tag_77\n      jump\t// in\n    tag_83:\n      dup1\n      iszero\n      tag_84\n      jumpi\n      dup1\n      0x1f\n      lt\n      tag_85\n      jumpi\n      0x0100\n      dup1\n      dup4\n      sload\n      div\n      mul\n      dup4\n      mstore\n      swap2\n      0x20\n      add\n      swap2\n      jump(tag_84)\n    tag_85:\n      dup3\n      add\n      swap2\n      swap1\n      0x00\n      mstore\n      keccak256(0x00, 0x20)\n      swap1\n    tag_86:\n      dup2\n      sload\n      dup2\n      mstore\n      swap1\n      0x01\n      add\n      swap1\n      0x20\n      add\n      dup1\n      dup4\n      gt\n      tag_86\n      jumpi\n      dup3\n      swap1\n      sub\n      0x1f\n      and\n      dup3\n      add\n      swap2\n    tag_84:\n      pop\n      pop\n      pop\n      pop\n      pop\n      dup2\n      jump\t// out\n        /* \"docs.chain.link/samples/ChainlinkFunctions/Storage.sol\":1118:2182  function sendRequest(... */\n    tag_38:\n        /* \"docs.chain.link/samples/ChainlinkFunctions/Storage.sol\":1467:1484  bytes32 requestId */\n      0x00\n        /* \"@chainlink/contracts@1.2.0/src/v0.8/shared/access/ConfirmedOwnerWithProposal.sol\":2075:2095  _validateOwnership() */\n      tag_88\n        /* \"@chainlink/contracts@1.2.0/src/v0.8/shared/access/ConfirmedOwnerWithProposal.sol\":2075:2093  _validateOwnership */\n      tag_89\n        /* \"@chainlink/contracts@1.2.0/src/v0.8/shared/access/ConfirmedOwnerWithProposal.sol\":2075:2095  _validateOwnership() */\n      jump\t// in\n    tag_88:\n        /* \"docs.chain.link/samples/ChainlinkFunctions/Storage.sol\":1496:1531  FunctionsRequest.Request memory req */\n      tag_91\n      tag_92\n      jump\t// in\n    tag_91:\n        /* \"docs.chain.link/samples/ChainlinkFunctions/Storage.sol\":1541:1589  req.initializeRequestForInlineJavaScript(source) */\n      tag_93\n        /* \"docs.chain.link/samples/ChainlinkFunctions/Storage.sol\":1582:1588  source */\n      dup12\n        /* \"docs.chain.link/samples/ChainlinkFunctions/Storage.sol\":1541:1544  req */\n      dup3\n        /* \"docs.chain.link/samples/ChainlinkFunctions/Storage.sol\":1541:1581  req.initializeRequestForInlineJavaScript */\n      tag_94\n      swap1\n        /* \"docs.chain.link/samples/ChainlinkFunctions/Storage.sol\":1541:1589  req.initializeRequestForInlineJavaScript(source) */\n      swap2\n      swap1\n      0xffffffff\n      and\n      jump\t// in\n    tag_93:\n        /* \"docs.chain.link/samples/ChainlinkFunctions/Storage.sol\":1633:1634  0 */\n      0x00\n        /* \"docs.chain.link/samples/ChainlinkFunctions/Storage.sol\":1603:1623  encryptedSecretsUrls */\n      dup11\n        /* \"docs.chain.link/samples/ChainlinkFunctions/Storage.sol\":1603:1630  encryptedSecretsUrls.length */\n      mload\n        /* \"docs.chain.link/samples/ChainlinkFunctions/Storage.sol\":1603:1634  encryptedSecretsUrls.length > 0 */\n      gt\n        /* \"docs.chain.link/samples/ChainlinkFunctions/Storage.sol\":1599:1884  if (encryptedSecretsUrls.length > 0)... */\n      iszero\n      tag_95\n      jumpi\n        /* \"docs.chain.link/samples/ChainlinkFunctions/Storage.sol\":1648:1693  req.addSecretsReference(encryptedSecretsUrls) */\n      tag_96\n        /* \"docs.chain.link/samples/ChainlinkFunctions/Storage.sol\":1672:1692  encryptedSecretsUrls */\n      dup11\n        /* \"docs.chain.link/samples/ChainlinkFunctions/Storage.sol\":1648:1651  req */\n      dup3\n        /* \"docs.chain.link/samples/ChainlinkFunctions/Storage.sol\":1648:1671  req.addSecretsReference */\n      tag_97\n      swap1\n        /* \"docs.chain.link/samples/ChainlinkFunctions/Storage.sol\":1648:1693  req.addSecretsReference(encryptedSecretsUrls) */\n      swap2\n      swap1\n      0xffffffff\n      and\n      jump\t// in\n    tag_96:\n        /* \"docs.chain.link/samples/ChainlinkFunctions/Storage.sol\":1599:1884  if (encryptedSecretsUrls.length > 0)... */\n      jump(tag_98)\n    tag_95:\n        /* \"docs.chain.link/samples/ChainlinkFunctions/Storage.sol\":1738:1739  0 */\n      0x00\n        /* \"docs.chain.link/samples/ChainlinkFunctions/Storage.sol\":1712:1735  donHostedSecretsVersion */\n      dup9\n        /* \"docs.chain.link/samples/ChainlinkFunctions/Storage.sol\":1712:1739  donHostedSecretsVersion > 0 */\n      0xffffffffffffffff\n      and\n      gt\n        /* \"docs.chain.link/samples/ChainlinkFunctions/Storage.sol\":1708:1884  if (donHostedSecretsVersion > 0) {... */\n      iszero\n      tag_99\n      jumpi\n        /* \"docs.chain.link/samples/ChainlinkFunctions/Storage.sol\":1755:1873  req.addDONHostedSecrets(... */\n      tag_100\n        /* \"docs.chain.link/samples/ChainlinkFunctions/Storage.sol\":1796:1818  donHostedSecretsSlotID */\n      dup10\n        /* \"docs.chain.link/samples/ChainlinkFunctions/Storage.sol\":1836:1859  donHostedSecretsVersion */\n      dup10\n        /* \"docs.chain.link/samples/ChainlinkFunctions/Storage.sol\":1755:1758  req */\n      dup4\n        /* \"docs.chain.link/samples/ChainlinkFunctions/Storage.sol\":1755:1778  req.addDONHostedSecrets */\n      tag_101\n      swap1\n        /* \"docs.chain.link/samples/ChainlinkFunctions/Storage.sol\":1755:1873  req.addDONHostedSecrets(... */\n      swap3\n      swap2\n      swap1\n      0xffffffff\n      and\n      jump\t// in\n    tag_100:\n        /* \"docs.chain.link/samples/ChainlinkFunctions/Storage.sol\":1708:1884  if (donHostedSecretsVersion > 0) {... */\n    tag_99:\n        /* \"docs.chain.link/samples/ChainlinkFunctions/Storage.sol\":1599:1884  if (encryptedSecretsUrls.length > 0)... */\n    tag_98:\n        /* \"docs.chain.link/samples/ChainlinkFunctions/Storage.sol\":1911:1912  0 */\n      0x00\n        /* \"docs.chain.link/samples/ChainlinkFunctions/Storage.sol\":1897:1901  args */\n      dup8\n        /* \"docs.chain.link/samples/ChainlinkFunctions/Storage.sol\":1897:1908  args.length */\n      mload\n        /* \"docs.chain.link/samples/ChainlinkFunctions/Storage.sol\":1897:1912  args.length > 0 */\n      gt\n        /* \"docs.chain.link/samples/ChainlinkFunctions/Storage.sol\":1893:1931  if (args.length > 0) req.setArgs(args) */\n      iszero\n      tag_102\n      jumpi\n        /* \"docs.chain.link/samples/ChainlinkFunctions/Storage.sol\":1914:1931  req.setArgs(args) */\n      tag_103\n        /* \"docs.chain.link/samples/ChainlinkFunctions/Storage.sol\":1926:1930  args */\n      dup8\n        /* \"docs.chain.link/samples/ChainlinkFunctions/Storage.sol\":1914:1917  req */\n      dup3\n        /* \"docs.chain.link/samples/ChainlinkFunctions/Storage.sol\":1914:1925  req.setArgs */\n      tag_104\n      swap1\n        /* \"docs.chain.link/samples/ChainlinkFunctions/Storage.sol\":1914:1931  req.setArgs(args) */\n      swap2\n      swap1\n      0xffffffff\n      and\n      jump\t// in\n    tag_103:\n        /* \"docs.chain.link/samples/ChainlinkFunctions/Storage.sol\":1893:1931  if (args.length > 0) req.setArgs(args) */\n    tag_102:\n        /* \"docs.chain.link/samples/ChainlinkFunctions/Storage.sol\":1964:1965  0 */\n      0x00\n        /* \"docs.chain.link/samples/ChainlinkFunctions/Storage.sol\":1945:1954  bytesArgs */\n      dup7\n        /* \"docs.chain.link/samples/ChainlinkFunctions/Storage.sol\":1945:1961  bytesArgs.length */\n      mload\n        /* \"docs.chain.link/samples/ChainlinkFunctions/Storage.sol\":1945:1965  bytesArgs.length > 0 */\n      gt\n        /* \"docs.chain.link/samples/ChainlinkFunctions/Storage.sol\":1941:1994  if (bytesArgs.length > 0) req.setBytesArgs(bytesArgs) */\n      iszero\n      tag_105\n      jumpi\n        /* \"docs.chain.link/samples/ChainlinkFunctions/Storage.sol\":1967:1994  req.setBytesArgs(bytesArgs) */\n      tag_106\n        /* \"docs.chain.link/samples/ChainlinkFunctions/Storage.sol\":1984:1993  bytesArgs */\n      dup7\n        /* \"docs.chain.link/samples/ChainlinkFunctions/Storage.sol\":1967:1970  req */\n      dup3\n        /* \"docs.chain.link/samples/ChainlinkFunctions/Storage.sol\":1967:1983  req.setBytesArgs */\n      tag_107\n      swap1\n        /* \"docs.chain.link/samples/ChainlinkFunctions/Storage.sol\":1967:1994  req.setBytesArgs(bytesArgs) */\n      swap2\n      swap1\n      0xffffffff\n      and\n      jump\t// in\n    tag_106:\n        /* \"docs.chain.link/samples/ChainlinkFunctions/Storage.sol\":1941:1994  if (bytesArgs.length > 0) req.setBytesArgs(bytesArgs) */\n    tag_105:\n        /* \"docs.chain.link/samples/ChainlinkFunctions/Storage.sol\":2022:2143  _sendRequest(... */\n      tag_108\n        /* \"docs.chain.link/samples/ChainlinkFunctions/Storage.sol\":2048:2064  req.encodeCBOR() */\n      tag_109\n        /* \"docs.chain.link/samples/ChainlinkFunctions/Storage.sol\":2048:2051  req */\n      dup3\n        /* \"docs.chain.link/samples/ChainlinkFunctions/Storage.sol\":2048:2062  req.encodeCBOR */\n      tag_110\n        /* \"docs.chain.link/samples/ChainlinkFunctions/Storage.sol\":2048:2064  req.encodeCBOR() */\n      jump\t// in\n    tag_109:\n        /* \"docs.chain.link/samples/ChainlinkFunctions/Storage.sol\":2078:2092  subscriptionId */\n      dup7\n        /* \"docs.chain.link/samples/ChainlinkFunctions/Storage.sol\":2106:2114  gasLimit */\n      dup7\n        /* \"docs.chain.link/samples/ChainlinkFunctions/Storage.sol\":2128:2133  donID */\n      dup7\n        /* \"docs.chain.link/samples/ChainlinkFunctions/Storage.sol\":2022:2034  _sendRequest */\n      tag_111\n        /* \"docs.chain.link/samples/ChainlinkFunctions/Storage.sol\":2022:2143  _sendRequest(... */\n      jump\t// in\n    tag_108:\n        /* \"docs.chain.link/samples/ChainlinkFunctions/Storage.sol\":2004:2019  s_lastRequestId */\n      0x04\n        /* \"docs.chain.link/samples/ChainlinkFunctions/Storage.sol\":2004:2143  s_lastRequestId = _sendRequest(... */\n      dup2\n      swap1\n      sstore\n      pop\n        /* \"docs.chain.link/samples/ChainlinkFunctions/Storage.sol\":2160:2175  s_lastRequestId */\n      sload(0x04)\n        /* \"docs.chain.link/samples/ChainlinkFunctions/Storage.sol\":2153:2175  return s_lastRequestId */\n      swap2\n      pop\n      pop\n        /* \"docs.chain.link/samples/ChainlinkFunctions/Storage.sol\":1118:2182  function sendRequest(... */\n      swap10\n      swap9\n      pop\n      pop\n      pop\n      pop\n      pop\n      pop\n      pop\n      pop\n      pop\n      jump\t// out\n        /* \"docs.chain.link/samples/ChainlinkFunctions/Storage.sol\":900:964  function store(uint256 num) public {... */\n    tag_44:\n        /* \"docs.chain.link/samples/ChainlinkFunctions/Storage.sol\":954:957  num */\n      dup1\n        /* \"docs.chain.link/samples/ChainlinkFunctions/Storage.sol\":945:951  number */\n      0x02\n        /* \"docs.chain.link/samples/ChainlinkFunctions/Storage.sol\":945:957  number = num */\n      dup2\n      swap1\n      sstore\n      pop\n        /* \"docs.chain.link/samples/ChainlinkFunctions/Storage.sol\":900:964  function store(uint256 num) public {... */\n      pop\n      jump\t// out\n        /* \"docs.chain.link/samples/ChainlinkFunctions/Storage.sol\":540:566  uint256 public counter = 0 */\n    tag_46:\n      sload(0x03)\n      dup2\n      jump\t// out\n        /* \"@chainlink/contracts@1.2.0/src/v0.8/shared/access/ConfirmedOwnerWithProposal.sol\":1026:1342  function acceptOwnership() external override {... */\n    tag_49:\n        /* \"@chainlink/contracts@1.2.0/src/v0.8/shared/access/ConfirmedOwnerWithProposal.sol\":1150:1164  s_pendingOwner */\n      0x01\n      0x00\n      swap1\n      sload\n      swap1\n      0x0100\n      exp\n      swap1\n      div\n      0xffffffffffffffffffffffffffffffffffffffff\n      and\n        /* \"@chainlink/contracts@1.2.0/src/v0.8/shared/access/ConfirmedOwnerWithProposal.sol\":1136:1164  msg.sender == s_pendingOwner */\n      0xffffffffffffffffffffffffffffffffffffffff\n      and\n        /* \"@chainlink/contracts@1.2.0/src/v0.8/shared/access/ConfirmedOwnerWithProposal.sol\":1136:1146  msg.sender */\n      caller\n        /* \"@chainlink/contracts@1.2.0/src/v0.8/shared/access/ConfirmedOwnerWithProposal.sol\":1136:1164  msg.sender == s_pendingOwner */\n      0xffffffffffffffffffffffffffffffffffffffff\n      and\n      eq\n        /* \"@chainlink/contracts@1.2.0/src/v0.8/shared/access/ConfirmedOwnerWithProposal.sol\":1128:1191  require(msg.sender == s_pendingOwner, \"Must be proposed owner\") */\n      tag_114\n      jumpi\n      mload(0x40)\n      0x08c379a000000000000000000000000000000000000000000000000000000000\n      dup2\n      mstore\n      0x04\n      add\n      tag_115\n      swap1\n      tag_116\n      jump\t// in\n    tag_115:\n      mload(0x40)\n      dup1\n      swap2\n      sub\n      swap1\n      revert\n    tag_114:\n        /* \"@chainlink/contracts@1.2.0/src/v0.8/shared/access/ConfirmedOwnerWithProposal.sol\":1198:1214  address oldOwner */\n      0x00\n        /* \"@chainlink/contracts@1.2.0/src/v0.8/shared/access/ConfirmedOwnerWithProposal.sol\":1217:1224  s_owner */\n      dup1\n      0x00\n      swap1\n      sload\n      swap1\n      0x0100\n      exp\n      swap1\n      div\n      0xffffffffffffffffffffffffffffffffffffffff\n      and\n        /* \"@chainlink/contracts@1.2.0/src/v0.8/shared/access/ConfirmedOwnerWithProposal.sol\":1198:1224  address oldOwner = s_owner */\n      swap1\n      pop\n        /* \"@chainlink/contracts@1.2.0/src/v0.8/shared/access/ConfirmedOwnerWithProposal.sol\":1240:1250  msg.sender */\n      caller\n        /* \"@chainlink/contracts@1.2.0/src/v0.8/shared/access/ConfirmedOwnerWithProposal.sol\":1230:1237  s_owner */\n      0x00\n      dup1\n        /* \"@chainlink/contracts@1.2.0/src/v0.8/shared/access/ConfirmedOwnerWithProposal.sol\":1230:1250  s_owner = msg.sender */\n      0x0100\n      exp\n      dup2\n      sload\n      dup2\n      0xffffffffffffffffffffffffffffffffffffffff\n      mul\n      not\n      and\n      swap1\n      dup4\n      0xffffffffffffffffffffffffffffffffffffffff\n      and\n      mul\n      or\n      swap1\n      sstore\n      pop\n        /* \"@chainlink/contracts@1.2.0/src/v0.8/shared/access/ConfirmedOwnerWithProposal.sol\":1281:1282  0 */\n      0x00\n        /* \"@chainlink/contracts@1.2.0/src/v0.8/shared/access/ConfirmedOwnerWithProposal.sol\":1256:1270  s_pendingOwner */\n      0x01\n      0x00\n        /* \"@chainlink/contracts@1.2.0/src/v0.8/shared/access/ConfirmedOwnerWithProposal.sol\":1256:1283  s_pendingOwner = address(0) */\n      0x0100\n      exp\n      dup2\n      sload\n      dup2\n      0xffffffffffffffffffffffffffffffffffffffff\n      mul\n      not\n      and\n      swap1\n      dup4\n      0xffffffffffffffffffffffffffffffffffffffff\n      and\n      mul\n      or\n      swap1\n      sstore\n      pop\n        /* \"@chainlink/contracts@1.2.0/src/v0.8/shared/access/ConfirmedOwnerWithProposal.sol\":1326:1336  msg.sender */\n      caller\n        /* \"@chainlink/contracts@1.2.0/src/v0.8/shared/access/ConfirmedOwnerWithProposal.sol\":1295:1337  OwnershipTransferred(oldOwner, msg.sender) */\n      0xffffffffffffffffffffffffffffffffffffffff\n      and\n        /* \"@chainlink/contracts@1.2.0/src/v0.8/shared/access/ConfirmedOwnerWithProposal.sol\":1316:1324  oldOwner */\n      dup2\n        /* \"@chainlink/contracts@1.2.0/src/v0.8/shared/access/ConfirmedOwnerWithProposal.sol\":1295:1337  OwnershipTransferred(oldOwner, msg.sender) */\n      0xffffffffffffffffffffffffffffffffffffffff\n      and\n      0x8be0079c531659141344cd1fd0a4f28419497f9722a3daafe3b4186f6b6457e0\n      mload(0x40)\n      mload(0x40)\n      dup1\n      swap2\n      sub\n      swap1\n      log3\n        /* \"@chainlink/contracts@1.2.0/src/v0.8/shared/access/ConfirmedOwnerWithProposal.sol\":1071:1342  {... */\n      pop\n        /* \"@chainlink/contracts@1.2.0/src/v0.8/shared/access/ConfirmedOwnerWithProposal.sol\":1026:1342  function acceptOwnership() external override {... */\n      jump\t// out\n        /* \"docs.chain.link/samples/ChainlinkFunctions/Storage.sol\":513:534  uint256 public number */\n    tag_51:\n      sload(0x02)\n      dup2\n      jump\t// out\n        /* \"@chainlink/contracts@1.2.0/src/v0.8/shared/access/ConfirmedOwnerWithProposal.sol\":1382:1463  function owner() public view override returns (address) {... */\n    tag_54:\n        /* \"@chainlink/contracts@1.2.0/src/v0.8/shared/access/ConfirmedOwnerWithProposal.sol\":1429:1436  address */\n      0x00\n        /* \"@chainlink/contracts@1.2.0/src/v0.8/shared/access/ConfirmedOwnerWithProposal.sol\":1451:1458  s_owner */\n      dup1\n      0x00\n      swap1\n      sload\n      swap1\n      0x0100\n      exp\n      swap1\n      div\n      0xffffffffffffffffffffffffffffffffffffffff\n      and\n        /* \"@chainlink/contracts@1.2.0/src/v0.8/shared/access/ConfirmedOwnerWithProposal.sol\":1444:1458  return s_owner */\n      swap1\n      pop\n        /* \"@chainlink/contracts@1.2.0/src/v0.8/shared/access/ConfirmedOwnerWithProposal.sol\":1382:1463  function owner() public view override returns (address) {... */\n      swap1\n      jump\t// out\n        /* \"docs.chain.link/samples/ChainlinkFunctions/Storage.sol\":2188:2554  function sendRequestCBOR(... */\n    tag_60:\n        /* \"docs.chain.link/samples/ChainlinkFunctions/Storage.sol\":2356:2373  bytes32 requestId */\n      0x00\n        /* \"@chainlink/contracts@1.2.0/src/v0.8/shared/access/ConfirmedOwnerWithProposal.sol\":2075:2095  _validateOwnership() */\n      tag_119\n        /* \"@chainlink/contracts@1.2.0/src/v0.8/shared/access/ConfirmedOwnerWithProposal.sol\":2075:2093  _validateOwnership */\n      tag_89\n        /* \"@chainlink/contracts@1.2.0/src/v0.8/shared/access/ConfirmedOwnerWithProposal.sol\":2075:2095  _validateOwnership() */\n      jump\t// in\n    tag_119:\n        /* \"docs.chain.link/samples/ChainlinkFunctions/Storage.sol\":2403:2515  _sendRequest(... */\n      tag_121\n        /* \"docs.chain.link/samples/ChainlinkFunctions/Storage.sol\":2429:2436  request */\n      dup6\n        /* \"docs.chain.link/samples/ChainlinkFunctions/Storage.sol\":2450:2464  subscriptionId */\n      dup6\n        /* \"docs.chain.link/samples/ChainlinkFunctions/Storage.sol\":2478:2486  gasLimit */\n      dup6\n        /* \"docs.chain.link/samples/ChainlinkFunctions/Storage.sol\":2500:2505  donID */\n      dup6\n        /* \"docs.chain.link/samples/ChainlinkFunctions/Storage.sol\":2403:2415  _sendRequest */\n      tag_111\n        /* \"docs.chain.link/samples/ChainlinkFunctions/Storage.sol\":2403:2515  _sendRequest(... */\n      jump\t// in\n    tag_121:\n        /* \"docs.chain.link/samples/ChainlinkFunctions/Storage.sol\":2385:2400  s_lastRequestId */\n      0x04\n        /* \"docs.chain.link/samples/ChainlinkFunctions/Storage.sol\":2385:2515  s_lastRequestId = _sendRequest(... */\n      dup2\n      swap1\n      sstore\n      pop\n        /* \"docs.chain.link/samples/ChainlinkFunctions/Storage.sol\":2532:2547  s_lastRequestId */\n      sload(0x04)\n        /* \"docs.chain.link/samples/ChainlinkFunctions/Storage.sol\":2525:2547  return s_lastRequestId */\n      swap1\n      pop\n        /* \"docs.chain.link/samples/ChainlinkFunctions/Storage.sol\":2188:2554  function sendRequestCBOR(... */\n      swap5\n      swap4\n      pop\n      pop\n      pop\n      pop\n      jump\t// out\n        /* \"docs.chain.link/samples/ChainlinkFunctions/Storage.sol\":573:603  bytes32 public s_lastRequestId */\n    tag_63:\n      sload(0x04)\n      dup2\n      jump\t// out\n        /* \"docs.chain.link/samples/ChainlinkFunctions/Storage.sol\":1056:1112  function increment() external {... */\n    tag_66:\n        /* \"docs.chain.link/samples/ChainlinkFunctions/Storage.sol\":1096:1103  counter */\n      0x03\n      0x00\n        /* \"docs.chain.link/samples/ChainlinkFunctions/Storage.sol\":1096:1105  counter++ */\n      dup2\n      sload\n      dup1\n      swap3\n      swap2\n      swap1\n      tag_123\n      swap1\n      tag_124\n      jump\t// in\n    tag_123:\n      swap2\n      swap1\n      pop\n      sstore\n      pop\n        /* \"docs.chain.link/samples/ChainlinkFunctions/Storage.sol\":1056:1112  function increment() external {... */\n      jump\t// out\n        /* \"@chainlink/contracts@1.2.0/src/v0.8/shared/access/ConfirmedOwnerWithProposal.sol\":847:945  function transferOwnership(address to) public override onlyOwner {... */\n    tag_70:\n        /* \"@chainlink/contracts@1.2.0/src/v0.8/shared/access/ConfirmedOwnerWithProposal.sol\":2075:2095  _validateOwnership() */\n      tag_126\n        /* \"@chainlink/contracts@1.2.0/src/v0.8/shared/access/ConfirmedOwnerWithProposal.sol\":2075:2093  _validateOwnership */\n      tag_89\n        /* \"@chainlink/contracts@1.2.0/src/v0.8/shared/access/ConfirmedOwnerWithProposal.sol\":2075:2095  _validateOwnership() */\n      jump\t// in\n    tag_126:\n        /* \"@chainlink/contracts@1.2.0/src/v0.8/shared/access/ConfirmedOwnerWithProposal.sol\":918:940  _transferOwnership(to) */\n      tag_128\n        /* \"@chainlink/contracts@1.2.0/src/v0.8/shared/access/ConfirmedOwnerWithProposal.sol\":937:939  to */\n      dup2\n        /* \"@chainlink/contracts@1.2.0/src/v0.8/shared/access/ConfirmedOwnerWithProposal.sol\":918:936  _transferOwnership */\n      tag_129\n        /* \"@chainlink/contracts@1.2.0/src/v0.8/shared/access/ConfirmedOwnerWithProposal.sol\":918:940  _transferOwnership(to) */\n      jump\t// in\n    tag_128:\n        /* \"@chainlink/contracts@1.2.0/src/v0.8/shared/access/ConfirmedOwnerWithProposal.sol\":847:945  function transferOwnership(address to) public override onlyOwner {... */\n      pop\n      jump\t// out\n        /* \"docs.chain.link/samples/ChainlinkFunctions/Storage.sol\":2560:2929  function fulfillRequest(... */\n    tag_74:\n        /* \"docs.chain.link/samples/ChainlinkFunctions/Storage.sol\":2725:2734  requestId */\n      dup3\n        /* \"docs.chain.link/samples/ChainlinkFunctions/Storage.sol\":2706:2721  s_lastRequestId */\n      sload(0x04)\n        /* \"docs.chain.link/samples/ChainlinkFunctions/Storage.sol\":2706:2734  s_lastRequestId != requestId */\n      eq\n        /* \"docs.chain.link/samples/ChainlinkFunctions/Storage.sol\":2702:2798  if (s_lastRequestId != requestId) {... */\n      tag_131\n      jumpi\n        /* \"docs.chain.link/samples/ChainlinkFunctions/Storage.sol\":2777:2786  requestId */\n      dup3\n        /* \"docs.chain.link/samples/ChainlinkFunctions/Storage.sol\":2757:2787  UnexpectedRequestID(requestId) */\n      mload(0x40)\n      0xd068bf5b00000000000000000000000000000000000000000000000000000000\n      dup2\n      mstore\n      0x04\n      add\n      tag_132\n      swap2\n      swap1\n      tag_40\n      jump\t// in\n    tag_132:\n      mload(0x40)\n      dup1\n      swap2\n      sub\n      swap1\n      revert\n        /* \"docs.chain.link/samples/ChainlinkFunctions/Storage.sol\":2702:2798  if (s_lastRequestId != requestId) {... */\n    tag_131:\n        /* \"docs.chain.link/samples/ChainlinkFunctions/Storage.sol\":2824:2832  response */\n      dup2\n        /* \"docs.chain.link/samples/ChainlinkFunctions/Storage.sol\":2807:2821  s_lastResponse */\n      0x05\n        /* \"docs.chain.link/samples/ChainlinkFunctions/Storage.sol\":2807:2832  s_lastResponse = response */\n      swap1\n      dup2\n      tag_133\n      swap2\n      swap1\n      tag_134\n      jump\t// in\n    tag_133:\n      pop\n        /* \"docs.chain.link/samples/ChainlinkFunctions/Storage.sol\":2856:2859  err */\n      dup1\n        /* \"docs.chain.link/samples/ChainlinkFunctions/Storage.sol\":2842:2853  s_lastError */\n      0x06\n        /* \"docs.chain.link/samples/ChainlinkFunctions/Storage.sol\":2842:2859  s_lastError = err */\n      swap1\n      dup2\n      tag_135\n      swap2\n      swap1\n      tag_134\n      jump\t// in\n    tag_135:\n      pop\n        /* \"docs.chain.link/samples/ChainlinkFunctions/Storage.sol\":2883:2892  requestId */\n      dup3\n        /* \"docs.chain.link/samples/ChainlinkFunctions/Storage.sol\":2874:2922  Response(requestId, s_lastResponse, s_lastError) */\n      0x7873807bf6ddc50401cd3d29bbe0decee23fd4d68d273f4b5eb83cded4d2f172\n        /* \"docs.chain.link/samples/ChainlinkFunctions/Storage.sol\":2894:2908  s_lastResponse */\n      0x05\n        /* \"docs.chain.link/samples/ChainlinkFunctions/Storage.sol\":2910:2921  s_lastError */\n      0x06\n        /* \"docs.chain.link/samples/ChainlinkFunctions/Storage.sol\":2874:2922  Response(requestId, s_lastResponse, s_lastError) */\n      mload(0x40)\n      tag_136\n      swap3\n      swap2\n      swap1\n      tag_137\n      jump\t// in\n    tag_136:\n      mload(0x40)\n      dup1\n      swap2\n      sub\n      swap1\n      log2\n        /* \"docs.chain.link/samples/ChainlinkFunctions/Storage.sol\":2560:2929  function fulfillRequest(... */\n      pop\n      pop\n      pop\n      jump\t// out\n        /* \"@chainlink/contracts@1.2.0/src/v0.8/shared/access/ConfirmedOwnerWithProposal.sol\":1809:1971  function _validateOwnership() internal view {... */\n    tag_89:\n        /* \"@chainlink/contracts@1.2.0/src/v0.8/shared/access/ConfirmedOwnerWithProposal.sol\":1932:1939  s_owner */\n      0x00\n      dup1\n      sload\n      swap1\n      0x0100\n      exp\n      swap1\n      div\n      0xffffffffffffffffffffffffffffffffffffffff\n      and\n        /* \"@chainlink/contracts@1.2.0/src/v0.8/shared/access/ConfirmedOwnerWithProposal.sol\":1918:1939  msg.sender == s_owner */\n      0xffffffffffffffffffffffffffffffffffffffff\n      and\n        /* \"@chainlink/contracts@1.2.0/src/v0.8/shared/access/ConfirmedOwnerWithProposal.sol\":1918:1928  msg.sender */\n      caller\n        /* \"@chainlink/contracts@1.2.0/src/v0.8/shared/access/ConfirmedOwnerWithProposal.sol\":1918:1939  msg.sender == s_owner */\n      0xffffffffffffffffffffffffffffffffffffffff\n      and\n      eq\n        /* \"@chainlink/contracts@1.2.0/src/v0.8/shared/access/ConfirmedOwnerWithProposal.sol\":1910:1966  require(msg.sender == s_owner, \"Only callable by owner\") */\n      tag_139\n      jumpi\n      mload(0x40)\n      0x08c379a000000000000000000000000000000000000000000000000000000000\n      dup2\n      mstore\n      0x04\n      add\n      tag_140\n      swap1\n      tag_141\n      jump\t// in\n    tag_140:\n      mload(0x40)\n      dup1\n      swap2\n      sub\n      swap1\n      revert\n    tag_139:\n        /* \"@chainlink/contracts@1.2.0/src/v0.8/shared/access/ConfirmedOwnerWithProposal.sol\":1809:1971  function _validateOwnership() internal view {... */\n      jump\t// out\n        /* \"@chainlink/contracts@1.2.0/src/v0.8/functions/v1_0_0/libraries/FunctionsRequest.sol\":4323:4530  function initializeRequestForInlineJavaScript(Request memory self, string memory javaScriptSource) internal pure {... */\n    tag_94:\n        /* \"@chainlink/contracts@1.2.0/src/v0.8/functions/v1_0_0/libraries/FunctionsRequest.sol\":4442:4525  initializeRequest(self, Location.Inline, CodeLanguage.JavaScript, javaScriptSource) */\n      tag_143\n        /* \"@chainlink/contracts@1.2.0/src/v0.8/functions/v1_0_0/libraries/FunctionsRequest.sol\":4460:4464  self */\n      dup3\n        /* \"@chainlink/contracts@1.2.0/src/v0.8/functions/v1_0_0/libraries/FunctionsRequest.sol\":4466:4481  Location.Inline */\n      0x00\n        /* \"@chainlink/contracts@1.2.0/src/v0.8/functions/v1_0_0/libraries/FunctionsRequest.sol\":4483:4506  CodeLanguage.JavaScript */\n      dup1\n        /* \"@chainlink/contracts@1.2.0/src/v0.8/functions/v1_0_0/libraries/FunctionsRequest.sol\":4508:4524  javaScriptSource */\n      dup5\n        /* \"@chainlink/contracts@1.2.0/src/v0.8/functions/v1_0_0/libraries/FunctionsRequest.sol\":4442:4459  initializeRequest */\n      tag_144\n        /* \"@chainlink/contracts@1.2.0/src/v0.8/functions/v1_0_0/libraries/FunctionsRequest.sol\":4442:4525  initializeRequest(self, Location.Inline, CodeLanguage.JavaScript, javaScriptSource) */\n      jump\t// in\n    tag_143:\n        /* \"@chainlink/contracts@1.2.0/src/v0.8/functions/v1_0_0/libraries/FunctionsRequest.sol\":4323:4530  function initializeRequestForInlineJavaScript(Request memory self, string memory javaScriptSource) internal pure {... */\n      pop\n      pop\n      jump\t// out\n        /* \"@chainlink/contracts@1.2.0/src/v0.8/functions/v1_0_0/libraries/FunctionsRequest.sol\":4748:5036  function addSecretsReference(Request memory self, bytes memory encryptedSecretsReference) internal pure {... */\n    tag_97:\n        /* \"@chainlink/contracts@1.2.0/src/v0.8/functions/v1_0_0/libraries/FunctionsRequest.sol\":4898:4899  0 */\n      0x00\n        /* \"@chainlink/contracts@1.2.0/src/v0.8/functions/v1_0_0/libraries/FunctionsRequest.sol\":4862:4887  encryptedSecretsReference */\n      dup2\n        /* \"@chainlink/contracts@1.2.0/src/v0.8/functions/v1_0_0/libraries/FunctionsRequest.sol\":4862:4894  encryptedSecretsReference.length */\n      mload\n        /* \"@chainlink/contracts@1.2.0/src/v0.8/functions/v1_0_0/libraries/FunctionsRequest.sol\":4862:4899  encryptedSecretsReference.length == 0 */\n      sub\n        /* \"@chainlink/contracts@1.2.0/src/v0.8/functions/v1_0_0/libraries/FunctionsRequest.sol\":4858:4922  if (encryptedSecretsReference.length == 0) revert EmptySecrets() */\n      tag_146\n      jumpi\n        /* \"@chainlink/contracts@1.2.0/src/v0.8/functions/v1_0_0/libraries/FunctionsRequest.sol\":4908:4922  EmptySecrets() */\n      mload(0x40)\n      0xe889636f00000000000000000000000000000000000000000000000000000000\n      dup2\n      mstore\n      0x04\n      add\n      mload(0x40)\n      dup1\n      swap2\n      sub\n      swap1\n      revert\n        /* \"@chainlink/contracts@1.2.0/src/v0.8/functions/v1_0_0/libraries/FunctionsRequest.sol\":4858:4922  if (encryptedSecretsReference.length == 0) revert EmptySecrets() */\n    tag_146:\n        /* \"@chainlink/contracts@1.2.0/src/v0.8/functions/v1_0_0/libraries/FunctionsRequest.sol\":4952:4967  Location.Remote */\n      0x01\n        /* \"@chainlink/contracts@1.2.0/src/v0.8/functions/v1_0_0/libraries/FunctionsRequest.sol\":4929:4933  self */\n      dup3\n        /* \"@chainlink/contracts@1.2.0/src/v0.8/functions/v1_0_0/libraries/FunctionsRequest.sol\":4929:4949  self.secretsLocation */\n      0x20\n      add\n        /* \"@chainlink/contracts@1.2.0/src/v0.8/functions/v1_0_0/libraries/FunctionsRequest.sol\":4929:4967  self.secretsLocation = Location.Remote */\n      swap1\n      0x02\n      dup2\n      gt\n      iszero\n      tag_147\n      jumpi\n      tag_148\n      tag_149\n      jump\t// in\n    tag_148:\n    tag_147:\n      swap1\n      dup2\n      0x02\n      dup2\n      gt\n      iszero\n      tag_150\n      jumpi\n      tag_151\n      tag_149\n      jump\t// in\n    tag_151:\n    tag_150:\n      dup2\n      mstore\n      pop\n      pop\n        /* \"@chainlink/contracts@1.2.0/src/v0.8/functions/v1_0_0/libraries/FunctionsRequest.sol\":5006:5031  encryptedSecretsReference */\n      dup1\n        /* \"@chainlink/contracts@1.2.0/src/v0.8/functions/v1_0_0/libraries/FunctionsRequest.sol\":4973:4977  self */\n      dup3\n        /* \"@chainlink/contracts@1.2.0/src/v0.8/functions/v1_0_0/libraries/FunctionsRequest.sol\":4973:5003  self.encryptedSecretsReference */\n      0x80\n      add\n        /* \"@chainlink/contracts@1.2.0/src/v0.8/functions/v1_0_0/libraries/FunctionsRequest.sol\":4973:5031  self.encryptedSecretsReference = encryptedSecretsReference */\n      dup2\n      swap1\n      mstore\n      pop\n        /* \"@chainlink/contracts@1.2.0/src/v0.8/functions/v1_0_0/libraries/FunctionsRequest.sol\":4748:5036  function addSecretsReference(Request memory self, bytes memory encryptedSecretsReference) internal pure {... */\n      pop\n      pop\n      jump\t// out\n        /* \"@chainlink/contracts@1.2.0/src/v0.8/functions/v1_0_0/libraries/FunctionsRequest.sol\":5263:5668  function addDONHostedSecrets(Request memory self, uint8 slotID, uint64 version) internal pure {... */\n    tag_101:\n        /* \"@chainlink/contracts@1.2.0/src/v0.8/functions/v1_0_0/libraries/FunctionsRequest.sol\":5363:5392  CBOR.CBORBuffer memory buffer */\n      0x00\n        /* \"@chainlink/contracts@1.2.0/src/v0.8/functions/v1_0_0/libraries/FunctionsRequest.sol\":5395:5427  CBOR.create(DEFAULT_BUFFER_SIZE) */\n      tag_153\n        /* \"@chainlink/contracts@1.2.0/src/v0.8/functions/v1_0_0/libraries/FunctionsRequest.sol\":375:378  256 */\n      0x0100\n        /* \"@chainlink/contracts@1.2.0/src/v0.8/functions/v1_0_0/libraries/FunctionsRequest.sol\":5395:5406  CBOR.create */\n      tag_154\n        /* \"@chainlink/contracts@1.2.0/src/v0.8/functions/v1_0_0/libraries/FunctionsRequest.sol\":5395:5427  CBOR.create(DEFAULT_BUFFER_SIZE) */\n      jump\t// in\n    tag_153:\n        /* \"@chainlink/contracts@1.2.0/src/v0.8/functions/v1_0_0/libraries/FunctionsRequest.sol\":5363:5427  CBOR.CBORBuffer memory buffer = CBOR.create(DEFAULT_BUFFER_SIZE) */\n      swap1\n      pop\n        /* \"@chainlink/contracts@1.2.0/src/v0.8/functions/v1_0_0/libraries/FunctionsRequest.sol\":5434:5462  buffer.writeString(\"slotID\") */\n      tag_155\n      mload(0x40)\n      dup1\n      0x40\n      add\n      0x40\n      mstore\n      dup1\n      0x06\n      dup2\n      mstore\n      0x20\n      add\n      0x736c6f7449440000000000000000000000000000000000000000000000000000\n      dup2\n      mstore\n      pop\n        /* \"@chainlink/contracts@1.2.0/src/v0.8/functions/v1_0_0/libraries/FunctionsRequest.sol\":5434:5440  buffer */\n      dup3\n        /* \"@chainlink/contracts@1.2.0/src/v0.8/functions/v1_0_0/libraries/FunctionsRequest.sol\":5434:5452  buffer.writeString */\n      tag_156\n      swap1\n        /* \"@chainlink/contracts@1.2.0/src/v0.8/functions/v1_0_0/libraries/FunctionsRequest.sol\":5434:5462  buffer.writeString(\"slotID\") */\n      swap2\n      swap1\n      0xffffffff\n      and\n      jump\t// in\n    tag_155:\n        /* \"@chainlink/contracts@1.2.0/src/v0.8/functions/v1_0_0/libraries/FunctionsRequest.sol\":5468:5494  buffer.writeUInt64(slotID) */\n      tag_157\n        /* \"@chainlink/contracts@1.2.0/src/v0.8/functions/v1_0_0/libraries/FunctionsRequest.sol\":5487:5493  slotID */\n      dup4\n        /* \"@chainlink/contracts@1.2.0/src/v0.8/functions/v1_0_0/libraries/FunctionsRequest.sol\":5468:5494  buffer.writeUInt64(slotID) */\n      0xff\n      and\n        /* \"@chainlink/contracts@1.2.0/src/v0.8/functions/v1_0_0/libraries/FunctionsRequest.sol\":5468:5474  buffer */\n      dup3\n        /* \"@chainlink/contracts@1.2.0/src/v0.8/functions/v1_0_0/libraries/FunctionsRequest.sol\":5468:5486  buffer.writeUInt64 */\n      tag_158\n      swap1\n        /* \"@chainlink/contracts@1.2.0/src/v0.8/functions/v1_0_0/libraries/FunctionsRequest.sol\":5468:5494  buffer.writeUInt64(slotID) */\n      swap2\n      swap1\n      0xffffffff\n      and\n      jump\t// in\n    tag_157:\n        /* \"@chainlink/contracts@1.2.0/src/v0.8/functions/v1_0_0/libraries/FunctionsRequest.sol\":5500:5529  buffer.writeString(\"version\") */\n      tag_159\n      mload(0x40)\n      dup1\n      0x40\n      add\n      0x40\n      mstore\n      dup1\n      0x07\n      dup2\n      mstore\n      0x20\n      add\n      0x76657273696f6e00000000000000000000000000000000000000000000000000\n      dup2\n      mstore\n      pop\n        /* \"@chainlink/contracts@1.2.0/src/v0.8/functions/v1_0_0/libraries/FunctionsRequest.sol\":5500:5506  buffer */\n      dup3\n        /* \"@chainlink/contracts@1.2.0/src/v0.8/functions/v1_0_0/libraries/FunctionsRequest.sol\":5500:5518  buffer.writeString */\n      tag_156\n      swap1\n        /* \"@chainlink/contracts@1.2.0/src/v0.8/functions/v1_0_0/libraries/FunctionsRequest.sol\":5500:5529  buffer.writeString(\"version\") */\n      swap2\n      swap1\n      0xffffffff\n      and\n      jump\t// in\n    tag_159:\n        /* \"@chainlink/contracts@1.2.0/src/v0.8/functions/v1_0_0/libraries/FunctionsRequest.sol\":5535:5562  buffer.writeUInt64(version) */\n      tag_160\n        /* \"@chainlink/contracts@1.2.0/src/v0.8/functions/v1_0_0/libraries/FunctionsRequest.sol\":5554:5561  version */\n      dup3\n        /* \"@chainlink/contracts@1.2.0/src/v0.8/functions/v1_0_0/libraries/FunctionsRequest.sol\":5535:5541  buffer */\n      dup3\n        /* \"@chainlink/contracts@1.2.0/src/v0.8/functions/v1_0_0/libraries/FunctionsRequest.sol\":5535:5553  buffer.writeUInt64 */\n      tag_158\n      swap1\n        /* \"@chainlink/contracts@1.2.0/src/v0.8/functions/v1_0_0/libraries/FunctionsRequest.sol\":5535:5562  buffer.writeUInt64(version) */\n      swap2\n      swap1\n      0xffffffff\n      and\n      jump\t// in\n    tag_160:\n        /* \"@chainlink/contracts@1.2.0/src/v0.8/functions/v1_0_0/libraries/FunctionsRequest.sol\":5592:5610  Location.DONHosted */\n      0x02\n        /* \"@chainlink/contracts@1.2.0/src/v0.8/functions/v1_0_0/libraries/FunctionsRequest.sol\":5569:5573  self */\n      dup5\n        /* \"@chainlink/contracts@1.2.0/src/v0.8/functions/v1_0_0/libraries/FunctionsRequest.sol\":5569:5589  self.secretsLocation */\n      0x20\n      add\n        /* \"@chainlink/contracts@1.2.0/src/v0.8/functions/v1_0_0/libraries/FunctionsRequest.sol\":5569:5610  self.secretsLocation = Location.DONHosted */\n      swap1\n      0x02\n      dup2\n      gt\n      iszero\n      tag_161\n      jumpi\n      tag_162\n      tag_149\n      jump\t// in\n    tag_162:\n    tag_161:\n      swap1\n      dup2\n      0x02\n      dup2\n      gt\n      iszero\n      tag_163\n      jumpi\n      tag_164\n      tag_149\n      jump\t// in\n    tag_164:\n    tag_163:\n      dup2\n      mstore\n      pop\n      pop\n        /* \"@chainlink/contracts@1.2.0/src/v0.8/functions/v1_0_0/libraries/FunctionsRequest.sol\":5649:5655  buffer */\n      dup1\n        /* \"@chainlink/contracts@1.2.0/src/v0.8/functions/v1_0_0/libraries/FunctionsRequest.sol\":5649:5659  buffer.buf */\n      0x00\n      add\n      mload\n        /* \"@chainlink/contracts@1.2.0/src/v0.8/functions/v1_0_0/libraries/FunctionsRequest.sol\":5649:5663  buffer.buf.buf */\n      0x00\n      add\n      mload\n        /* \"@chainlink/contracts@1.2.0/src/v0.8/functions/v1_0_0/libraries/FunctionsRequest.sol\":5616:5620  self */\n      dup5\n        /* \"@chainlink/contracts@1.2.0/src/v0.8/functions/v1_0_0/libraries/FunctionsRequest.sol\":5616:5646  self.encryptedSecretsReference */\n      0x80\n      add\n        /* \"@chainlink/contracts@1.2.0/src/v0.8/functions/v1_0_0/libraries/FunctionsRequest.sol\":5616:5663  self.encryptedSecretsReference = buffer.buf.buf */\n      dup2\n      swap1\n      mstore\n      pop\n        /* \"@chainlink/contracts@1.2.0/src/v0.8/functions/v1_0_0/libraries/FunctionsRequest.sol\":5357:5668  {... */\n      pop\n        /* \"@chainlink/contracts@1.2.0/src/v0.8/functions/v1_0_0/libraries/FunctionsRequest.sol\":5263:5668  function addDONHostedSecrets(Request memory self, uint8 slotID, uint64 version) internal pure {... */\n      pop\n      pop\n      pop\n      jump\t// out\n        /* \"@chainlink/contracts@1.2.0/src/v0.8/functions/v1_0_0/libraries/FunctionsRequest.sol\":5827:5975  function setArgs(Request memory self, string[] memory args) internal pure {... */\n    tag_104:\n        /* \"@chainlink/contracts@1.2.0/src/v0.8/functions/v1_0_0/libraries/FunctionsRequest.sol\":5926:5927  0 */\n      0x00\n        /* \"@chainlink/contracts@1.2.0/src/v0.8/functions/v1_0_0/libraries/FunctionsRequest.sol\":5911:5915  args */\n      dup2\n        /* \"@chainlink/contracts@1.2.0/src/v0.8/functions/v1_0_0/libraries/FunctionsRequest.sol\":5911:5922  args.length */\n      mload\n        /* \"@chainlink/contracts@1.2.0/src/v0.8/functions/v1_0_0/libraries/FunctionsRequest.sol\":5911:5927  args.length == 0 */\n      sub\n        /* \"@chainlink/contracts@1.2.0/src/v0.8/functions/v1_0_0/libraries/FunctionsRequest.sol\":5907:5947  if (args.length == 0) revert EmptyArgs() */\n      tag_166\n      jumpi\n        /* \"@chainlink/contracts@1.2.0/src/v0.8/functions/v1_0_0/libraries/FunctionsRequest.sol\":5936:5947  EmptyArgs() */\n      mload(0x40)\n      0xfe936cb700000000000000000000000000000000000000000000000000000000\n      dup2\n      mstore\n      0x04\n      add\n      mload(0x40)\n      dup1\n      swap2\n      sub\n      swap1\n      revert\n        /* \"@chainlink/contracts@1.2.0/src/v0.8/functions/v1_0_0/libraries/FunctionsRequest.sol\":5907:5947  if (args.length == 0) revert EmptyArgs() */\n    tag_166:\n        /* \"@chainlink/contracts@1.2.0/src/v0.8/functions/v1_0_0/libraries/FunctionsRequest.sol\":5966:5970  args */\n      dup1\n        /* \"@chainlink/contracts@1.2.0/src/v0.8/functions/v1_0_0/libraries/FunctionsRequest.sol\":5954:5958  self */\n      dup3\n        /* \"@chainlink/contracts@1.2.0/src/v0.8/functions/v1_0_0/libraries/FunctionsRequest.sol\":5954:5963  self.args */\n      0xa0\n      add\n        /* \"@chainlink/contracts@1.2.0/src/v0.8/functions/v1_0_0/libraries/FunctionsRequest.sol\":5954:5970  self.args = args */\n      dup2\n      swap1\n      mstore\n      pop\n        /* \"@chainlink/contracts@1.2.0/src/v0.8/functions/v1_0_0/libraries/FunctionsRequest.sol\":5827:5975  function setArgs(Request memory self, string[] memory args) internal pure {... */\n      pop\n      pop\n      jump\t// out\n        /* \"@chainlink/contracts@1.2.0/src/v0.8/functions/v1_0_0/libraries/FunctionsRequest.sol\":6139:6296  function setBytesArgs(Request memory self, bytes[] memory args) internal pure {... */\n    tag_107:\n        /* \"@chainlink/contracts@1.2.0/src/v0.8/functions/v1_0_0/libraries/FunctionsRequest.sol\":6242:6243  0 */\n      0x00\n        /* \"@chainlink/contracts@1.2.0/src/v0.8/functions/v1_0_0/libraries/FunctionsRequest.sol\":6227:6231  args */\n      dup2\n        /* \"@chainlink/contracts@1.2.0/src/v0.8/functions/v1_0_0/libraries/FunctionsRequest.sol\":6227:6238  args.length */\n      mload\n        /* \"@chainlink/contracts@1.2.0/src/v0.8/functions/v1_0_0/libraries/FunctionsRequest.sol\":6227:6243  args.length == 0 */\n      sub\n        /* \"@chainlink/contracts@1.2.0/src/v0.8/functions/v1_0_0/libraries/FunctionsRequest.sol\":6223:6263  if (args.length == 0) revert EmptyArgs() */\n      tag_168\n      jumpi\n        /* \"@chainlink/contracts@1.2.0/src/v0.8/functions/v1_0_0/libraries/FunctionsRequest.sol\":6252:6263  EmptyArgs() */\n      mload(0x40)\n      0xfe936cb700000000000000000000000000000000000000000000000000000000\n      dup2\n      mstore\n      0x04\n      add\n      mload(0x40)\n      dup1\n      swap2\n      sub\n      swap1\n      revert\n        /* \"@chainlink/contracts@1.2.0/src/v0.8/functions/v1_0_0/libraries/FunctionsRequest.sol\":6223:6263  if (args.length == 0) revert EmptyArgs() */\n    tag_168:\n        /* \"@chainlink/contracts@1.2.0/src/v0.8/functions/v1_0_0/libraries/FunctionsRequest.sol\":6287:6291  args */\n      dup1\n        /* \"@chainlink/contracts@1.2.0/src/v0.8/functions/v1_0_0/libraries/FunctionsRequest.sol\":6270:6274  self */\n      dup3\n        /* \"@chainlink/contracts@1.2.0/src/v0.8/functions/v1_0_0/libraries/FunctionsRequest.sol\":6270:6284  self.bytesArgs */\n      0xc0\n      add\n        /* \"@chainlink/contracts@1.2.0/src/v0.8/functions/v1_0_0/libraries/FunctionsRequest.sol\":6270:6291  self.bytesArgs = args */\n      dup2\n      swap1\n      mstore\n      pop\n        /* \"@chainlink/contracts@1.2.0/src/v0.8/functions/v1_0_0/libraries/FunctionsRequest.sol\":6139:6296  function setBytesArgs(Request memory self, bytes[] memory args) internal pure {... */\n      pop\n      pop\n      jump\t// out\n        /* \"@chainlink/contracts@1.2.0/src/v0.8/functions/v1_0_0/libraries/FunctionsRequest.sol\":2158:3428  function encodeCBOR(Request memory self) internal pure returns (bytes memory) {... */\n    tag_110:\n        /* \"@chainlink/contracts@1.2.0/src/v0.8/functions/v1_0_0/libraries/FunctionsRequest.sol\":2222:2234  bytes memory */\n      0x60\n        /* \"@chainlink/contracts@1.2.0/src/v0.8/functions/v1_0_0/libraries/FunctionsRequest.sol\":2242:2271  CBOR.CBORBuffer memory buffer */\n      0x00\n        /* \"@chainlink/contracts@1.2.0/src/v0.8/functions/v1_0_0/libraries/FunctionsRequest.sol\":2274:2306  CBOR.create(DEFAULT_BUFFER_SIZE) */\n      tag_170\n        /* \"@chainlink/contracts@1.2.0/src/v0.8/functions/v1_0_0/libraries/FunctionsRequest.sol\":375:378  256 */\n      0x0100\n        /* \"@chainlink/contracts@1.2.0/src/v0.8/functions/v1_0_0/libraries/FunctionsRequest.sol\":2274:2285  CBOR.create */\n      tag_154\n        /* \"@chainlink/contracts@1.2.0/src/v0.8/functions/v1_0_0/libraries/FunctionsRequest.sol\":2274:2306  CBOR.create(DEFAULT_BUFFER_SIZE) */\n      jump\t// in\n    tag_170:\n        /* \"@chainlink/contracts@1.2.0/src/v0.8/functions/v1_0_0/libraries/FunctionsRequest.sol\":2242:2306  CBOR.CBORBuffer memory buffer = CBOR.create(DEFAULT_BUFFER_SIZE) */\n      swap1\n      pop\n        /* \"@chainlink/contracts@1.2.0/src/v0.8/functions/v1_0_0/libraries/FunctionsRequest.sol\":2313:2347  buffer.writeString(\"codeLocation\") */\n      tag_171\n      mload(0x40)\n      dup1\n      0x40\n      add\n      0x40\n      mstore\n      dup1\n      0x0c\n      dup2\n      mstore\n      0x20\n      add\n      0x636f64654c6f636174696f6e0000000000000000000000000000000000000000\n      dup2\n      mstore\n      pop\n        /* \"@chainlink/contracts@1.2.0/src/v0.8/functions/v1_0_0/libraries/FunctionsRequest.sol\":2313:2319  buffer */\n      dup3\n        /* \"@chainlink/contracts@1.2.0/src/v0.8/functions/v1_0_0/libraries/FunctionsRequest.sol\":2313:2331  buffer.writeString */\n      tag_156\n      swap1\n        /* \"@chainlink/contracts@1.2.0/src/v0.8/functions/v1_0_0/libraries/FunctionsRequest.sol\":2313:2347  buffer.writeString(\"codeLocation\") */\n      swap2\n      swap1\n      0xffffffff\n      and\n      jump\t// in\n    tag_171:\n        /* \"@chainlink/contracts@1.2.0/src/v0.8/functions/v1_0_0/libraries/FunctionsRequest.sol\":2353:2400  buffer.writeUInt256(uint256(self.codeLocation)) */\n      tag_172\n        /* \"@chainlink/contracts@1.2.0/src/v0.8/functions/v1_0_0/libraries/FunctionsRequest.sol\":2381:2385  self */\n      dup4\n        /* \"@chainlink/contracts@1.2.0/src/v0.8/functions/v1_0_0/libraries/FunctionsRequest.sol\":2381:2398  self.codeLocation */\n      0x00\n      add\n      mload\n        /* \"@chainlink/contracts@1.2.0/src/v0.8/functions/v1_0_0/libraries/FunctionsRequest.sol\":2373:2399  uint256(self.codeLocation) */\n      0x02\n      dup2\n      gt\n      iszero\n      tag_173\n      jumpi\n      tag_174\n      tag_149\n      jump\t// in\n    tag_174:\n    tag_173:\n        /* \"@chainlink/contracts@1.2.0/src/v0.8/functions/v1_0_0/libraries/FunctionsRequest.sol\":2353:2359  buffer */\n      dup3\n        /* \"@chainlink/contracts@1.2.0/src/v0.8/functions/v1_0_0/libraries/FunctionsRequest.sol\":2353:2372  buffer.writeUInt256 */\n      tag_175\n      swap1\n        /* \"@chainlink/contracts@1.2.0/src/v0.8/functions/v1_0_0/libraries/FunctionsRequest.sol\":2353:2400  buffer.writeUInt256(uint256(self.codeLocation)) */\n      swap2\n      swap1\n      0xffffffff\n      and\n      jump\t// in\n    tag_172:\n        /* \"@chainlink/contracts@1.2.0/src/v0.8/functions/v1_0_0/libraries/FunctionsRequest.sol\":2407:2437  buffer.writeString(\"language\") */\n      tag_176\n      mload(0x40)\n      dup1\n      0x40\n      add\n      0x40\n      mstore\n      dup1\n      0x08\n      dup2\n      mstore\n      0x20\n      add\n      0x6c616e6775616765000000000000000000000000000000000000000000000000\n      dup2\n      mstore\n      pop\n        /* \"@chainlink/contracts@1.2.0/src/v0.8/functions/v1_0_0/libraries/FunctionsRequest.sol\":2407:2413  buffer */\n      dup3\n        /* \"@chainlink/contracts@1.2.0/src/v0.8/functions/v1_0_0/libraries/FunctionsRequest.sol\":2407:2425  buffer.writeString */\n      tag_156\n      swap1\n        /* \"@chainlink/contracts@1.2.0/src/v0.8/functions/v1_0_0/libraries/FunctionsRequest.sol\":2407:2437  buffer.writeString(\"language\") */\n      swap2\n      swap1\n      0xffffffff\n      and\n      jump\t// in\n    tag_176:\n        /* \"@chainlink/contracts@1.2.0/src/v0.8/functions/v1_0_0/libraries/FunctionsRequest.sol\":2443:2486  buffer.writeUInt256(uint256(self.language)) */\n      tag_177\n        /* \"@chainlink/contracts@1.2.0/src/v0.8/functions/v1_0_0/libraries/FunctionsRequest.sol\":2471:2475  self */\n      dup4\n        /* \"@chainlink/contracts@1.2.0/src/v0.8/functions/v1_0_0/libraries/FunctionsRequest.sol\":2471:2484  self.language */\n      0x40\n      add\n      mload\n        /* \"@chainlink/contracts@1.2.0/src/v0.8/functions/v1_0_0/libraries/FunctionsRequest.sol\":2463:2485  uint256(self.language) */\n      0x00\n      dup2\n      gt\n      iszero\n      tag_178\n      jumpi\n      tag_179\n      tag_149\n      jump\t// in\n    tag_179:\n    tag_178:\n        /* \"@chainlink/contracts@1.2.0/src/v0.8/functions/v1_0_0/libraries/FunctionsRequest.sol\":2443:2449  buffer */\n      dup3\n        /* \"@chainlink/contracts@1.2.0/src/v0.8/functions/v1_0_0/libraries/FunctionsRequest.sol\":2443:2462  buffer.writeUInt256 */\n      tag_175\n      swap1\n        /* \"@chainlink/contracts@1.2.0/src/v0.8/functions/v1_0_0/libraries/FunctionsRequest.sol\":2443:2486  buffer.writeUInt256(uint256(self.language)) */\n      swap2\n      swap1\n      0xffffffff\n      and\n      jump\t// in\n    tag_177:\n        /* \"@chainlink/contracts@1.2.0/src/v0.8/functions/v1_0_0/libraries/FunctionsRequest.sol\":2493:2521  buffer.writeString(\"source\") */\n      tag_180\n      mload(0x40)\n      dup1\n      0x40\n      add\n      0x40\n      mstore\n      dup1\n      0x06\n      dup2\n      mstore\n      0x20\n      add\n      0x736f757263650000000000000000000000000000000000000000000000000000\n      dup2\n      mstore\n      pop\n        /* \"@chainlink/contracts@1.2.0/src/v0.8/functions/v1_0_0/libraries/FunctionsRequest.sol\":2493:2499  buffer */\n      dup3\n        /* \"@chainlink/contracts@1.2.0/src/v0.8/functions/v1_0_0/libraries/FunctionsRequest.sol\":2493:2511  buffer.writeString */\n      tag_156\n      swap1\n        /* \"@chainlink/contracts@1.2.0/src/v0.8/functions/v1_0_0/libraries/FunctionsRequest.sol\":2493:2521  buffer.writeString(\"source\") */\n      swap2\n      swap1\n      0xffffffff\n      and\n      jump\t// in\n    tag_180:\n        /* \"@chainlink/contracts@1.2.0/src/v0.8/functions/v1_0_0/libraries/FunctionsRequest.sol\":2527:2558  buffer.writeString(self.source) */\n      tag_181\n        /* \"@chainlink/contracts@1.2.0/src/v0.8/functions/v1_0_0/libraries/FunctionsRequest.sol\":2546:2550  self */\n      dup4\n        /* \"@chainlink/contracts@1.2.0/src/v0.8/functions/v1_0_0/libraries/FunctionsRequest.sol\":2546:2557  self.source */\n      0x60\n      add\n      mload\n        /* \"@chainlink/contracts@1.2.0/src/v0.8/functions/v1_0_0/libraries/FunctionsRequest.sol\":2527:2533  buffer */\n      dup3\n        /* \"@chainlink/contracts@1.2.0/src/v0.8/functions/v1_0_0/libraries/FunctionsRequest.sol\":2527:2545  buffer.writeString */\n      tag_156\n      swap1\n        /* \"@chainlink/contracts@1.2.0/src/v0.8/functions/v1_0_0/libraries/FunctionsRequest.sol\":2527:2558  buffer.writeString(self.source) */\n      swap2\n      swap1\n      0xffffffff\n      and\n      jump\t// in\n    tag_181:\n        /* \"@chainlink/contracts@1.2.0/src/v0.8/functions/v1_0_0/libraries/FunctionsRequest.sol\":2588:2589  0 */\n      0x00\n        /* \"@chainlink/contracts@1.2.0/src/v0.8/functions/v1_0_0/libraries/FunctionsRequest.sol\":2569:2573  self */\n      dup4\n        /* \"@chainlink/contracts@1.2.0/src/v0.8/functions/v1_0_0/libraries/FunctionsRequest.sol\":2569:2578  self.args */\n      0xa0\n      add\n      mload\n        /* \"@chainlink/contracts@1.2.0/src/v0.8/functions/v1_0_0/libraries/FunctionsRequest.sol\":2569:2585  self.args.length */\n      mload\n        /* \"@chainlink/contracts@1.2.0/src/v0.8/functions/v1_0_0/libraries/FunctionsRequest.sol\":2569:2589  self.args.length > 0 */\n      gt\n        /* \"@chainlink/contracts@1.2.0/src/v0.8/functions/v1_0_0/libraries/FunctionsRequest.sol\":2565:2792  if (self.args.length > 0) {... */\n      iszero\n      tag_182\n      jumpi\n        /* \"@chainlink/contracts@1.2.0/src/v0.8/functions/v1_0_0/libraries/FunctionsRequest.sol\":2599:2625  buffer.writeString(\"args\") */\n      tag_183\n      mload(0x40)\n      dup1\n      0x40\n      add\n      0x40\n      mstore\n      dup1\n      0x04\n      dup2\n      mstore\n      0x20\n      add\n      0x6172677300000000000000000000000000000000000000000000000000000000\n      dup2\n      mstore\n      pop\n        /* \"@chainlink/contracts@1.2.0/src/v0.8/functions/v1_0_0/libraries/FunctionsRequest.sol\":2599:2605  buffer */\n      dup3\n        /* \"@chainlink/contracts@1.2.0/src/v0.8/functions/v1_0_0/libraries/FunctionsRequest.sol\":2599:2617  buffer.writeString */\n      tag_156\n      swap1\n        /* \"@chainlink/contracts@1.2.0/src/v0.8/functions/v1_0_0/libraries/FunctionsRequest.sol\":2599:2625  buffer.writeString(\"args\") */\n      swap2\n      swap1\n      0xffffffff\n      and\n      jump\t// in\n    tag_183:\n        /* \"@chainlink/contracts@1.2.0/src/v0.8/functions/v1_0_0/libraries/FunctionsRequest.sol\":2633:2652  buffer.startArray() */\n      tag_184\n        /* \"@chainlink/contracts@1.2.0/src/v0.8/functions/v1_0_0/libraries/FunctionsRequest.sol\":2633:2639  buffer */\n      dup2\n        /* \"@chainlink/contracts@1.2.0/src/v0.8/functions/v1_0_0/libraries/FunctionsRequest.sol\":2633:2650  buffer.startArray */\n      tag_185\n        /* \"@chainlink/contracts@1.2.0/src/v0.8/functions/v1_0_0/libraries/FunctionsRequest.sol\":2633:2652  buffer.startArray() */\n      jump\t// in\n    tag_184:\n        /* \"@chainlink/contracts@1.2.0/src/v0.8/functions/v1_0_0/libraries/FunctionsRequest.sol\":2665:2674  uint256 i */\n      0x00\n        /* \"@chainlink/contracts@1.2.0/src/v0.8/functions/v1_0_0/libraries/FunctionsRequest.sol\":2660:2758  for (uint256 i = 0; i < self.args.length; ++i) {... */\n    tag_186:\n        /* \"@chainlink/contracts@1.2.0/src/v0.8/functions/v1_0_0/libraries/FunctionsRequest.sol\":2684:2688  self */\n      dup4\n        /* \"@chainlink/contracts@1.2.0/src/v0.8/functions/v1_0_0/libraries/FunctionsRequest.sol\":2684:2693  self.args */\n      0xa0\n      add\n      mload\n        /* \"@chainlink/contracts@1.2.0/src/v0.8/functions/v1_0_0/libraries/FunctionsRequest.sol\":2684:2700  self.args.length */\n      mload\n        /* \"@chainlink/contracts@1.2.0/src/v0.8/functions/v1_0_0/libraries/FunctionsRequest.sol\":2680:2681  i */\n      dup2\n        /* \"@chainlink/contracts@1.2.0/src/v0.8/functions/v1_0_0/libraries/FunctionsRequest.sol\":2680:2700  i < self.args.length */\n      lt\n        /* \"@chainlink/contracts@1.2.0/src/v0.8/functions/v1_0_0/libraries/FunctionsRequest.sol\":2660:2758  for (uint256 i = 0; i < self.args.length; ++i) {... */\n      iszero\n      tag_187\n      jumpi\n        /* \"@chainlink/contracts@1.2.0/src/v0.8/functions/v1_0_0/libraries/FunctionsRequest.sol\":2717:2749  buffer.writeString(self.args[i]) */\n      tag_189\n        /* \"@chainlink/contracts@1.2.0/src/v0.8/functions/v1_0_0/libraries/FunctionsRequest.sol\":2736:2740  self */\n      dup5\n        /* \"@chainlink/contracts@1.2.0/src/v0.8/functions/v1_0_0/libraries/FunctionsRequest.sol\":2736:2745  self.args */\n      0xa0\n      add\n      mload\n        /* \"@chainlink/contracts@1.2.0/src/v0.8/functions/v1_0_0/libraries/FunctionsRequest.sol\":2746:2747  i */\n      dup3\n        /* \"@chainlink/contracts@1.2.0/src/v0.8/functions/v1_0_0/libraries/FunctionsRequest.sol\":2736:2748  self.args[i] */\n      dup2\n      mload\n      dup2\n      lt\n      tag_190\n      jumpi\n      tag_191\n      tag_192\n      jump\t// in\n    tag_191:\n    tag_190:\n      0x20\n      mul\n      0x20\n      add\n      add\n      mload\n        /* \"@chainlink/contracts@1.2.0/src/v0.8/functions/v1_0_0/libraries/FunctionsRequest.sol\":2717:2723  buffer */\n      dup4\n        /* \"@chainlink/contracts@1.2.0/src/v0.8/functions/v1_0_0/libraries/FunctionsRequest.sol\":2717:2735  buffer.writeString */\n      tag_156\n      swap1\n        /* \"@chainlink/contracts@1.2.0/src/v0.8/functions/v1_0_0/libraries/FunctionsRequest.sol\":2717:2749  buffer.writeString(self.args[i]) */\n      swap2\n      swap1\n      0xffffffff\n      and\n      jump\t// in\n    tag_189:\n        /* \"@chainlink/contracts@1.2.0/src/v0.8/functions/v1_0_0/libraries/FunctionsRequest.sol\":2702:2705  ++i */\n      dup1\n      tag_193\n      swap1\n      tag_124\n      jump\t// in\n    tag_193:\n      swap1\n      pop\n        /* \"@chainlink/contracts@1.2.0/src/v0.8/functions/v1_0_0/libraries/FunctionsRequest.sol\":2660:2758  for (uint256 i = 0; i < self.args.length; ++i) {... */\n      jump(tag_186)\n    tag_187:\n      pop\n        /* \"@chainlink/contracts@1.2.0/src/v0.8/functions/v1_0_0/libraries/FunctionsRequest.sol\":2765:2785  buffer.endSequence() */\n      tag_194\n        /* \"@chainlink/contracts@1.2.0/src/v0.8/functions/v1_0_0/libraries/FunctionsRequest.sol\":2765:2771  buffer */\n      dup2\n        /* \"@chainlink/contracts@1.2.0/src/v0.8/functions/v1_0_0/libraries/FunctionsRequest.sol\":2765:2783  buffer.endSequence */\n      tag_195\n        /* \"@chainlink/contracts@1.2.0/src/v0.8/functions/v1_0_0/libraries/FunctionsRequest.sol\":2765:2785  buffer.endSequence() */\n      jump\t// in\n    tag_194:\n        /* \"@chainlink/contracts@1.2.0/src/v0.8/functions/v1_0_0/libraries/FunctionsRequest.sol\":2565:2792  if (self.args.length > 0) {... */\n    tag_182:\n        /* \"@chainlink/contracts@1.2.0/src/v0.8/functions/v1_0_0/libraries/FunctionsRequest.sol\":2842:2843  0 */\n      0x00\n        /* \"@chainlink/contracts@1.2.0/src/v0.8/functions/v1_0_0/libraries/FunctionsRequest.sol\":2802:2806  self */\n      dup4\n        /* \"@chainlink/contracts@1.2.0/src/v0.8/functions/v1_0_0/libraries/FunctionsRequest.sol\":2802:2832  self.encryptedSecretsReference */\n      0x80\n      add\n      mload\n        /* \"@chainlink/contracts@1.2.0/src/v0.8/functions/v1_0_0/libraries/FunctionsRequest.sol\":2802:2839  self.encryptedSecretsReference.length */\n      mload\n        /* \"@chainlink/contracts@1.2.0/src/v0.8/functions/v1_0_0/libraries/FunctionsRequest.sol\":2802:2843  self.encryptedSecretsReference.length > 0 */\n      gt\n        /* \"@chainlink/contracts@1.2.0/src/v0.8/functions/v1_0_0/libraries/FunctionsRequest.sol\":2798:3144  if (self.encryptedSecretsReference.length > 0) {... */\n      iszero\n      tag_196\n      jumpi\n        /* \"@chainlink/contracts@1.2.0/src/v0.8/functions/v1_0_0/libraries/FunctionsRequest.sol\":2881:2896  Location.Inline */\n      0x00\n        /* \"@chainlink/contracts@1.2.0/src/v0.8/functions/v1_0_0/libraries/FunctionsRequest.sol\":2857:2896  self.secretsLocation == Location.Inline */\n      0x02\n      dup2\n      gt\n      iszero\n      tag_197\n      jumpi\n      tag_198\n      tag_149\n      jump\t// in\n    tag_198:\n    tag_197:\n        /* \"@chainlink/contracts@1.2.0/src/v0.8/functions/v1_0_0/libraries/FunctionsRequest.sol\":2857:2861  self */\n      dup4\n        /* \"@chainlink/contracts@1.2.0/src/v0.8/functions/v1_0_0/libraries/FunctionsRequest.sol\":2857:2877  self.secretsLocation */\n      0x20\n      add\n      mload\n        /* \"@chainlink/contracts@1.2.0/src/v0.8/functions/v1_0_0/libraries/FunctionsRequest.sol\":2857:2896  self.secretsLocation == Location.Inline */\n      0x02\n      dup2\n      gt\n      iszero\n      tag_199\n      jumpi\n      tag_200\n      tag_149\n      jump\t// in\n    tag_200:\n    tag_199:\n      sub\n        /* \"@chainlink/contracts@1.2.0/src/v0.8/functions/v1_0_0/libraries/FunctionsRequest.sol\":2853:2941  if (self.secretsLocation == Location.Inline) {... */\n      tag_201\n      jumpi\n        /* \"@chainlink/contracts@1.2.0/src/v0.8/functions/v1_0_0/libraries/FunctionsRequest.sol\":2915:2932  NoInlineSecrets() */\n      mload(0x40)\n      0xa80d31f700000000000000000000000000000000000000000000000000000000\n      dup2\n      mstore\n      0x04\n      add\n      mload(0x40)\n      dup1\n      swap2\n      sub\n      swap1\n      revert\n        /* \"@chainlink/contracts@1.2.0/src/v0.8/functions/v1_0_0/libraries/FunctionsRequest.sol\":2853:2941  if (self.secretsLocation == Location.Inline) {... */\n    tag_201:\n        /* \"@chainlink/contracts@1.2.0/src/v0.8/functions/v1_0_0/libraries/FunctionsRequest.sol\":2948:2985  buffer.writeString(\"secretsLocation\") */\n      tag_202\n      mload(0x40)\n      dup1\n      0x40\n      add\n      0x40\n      mstore\n      dup1\n      0x0f\n      dup2\n      mstore\n      0x20\n      add\n      0x736563726574734c6f636174696f6e0000000000000000000000000000000000\n      dup2\n      mstore\n      pop\n        /* \"@chainlink/contracts@1.2.0/src/v0.8/functions/v1_0_0/libraries/FunctionsRequest.sol\":2948:2954  buffer */\n      dup3\n        /* \"@chainlink/contracts@1.2.0/src/v0.8/functions/v1_0_0/libraries/FunctionsRequest.sol\":2948:2966  buffer.writeString */\n      tag_156\n      swap1\n        /* \"@chainlink/contracts@1.2.0/src/v0.8/functions/v1_0_0/libraries/FunctionsRequest.sol\":2948:2985  buffer.writeString(\"secretsLocation\") */\n      swap2\n      swap1\n      0xffffffff\n      and\n      jump\t// in\n    tag_202:\n        /* \"@chainlink/contracts@1.2.0/src/v0.8/functions/v1_0_0/libraries/FunctionsRequest.sol\":2993:3043  buffer.writeUInt256(uint256(self.secretsLocation)) */\n      tag_203\n        /* \"@chainlink/contracts@1.2.0/src/v0.8/functions/v1_0_0/libraries/FunctionsRequest.sol\":3021:3025  self */\n      dup4\n        /* \"@chainlink/contracts@1.2.0/src/v0.8/functions/v1_0_0/libraries/FunctionsRequest.sol\":3021:3041  self.secretsLocation */\n      0x20\n      add\n      mload\n        /* \"@chainlink/contracts@1.2.0/src/v0.8/functions/v1_0_0/libraries/FunctionsRequest.sol\":3013:3042  uint256(self.secretsLocation) */\n      0x02\n      dup2\n      gt\n      iszero\n      tag_204\n      jumpi\n      tag_205\n      tag_149\n      jump\t// in\n    tag_205:\n    tag_204:\n        /* \"@chainlink/contracts@1.2.0/src/v0.8/functions/v1_0_0/libraries/FunctionsRequest.sol\":2993:2999  buffer */\n      dup3\n        /* \"@chainlink/contracts@1.2.0/src/v0.8/functions/v1_0_0/libraries/FunctionsRequest.sol\":2993:3012  buffer.writeUInt256 */\n      tag_175\n      swap1\n        /* \"@chainlink/contracts@1.2.0/src/v0.8/functions/v1_0_0/libraries/FunctionsRequest.sol\":2993:3043  buffer.writeUInt256(uint256(self.secretsLocation)) */\n      swap2\n      swap1\n      0xffffffff\n      and\n      jump\t// in\n    tag_203:\n        /* \"@chainlink/contracts@1.2.0/src/v0.8/functions/v1_0_0/libraries/FunctionsRequest.sol\":3051:3080  buffer.writeString(\"secrets\") */\n      tag_206\n      mload(0x40)\n      dup1\n      0x40\n      add\n      0x40\n      mstore\n      dup1\n      0x07\n      dup2\n      mstore\n      0x20\n      add\n      0x7365637265747300000000000000000000000000000000000000000000000000\n      dup2\n      mstore\n      pop\n        /* \"@chainlink/contracts@1.2.0/src/v0.8/functions/v1_0_0/libraries/FunctionsRequest.sol\":3051:3057  buffer */\n      dup3\n        /* \"@chainlink/contracts@1.2.0/src/v0.8/functions/v1_0_0/libraries/FunctionsRequest.sol\":3051:3069  buffer.writeString */\n      tag_156\n      swap1\n        /* \"@chainlink/contracts@1.2.0/src/v0.8/functions/v1_0_0/libraries/FunctionsRequest.sol\":3051:3080  buffer.writeString(\"secrets\") */\n      swap2\n      swap1\n      0xffffffff\n      and\n      jump\t// in\n    tag_206:\n        /* \"@chainlink/contracts@1.2.0/src/v0.8/functions/v1_0_0/libraries/FunctionsRequest.sol\":3088:3137  buffer.writeBytes(self.encryptedSecretsReference) */\n      tag_207\n        /* \"@chainlink/contracts@1.2.0/src/v0.8/functions/v1_0_0/libraries/FunctionsRequest.sol\":3106:3110  self */\n      dup4\n        /* \"@chainlink/contracts@1.2.0/src/v0.8/functions/v1_0_0/libraries/FunctionsRequest.sol\":3106:3136  self.encryptedSecretsReference */\n      0x80\n      add\n      mload\n        /* \"@chainlink/contracts@1.2.0/src/v0.8/functions/v1_0_0/libraries/FunctionsRequest.sol\":3088:3094  buffer */\n      dup3\n        /* \"@chainlink/contracts@1.2.0/src/v0.8/functions/v1_0_0/libraries/FunctionsRequest.sol\":3088:3105  buffer.writeBytes */\n      tag_208\n      swap1\n        /* \"@chainlink/contracts@1.2.0/src/v0.8/functions/v1_0_0/libraries/FunctionsRequest.sol\":3088:3137  buffer.writeBytes(self.encryptedSecretsReference) */\n      swap2\n      swap1\n      0xffffffff\n      and\n      jump\t// in\n    tag_207:\n        /* \"@chainlink/contracts@1.2.0/src/v0.8/functions/v1_0_0/libraries/FunctionsRequest.sol\":2798:3144  if (self.encryptedSecretsReference.length > 0) {... */\n    tag_196:\n        /* \"@chainlink/contracts@1.2.0/src/v0.8/functions/v1_0_0/libraries/FunctionsRequest.sol\":3178:3179  0 */\n      0x00\n        /* \"@chainlink/contracts@1.2.0/src/v0.8/functions/v1_0_0/libraries/FunctionsRequest.sol\":3154:3158  self */\n      dup4\n        /* \"@chainlink/contracts@1.2.0/src/v0.8/functions/v1_0_0/libraries/FunctionsRequest.sol\":3154:3168  self.bytesArgs */\n      0xc0\n      add\n      mload\n        /* \"@chainlink/contracts@1.2.0/src/v0.8/functions/v1_0_0/libraries/FunctionsRequest.sol\":3154:3175  self.bytesArgs.length */\n      mload\n        /* \"@chainlink/contracts@1.2.0/src/v0.8/functions/v1_0_0/libraries/FunctionsRequest.sol\":3154:3179  self.bytesArgs.length > 0 */\n      gt\n        /* \"@chainlink/contracts@1.2.0/src/v0.8/functions/v1_0_0/libraries/FunctionsRequest.sol\":3150:3396  if (self.bytesArgs.length > 0) {... */\n      iszero\n      tag_209\n      jumpi\n        /* \"@chainlink/contracts@1.2.0/src/v0.8/functions/v1_0_0/libraries/FunctionsRequest.sol\":3189:3220  buffer.writeString(\"bytesArgs\") */\n      tag_210\n      mload(0x40)\n      dup1\n      0x40\n      add\n      0x40\n      mstore\n      dup1\n      0x09\n      dup2\n      mstore\n      0x20\n      add\n      0x6279746573417267730000000000000000000000000000000000000000000000\n      dup2\n      mstore\n      pop\n        /* \"@chainlink/contracts@1.2.0/src/v0.8/functions/v1_0_0/libraries/FunctionsRequest.sol\":3189:3195  buffer */\n      dup3\n        /* \"@chainlink/contracts@1.2.0/src/v0.8/functions/v1_0_0/libraries/FunctionsRequest.sol\":3189:3207  buffer.writeString */\n      tag_156\n      swap1\n        /* \"@chainlink/contracts@1.2.0/src/v0.8/functions/v1_0_0/libraries/FunctionsRequest.sol\":3189:3220  buffer.writeString(\"bytesArgs\") */\n      swap2\n      swap1\n      0xffffffff\n      and\n      jump\t// in\n    tag_210:\n        /* \"@chainlink/contracts@1.2.0/src/v0.8/functions/v1_0_0/libraries/FunctionsRequest.sol\":3228:3247  buffer.startArray() */\n      tag_211\n        /* \"@chainlink/contracts@1.2.0/src/v0.8/functions/v1_0_0/libraries/FunctionsRequest.sol\":3228:3234  buffer */\n      dup2\n        /* \"@chainlink/contracts@1.2.0/src/v0.8/functions/v1_0_0/libraries/FunctionsRequest.sol\":3228:3245  buffer.startArray */\n      tag_185\n        /* \"@chainlink/contracts@1.2.0/src/v0.8/functions/v1_0_0/libraries/FunctionsRequest.sol\":3228:3247  buffer.startArray() */\n      jump\t// in\n    tag_211:\n        /* \"@chainlink/contracts@1.2.0/src/v0.8/functions/v1_0_0/libraries/FunctionsRequest.sol\":3260:3269  uint256 i */\n      0x00\n        /* \"@chainlink/contracts@1.2.0/src/v0.8/functions/v1_0_0/libraries/FunctionsRequest.sol\":3255:3362  for (uint256 i = 0; i < self.bytesArgs.length; ++i) {... */\n    tag_212:\n        /* \"@chainlink/contracts@1.2.0/src/v0.8/functions/v1_0_0/libraries/FunctionsRequest.sol\":3279:3283  self */\n      dup4\n        /* \"@chainlink/contracts@1.2.0/src/v0.8/functions/v1_0_0/libraries/FunctionsRequest.sol\":3279:3293  self.bytesArgs */\n      0xc0\n      add\n      mload\n        /* \"@chainlink/contracts@1.2.0/src/v0.8/functions/v1_0_0/libraries/FunctionsRequest.sol\":3279:3300  self.bytesArgs.length */\n      mload\n        /* \"@chainlink/contracts@1.2.0/src/v0.8/functions/v1_0_0/libraries/FunctionsRequest.sol\":3275:3276  i */\n      dup2\n        /* \"@chainlink/contracts@1.2.0/src/v0.8/functions/v1_0_0/libraries/FunctionsRequest.sol\":3275:3300  i < self.bytesArgs.length */\n      lt\n        /* \"@chainlink/contracts@1.2.0/src/v0.8/functions/v1_0_0/libraries/FunctionsRequest.sol\":3255:3362  for (uint256 i = 0; i < self.bytesArgs.length; ++i) {... */\n      iszero\n      tag_213\n      jumpi\n        /* \"@chainlink/contracts@1.2.0/src/v0.8/functions/v1_0_0/libraries/FunctionsRequest.sol\":3317:3353  buffer.writeBytes(self.bytesArgs[i]) */\n      tag_215\n        /* \"@chainlink/contracts@1.2.0/src/v0.8/functions/v1_0_0/libraries/FunctionsRequest.sol\":3335:3339  self */\n      dup5\n        /* \"@chainlink/contracts@1.2.0/src/v0.8/functions/v1_0_0/libraries/FunctionsRequest.sol\":3335:3349  self.bytesArgs */\n      0xc0\n      add\n      mload\n        /* \"@chainlink/contracts@1.2.0/src/v0.8/functions/v1_0_0/libraries/FunctionsRequest.sol\":3350:3351  i */\n      dup3\n        /* \"@chainlink/contracts@1.2.0/src/v0.8/functions/v1_0_0/libraries/FunctionsRequest.sol\":3335:3352  self.bytesArgs[i] */\n      dup2\n      mload\n      dup2\n      lt\n      tag_216\n      jumpi\n      tag_217\n      tag_192\n      jump\t// in\n    tag_217:\n    tag_216:\n      0x20\n      mul\n      0x20\n      add\n      add\n      mload\n        /* \"@chainlink/contracts@1.2.0/src/v0.8/functions/v1_0_0/libraries/FunctionsRequest.sol\":3317:3323  buffer */\n      dup4\n        /* \"@chainlink/contracts@1.2.0/src/v0.8/functions/v1_0_0/libraries/FunctionsRequest.sol\":3317:3334  buffer.writeBytes */\n      tag_208\n      swap1\n        /* \"@chainlink/contracts@1.2.0/src/v0.8/functions/v1_0_0/libraries/FunctionsRequest.sol\":3317:3353  buffer.writeBytes(self.bytesArgs[i]) */\n      swap2\n      swap1\n      0xffffffff\n      and\n      jump\t// in\n    tag_215:\n        /* \"@chainlink/contracts@1.2.0/src/v0.8/functions/v1_0_0/libraries/FunctionsRequest.sol\":3302:3305  ++i */\n      dup1\n      tag_218\n      swap1\n      tag_124\n      jump\t// in\n    tag_218:\n      swap1\n      pop\n        /* \"@chainlink/contracts@1.2.0/src/v0.8/functions/v1_0_0/libraries/FunctionsRequest.sol\":3255:3362  for (uint256 i = 0; i < self.bytesArgs.length; ++i) {... */\n      jump(tag_212)\n    tag_213:\n      pop\n        /* \"@chainlink/contracts@1.2.0/src/v0.8/functions/v1_0_0/libraries/FunctionsRequest.sol\":3369:3389  buffer.endSequence() */\n      tag_219\n        /* \"@chainlink/contracts@1.2.0/src/v0.8/functions/v1_0_0/libraries/FunctionsRequest.sol\":3369:3375  buffer */\n      dup2\n        /* \"@chainlink/contracts@1.2.0/src/v0.8/functions/v1_0_0/libraries/FunctionsRequest.sol\":3369:3387  buffer.endSequence */\n      tag_195\n        /* \"@chainlink/contracts@1.2.0/src/v0.8/functions/v1_0_0/libraries/FunctionsRequest.sol\":3369:3389  buffer.endSequence() */\n      jump\t// in\n    tag_219:\n        /* \"@chainlink/contracts@1.2.0/src/v0.8/functions/v1_0_0/libraries/FunctionsRequest.sol\":3150:3396  if (self.bytesArgs.length > 0) {... */\n    tag_209:\n        /* \"@chainlink/contracts@1.2.0/src/v0.8/functions/v1_0_0/libraries/FunctionsRequest.sol\":3409:3415  buffer */\n      dup1\n        /* \"@chainlink/contracts@1.2.0/src/v0.8/functions/v1_0_0/libraries/FunctionsRequest.sol\":3409:3419  buffer.buf */\n      0x00\n      add\n      mload\n        /* \"@chainlink/contracts@1.2.0/src/v0.8/functions/v1_0_0/libraries/FunctionsRequest.sol\":3409:3423  buffer.buf.buf */\n      0x00\n      add\n      mload\n        /* \"@chainlink/contracts@1.2.0/src/v0.8/functions/v1_0_0/libraries/FunctionsRequest.sol\":3402:3423  return buffer.buf.buf */\n      swap2\n      pop\n      pop\n        /* \"@chainlink/contracts@1.2.0/src/v0.8/functions/v1_0_0/libraries/FunctionsRequest.sol\":2158:3428  function encodeCBOR(Request memory self) internal pure returns (bytes memory) {... */\n      swap2\n      swap1\n      pop\n      jump\t// out\n        /* \"@chainlink/contracts@1.2.0/src/v0.8/functions/v1_0_0/FunctionsClient.sol\":1158:1537  function _sendRequest(... */\n    tag_111:\n        /* \"@chainlink/contracts@1.2.0/src/v0.8/functions/v1_0_0/FunctionsClient.sol\":1300:1307  bytes32 */\n      0x00\n        /* \"@chainlink/contracts@1.2.0/src/v0.8/functions/v1_0_0/FunctionsClient.sol\":1315:1332  bytes32 requestId */\n      dup1\n        /* \"@chainlink/contracts@1.2.0/src/v0.8/functions/v1_0_0/FunctionsClient.sol\":1335:1343  i_router */\n      immutable(\"0x8e8fab5f003314da8d1873ea7720e8d9f47650136d916064d1edb8a11d682624\")\n        /* \"@chainlink/contracts@1.2.0/src/v0.8/functions/v1_0_0/FunctionsClient.sol\":1335:1355  i_router.sendRequest */\n      0xffffffffffffffffffffffffffffffffffffffff\n      and\n      0x461d2762\n        /* \"@chainlink/contracts@1.2.0/src/v0.8/functions/v1_0_0/FunctionsClient.sol\":1363:1377  subscriptionId */\n      dup7\n        /* \"@chainlink/contracts@1.2.0/src/v0.8/functions/v1_0_0/FunctionsClient.sol\":1385:1389  data */\n      dup9\n        /* \"@chainlink/contracts@1.2.0/src/v0.8/functions/v1_0_0/libraries/FunctionsRequest.sol\":322:323  1 */\n      0x01\n        /* \"@chainlink/contracts@1.2.0/src/v0.8/functions/v1_0_0/FunctionsClient.sol\":1442:1458  callbackGasLimit */\n      dup9\n        /* \"@chainlink/contracts@1.2.0/src/v0.8/functions/v1_0_0/FunctionsClient.sol\":1466:1471  donId */\n      dup9\n        /* \"@chainlink/contracts@1.2.0/src/v0.8/functions/v1_0_0/FunctionsClient.sol\":1335:1477  i_router.sendRequest(... */\n      mload(0x40)\n      dup7\n      0xffffffff\n      and\n      0xe0\n      shl\n      dup2\n      mstore\n      0x04\n      add\n      tag_221\n      swap6\n      swap5\n      swap4\n      swap3\n      swap2\n      swap1\n      tag_222\n      jump\t// in\n    tag_221:\n      0x20\n      mload(0x40)\n      dup1\n      dup4\n      sub\n      dup2\n      0x00\n      dup8\n      gas\n      call\n      iszero\n      dup1\n      iszero\n      tag_224\n      jumpi\n      returndatasize\n      0x00\n      dup1\n      returndatacopy\n      revert(0x00, returndatasize)\n    tag_224:\n      pop\n      pop\n      pop\n      pop\n      mload(0x40)\n      returndatasize\n      not(0x1f)\n      0x1f\n      dup3\n      add\n      and\n      dup3\n      add\n      dup1\n      0x40\n      mstore\n      pop\n      dup2\n      add\n      swap1\n      tag_225\n      swap2\n      swap1\n      tag_226\n      jump\t// in\n    tag_225:\n        /* \"@chainlink/contracts@1.2.0/src/v0.8/functions/v1_0_0/FunctionsClient.sol\":1315:1477  bytes32 requestId = i_router.sendRequest(... */\n      swap1\n      pop\n        /* \"@chainlink/contracts@1.2.0/src/v0.8/functions/v1_0_0/FunctionsClient.sol\":1500:1509  requestId */\n      dup1\n        /* \"@chainlink/contracts@1.2.0/src/v0.8/functions/v1_0_0/FunctionsClient.sol\":1488:1510  RequestSent(requestId) */\n      0x1131472297a800fee664d1d89cfa8f7676ff07189ecc53f80bbb5f4969099db8\n      mload(0x40)\n      mload(0x40)\n      dup1\n      swap2\n      sub\n      swap1\n      log2\n        /* \"@chainlink/contracts@1.2.0/src/v0.8/functions/v1_0_0/FunctionsClient.sol\":1523:1532  requestId */\n      dup1\n        /* \"@chainlink/contracts@1.2.0/src/v0.8/functions/v1_0_0/FunctionsClient.sol\":1516:1532  return requestId */\n      swap2\n      pop\n      pop\n        /* \"@chainlink/contracts@1.2.0/src/v0.8/functions/v1_0_0/FunctionsClient.sol\":1158:1537  function _sendRequest(... */\n      swap5\n      swap4\n      pop\n      pop\n      pop\n      pop\n      jump\t// out\n        /* \"@chainlink/contracts@1.2.0/src/v0.8/shared/access/ConfirmedOwnerWithProposal.sol\":1536:1775  function _transferOwnership(address to) private {... */\n    tag_129:\n        /* \"@chainlink/contracts@1.2.0/src/v0.8/shared/access/ConfirmedOwnerWithProposal.sol\":1655:1665  msg.sender */\n      caller\n        /* \"@chainlink/contracts@1.2.0/src/v0.8/shared/access/ConfirmedOwnerWithProposal.sol\":1649:1665  to != msg.sender */\n      0xffffffffffffffffffffffffffffffffffffffff\n      and\n        /* \"@chainlink/contracts@1.2.0/src/v0.8/shared/access/ConfirmedOwnerWithProposal.sol\":1649:1651  to */\n      dup2\n        /* \"@chainlink/contracts@1.2.0/src/v0.8/shared/access/ConfirmedOwnerWithProposal.sol\":1649:1665  to != msg.sender */\n      0xffffffffffffffffffffffffffffffffffffffff\n      and\n      sub\n        /* \"@chainlink/contracts@1.2.0/src/v0.8/shared/access/ConfirmedOwnerWithProposal.sol\":1641:1693  require(to != msg.sender, \"Cannot transfer to self\") */\n      tag_228\n      jumpi\n      mload(0x40)\n      0x08c379a000000000000000000000000000000000000000000000000000000000\n      dup2\n      mstore\n      0x04\n      add\n      tag_229\n      swap1\n      tag_230\n      jump\t// in\n    tag_229:\n      mload(0x40)\n      dup1\n      swap2\n      sub\n      swap1\n      revert\n    tag_228:\n        /* \"@chainlink/contracts@1.2.0/src/v0.8/shared/access/ConfirmedOwnerWithProposal.sol\":1717:1719  to */\n      dup1\n        /* \"@chainlink/contracts@1.2.0/src/v0.8/shared/access/ConfirmedOwnerWithProposal.sol\":1700:1714  s_pendingOwner */\n      0x01\n      0x00\n        /* \"@chainlink/contracts@1.2.0/src/v0.8/shared/access/ConfirmedOwnerWithProposal.sol\":1700:1719  s_pendingOwner = to */\n      0x0100\n      exp\n      dup2\n      sload\n      dup2\n      0xffffffffffffffffffffffffffffffffffffffff\n      mul\n      not\n      and\n      swap1\n      dup4\n      0xffffffffffffffffffffffffffffffffffffffff\n      and\n      mul\n      or\n      swap1\n      sstore\n      pop\n        /* \"@chainlink/contracts@1.2.0/src/v0.8/shared/access/ConfirmedOwnerWithProposal.sol\":1767:1769  to */\n      dup1\n        /* \"@chainlink/contracts@1.2.0/src/v0.8/shared/access/ConfirmedOwnerWithProposal.sol\":1731:1770  OwnershipTransferRequested(s_owner, to) */\n      0xffffffffffffffffffffffffffffffffffffffff\n      and\n        /* \"@chainlink/contracts@1.2.0/src/v0.8/shared/access/ConfirmedOwnerWithProposal.sol\":1758:1765  s_owner */\n      0x00\n      dup1\n      sload\n      swap1\n      0x0100\n      exp\n      swap1\n      div\n      0xffffffffffffffffffffffffffffffffffffffff\n      and\n        /* \"@chainlink/contracts@1.2.0/src/v0.8/shared/access/ConfirmedOwnerWithProposal.sol\":1731:1770  OwnershipTransferRequested(s_owner, to) */\n      0xffffffffffffffffffffffffffffffffffffffff\n      and\n      0xed8889f560326eb138920d842192f0eb3dd22b4f139c87a2c57538e05bae1278\n      mload(0x40)\n      mload(0x40)\n      dup1\n      swap2\n      sub\n      swap1\n      log3\n        /* \"@chainlink/contracts@1.2.0/src/v0.8/shared/access/ConfirmedOwnerWithProposal.sol\":1536:1775  function _transferOwnership(address to) private {... */\n      pop\n      jump\t// out\n        /* \"@chainlink/contracts@1.2.0/src/v0.8/functions/v1_0_0/libraries/FunctionsRequest.sol\":3777:4084  function initializeRequest(... */\n    tag_144:\n        /* \"@chainlink/contracts@1.2.0/src/v0.8/functions/v1_0_0/libraries/FunctionsRequest.sol\":3961:3962  0 */\n      0x00\n        /* \"@chainlink/contracts@1.2.0/src/v0.8/functions/v1_0_0/libraries/FunctionsRequest.sol\":3943:3949  source */\n      dup2\n        /* \"@chainlink/contracts@1.2.0/src/v0.8/functions/v1_0_0/libraries/FunctionsRequest.sol\":3937:3957  bytes(source).length */\n      mload\n        /* \"@chainlink/contracts@1.2.0/src/v0.8/functions/v1_0_0/libraries/FunctionsRequest.sol\":3937:3962  bytes(source).length == 0 */\n      sub\n        /* \"@chainlink/contracts@1.2.0/src/v0.8/functions/v1_0_0/libraries/FunctionsRequest.sol\":3933:3984  if (bytes(source).length == 0) revert EmptySource() */\n      tag_232\n      jumpi\n        /* \"@chainlink/contracts@1.2.0/src/v0.8/functions/v1_0_0/libraries/FunctionsRequest.sol\":3971:3984  EmptySource() */\n      mload(0x40)\n      0x22ce3edd00000000000000000000000000000000000000000000000000000000\n      dup2\n      mstore\n      0x04\n      add\n      mload(0x40)\n      dup1\n      swap2\n      sub\n      swap1\n      revert\n        /* \"@chainlink/contracts@1.2.0/src/v0.8/functions/v1_0_0/libraries/FunctionsRequest.sol\":3933:3984  if (bytes(source).length == 0) revert EmptySource() */\n    tag_232:\n        /* \"@chainlink/contracts@1.2.0/src/v0.8/functions/v1_0_0/libraries/FunctionsRequest.sol\":4011:4023  codeLocation */\n      dup3\n        /* \"@chainlink/contracts@1.2.0/src/v0.8/functions/v1_0_0/libraries/FunctionsRequest.sol\":3991:3995  self */\n      dup5\n        /* \"@chainlink/contracts@1.2.0/src/v0.8/functions/v1_0_0/libraries/FunctionsRequest.sol\":3991:4008  self.codeLocation */\n      0x00\n      add\n        /* \"@chainlink/contracts@1.2.0/src/v0.8/functions/v1_0_0/libraries/FunctionsRequest.sol\":3991:4023  self.codeLocation = codeLocation */\n      swap1\n      0x02\n      dup2\n      gt\n      iszero\n      tag_233\n      jumpi\n      tag_234\n      tag_149\n      jump\t// in\n    tag_234:\n    tag_233:\n      swap1\n      dup2\n      0x02\n      dup2\n      gt\n      iszero\n      tag_235\n      jumpi\n      tag_236\n      tag_149\n      jump\t// in\n    tag_236:\n    tag_235:\n      dup2\n      mstore\n      pop\n      pop\n        /* \"@chainlink/contracts@1.2.0/src/v0.8/functions/v1_0_0/libraries/FunctionsRequest.sol\":4045:4053  language */\n      dup2\n        /* \"@chainlink/contracts@1.2.0/src/v0.8/functions/v1_0_0/libraries/FunctionsRequest.sol\":4029:4033  self */\n      dup5\n        /* \"@chainlink/contracts@1.2.0/src/v0.8/functions/v1_0_0/libraries/FunctionsRequest.sol\":4029:4042  self.language */\n      0x40\n      add\n        /* \"@chainlink/contracts@1.2.0/src/v0.8/functions/v1_0_0/libraries/FunctionsRequest.sol\":4029:4053  self.language = language */\n      swap1\n      0x00\n      dup2\n      gt\n      iszero\n      tag_237\n      jumpi\n      tag_238\n      tag_149\n      jump\t// in\n    tag_238:\n    tag_237:\n      swap1\n      dup2\n      0x00\n      dup2\n      gt\n      iszero\n      tag_239\n      jumpi\n      tag_240\n      tag_149\n      jump\t// in\n    tag_240:\n    tag_239:\n      dup2\n      mstore\n      pop\n      pop\n        /* \"@chainlink/contracts@1.2.0/src/v0.8/functions/v1_0_0/libraries/FunctionsRequest.sol\":4073:4079  source */\n      dup1\n        /* \"@chainlink/contracts@1.2.0/src/v0.8/functions/v1_0_0/libraries/FunctionsRequest.sol\":4059:4063  self */\n      dup5\n        /* \"@chainlink/contracts@1.2.0/src/v0.8/functions/v1_0_0/libraries/FunctionsRequest.sol\":4059:4070  self.source */\n      0x60\n      add\n        /* \"@chainlink/contracts@1.2.0/src/v0.8/functions/v1_0_0/libraries/FunctionsRequest.sol\":4059:4079  self.source = source */\n      dup2\n      swap1\n      mstore\n      pop\n        /* \"@chainlink/contracts@1.2.0/src/v0.8/functions/v1_0_0/libraries/FunctionsRequest.sol\":3777:4084  function initializeRequest(... */\n      pop\n      pop\n      pop\n      pop\n      jump\t// out\n        /* \"@chainlink/contracts@1.2.0/src/v0.8/vendor/solidity-cborutils/v2.0.0/CBOR.sol\":1490:1663  function create(uint256 capacity) internal pure returns(CBORBuffer memory cbor) {... */\n    tag_154:\n        /* \"@chainlink/contracts@1.2.0/src/v0.8/vendor/solidity-cborutils/v2.0.0/CBOR.sol\":1546:1568  CBORBuffer memory cbor */\n      tag_241\n      tag_242\n      jump\t// in\n    tag_241:\n        /* \"@chainlink/contracts@1.2.0/src/v0.8/vendor/solidity-cborutils/v2.0.0/CBOR.sol\":1580:1611  Buffer.init(cbor.buf, capacity) */\n      tag_244\n        /* \"@chainlink/contracts@1.2.0/src/v0.8/vendor/solidity-cborutils/v2.0.0/CBOR.sol\":1592:1596  cbor */\n      dup2\n        /* \"@chainlink/contracts@1.2.0/src/v0.8/vendor/solidity-cborutils/v2.0.0/CBOR.sol\":1592:1600  cbor.buf */\n      0x00\n      add\n      mload\n        /* \"@chainlink/contracts@1.2.0/src/v0.8/vendor/solidity-cborutils/v2.0.0/CBOR.sol\":1602:1610  capacity */\n      dup4\n        /* \"@chainlink/contracts@1.2.0/src/v0.8/vendor/solidity-cborutils/v2.0.0/CBOR.sol\":1580:1591  Buffer.init */\n      tag_245\n        /* \"@chainlink/contracts@1.2.0/src/v0.8/vendor/solidity-cborutils/v2.0.0/CBOR.sol\":1580:1611  Buffer.init(cbor.buf, capacity) */\n      jump\t// in\n    tag_244:\n      pop\n        /* \"@chainlink/contracts@1.2.0/src/v0.8/vendor/solidity-cborutils/v2.0.0/CBOR.sol\":1634:1635  0 */\n      0x00\n        /* \"@chainlink/contracts@1.2.0/src/v0.8/vendor/solidity-cborutils/v2.0.0/CBOR.sol\":1621:1625  cbor */\n      dup2\n        /* \"@chainlink/contracts@1.2.0/src/v0.8/vendor/solidity-cborutils/v2.0.0/CBOR.sol\":1621:1631  cbor.depth */\n      0x20\n      add\n        /* \"@chainlink/contracts@1.2.0/src/v0.8/vendor/solidity-cborutils/v2.0.0/CBOR.sol\":1621:1635  cbor.depth = 0 */\n      dup2\n      dup2\n      mstore\n      pop\n      pop\n        /* \"@chainlink/contracts@1.2.0/src/v0.8/vendor/solidity-cborutils/v2.0.0/CBOR.sol\":1490:1663  function create(uint256 capacity) internal pure returns(CBORBuffer memory cbor) {... */\n      swap2\n      swap1\n      pop\n      jump\t// out\n        /* \"@chainlink/contracts@1.2.0/src/v0.8/vendor/solidity-cborutils/v2.0.0/CBOR.sol\":3021:3225  function writeString(CBORBuffer memory buf, string memory value) internal pure {... */\n    tag_156:\n        /* \"@chainlink/contracts@1.2.0/src/v0.8/vendor/solidity-cborutils/v2.0.0/CBOR.sol\":3110:3180  writeFixedNumeric(buf, MAJOR_TYPE_STRING, uint64(bytes(value).length)) */\n      tag_247\n        /* \"@chainlink/contracts@1.2.0/src/v0.8/vendor/solidity-cborutils/v2.0.0/CBOR.sol\":3128:3131  buf */\n      dup3\n        /* \"@chainlink/contracts@1.2.0/src/v0.8/vendor/solidity-cborutils/v2.0.0/CBOR.sol\":998:999  3 */\n      0x03\n        /* \"@chainlink/contracts@1.2.0/src/v0.8/vendor/solidity-cborutils/v2.0.0/CBOR.sol\":3165:3170  value */\n      dup4\n        /* \"@chainlink/contracts@1.2.0/src/v0.8/vendor/solidity-cborutils/v2.0.0/CBOR.sol\":3159:3178  bytes(value).length */\n      mload\n        /* \"@chainlink/contracts@1.2.0/src/v0.8/vendor/solidity-cborutils/v2.0.0/CBOR.sol\":3110:3127  writeFixedNumeric */\n      tag_248\n        /* \"@chainlink/contracts@1.2.0/src/v0.8/vendor/solidity-cborutils/v2.0.0/CBOR.sol\":3110:3180  writeFixedNumeric(buf, MAJOR_TYPE_STRING, uint64(bytes(value).length)) */\n      jump\t// in\n    tag_247:\n        /* \"@chainlink/contracts@1.2.0/src/v0.8/vendor/solidity-cborutils/v2.0.0/CBOR.sol\":3190:3218  buf.buf.append(bytes(value)) */\n      tag_249\n        /* \"@chainlink/contracts@1.2.0/src/v0.8/vendor/solidity-cborutils/v2.0.0/CBOR.sol\":3211:3216  value */\n      dup2\n        /* \"@chainlink/contracts@1.2.0/src/v0.8/vendor/solidity-cborutils/v2.0.0/CBOR.sol\":3190:3193  buf */\n      dup4\n        /* \"@chainlink/contracts@1.2.0/src/v0.8/vendor/solidity-cborutils/v2.0.0/CBOR.sol\":3190:3197  buf.buf */\n      0x00\n      add\n      mload\n        /* \"@chainlink/contracts@1.2.0/src/v0.8/vendor/solidity-cborutils/v2.0.0/CBOR.sol\":3190:3204  buf.buf.append */\n      tag_250\n      swap1\n        /* \"@chainlink/contracts@1.2.0/src/v0.8/vendor/solidity-cborutils/v2.0.0/CBOR.sol\":3190:3218  buf.buf.append(bytes(value)) */\n      swap2\n      swap1\n      0xffffffff\n      and\n      jump\t// in\n    tag_249:\n      pop\n        /* \"@chainlink/contracts@1.2.0/src/v0.8/vendor/solidity-cborutils/v2.0.0/CBOR.sol\":3021:3225  function writeString(CBORBuffer memory buf, string memory value) internal pure {... */\n      pop\n      pop\n      jump\t// out\n        /* \"@chainlink/contracts@1.2.0/src/v0.8/vendor/solidity-cborutils/v2.0.0/CBOR.sol\":2406:2540  function writeUInt64(CBORBuffer memory buf, uint64 value) internal pure {... */\n    tag_158:\n        /* \"@chainlink/contracts@1.2.0/src/v0.8/vendor/solidity-cborutils/v2.0.0/CBOR.sol\":2488:2533  writeFixedNumeric(buf, MAJOR_TYPE_INT, value) */\n      tag_252\n        /* \"@chainlink/contracts@1.2.0/src/v0.8/vendor/solidity-cborutils/v2.0.0/CBOR.sol\":2506:2509  buf */\n      dup3\n        /* \"@chainlink/contracts@1.2.0/src/v0.8/vendor/solidity-cborutils/v2.0.0/CBOR.sol\":843:844  0 */\n      0x00\n        /* \"@chainlink/contracts@1.2.0/src/v0.8/vendor/solidity-cborutils/v2.0.0/CBOR.sol\":2527:2532  value */\n      dup4\n        /* \"@chainlink/contracts@1.2.0/src/v0.8/vendor/solidity-cborutils/v2.0.0/CBOR.sol\":2488:2505  writeFixedNumeric */\n      tag_248\n        /* \"@chainlink/contracts@1.2.0/src/v0.8/vendor/solidity-cborutils/v2.0.0/CBOR.sol\":2488:2533  writeFixedNumeric(buf, MAJOR_TYPE_INT, value) */\n      jump\t// in\n    tag_252:\n        /* \"@chainlink/contracts@1.2.0/src/v0.8/vendor/solidity-cborutils/v2.0.0/CBOR.sol\":2406:2540  function writeUInt64(CBORBuffer memory buf, uint64 value) internal pure {... */\n      pop\n      pop\n      jump\t// out\n        /* \"@chainlink/contracts@1.2.0/src/v0.8/vendor/solidity-cborutils/v2.0.0/CBOR.sol\":1832:2034  function writeUInt256(CBORBuffer memory buf, uint256 value) internal pure {... */\n    tag_175:\n        /* \"@chainlink/contracts@1.2.0/src/v0.8/vendor/solidity-cborutils/v2.0.0/CBOR.sol\":1916:1983  buf.buf.appendUint8(uint8((MAJOR_TYPE_TAG << 5) | TAG_TYPE_BIGNUM)) */\n      tag_254\n        /* \"@chainlink/contracts@1.2.0/src/v0.8/vendor/solidity-cborutils/v2.0.0/CBOR.sol\":1246:1247  2 */\n      0x02\n        /* \"@chainlink/contracts@1.2.0/src/v0.8/vendor/solidity-cborutils/v2.0.0/CBOR.sol\":1961:1962  5 */\n      0x05\n        /* \"@chainlink/contracts@1.2.0/src/v0.8/vendor/solidity-cborutils/v2.0.0/CBOR.sol\":1141:1142  6 */\n      0x06\n        /* \"@chainlink/contracts@1.2.0/src/v0.8/vendor/solidity-cborutils/v2.0.0/CBOR.sol\":1943:1962  MAJOR_TYPE_TAG << 5 */\n      0xff\n      and\n      swap1\n      shl\n        /* \"@chainlink/contracts@1.2.0/src/v0.8/vendor/solidity-cborutils/v2.0.0/CBOR.sol\":1942:1981  (MAJOR_TYPE_TAG << 5) | TAG_TYPE_BIGNUM */\n      or\n        /* \"@chainlink/contracts@1.2.0/src/v0.8/vendor/solidity-cborutils/v2.0.0/CBOR.sol\":1916:1919  buf */\n      dup4\n        /* \"@chainlink/contracts@1.2.0/src/v0.8/vendor/solidity-cborutils/v2.0.0/CBOR.sol\":1916:1923  buf.buf */\n      0x00\n      add\n      mload\n        /* \"@chainlink/contracts@1.2.0/src/v0.8/vendor/solidity-cborutils/v2.0.0/CBOR.sol\":1916:1935  buf.buf.appendUint8 */\n      tag_255\n      swap1\n        /* \"@chainlink/contracts@1.2.0/src/v0.8/vendor/solidity-cborutils/v2.0.0/CBOR.sol\":1916:1983  buf.buf.appendUint8(uint8((MAJOR_TYPE_TAG << 5) | TAG_TYPE_BIGNUM)) */\n      swap2\n      swap1\n      0xffffffff\n      and\n      jump\t// in\n    tag_254:\n      pop\n        /* \"@chainlink/contracts@1.2.0/src/v0.8/vendor/solidity-cborutils/v2.0.0/CBOR.sol\":1993:2027  writeBytes(buf, abi.encode(value)) */\n      tag_256\n        /* \"@chainlink/contracts@1.2.0/src/v0.8/vendor/solidity-cborutils/v2.0.0/CBOR.sol\":2004:2007  buf */\n      dup3\n        /* \"@chainlink/contracts@1.2.0/src/v0.8/vendor/solidity-cborutils/v2.0.0/CBOR.sol\":2020:2025  value */\n      dup3\n        /* \"@chainlink/contracts@1.2.0/src/v0.8/vendor/solidity-cborutils/v2.0.0/CBOR.sol\":2009:2026  abi.encode(value) */\n      add(0x20, mload(0x40))\n      tag_257\n      swap2\n      swap1\n      tag_27\n      jump\t// in\n    tag_257:\n      mload(0x40)\n      0x20\n      dup2\n      dup4\n      sub\n      sub\n      dup2\n      mstore\n      swap1\n      0x40\n      mstore\n        /* \"@chainlink/contracts@1.2.0/src/v0.8/vendor/solidity-cborutils/v2.0.0/CBOR.sol\":1993:2003  writeBytes */\n      tag_208\n        /* \"@chainlink/contracts@1.2.0/src/v0.8/vendor/solidity-cborutils/v2.0.0/CBOR.sol\":1993:2027  writeBytes(buf, abi.encode(value)) */\n      jump\t// in\n    tag_256:\n        /* \"@chainlink/contracts@1.2.0/src/v0.8/vendor/solidity-cborutils/v2.0.0/CBOR.sol\":1832:2034  function writeUInt256(CBORBuffer memory buf, uint256 value) internal pure {... */\n      pop\n      pop\n      jump\t// out\n        /* \"@chainlink/contracts@1.2.0/src/v0.8/vendor/solidity-cborutils/v2.0.0/CBOR.sol\":3607:3753  function startArray(CBORBuffer memory buf) internal pure {... */\n    tag_185:\n        /* \"@chainlink/contracts@1.2.0/src/v0.8/vendor/solidity-cborutils/v2.0.0/CBOR.sol\":3674:3722  writeIndefiniteLengthType(buf, MAJOR_TYPE_ARRAY) */\n      tag_259\n        /* \"@chainlink/contracts@1.2.0/src/v0.8/vendor/solidity-cborutils/v2.0.0/CBOR.sol\":3700:3703  buf */\n      dup2\n        /* \"@chainlink/contracts@1.2.0/src/v0.8/vendor/solidity-cborutils/v2.0.0/CBOR.sol\":1047:1048  4 */\n      0x04\n        /* \"@chainlink/contracts@1.2.0/src/v0.8/vendor/solidity-cborutils/v2.0.0/CBOR.sol\":3674:3699  writeIndefiniteLengthType */\n      tag_260\n        /* \"@chainlink/contracts@1.2.0/src/v0.8/vendor/solidity-cborutils/v2.0.0/CBOR.sol\":3674:3722  writeIndefiniteLengthType(buf, MAJOR_TYPE_ARRAY) */\n      jump\t// in\n    tag_259:\n        /* \"@chainlink/contracts@1.2.0/src/v0.8/vendor/solidity-cborutils/v2.0.0/CBOR.sol\":3745:3746  1 */\n      0x01\n        /* \"@chainlink/contracts@1.2.0/src/v0.8/vendor/solidity-cborutils/v2.0.0/CBOR.sol\":3732:3735  buf */\n      dup2\n        /* \"@chainlink/contracts@1.2.0/src/v0.8/vendor/solidity-cborutils/v2.0.0/CBOR.sol\":3732:3741  buf.depth */\n      0x20\n      add\n        /* \"@chainlink/contracts@1.2.0/src/v0.8/vendor/solidity-cborutils/v2.0.0/CBOR.sol\":3732:3746  buf.depth += 1 */\n      dup2\n      dup2\n      mload\n      tag_261\n      swap2\n      swap1\n      tag_262\n      jump\t// in\n    tag_261:\n      swap2\n      pop\n      dup2\n      dup2\n      mstore\n      pop\n      pop\n        /* \"@chainlink/contracts@1.2.0/src/v0.8/vendor/solidity-cborutils/v2.0.0/CBOR.sol\":3607:3753  function startArray(CBORBuffer memory buf) internal pure {... */\n      pop\n      jump\t// out\n        /* \"@chainlink/contracts@1.2.0/src/v0.8/vendor/solidity-cborutils/v2.0.0/CBOR.sol\":4211:4365  function endSequence(CBORBuffer memory buf) internal pure {... */\n    tag_195:\n        /* \"@chainlink/contracts@1.2.0/src/v0.8/vendor/solidity-cborutils/v2.0.0/CBOR.sol\":4279:4334  writeIndefiniteLengthType(buf, MAJOR_TYPE_CONTENT_FREE) */\n      tag_264\n        /* \"@chainlink/contracts@1.2.0/src/v0.8/vendor/solidity-cborutils/v2.0.0/CBOR.sol\":4305:4308  buf */\n      dup2\n        /* \"@chainlink/contracts@1.2.0/src/v0.8/vendor/solidity-cborutils/v2.0.0/CBOR.sol\":1197:1198  7 */\n      0x07\n        /* \"@chainlink/contracts@1.2.0/src/v0.8/vendor/solidity-cborutils/v2.0.0/CBOR.sol\":4279:4304  writeIndefiniteLengthType */\n      tag_260\n        /* \"@chainlink/contracts@1.2.0/src/v0.8/vendor/solidity-cborutils/v2.0.0/CBOR.sol\":4279:4334  writeIndefiniteLengthType(buf, MAJOR_TYPE_CONTENT_FREE) */\n      jump\t// in\n    tag_264:\n        /* \"@chainlink/contracts@1.2.0/src/v0.8/vendor/solidity-cborutils/v2.0.0/CBOR.sol\":4357:4358  1 */\n      0x01\n        /* \"@chainlink/contracts@1.2.0/src/v0.8/vendor/solidity-cborutils/v2.0.0/CBOR.sol\":4344:4347  buf */\n      dup2\n        /* \"@chainlink/contracts@1.2.0/src/v0.8/vendor/solidity-cborutils/v2.0.0/CBOR.sol\":4344:4353  buf.depth */\n      0x20\n      add\n        /* \"@chainlink/contracts@1.2.0/src/v0.8/vendor/solidity-cborutils/v2.0.0/CBOR.sol\":4344:4358  buf.depth -= 1 */\n      dup2\n      dup2\n      mload\n      tag_265\n      swap2\n      swap1\n      tag_266\n      jump\t// in\n    tag_265:\n      swap2\n      pop\n      dup2\n      dup2\n      mstore\n      pop\n      pop\n        /* \"@chainlink/contracts@1.2.0/src/v0.8/vendor/solidity-cborutils/v2.0.0/CBOR.sol\":4211:4365  function endSequence(CBORBuffer memory buf) internal pure {... */\n      pop\n      jump\t// out\n        /* \"@chainlink/contracts@1.2.0/src/v0.8/vendor/solidity-cborutils/v2.0.0/CBOR.sol\":2828:3015  function writeBytes(CBORBuffer memory buf, bytes memory value) internal pure {... */\n    tag_208:\n        /* \"@chainlink/contracts@1.2.0/src/v0.8/vendor/solidity-cborutils/v2.0.0/CBOR.sol\":2915:2977  writeFixedNumeric(buf, MAJOR_TYPE_BYTES, uint64(value.length)) */\n      tag_268\n        /* \"@chainlink/contracts@1.2.0/src/v0.8/vendor/solidity-cborutils/v2.0.0/CBOR.sol\":2933:2936  buf */\n      dup3\n        /* \"@chainlink/contracts@1.2.0/src/v0.8/vendor/solidity-cborutils/v2.0.0/CBOR.sol\":948:949  2 */\n      0x02\n        /* \"@chainlink/contracts@1.2.0/src/v0.8/vendor/solidity-cborutils/v2.0.0/CBOR.sol\":2963:2968  value */\n      dup4\n        /* \"@chainlink/contracts@1.2.0/src/v0.8/vendor/solidity-cborutils/v2.0.0/CBOR.sol\":2963:2975  value.length */\n      mload\n        /* \"@chainlink/contracts@1.2.0/src/v0.8/vendor/solidity-cborutils/v2.0.0/CBOR.sol\":2915:2932  writeFixedNumeric */\n      tag_248\n        /* \"@chainlink/contracts@1.2.0/src/v0.8/vendor/solidity-cborutils/v2.0.0/CBOR.sol\":2915:2977  writeFixedNumeric(buf, MAJOR_TYPE_BYTES, uint64(value.length)) */\n      jump\t// in\n    tag_268:\n        /* \"@chainlink/contracts@1.2.0/src/v0.8/vendor/solidity-cborutils/v2.0.0/CBOR.sol\":2987:3008  buf.buf.append(value) */\n      tag_269\n        /* \"@chainlink/contracts@1.2.0/src/v0.8/vendor/solidity-cborutils/v2.0.0/CBOR.sol\":3002:3007  value */\n      dup2\n        /* \"@chainlink/contracts@1.2.0/src/v0.8/vendor/solidity-cborutils/v2.0.0/CBOR.sol\":2987:2990  buf */\n      dup4\n        /* \"@chainlink/contracts@1.2.0/src/v0.8/vendor/solidity-cborutils/v2.0.0/CBOR.sol\":2987:2994  buf.buf */\n      0x00\n      add\n      mload\n        /* \"@chainlink/contracts@1.2.0/src/v0.8/vendor/solidity-cborutils/v2.0.0/CBOR.sol\":2987:3001  buf.buf.append */\n      tag_250\n      swap1\n        /* \"@chainlink/contracts@1.2.0/src/v0.8/vendor/solidity-cborutils/v2.0.0/CBOR.sol\":2987:3008  buf.buf.append(value) */\n      swap2\n      swap1\n      0xffffffff\n      and\n      jump\t// in\n    tag_269:\n      pop\n        /* \"@chainlink/contracts@1.2.0/src/v0.8/vendor/solidity-cborutils/v2.0.0/CBOR.sol\":2828:3015  function writeBytes(CBORBuffer memory buf, bytes memory value) internal pure {... */\n      pop\n      pop\n      jump\t// out\n        /* \"@chainlink/contracts@1.2.0/src/v0.8/vendor/@ensdomains/buffer/v0.1.0/Buffer.sol\":1020:1575  function init(buffer memory buf, uint capacity) internal pure returns(buffer memory) {... */\n    tag_245:\n        /* \"@chainlink/contracts@1.2.0/src/v0.8/vendor/@ensdomains/buffer/v0.1.0/Buffer.sol\":1090:1103  buffer memory */\n      tag_270\n      tag_271\n      jump\t// in\n    tag_270:\n        /* \"@chainlink/contracts@1.2.0/src/v0.8/vendor/@ensdomains/buffer/v0.1.0/Buffer.sol\":1136:1137  0 */\n      0x00\n        /* \"@chainlink/contracts@1.2.0/src/v0.8/vendor/@ensdomains/buffer/v0.1.0/Buffer.sol\":1130:1132  32 */\n      0x20\n        /* \"@chainlink/contracts@1.2.0/src/v0.8/vendor/@ensdomains/buffer/v0.1.0/Buffer.sol\":1119:1127  capacity */\n      dup4\n        /* \"@chainlink/contracts@1.2.0/src/v0.8/vendor/@ensdomains/buffer/v0.1.0/Buffer.sol\":1119:1132  capacity % 32 */\n      tag_273\n      swap2\n      swap1\n      tag_274\n      jump\t// in\n    tag_273:\n        /* \"@chainlink/contracts@1.2.0/src/v0.8/vendor/@ensdomains/buffer/v0.1.0/Buffer.sol\":1119:1137  capacity % 32 != 0 */\n      eq\n        /* \"@chainlink/contracts@1.2.0/src/v0.8/vendor/@ensdomains/buffer/v0.1.0/Buffer.sol\":1115:1196  if (capacity % 32 != 0) {... */\n      tag_275\n      jumpi\n        /* \"@chainlink/contracts@1.2.0/src/v0.8/vendor/@ensdomains/buffer/v0.1.0/Buffer.sol\":1182:1184  32 */\n      0x20\n        /* \"@chainlink/contracts@1.2.0/src/v0.8/vendor/@ensdomains/buffer/v0.1.0/Buffer.sol\":1171:1179  capacity */\n      dup3\n        /* \"@chainlink/contracts@1.2.0/src/v0.8/vendor/@ensdomains/buffer/v0.1.0/Buffer.sol\":1171:1184  capacity % 32 */\n      tag_276\n      swap2\n      swap1\n      tag_274\n      jump\t// in\n    tag_276:\n        /* \"@chainlink/contracts@1.2.0/src/v0.8/vendor/@ensdomains/buffer/v0.1.0/Buffer.sol\":1165:1167  32 */\n      0x20\n        /* \"@chainlink/contracts@1.2.0/src/v0.8/vendor/@ensdomains/buffer/v0.1.0/Buffer.sol\":1165:1185  32 - (capacity % 32) */\n      tag_277\n      swap2\n      swap1\n      tag_266\n      jump\t// in\n    tag_277:\n        /* \"@chainlink/contracts@1.2.0/src/v0.8/vendor/@ensdomains/buffer/v0.1.0/Buffer.sol\":1153:1185  capacity += 32 - (capacity % 32) */\n      dup3\n      tag_278\n      swap2\n      swap1\n      tag_262\n      jump\t// in\n    tag_278:\n      swap2\n      pop\n        /* \"@chainlink/contracts@1.2.0/src/v0.8/vendor/@ensdomains/buffer/v0.1.0/Buffer.sol\":1115:1196  if (capacity % 32 != 0) {... */\n    tag_275:\n        /* \"@chainlink/contracts@1.2.0/src/v0.8/vendor/@ensdomains/buffer/v0.1.0/Buffer.sol\":1266:1274  capacity */\n      dup2\n        /* \"@chainlink/contracts@1.2.0/src/v0.8/vendor/@ensdomains/buffer/v0.1.0/Buffer.sol\":1251:1254  buf */\n      dup4\n        /* \"@chainlink/contracts@1.2.0/src/v0.8/vendor/@ensdomains/buffer/v0.1.0/Buffer.sol\":1251:1263  buf.capacity */\n      0x20\n      add\n        /* \"@chainlink/contracts@1.2.0/src/v0.8/vendor/@ensdomains/buffer/v0.1.0/Buffer.sol\":1251:1274  buf.capacity = capacity */\n      dup2\n      dup2\n      mstore\n      pop\n      pop\n        /* \"@chainlink/contracts@1.2.0/src/v0.8/vendor/@ensdomains/buffer/v0.1.0/Buffer.sol\":1324:1328  0x40 */\n      0x40\n        /* \"@chainlink/contracts@1.2.0/src/v0.8/vendor/@ensdomains/buffer/v0.1.0/Buffer.sol\":1318:1329  mload(0x40) */\n      mload\n        /* \"@chainlink/contracts@1.2.0/src/v0.8/vendor/@ensdomains/buffer/v0.1.0/Buffer.sol\":1354:1357  ptr */\n      dup1\n        /* \"@chainlink/contracts@1.2.0/src/v0.8/vendor/@ensdomains/buffer/v0.1.0/Buffer.sol\":1349:1352  buf */\n      dup5\n        /* \"@chainlink/contracts@1.2.0/src/v0.8/vendor/@ensdomains/buffer/v0.1.0/Buffer.sol\":1342:1358  mstore(buf, ptr) */\n      mstore\n        /* \"@chainlink/contracts@1.2.0/src/v0.8/vendor/@ensdomains/buffer/v0.1.0/Buffer.sol\":1383:1384  0 */\n      0x00\n        /* \"@chainlink/contracts@1.2.0/src/v0.8/vendor/@ensdomains/buffer/v0.1.0/Buffer.sol\":1378:1381  ptr */\n      dup2\n        /* \"@chainlink/contracts@1.2.0/src/v0.8/vendor/@ensdomains/buffer/v0.1.0/Buffer.sol\":1371:1385  mstore(ptr, 0) */\n      mstore\n        /* \"@chainlink/contracts@1.2.0/src/v0.8/vendor/@ensdomains/buffer/v0.1.0/Buffer.sol\":1426:1434  capacity */\n      dup3\n        /* \"@chainlink/contracts@1.2.0/src/v0.8/vendor/@ensdomains/buffer/v0.1.0/Buffer.sol\":1421:1424  ptr */\n      dup2\n        /* \"@chainlink/contracts@1.2.0/src/v0.8/vendor/@ensdomains/buffer/v0.1.0/Buffer.sol\":1417:1435  add(ptr, capacity) */\n      add\n        /* \"@chainlink/contracts@1.2.0/src/v0.8/vendor/@ensdomains/buffer/v0.1.0/Buffer.sol\":1413:1415  32 */\n      0x20\n        /* \"@chainlink/contracts@1.2.0/src/v0.8/vendor/@ensdomains/buffer/v0.1.0/Buffer.sol\":1409:1436  add(32, add(ptr, capacity)) */\n      add\n        /* \"@chainlink/contracts@1.2.0/src/v0.8/vendor/@ensdomains/buffer/v0.1.0/Buffer.sol\":1460:1463  ptr */\n      dup2\n        /* \"@chainlink/contracts@1.2.0/src/v0.8/vendor/@ensdomains/buffer/v0.1.0/Buffer.sol\":1455:1458  fpm */\n      dup2\n        /* \"@chainlink/contracts@1.2.0/src/v0.8/vendor/@ensdomains/buffer/v0.1.0/Buffer.sol\":1452:1464  lt(fpm, ptr) */\n      lt\n        /* \"@chainlink/contracts@1.2.0/src/v0.8/vendor/@ensdomains/buffer/v0.1.0/Buffer.sol\":1449:1509  if lt(fpm, ptr) {... */\n      iszero\n      tag_279\n      jumpi\n        /* \"@chainlink/contracts@1.2.0/src/v0.8/vendor/@ensdomains/buffer/v0.1.0/Buffer.sol\":1493:1494  0 */\n      0x00\n        /* \"@chainlink/contracts@1.2.0/src/v0.8/vendor/@ensdomains/buffer/v0.1.0/Buffer.sol\":1490:1491  0 */\n      dup1\n        /* \"@chainlink/contracts@1.2.0/src/v0.8/vendor/@ensdomains/buffer/v0.1.0/Buffer.sol\":1483:1495  revert(0, 0) */\n      revert\n        /* \"@chainlink/contracts@1.2.0/src/v0.8/vendor/@ensdomains/buffer/v0.1.0/Buffer.sol\":1449:1509  if lt(fpm, ptr) {... */\n    tag_279:\n        /* \"@chainlink/contracts@1.2.0/src/v0.8/vendor/@ensdomains/buffer/v0.1.0/Buffer.sol\":1535:1538  fpm */\n      dup1\n        /* \"@chainlink/contracts@1.2.0/src/v0.8/vendor/@ensdomains/buffer/v0.1.0/Buffer.sol\":1529:1533  0x40 */\n      0x40\n        /* \"@chainlink/contracts@1.2.0/src/v0.8/vendor/@ensdomains/buffer/v0.1.0/Buffer.sol\":1522:1539  mstore(0x40, fpm) */\n      mstore\n        /* \"@chainlink/contracts@1.2.0/src/v0.8/vendor/@ensdomains/buffer/v0.1.0/Buffer.sol\":1293:1549  {... */\n      pop\n      pop\n        /* \"@chainlink/contracts@1.2.0/src/v0.8/vendor/@ensdomains/buffer/v0.1.0/Buffer.sol\":1565:1568  buf */\n      dup3\n        /* \"@chainlink/contracts@1.2.0/src/v0.8/vendor/@ensdomains/buffer/v0.1.0/Buffer.sol\":1558:1568  return buf */\n      swap1\n      pop\n        /* \"@chainlink/contracts@1.2.0/src/v0.8/vendor/@ensdomains/buffer/v0.1.0/Buffer.sol\":1020:1575  function init(buffer memory buf, uint capacity) internal pure returns(buffer memory) {... */\n      swap3\n      swap2\n      pop\n      pop\n      jump\t// out\n        /* \"@chainlink/contracts@1.2.0/src/v0.8/vendor/solidity-cborutils/v2.0.0/CBOR.sol\":6156:6915  function writeFixedNumeric(... */\n    tag_248:\n        /* \"@chainlink/contracts@1.2.0/src/v0.8/vendor/solidity-cborutils/v2.0.0/CBOR.sol\":6299:6301  23 */\n      0x17\n        /* \"@chainlink/contracts@1.2.0/src/v0.8/vendor/solidity-cborutils/v2.0.0/CBOR.sol\":6290:6295  value */\n      dup2\n        /* \"@chainlink/contracts@1.2.0/src/v0.8/vendor/solidity-cborutils/v2.0.0/CBOR.sol\":6290:6301  value <= 23 */\n      0xffffffffffffffff\n      and\n      gt\n        /* \"@chainlink/contracts@1.2.0/src/v0.8/vendor/solidity-cborutils/v2.0.0/CBOR.sol\":6286:6909  if (value <= 23) {... */\n      tag_281\n      jumpi\n        /* \"@chainlink/contracts@1.2.0/src/v0.8/vendor/solidity-cborutils/v2.0.0/CBOR.sol\":6317:6365  buf.buf.appendUint8(uint8((major << 5) | value)) */\n      tag_282\n        /* \"@chainlink/contracts@1.2.0/src/v0.8/vendor/solidity-cborutils/v2.0.0/CBOR.sol\":6358:6363  value */\n      dup2\n        /* \"@chainlink/contracts@1.2.0/src/v0.8/vendor/solidity-cborutils/v2.0.0/CBOR.sol\":6353:6354  5 */\n      0x05\n        /* \"@chainlink/contracts@1.2.0/src/v0.8/vendor/solidity-cborutils/v2.0.0/CBOR.sol\":6344:6349  major */\n      dup5\n        /* \"@chainlink/contracts@1.2.0/src/v0.8/vendor/solidity-cborutils/v2.0.0/CBOR.sol\":6344:6354  major << 5 */\n      0xff\n      and\n      swap1\n      shl\n        /* \"@chainlink/contracts@1.2.0/src/v0.8/vendor/solidity-cborutils/v2.0.0/CBOR.sol\":6343:6363  (major << 5) | value */\n      0xff\n      and\n      or\n        /* \"@chainlink/contracts@1.2.0/src/v0.8/vendor/solidity-cborutils/v2.0.0/CBOR.sol\":6317:6320  buf */\n      dup5\n        /* \"@chainlink/contracts@1.2.0/src/v0.8/vendor/solidity-cborutils/v2.0.0/CBOR.sol\":6317:6324  buf.buf */\n      0x00\n      add\n      mload\n        /* \"@chainlink/contracts@1.2.0/src/v0.8/vendor/solidity-cborutils/v2.0.0/CBOR.sol\":6317:6336  buf.buf.appendUint8 */\n      tag_255\n      swap1\n        /* \"@chainlink/contracts@1.2.0/src/v0.8/vendor/solidity-cborutils/v2.0.0/CBOR.sol\":6317:6365  buf.buf.appendUint8(uint8((major << 5) | value)) */\n      swap2\n      swap1\n      0xffffffff\n      and\n      jump\t// in\n    tag_282:\n      pop\n        /* \"@chainlink/contracts@1.2.0/src/v0.8/vendor/solidity-cborutils/v2.0.0/CBOR.sol\":6286:6909  if (value <= 23) {... */\n      jump(tag_283)\n    tag_281:\n        /* \"@chainlink/contracts@1.2.0/src/v0.8/vendor/solidity-cborutils/v2.0.0/CBOR.sol\":6395:6399  0xFF */\n      0xff\n        /* \"@chainlink/contracts@1.2.0/src/v0.8/vendor/solidity-cborutils/v2.0.0/CBOR.sol\":6386:6391  value */\n      dup2\n        /* \"@chainlink/contracts@1.2.0/src/v0.8/vendor/solidity-cborutils/v2.0.0/CBOR.sol\":6386:6399  value <= 0xFF */\n      0xffffffffffffffff\n      and\n      gt\n        /* \"@chainlink/contracts@1.2.0/src/v0.8/vendor/solidity-cborutils/v2.0.0/CBOR.sol\":6382:6909  if (value <= 0xFF) {... */\n      tag_284\n      jumpi\n        /* \"@chainlink/contracts@1.2.0/src/v0.8/vendor/solidity-cborutils/v2.0.0/CBOR.sol\":6415:6460  buf.buf.appendUint8(uint8((major << 5) | 24)) */\n      tag_285\n        /* \"@chainlink/contracts@1.2.0/src/v0.8/vendor/solidity-cborutils/v2.0.0/CBOR.sol\":6456:6458  24 */\n      0x18\n        /* \"@chainlink/contracts@1.2.0/src/v0.8/vendor/solidity-cborutils/v2.0.0/CBOR.sol\":6451:6452  5 */\n      0x05\n        /* \"@chainlink/contracts@1.2.0/src/v0.8/vendor/solidity-cborutils/v2.0.0/CBOR.sol\":6442:6447  major */\n      dup5\n        /* \"@chainlink/contracts@1.2.0/src/v0.8/vendor/solidity-cborutils/v2.0.0/CBOR.sol\":6442:6452  major << 5 */\n      0xff\n      and\n      swap1\n      shl\n        /* \"@chainlink/contracts@1.2.0/src/v0.8/vendor/solidity-cborutils/v2.0.0/CBOR.sol\":6441:6458  (major << 5) | 24 */\n      or\n        /* \"@chainlink/contracts@1.2.0/src/v0.8/vendor/solidity-cborutils/v2.0.0/CBOR.sol\":6415:6418  buf */\n      dup5\n        /* \"@chainlink/contracts@1.2.0/src/v0.8/vendor/solidity-cborutils/v2.0.0/CBOR.sol\":6415:6422  buf.buf */\n      0x00\n      add\n      mload\n        /* \"@chainlink/contracts@1.2.0/src/v0.8/vendor/solidity-cborutils/v2.0.0/CBOR.sol\":6415:6434  buf.buf.appendUint8 */\n      tag_255\n      swap1\n        /* \"@chainlink/contracts@1.2.0/src/v0.8/vendor/solidity-cborutils/v2.0.0/CBOR.sol\":6415:6460  buf.buf.appendUint8(uint8((major << 5) | 24)) */\n      swap2\n      swap1\n      0xffffffff\n      and\n      jump\t// in\n    tag_285:\n      pop\n        /* \"@chainlink/contracts@1.2.0/src/v0.8/vendor/solidity-cborutils/v2.0.0/CBOR.sol\":6474:6501  buf.buf.appendInt(value, 1) */\n      tag_286\n        /* \"@chainlink/contracts@1.2.0/src/v0.8/vendor/solidity-cborutils/v2.0.0/CBOR.sol\":6492:6497  value */\n      dup2\n        /* \"@chainlink/contracts@1.2.0/src/v0.8/vendor/solidity-cborutils/v2.0.0/CBOR.sol\":6474:6501  buf.buf.appendInt(value, 1) */\n      0xffffffffffffffff\n      and\n        /* \"@chainlink/contracts@1.2.0/src/v0.8/vendor/solidity-cborutils/v2.0.0/CBOR.sol\":6499:6500  1 */\n      0x01\n        /* \"@chainlink/contracts@1.2.0/src/v0.8/vendor/solidity-cborutils/v2.0.0/CBOR.sol\":6474:6477  buf */\n      dup6\n        /* \"@chainlink/contracts@1.2.0/src/v0.8/vendor/solidity-cborutils/v2.0.0/CBOR.sol\":6474:6481  buf.buf */\n      0x00\n      add\n      mload\n        /* \"@chainlink/contracts@1.2.0/src/v0.8/vendor/solidity-cborutils/v2.0.0/CBOR.sol\":6474:6491  buf.buf.appendInt */\n      tag_287\n      swap1\n        /* \"@chainlink/contracts@1.2.0/src/v0.8/vendor/solidity-cborutils/v2.0.0/CBOR.sol\":6474:6501  buf.buf.appendInt(value, 1) */\n      swap3\n      swap2\n      swap1\n      0xffffffff\n      and\n      jump\t// in\n    tag_286:\n      pop\n        /* \"@chainlink/contracts@1.2.0/src/v0.8/vendor/solidity-cborutils/v2.0.0/CBOR.sol\":6382:6909  if (value <= 0xFF) {... */\n      jump(tag_288)\n    tag_284:\n        /* \"@chainlink/contracts@1.2.0/src/v0.8/vendor/solidity-cborutils/v2.0.0/CBOR.sol\":6531:6537  0xFFFF */\n      0xffff\n        /* \"@chainlink/contracts@1.2.0/src/v0.8/vendor/solidity-cborutils/v2.0.0/CBOR.sol\":6522:6527  value */\n      dup2\n        /* \"@chainlink/contracts@1.2.0/src/v0.8/vendor/solidity-cborutils/v2.0.0/CBOR.sol\":6522:6537  value <= 0xFFFF */\n      0xffffffffffffffff\n      and\n      gt\n        /* \"@chainlink/contracts@1.2.0/src/v0.8/vendor/solidity-cborutils/v2.0.0/CBOR.sol\":6518:6909  if (value <= 0xFFFF) {... */\n      tag_289\n      jumpi\n        /* \"@chainlink/contracts@1.2.0/src/v0.8/vendor/solidity-cborutils/v2.0.0/CBOR.sol\":6553:6598  buf.buf.appendUint8(uint8((major << 5) | 25)) */\n      tag_290\n        /* \"@chainlink/contracts@1.2.0/src/v0.8/vendor/solidity-cborutils/v2.0.0/CBOR.sol\":6594:6596  25 */\n      0x19\n        /* \"@chainlink/contracts@1.2.0/src/v0.8/vendor/solidity-cborutils/v2.0.0/CBOR.sol\":6589:6590  5 */\n      0x05\n        /* \"@chainlink/contracts@1.2.0/src/v0.8/vendor/solidity-cborutils/v2.0.0/CBOR.sol\":6580:6585  major */\n      dup5\n        /* \"@chainlink/contracts@1.2.0/src/v0.8/vendor/solidity-cborutils/v2.0.0/CBOR.sol\":6580:6590  major << 5 */\n      0xff\n      and\n      swap1\n      shl\n        /* \"@chainlink/contracts@1.2.0/src/v0.8/vendor/solidity-cborutils/v2.0.0/CBOR.sol\":6579:6596  (major << 5) | 25 */\n      or\n        /* \"@chainlink/contracts@1.2.0/src/v0.8/vendor/solidity-cborutils/v2.0.0/CBOR.sol\":6553:6556  buf */\n      dup5\n        /* \"@chainlink/contracts@1.2.0/src/v0.8/vendor/solidity-cborutils/v2.0.0/CBOR.sol\":6553:6560  buf.buf */\n      0x00\n      add\n      mload\n        /* \"@chainlink/contracts@1.2.0/src/v0.8/vendor/solidity-cborutils/v2.0.0/CBOR.sol\":6553:6572  buf.buf.appendUint8 */\n      tag_255\n      swap1\n        /* \"@chainlink/contracts@1.2.0/src/v0.8/vendor/solidity-cborutils/v2.0.0/CBOR.sol\":6553:6598  buf.buf.appendUint8(uint8((major << 5) | 25)) */\n      swap2\n      swap1\n      0xffffffff\n      and\n      jump\t// in\n    tag_290:\n      pop\n        /* \"@chainlink/contracts@1.2.0/src/v0.8/vendor/solidity-cborutils/v2.0.0/CBOR.sol\":6612:6639  buf.buf.appendInt(value, 2) */\n      tag_291\n        /* \"@chainlink/contracts@1.2.0/src/v0.8/vendor/solidity-cborutils/v2.0.0/CBOR.sol\":6630:6635  value */\n      dup2\n        /* \"@chainlink/contracts@1.2.0/src/v0.8/vendor/solidity-cborutils/v2.0.0/CBOR.sol\":6612:6639  buf.buf.appendInt(value, 2) */\n      0xffffffffffffffff\n      and\n        /* \"@chainlink/contracts@1.2.0/src/v0.8/vendor/solidity-cborutils/v2.0.0/CBOR.sol\":6637:6638  2 */\n      0x02\n        /* \"@chainlink/contracts@1.2.0/src/v0.8/vendor/solidity-cborutils/v2.0.0/CBOR.sol\":6612:6615  buf */\n      dup6\n        /* \"@chainlink/contracts@1.2.0/src/v0.8/vendor/solidity-cborutils/v2.0.0/CBOR.sol\":6612:6619  buf.buf */\n      0x00\n      add\n      mload\n        /* \"@chainlink/contracts@1.2.0/src/v0.8/vendor/solidity-cborutils/v2.0.0/CBOR.sol\":6612:6629  buf.buf.appendInt */\n      tag_287\n      swap1\n        /* \"@chainlink/contracts@1.2.0/src/v0.8/vendor/solidity-cborutils/v2.0.0/CBOR.sol\":6612:6639  buf.buf.appendInt(value, 2) */\n      swap3\n      swap2\n      swap1\n      0xffffffff\n      and\n      jump\t// in\n    tag_291:\n      pop\n        /* \"@chainlink/contracts@1.2.0/src/v0.8/vendor/solidity-cborutils/v2.0.0/CBOR.sol\":6518:6909  if (value <= 0xFFFF) {... */\n      jump(tag_292)\n    tag_289:\n        /* \"@chainlink/contracts@1.2.0/src/v0.8/vendor/solidity-cborutils/v2.0.0/CBOR.sol\":6669:6679  0xFFFFFFFF */\n      0xffffffff\n        /* \"@chainlink/contracts@1.2.0/src/v0.8/vendor/solidity-cborutils/v2.0.0/CBOR.sol\":6660:6665  value */\n      dup2\n        /* \"@chainlink/contracts@1.2.0/src/v0.8/vendor/solidity-cborutils/v2.0.0/CBOR.sol\":6660:6679  value <= 0xFFFFFFFF */\n      0xffffffffffffffff\n      and\n      gt\n        /* \"@chainlink/contracts@1.2.0/src/v0.8/vendor/solidity-cborutils/v2.0.0/CBOR.sol\":6656:6909  if (value <= 0xFFFFFFFF) {... */\n      tag_293\n      jumpi\n        /* \"@chainlink/contracts@1.2.0/src/v0.8/vendor/solidity-cborutils/v2.0.0/CBOR.sol\":6695:6740  buf.buf.appendUint8(uint8((major << 5) | 26)) */\n      tag_294\n        /* \"@chainlink/contracts@1.2.0/src/v0.8/vendor/solidity-cborutils/v2.0.0/CBOR.sol\":6736:6738  26 */\n      0x1a\n        /* \"@chainlink/contracts@1.2.0/src/v0.8/vendor/solidity-cborutils/v2.0.0/CBOR.sol\":6731:6732  5 */\n      0x05\n        /* \"@chainlink/contracts@1.2.0/src/v0.8/vendor/solidity-cborutils/v2.0.0/CBOR.sol\":6722:6727  major */\n      dup5\n        /* \"@chainlink/contracts@1.2.0/src/v0.8/vendor/solidity-cborutils/v2.0.0/CBOR.sol\":6722:6732  major << 5 */\n      0xff\n      and\n      swap1\n      shl\n        /* \"@chainlink/contracts@1.2.0/src/v0.8/vendor/solidity-cborutils/v2.0.0/CBOR.sol\":6721:6738  (major << 5) | 26 */\n      or\n        /* \"@chainlink/contracts@1.2.0/src/v0.8/vendor/solidity-cborutils/v2.0.0/CBOR.sol\":6695:6698  buf */\n      dup5\n        /* \"@chainlink/contracts@1.2.0/src/v0.8/vendor/solidity-cborutils/v2.0.0/CBOR.sol\":6695:6702  buf.buf */\n      0x00\n      add\n      mload\n        /* \"@chainlink/contracts@1.2.0/src/v0.8/vendor/solidity-cborutils/v2.0.0/CBOR.sol\":6695:6714  buf.buf.appendUint8 */\n      tag_255\n      swap1\n        /* \"@chainlink/contracts@1.2.0/src/v0.8/vendor/solidity-cborutils/v2.0.0/CBOR.sol\":6695:6740  buf.buf.appendUint8(uint8((major << 5) | 26)) */\n      swap2\n      swap1\n      0xffffffff\n      and\n      jump\t// in\n    tag_294:\n      pop\n        /* \"@chainlink/contracts@1.2.0/src/v0.8/vendor/solidity-cborutils/v2.0.0/CBOR.sol\":6754:6781  buf.buf.appendInt(value, 4) */\n      tag_295\n        /* \"@chainlink/contracts@1.2.0/src/v0.8/vendor/solidity-cborutils/v2.0.0/CBOR.sol\":6772:6777  value */\n      dup2\n        /* \"@chainlink/contracts@1.2.0/src/v0.8/vendor/solidity-cborutils/v2.0.0/CBOR.sol\":6754:6781  buf.buf.appendInt(value, 4) */\n      0xffffffffffffffff\n      and\n        /* \"@chainlink/contracts@1.2.0/src/v0.8/vendor/solidity-cborutils/v2.0.0/CBOR.sol\":6779:6780  4 */\n      0x04\n        /* \"@chainlink/contracts@1.2.0/src/v0.8/vendor/solidity-cborutils/v2.0.0/CBOR.sol\":6754:6757  buf */\n      dup6\n        /* \"@chainlink/contracts@1.2.0/src/v0.8/vendor/solidity-cborutils/v2.0.0/CBOR.sol\":6754:6761  buf.buf */\n      0x00\n      add\n      mload\n        /* \"@chainlink/contracts@1.2.0/src/v0.8/vendor/solidity-cborutils/v2.0.0/CBOR.sol\":6754:6771  buf.buf.appendInt */\n      tag_287\n      swap1\n        /* \"@chainlink/contracts@1.2.0/src/v0.8/vendor/solidity-cborutils/v2.0.0/CBOR.sol\":6754:6781  buf.buf.appendInt(value, 4) */\n      swap3\n      swap2\n      swap1\n      0xffffffff\n      and\n      jump\t// in\n    tag_295:\n      pop\n        /* \"@chainlink/contracts@1.2.0/src/v0.8/vendor/solidity-cborutils/v2.0.0/CBOR.sol\":6656:6909  if (value <= 0xFFFFFFFF) {... */\n      jump(tag_296)\n    tag_293:\n        /* \"@chainlink/contracts@1.2.0/src/v0.8/vendor/solidity-cborutils/v2.0.0/CBOR.sol\":6812:6857  buf.buf.appendUint8(uint8((major << 5) | 27)) */\n      tag_297\n        /* \"@chainlink/contracts@1.2.0/src/v0.8/vendor/solidity-cborutils/v2.0.0/CBOR.sol\":6853:6855  27 */\n      0x1b\n        /* \"@chainlink/contracts@1.2.0/src/v0.8/vendor/solidity-cborutils/v2.0.0/CBOR.sol\":6848:6849  5 */\n      0x05\n        /* \"@chainlink/contracts@1.2.0/src/v0.8/vendor/solidity-cborutils/v2.0.0/CBOR.sol\":6839:6844  major */\n      dup5\n        /* \"@chainlink/contracts@1.2.0/src/v0.8/vendor/solidity-cborutils/v2.0.0/CBOR.sol\":6839:6849  major << 5 */\n      0xff\n      and\n      swap1\n      shl\n        /* \"@chainlink/contracts@1.2.0/src/v0.8/vendor/solidity-cborutils/v2.0.0/CBOR.sol\":6838:6855  (major << 5) | 27 */\n      or\n        /* \"@chainlink/contracts@1.2.0/src/v0.8/vendor/solidity-cborutils/v2.0.0/CBOR.sol\":6812:6815  buf */\n      dup5\n        /* \"@chainlink/contracts@1.2.0/src/v0.8/vendor/solidity-cborutils/v2.0.0/CBOR.sol\":6812:6819  buf.buf */\n      0x00\n      add\n      mload\n        /* \"@chainlink/contracts@1.2.0/src/v0.8/vendor/solidity-cborutils/v2.0.0/CBOR.sol\":6812:6831  buf.buf.appendUint8 */\n      tag_255\n      swap1\n        /* \"@chainlink/contracts@1.2.0/src/v0.8/vendor/solidity-cborutils/v2.0.0/CBOR.sol\":6812:6857  buf.buf.appendUint8(uint8((major << 5) | 27)) */\n      swap2\n      swap1\n      0xffffffff\n      and\n      jump\t// in\n    tag_297:\n      pop\n        /* \"@chainlink/contracts@1.2.0/src/v0.8/vendor/solidity-cborutils/v2.0.0/CBOR.sol\":6871:6898  buf.buf.appendInt(value, 8) */\n      tag_298\n        /* \"@chainlink/contracts@1.2.0/src/v0.8/vendor/solidity-cborutils/v2.0.0/CBOR.sol\":6889:6894  value */\n      dup2\n        /* \"@chainlink/contracts@1.2.0/src/v0.8/vendor/solidity-cborutils/v2.0.0/CBOR.sol\":6871:6898  buf.buf.appendInt(value, 8) */\n      0xffffffffffffffff\n      and\n        /* \"@chainlink/contracts@1.2.0/src/v0.8/vendor/solidity-cborutils/v2.0.0/CBOR.sol\":6896:6897  8 */\n      0x08\n        /* \"@chainlink/contracts@1.2.0/src/v0.8/vendor/solidity-cborutils/v2.0.0/CBOR.sol\":6871:6874  buf */\n      dup6\n        /* \"@chainlink/contracts@1.2.0/src/v0.8/vendor/solidity-cborutils/v2.0.0/CBOR.sol\":6871:6878  buf.buf */\n      0x00\n      add\n      mload\n        /* \"@chainlink/contracts@1.2.0/src/v0.8/vendor/solidity-cborutils/v2.0.0/CBOR.sol\":6871:6888  buf.buf.appendInt */\n      tag_287\n      swap1\n        /* \"@chainlink/contracts@1.2.0/src/v0.8/vendor/solidity-cborutils/v2.0.0/CBOR.sol\":6871:6898  buf.buf.appendInt(value, 8) */\n      swap3\n      swap2\n      swap1\n      0xffffffff\n      and\n      jump\t// in\n    tag_298:\n      pop\n        /* \"@chainlink/contracts@1.2.0/src/v0.8/vendor/solidity-cborutils/v2.0.0/CBOR.sol\":6656:6909  if (value <= 0xFFFFFFFF) {... */\n    tag_296:\n        /* \"@chainlink/contracts@1.2.0/src/v0.8/vendor/solidity-cborutils/v2.0.0/CBOR.sol\":6518:6909  if (value <= 0xFFFF) {... */\n    tag_292:\n        /* \"@chainlink/contracts@1.2.0/src/v0.8/vendor/solidity-cborutils/v2.0.0/CBOR.sol\":6382:6909  if (value <= 0xFF) {... */\n    tag_288:\n        /* \"@chainlink/contracts@1.2.0/src/v0.8/vendor/solidity-cborutils/v2.0.0/CBOR.sol\":6286:6909  if (value <= 23) {... */\n    tag_283:\n        /* \"@chainlink/contracts@1.2.0/src/v0.8/vendor/solidity-cborutils/v2.0.0/CBOR.sol\":6156:6915  function writeFixedNumeric(... */\n      pop\n      pop\n      pop\n      jump\t// out\n        /* \"@chainlink/contracts@1.2.0/src/v0.8/vendor/@ensdomains/buffer/v0.1.0/Buffer.sol\":4539:4685  function append(buffer memory buf, bytes memory data) internal pure returns (buffer memory) {... */\n    tag_250:\n        /* \"@chainlink/contracts@1.2.0/src/v0.8/vendor/@ensdomains/buffer/v0.1.0/Buffer.sol\":4616:4629  buffer memory */\n      tag_299\n      tag_271\n      jump\t// in\n    tag_299:\n        /* \"@chainlink/contracts@1.2.0/src/v0.8/vendor/@ensdomains/buffer/v0.1.0/Buffer.sol\":4648:4678  append(buf, data, data.length) */\n      tag_301\n        /* \"@chainlink/contracts@1.2.0/src/v0.8/vendor/@ensdomains/buffer/v0.1.0/Buffer.sol\":4655:4658  buf */\n      dup4\n        /* \"@chainlink/contracts@1.2.0/src/v0.8/vendor/@ensdomains/buffer/v0.1.0/Buffer.sol\":4660:4664  data */\n      dup4\n        /* \"@chainlink/contracts@1.2.0/src/v0.8/vendor/@ensdomains/buffer/v0.1.0/Buffer.sol\":4666:4670  data */\n      dup5\n        /* \"@chainlink/contracts@1.2.0/src/v0.8/vendor/@ensdomains/buffer/v0.1.0/Buffer.sol\":4666:4677  data.length */\n      mload\n        /* \"@chainlink/contracts@1.2.0/src/v0.8/vendor/@ensdomains/buffer/v0.1.0/Buffer.sol\":4648:4654  append */\n      tag_302\n        /* \"@chainlink/contracts@1.2.0/src/v0.8/vendor/@ensdomains/buffer/v0.1.0/Buffer.sol\":4648:4678  append(buf, data, data.length) */\n      jump\t// in\n    tag_301:\n        /* \"@chainlink/contracts@1.2.0/src/v0.8/vendor/@ensdomains/buffer/v0.1.0/Buffer.sol\":4641:4678  return append(buf, data, data.length) */\n      swap1\n      pop\n        /* \"@chainlink/contracts@1.2.0/src/v0.8/vendor/@ensdomains/buffer/v0.1.0/Buffer.sol\":4539:4685  function append(buffer memory buf, bytes memory data) internal pure returns (buffer memory) {... */\n      swap3\n      swap2\n      pop\n      pop\n      jump\t// out\n        /* \"@chainlink/contracts@1.2.0/src/v0.8/vendor/@ensdomains/buffer/v0.1.0/Buffer.sol\":4948:5647  function appendUint8(buffer memory buf, uint8 data) internal pure returns(buffer memory) {... */\n    tag_255:\n        /* \"@chainlink/contracts@1.2.0/src/v0.8/vendor/@ensdomains/buffer/v0.1.0/Buffer.sol\":5022:5035  buffer memory */\n      tag_303\n      tag_271\n      jump\t// in\n    tag_303:\n        /* \"@chainlink/contracts@1.2.0/src/v0.8/vendor/@ensdomains/buffer/v0.1.0/Buffer.sol\":5047:5055  uint off */\n      0x00\n        /* \"@chainlink/contracts@1.2.0/src/v0.8/vendor/@ensdomains/buffer/v0.1.0/Buffer.sol\":5058:5061  buf */\n      dup4\n        /* \"@chainlink/contracts@1.2.0/src/v0.8/vendor/@ensdomains/buffer/v0.1.0/Buffer.sol\":5058:5065  buf.buf */\n      0x00\n      add\n      mload\n        /* \"@chainlink/contracts@1.2.0/src/v0.8/vendor/@ensdomains/buffer/v0.1.0/Buffer.sol\":5058:5072  buf.buf.length */\n      mload\n        /* \"@chainlink/contracts@1.2.0/src/v0.8/vendor/@ensdomains/buffer/v0.1.0/Buffer.sol\":5047:5072  uint off = buf.buf.length */\n      swap1\n      pop\n        /* \"@chainlink/contracts@1.2.0/src/v0.8/vendor/@ensdomains/buffer/v0.1.0/Buffer.sol\":5082:5097  uint offPlusOne */\n      0x00\n        /* \"@chainlink/contracts@1.2.0/src/v0.8/vendor/@ensdomains/buffer/v0.1.0/Buffer.sol\":5106:5107  1 */\n      0x01\n        /* \"@chainlink/contracts@1.2.0/src/v0.8/vendor/@ensdomains/buffer/v0.1.0/Buffer.sol\":5100:5103  off */\n      dup3\n        /* \"@chainlink/contracts@1.2.0/src/v0.8/vendor/@ensdomains/buffer/v0.1.0/Buffer.sol\":5100:5107  off + 1 */\n      tag_305\n      swap2\n      swap1\n      tag_262\n      jump\t// in\n    tag_305:\n        /* \"@chainlink/contracts@1.2.0/src/v0.8/vendor/@ensdomains/buffer/v0.1.0/Buffer.sol\":5082:5107  uint offPlusOne = off + 1 */\n      swap1\n      pop\n        /* \"@chainlink/contracts@1.2.0/src/v0.8/vendor/@ensdomains/buffer/v0.1.0/Buffer.sol\":5128:5131  buf */\n      dup5\n        /* \"@chainlink/contracts@1.2.0/src/v0.8/vendor/@ensdomains/buffer/v0.1.0/Buffer.sol\":5128:5140  buf.capacity */\n      0x20\n      add\n      mload\n        /* \"@chainlink/contracts@1.2.0/src/v0.8/vendor/@ensdomains/buffer/v0.1.0/Buffer.sol\":5121:5124  off */\n      dup3\n        /* \"@chainlink/contracts@1.2.0/src/v0.8/vendor/@ensdomains/buffer/v0.1.0/Buffer.sol\":5121:5140  off >= buf.capacity */\n      lt\n        /* \"@chainlink/contracts@1.2.0/src/v0.8/vendor/@ensdomains/buffer/v0.1.0/Buffer.sol\":5117:5194  if (off >= buf.capacity) {... */\n      tag_306\n      jumpi\n        /* \"@chainlink/contracts@1.2.0/src/v0.8/vendor/@ensdomains/buffer/v0.1.0/Buffer.sol\":5156:5183  resize(buf, offPlusOne * 2) */\n      tag_307\n        /* \"@chainlink/contracts@1.2.0/src/v0.8/vendor/@ensdomains/buffer/v0.1.0/Buffer.sol\":5163:5166  buf */\n      dup6\n        /* \"@chainlink/contracts@1.2.0/src/v0.8/vendor/@ensdomains/buffer/v0.1.0/Buffer.sol\":5181:5182  2 */\n      0x02\n        /* \"@chainlink/contracts@1.2.0/src/v0.8/vendor/@ensdomains/buffer/v0.1.0/Buffer.sol\":5168:5178  offPlusOne */\n      dup4\n        /* \"@chainlink/contracts@1.2.0/src/v0.8/vendor/@ensdomains/buffer/v0.1.0/Buffer.sol\":5168:5182  offPlusOne * 2 */\n      tag_308\n      swap2\n      swap1\n      tag_309\n      jump\t// in\n    tag_308:\n        /* \"@chainlink/contracts@1.2.0/src/v0.8/vendor/@ensdomains/buffer/v0.1.0/Buffer.sol\":5156:5162  resize */\n      tag_310\n        /* \"@chainlink/contracts@1.2.0/src/v0.8/vendor/@ensdomains/buffer/v0.1.0/Buffer.sol\":5156:5183  resize(buf, offPlusOne * 2) */\n      jump\t// in\n    tag_307:\n        /* \"@chainlink/contracts@1.2.0/src/v0.8/vendor/@ensdomains/buffer/v0.1.0/Buffer.sol\":5117:5194  if (off >= buf.capacity) {... */\n    tag_306:\n        /* \"@chainlink/contracts@1.2.0/src/v0.8/vendor/@ensdomains/buffer/v0.1.0/Buffer.sol\":5296:5299  buf */\n      dup5\n        /* \"@chainlink/contracts@1.2.0/src/v0.8/vendor/@ensdomains/buffer/v0.1.0/Buffer.sol\":5290:5300  mload(buf) */\n      mload\n        /* \"@chainlink/contracts@1.2.0/src/v0.8/vendor/@ensdomains/buffer/v0.1.0/Buffer.sol\":5417:5419  32 */\n      0x20\n        /* \"@chainlink/contracts@1.2.0/src/v0.8/vendor/@ensdomains/buffer/v0.1.0/Buffer.sol\":5411:5414  off */\n      dup4\n        /* \"@chainlink/contracts@1.2.0/src/v0.8/vendor/@ensdomains/buffer/v0.1.0/Buffer.sol\":5403:5409  bufptr */\n      dup3\n        /* \"@chainlink/contracts@1.2.0/src/v0.8/vendor/@ensdomains/buffer/v0.1.0/Buffer.sol\":5399:5415  add(bufptr, off) */\n      add\n        /* \"@chainlink/contracts@1.2.0/src/v0.8/vendor/@ensdomains/buffer/v0.1.0/Buffer.sol\":5395:5420  add(add(bufptr, off), 32) */\n      add\n        /* \"@chainlink/contracts@1.2.0/src/v0.8/vendor/@ensdomains/buffer/v0.1.0/Buffer.sol\":5447:5451  data */\n      dup6\n        /* \"@chainlink/contracts@1.2.0/src/v0.8/vendor/@ensdomains/buffer/v0.1.0/Buffer.sol\":5441:5445  dest */\n      dup2\n        /* \"@chainlink/contracts@1.2.0/src/v0.8/vendor/@ensdomains/buffer/v0.1.0/Buffer.sol\":5433:5452  mstore8(dest, data) */\n      mstore8\n        /* \"@chainlink/contracts@1.2.0/src/v0.8/vendor/@ensdomains/buffer/v0.1.0/Buffer.sol\":5543:5549  bufptr */\n      dup2\n        /* \"@chainlink/contracts@1.2.0/src/v0.8/vendor/@ensdomains/buffer/v0.1.0/Buffer.sol\":5537:5550  mload(bufptr) */\n      mload\n        /* \"@chainlink/contracts@1.2.0/src/v0.8/vendor/@ensdomains/buffer/v0.1.0/Buffer.sol\":5525:5535  offPlusOne */\n      dup4\n        /* \"@chainlink/contracts@1.2.0/src/v0.8/vendor/@ensdomains/buffer/v0.1.0/Buffer.sol\":5522:5551  gt(offPlusOne, mload(bufptr)) */\n      gt\n        /* \"@chainlink/contracts@1.2.0/src/v0.8/vendor/@ensdomains/buffer/v0.1.0/Buffer.sol\":5519:5610  if gt(offPlusOne, mload(bufptr)) {... */\n      iszero\n      tag_311\n      jumpi\n        /* \"@chainlink/contracts@1.2.0/src/v0.8/vendor/@ensdomains/buffer/v0.1.0/Buffer.sol\":5585:5595  offPlusOne */\n      dup3\n        /* \"@chainlink/contracts@1.2.0/src/v0.8/vendor/@ensdomains/buffer/v0.1.0/Buffer.sol\":5577:5583  bufptr */\n      dup3\n        /* \"@chainlink/contracts@1.2.0/src/v0.8/vendor/@ensdomains/buffer/v0.1.0/Buffer.sol\":5570:5596  mstore(bufptr, offPlusOne) */\n      mstore\n        /* \"@chainlink/contracts@1.2.0/src/v0.8/vendor/@ensdomains/buffer/v0.1.0/Buffer.sol\":5519:5610  if gt(offPlusOne, mload(bufptr)) {... */\n    tag_311:\n        /* \"@chainlink/contracts@1.2.0/src/v0.8/vendor/@ensdomains/buffer/v0.1.0/Buffer.sol\":5213:5620  {... */\n      pop\n      pop\n        /* \"@chainlink/contracts@1.2.0/src/v0.8/vendor/@ensdomains/buffer/v0.1.0/Buffer.sol\":5637:5640  buf */\n      dup5\n        /* \"@chainlink/contracts@1.2.0/src/v0.8/vendor/@ensdomains/buffer/v0.1.0/Buffer.sol\":5630:5640  return buf */\n      swap3\n      pop\n      pop\n      pop\n        /* \"@chainlink/contracts@1.2.0/src/v0.8/vendor/@ensdomains/buffer/v0.1.0/Buffer.sol\":4948:5647  function appendUint8(buffer memory buf, uint8 data) internal pure returns(buffer memory) {... */\n      swap3\n      swap2\n      pop\n      pop\n      jump\t// out\n        /* \"@chainlink/contracts@1.2.0/src/v0.8/vendor/solidity-cborutils/v2.0.0/CBOR.sol\":6921:7087  function writeIndefiniteLengthType(CBORBuffer memory buf, uint8 major)... */\n    tag_260:\n        /* \"@chainlink/contracts@1.2.0/src/v0.8/vendor/solidity-cborutils/v2.0.0/CBOR.sol\":7035:7080  buf.buf.appendUint8(uint8((major << 5) | 31)) */\n      tag_313\n        /* \"@chainlink/contracts@1.2.0/src/v0.8/vendor/solidity-cborutils/v2.0.0/CBOR.sol\":7076:7078  31 */\n      0x1f\n        /* \"@chainlink/contracts@1.2.0/src/v0.8/vendor/solidity-cborutils/v2.0.0/CBOR.sol\":7071:7072  5 */\n      0x05\n        /* \"@chainlink/contracts@1.2.0/src/v0.8/vendor/solidity-cborutils/v2.0.0/CBOR.sol\":7062:7067  major */\n      dup4\n        /* \"@chainlink/contracts@1.2.0/src/v0.8/vendor/solidity-cborutils/v2.0.0/CBOR.sol\":7062:7072  major << 5 */\n      0xff\n      and\n      swap1\n      shl\n        /* \"@chainlink/contracts@1.2.0/src/v0.8/vendor/solidity-cborutils/v2.0.0/CBOR.sol\":7061:7078  (major << 5) | 31 */\n      or\n        /* \"@chainlink/contracts@1.2.0/src/v0.8/vendor/solidity-cborutils/v2.0.0/CBOR.sol\":7035:7038  buf */\n      dup4\n        /* \"@chainlink/contracts@1.2.0/src/v0.8/vendor/solidity-cborutils/v2.0.0/CBOR.sol\":7035:7042  buf.buf */\n      0x00\n      add\n      mload\n        /* \"@chainlink/contracts@1.2.0/src/v0.8/vendor/solidity-cborutils/v2.0.0/CBOR.sol\":7035:7054  buf.buf.appendUint8 */\n      tag_255\n      swap1\n        /* \"@chainlink/contracts@1.2.0/src/v0.8/vendor/solidity-cborutils/v2.0.0/CBOR.sol\":7035:7080  buf.buf.appendUint8(uint8((major << 5) | 31)) */\n      swap2\n      swap1\n      0xffffffff\n      and\n      jump\t// in\n    tag_313:\n      pop\n        /* \"@chainlink/contracts@1.2.0/src/v0.8/vendor/solidity-cborutils/v2.0.0/CBOR.sol\":6921:7087  function writeIndefiniteLengthType(CBORBuffer memory buf, uint8 major)... */\n      pop\n      pop\n      jump\t// out\n        /* \"@chainlink/contracts@1.2.0/src/v0.8/vendor/@ensdomains/buffer/v0.1.0/Buffer.sol\":8083:8878  function appendInt(buffer memory buf, uint data, uint len) internal pure returns(buffer memory) {... */\n    tag_287:\n        /* \"@chainlink/contracts@1.2.0/src/v0.8/vendor/@ensdomains/buffer/v0.1.0/Buffer.sol\":8164:8177  buffer memory */\n      tag_314\n      tag_271\n      jump\t// in\n    tag_314:\n        /* \"@chainlink/contracts@1.2.0/src/v0.8/vendor/@ensdomains/buffer/v0.1.0/Buffer.sol\":8189:8197  uint off */\n      0x00\n        /* \"@chainlink/contracts@1.2.0/src/v0.8/vendor/@ensdomains/buffer/v0.1.0/Buffer.sol\":8200:8203  buf */\n      dup5\n        /* \"@chainlink/contracts@1.2.0/src/v0.8/vendor/@ensdomains/buffer/v0.1.0/Buffer.sol\":8200:8207  buf.buf */\n      0x00\n      add\n      mload\n        /* \"@chainlink/contracts@1.2.0/src/v0.8/vendor/@ensdomains/buffer/v0.1.0/Buffer.sol\":8200:8214  buf.buf.length */\n      mload\n        /* \"@chainlink/contracts@1.2.0/src/v0.8/vendor/@ensdomains/buffer/v0.1.0/Buffer.sol\":8189:8214  uint off = buf.buf.length */\n      swap1\n      pop\n        /* \"@chainlink/contracts@1.2.0/src/v0.8/vendor/@ensdomains/buffer/v0.1.0/Buffer.sol\":8224:8240  uint newCapacity */\n      0x00\n        /* \"@chainlink/contracts@1.2.0/src/v0.8/vendor/@ensdomains/buffer/v0.1.0/Buffer.sol\":8249:8252  off */\n      dup2\n        /* \"@chainlink/contracts@1.2.0/src/v0.8/vendor/@ensdomains/buffer/v0.1.0/Buffer.sol\":8243:8246  len */\n      dup5\n        /* \"@chainlink/contracts@1.2.0/src/v0.8/vendor/@ensdomains/buffer/v0.1.0/Buffer.sol\":8243:8252  len + off */\n      tag_316\n      swap2\n      swap1\n      tag_262\n      jump\t// in\n    tag_316:\n        /* \"@chainlink/contracts@1.2.0/src/v0.8/vendor/@ensdomains/buffer/v0.1.0/Buffer.sol\":8224:8252  uint newCapacity = len + off */\n      swap1\n      pop\n        /* \"@chainlink/contracts@1.2.0/src/v0.8/vendor/@ensdomains/buffer/v0.1.0/Buffer.sol\":8280:8283  buf */\n      dup6\n        /* \"@chainlink/contracts@1.2.0/src/v0.8/vendor/@ensdomains/buffer/v0.1.0/Buffer.sol\":8280:8292  buf.capacity */\n      0x20\n      add\n      mload\n        /* \"@chainlink/contracts@1.2.0/src/v0.8/vendor/@ensdomains/buffer/v0.1.0/Buffer.sol\":8266:8277  newCapacity */\n      dup2\n        /* \"@chainlink/contracts@1.2.0/src/v0.8/vendor/@ensdomains/buffer/v0.1.0/Buffer.sol\":8266:8292  newCapacity > buf.capacity */\n      gt\n        /* \"@chainlink/contracts@1.2.0/src/v0.8/vendor/@ensdomains/buffer/v0.1.0/Buffer.sol\":8262:8347  if (newCapacity > buf.capacity) {... */\n      iszero\n      tag_317\n      jumpi\n        /* \"@chainlink/contracts@1.2.0/src/v0.8/vendor/@ensdomains/buffer/v0.1.0/Buffer.sol\":8308:8336  resize(buf, newCapacity * 2) */\n      tag_318\n        /* \"@chainlink/contracts@1.2.0/src/v0.8/vendor/@ensdomains/buffer/v0.1.0/Buffer.sol\":8315:8318  buf */\n      dup7\n        /* \"@chainlink/contracts@1.2.0/src/v0.8/vendor/@ensdomains/buffer/v0.1.0/Buffer.sol\":8334:8335  2 */\n      0x02\n        /* \"@chainlink/contracts@1.2.0/src/v0.8/vendor/@ensdomains/buffer/v0.1.0/Buffer.sol\":8320:8331  newCapacity */\n      dup4\n        /* \"@chainlink/contracts@1.2.0/src/v0.8/vendor/@ensdomains/buffer/v0.1.0/Buffer.sol\":8320:8335  newCapacity * 2 */\n      tag_319\n      swap2\n      swap1\n      tag_309\n      jump\t// in\n    tag_319:\n        /* \"@chainlink/contracts@1.2.0/src/v0.8/vendor/@ensdomains/buffer/v0.1.0/Buffer.sol\":8308:8314  resize */\n      tag_310\n        /* \"@chainlink/contracts@1.2.0/src/v0.8/vendor/@ensdomains/buffer/v0.1.0/Buffer.sol\":8308:8336  resize(buf, newCapacity * 2) */\n      jump\t// in\n    tag_318:\n        /* \"@chainlink/contracts@1.2.0/src/v0.8/vendor/@ensdomains/buffer/v0.1.0/Buffer.sol\":8262:8347  if (newCapacity > buf.capacity) {... */\n    tag_317:\n        /* \"@chainlink/contracts@1.2.0/src/v0.8/vendor/@ensdomains/buffer/v0.1.0/Buffer.sol\":8357:8366  uint mask */\n      0x00\n        /* \"@chainlink/contracts@1.2.0/src/v0.8/vendor/@ensdomains/buffer/v0.1.0/Buffer.sol\":8384:8385  1 */\n      0x01\n        /* \"@chainlink/contracts@1.2.0/src/v0.8/vendor/@ensdomains/buffer/v0.1.0/Buffer.sol\":8377:8380  len */\n      dup6\n        /* \"@chainlink/contracts@1.2.0/src/v0.8/vendor/@ensdomains/buffer/v0.1.0/Buffer.sol\":8370:8373  256 */\n      0x0100\n        /* \"@chainlink/contracts@1.2.0/src/v0.8/vendor/@ensdomains/buffer/v0.1.0/Buffer.sol\":8370:8380  256 ** len */\n      tag_320\n      swap2\n      swap1\n      tag_321\n      jump\t// in\n    tag_320:\n        /* \"@chainlink/contracts@1.2.0/src/v0.8/vendor/@ensdomains/buffer/v0.1.0/Buffer.sol\":8369:8385  (256 ** len) - 1 */\n      tag_322\n      swap2\n      swap1\n      tag_266\n      jump\t// in\n    tag_322:\n        /* \"@chainlink/contracts@1.2.0/src/v0.8/vendor/@ensdomains/buffer/v0.1.0/Buffer.sol\":8357:8385  uint mask = (256 ** len) - 1 */\n      swap1\n      pop\n        /* \"@chainlink/contracts@1.2.0/src/v0.8/vendor/@ensdomains/buffer/v0.1.0/Buffer.sol\":8487:8490  buf */\n      dup7\n        /* \"@chainlink/contracts@1.2.0/src/v0.8/vendor/@ensdomains/buffer/v0.1.0/Buffer.sol\":8481:8491  mload(buf) */\n      mload\n        /* \"@chainlink/contracts@1.2.0/src/v0.8/vendor/@ensdomains/buffer/v0.1.0/Buffer.sol\":8606:8617  newCapacity */\n      dup3\n        /* \"@chainlink/contracts@1.2.0/src/v0.8/vendor/@ensdomains/buffer/v0.1.0/Buffer.sol\":8598:8604  bufptr */\n      dup2\n        /* \"@chainlink/contracts@1.2.0/src/v0.8/vendor/@ensdomains/buffer/v0.1.0/Buffer.sol\":8594:8618  add(bufptr, newCapacity) */\n      add\n        /* \"@chainlink/contracts@1.2.0/src/v0.8/vendor/@ensdomains/buffer/v0.1.0/Buffer.sol\":8676:8680  data */\n      dup8\n        /* \"@chainlink/contracts@1.2.0/src/v0.8/vendor/@ensdomains/buffer/v0.1.0/Buffer.sol\":8668:8672  mask */\n      dup4\n        /* \"@chainlink/contracts@1.2.0/src/v0.8/vendor/@ensdomains/buffer/v0.1.0/Buffer.sol\":8664:8673  not(mask) */\n      not\n        /* \"@chainlink/contracts@1.2.0/src/v0.8/vendor/@ensdomains/buffer/v0.1.0/Buffer.sol\":8657:8661  dest */\n      dup3\n        /* \"@chainlink/contracts@1.2.0/src/v0.8/vendor/@ensdomains/buffer/v0.1.0/Buffer.sol\":8651:8662  mload(dest) */\n      mload\n        /* \"@chainlink/contracts@1.2.0/src/v0.8/vendor/@ensdomains/buffer/v0.1.0/Buffer.sol\":8647:8674  and(mload(dest), not(mask)) */\n      and\n        /* \"@chainlink/contracts@1.2.0/src/v0.8/vendor/@ensdomains/buffer/v0.1.0/Buffer.sol\":8644:8681  or(and(mload(dest), not(mask)), data) */\n      or\n        /* \"@chainlink/contracts@1.2.0/src/v0.8/vendor/@ensdomains/buffer/v0.1.0/Buffer.sol\":8638:8642  dest */\n      dup2\n        /* \"@chainlink/contracts@1.2.0/src/v0.8/vendor/@ensdomains/buffer/v0.1.0/Buffer.sol\":8631:8682  mstore(dest, or(and(mload(dest), not(mask)), data)) */\n      mstore\n        /* \"@chainlink/contracts@1.2.0/src/v0.8/vendor/@ensdomains/buffer/v0.1.0/Buffer.sol\":8774:8780  bufptr */\n      dup2\n        /* \"@chainlink/contracts@1.2.0/src/v0.8/vendor/@ensdomains/buffer/v0.1.0/Buffer.sol\":8768:8781  mload(bufptr) */\n      mload\n        /* \"@chainlink/contracts@1.2.0/src/v0.8/vendor/@ensdomains/buffer/v0.1.0/Buffer.sol\":8755:8766  newCapacity */\n      dup5\n        /* \"@chainlink/contracts@1.2.0/src/v0.8/vendor/@ensdomains/buffer/v0.1.0/Buffer.sol\":8752:8782  gt(newCapacity, mload(bufptr)) */\n      gt\n        /* \"@chainlink/contracts@1.2.0/src/v0.8/vendor/@ensdomains/buffer/v0.1.0/Buffer.sol\":8749:8842  if gt(newCapacity, mload(bufptr)) {... */\n      iszero\n      tag_323\n      jumpi\n        /* \"@chainlink/contracts@1.2.0/src/v0.8/vendor/@ensdomains/buffer/v0.1.0/Buffer.sol\":8816:8827  newCapacity */\n      dup4\n        /* \"@chainlink/contracts@1.2.0/src/v0.8/vendor/@ensdomains/buffer/v0.1.0/Buffer.sol\":8808:8814  bufptr */\n      dup3\n        /* \"@chainlink/contracts@1.2.0/src/v0.8/vendor/@ensdomains/buffer/v0.1.0/Buffer.sol\":8801:8828  mstore(bufptr, newCapacity) */\n      mstore\n        /* \"@chainlink/contracts@1.2.0/src/v0.8/vendor/@ensdomains/buffer/v0.1.0/Buffer.sol\":8749:8842  if gt(newCapacity, mload(bufptr)) {... */\n    tag_323:\n        /* \"@chainlink/contracts@1.2.0/src/v0.8/vendor/@ensdomains/buffer/v0.1.0/Buffer.sol\":8404:8852  {... */\n      pop\n      pop\n        /* \"@chainlink/contracts@1.2.0/src/v0.8/vendor/@ensdomains/buffer/v0.1.0/Buffer.sol\":8868:8871  buf */\n      dup7\n        /* \"@chainlink/contracts@1.2.0/src/v0.8/vendor/@ensdomains/buffer/v0.1.0/Buffer.sol\":8861:8871  return buf */\n      swap4\n      pop\n      pop\n      pop\n      pop\n        /* \"@chainlink/contracts@1.2.0/src/v0.8/vendor/@ensdomains/buffer/v0.1.0/Buffer.sol\":8083:8878  function appendInt(buffer memory buf, uint data, uint len) internal pure returns(buffer memory) {... */\n      swap4\n      swap3\n      pop\n      pop\n      pop\n      jump\t// out\n        /* \"@chainlink/contracts@1.2.0/src/v0.8/vendor/@ensdomains/buffer/v0.1.0/Buffer.sol\":2844:4271  function append(buffer memory buf, bytes memory data, uint len) internal pure returns(buffer memory) {... */\n    tag_302:\n        /* \"@chainlink/contracts@1.2.0/src/v0.8/vendor/@ensdomains/buffer/v0.1.0/Buffer.sol\":2930:2943  buffer memory */\n      tag_324\n      tag_271\n      jump\t// in\n    tag_324:\n        /* \"@chainlink/contracts@1.2.0/src/v0.8/vendor/@ensdomains/buffer/v0.1.0/Buffer.sol\":2970:2974  data */\n      dup3\n        /* \"@chainlink/contracts@1.2.0/src/v0.8/vendor/@ensdomains/buffer/v0.1.0/Buffer.sol\":2970:2981  data.length */\n      mload\n        /* \"@chainlink/contracts@1.2.0/src/v0.8/vendor/@ensdomains/buffer/v0.1.0/Buffer.sol\":2963:2966  len */\n      dup3\n        /* \"@chainlink/contracts@1.2.0/src/v0.8/vendor/@ensdomains/buffer/v0.1.0/Buffer.sol\":2963:2981  len <= data.length */\n      gt\n      iszero\n        /* \"@chainlink/contracts@1.2.0/src/v0.8/vendor/@ensdomains/buffer/v0.1.0/Buffer.sol\":2955:2982  require(len <= data.length) */\n      tag_326\n      jumpi\n      0x00\n      dup1\n      revert\n    tag_326:\n        /* \"@chainlink/contracts@1.2.0/src/v0.8/vendor/@ensdomains/buffer/v0.1.0/Buffer.sol\":2993:3001  uint off */\n      0x00\n        /* \"@chainlink/contracts@1.2.0/src/v0.8/vendor/@ensdomains/buffer/v0.1.0/Buffer.sol\":3004:3007  buf */\n      dup5\n        /* \"@chainlink/contracts@1.2.0/src/v0.8/vendor/@ensdomains/buffer/v0.1.0/Buffer.sol\":3004:3011  buf.buf */\n      0x00\n      add\n      mload\n        /* \"@chainlink/contracts@1.2.0/src/v0.8/vendor/@ensdomains/buffer/v0.1.0/Buffer.sol\":3004:3018  buf.buf.length */\n      mload\n        /* \"@chainlink/contracts@1.2.0/src/v0.8/vendor/@ensdomains/buffer/v0.1.0/Buffer.sol\":2993:3018  uint off = buf.buf.length */\n      swap1\n      pop\n        /* \"@chainlink/contracts@1.2.0/src/v0.8/vendor/@ensdomains/buffer/v0.1.0/Buffer.sol\":3028:3044  uint newCapacity */\n      0x00\n        /* \"@chainlink/contracts@1.2.0/src/v0.8/vendor/@ensdomains/buffer/v0.1.0/Buffer.sol\":3053:3056  len */\n      dup4\n        /* \"@chainlink/contracts@1.2.0/src/v0.8/vendor/@ensdomains/buffer/v0.1.0/Buffer.sol\":3047:3050  off */\n      dup3\n        /* \"@chainlink/contracts@1.2.0/src/v0.8/vendor/@ensdomains/buffer/v0.1.0/Buffer.sol\":3047:3056  off + len */\n      tag_327\n      swap2\n      swap1\n      tag_262\n      jump\t// in\n    tag_327:\n        /* \"@chainlink/contracts@1.2.0/src/v0.8/vendor/@ensdomains/buffer/v0.1.0/Buffer.sol\":3028:3056  uint newCapacity = off + len */\n      swap1\n      pop\n        /* \"@chainlink/contracts@1.2.0/src/v0.8/vendor/@ensdomains/buffer/v0.1.0/Buffer.sol\":3084:3087  buf */\n      dup6\n        /* \"@chainlink/contracts@1.2.0/src/v0.8/vendor/@ensdomains/buffer/v0.1.0/Buffer.sol\":3084:3096  buf.capacity */\n      0x20\n      add\n      mload\n        /* \"@chainlink/contracts@1.2.0/src/v0.8/vendor/@ensdomains/buffer/v0.1.0/Buffer.sol\":3070:3081  newCapacity */\n      dup2\n        /* \"@chainlink/contracts@1.2.0/src/v0.8/vendor/@ensdomains/buffer/v0.1.0/Buffer.sol\":3070:3096  newCapacity > buf.capacity */\n      gt\n        /* \"@chainlink/contracts@1.2.0/src/v0.8/vendor/@ensdomains/buffer/v0.1.0/Buffer.sol\":3066:3151  if (newCapacity > buf.capacity) {... */\n      iszero\n      tag_328\n      jumpi\n        /* \"@chainlink/contracts@1.2.0/src/v0.8/vendor/@ensdomains/buffer/v0.1.0/Buffer.sol\":3112:3140  resize(buf, newCapacity * 2) */\n      tag_329\n        /* \"@chainlink/contracts@1.2.0/src/v0.8/vendor/@ensdomains/buffer/v0.1.0/Buffer.sol\":3119:3122  buf */\n      dup7\n        /* \"@chainlink/contracts@1.2.0/src/v0.8/vendor/@ensdomains/buffer/v0.1.0/Buffer.sol\":3138:3139  2 */\n      0x02\n        /* \"@chainlink/contracts@1.2.0/src/v0.8/vendor/@ensdomains/buffer/v0.1.0/Buffer.sol\":3124:3135  newCapacity */\n      dup4\n        /* \"@chainlink/contracts@1.2.0/src/v0.8/vendor/@ensdomains/buffer/v0.1.0/Buffer.sol\":3124:3139  newCapacity * 2 */\n      tag_330\n      swap2\n      swap1\n      tag_309\n      jump\t// in\n    tag_330:\n        /* \"@chainlink/contracts@1.2.0/src/v0.8/vendor/@ensdomains/buffer/v0.1.0/Buffer.sol\":3112:3118  resize */\n      tag_310\n        /* \"@chainlink/contracts@1.2.0/src/v0.8/vendor/@ensdomains/buffer/v0.1.0/Buffer.sol\":3112:3140  resize(buf, newCapacity * 2) */\n      jump\t// in\n    tag_329:\n        /* \"@chainlink/contracts@1.2.0/src/v0.8/vendor/@ensdomains/buffer/v0.1.0/Buffer.sol\":3066:3151  if (newCapacity > buf.capacity) {... */\n    tag_328:\n        /* \"@chainlink/contracts@1.2.0/src/v0.8/vendor/@ensdomains/buffer/v0.1.0/Buffer.sol\":3161:3170  uint dest */\n      0x00\n        /* \"@chainlink/contracts@1.2.0/src/v0.8/vendor/@ensdomains/buffer/v0.1.0/Buffer.sol\":3180:3188  uint src */\n      dup1\n        /* \"@chainlink/contracts@1.2.0/src/v0.8/vendor/@ensdomains/buffer/v0.1.0/Buffer.sol\":3290:3293  buf */\n      dup8\n        /* \"@chainlink/contracts@1.2.0/src/v0.8/vendor/@ensdomains/buffer/v0.1.0/Buffer.sol\":3284:3294  mload(buf) */\n      mload\n        /* \"@chainlink/contracts@1.2.0/src/v0.8/vendor/@ensdomains/buffer/v0.1.0/Buffer.sol\":3373:3379  bufptr */\n      dup1\n        /* \"@chainlink/contracts@1.2.0/src/v0.8/vendor/@ensdomains/buffer/v0.1.0/Buffer.sol\":3367:3380  mload(bufptr) */\n      mload\n        /* \"@chainlink/contracts@1.2.0/src/v0.8/vendor/@ensdomains/buffer/v0.1.0/Buffer.sol\":3501:3504  off */\n      dup6\n        /* \"@chainlink/contracts@1.2.0/src/v0.8/vendor/@ensdomains/buffer/v0.1.0/Buffer.sol\":3496:3498  32 */\n      0x20\n        /* \"@chainlink/contracts@1.2.0/src/v0.8/vendor/@ensdomains/buffer/v0.1.0/Buffer.sol\":3488:3494  bufptr */\n      dup4\n        /* \"@chainlink/contracts@1.2.0/src/v0.8/vendor/@ensdomains/buffer/v0.1.0/Buffer.sol\":3484:3499  add(bufptr, 32) */\n      add\n        /* \"@chainlink/contracts@1.2.0/src/v0.8/vendor/@ensdomains/buffer/v0.1.0/Buffer.sol\":3480:3505  add(add(bufptr, 32), off) */\n      add\n        /* \"@chainlink/contracts@1.2.0/src/v0.8/vendor/@ensdomains/buffer/v0.1.0/Buffer.sol\":3472:3505  dest := add(add(bufptr, 32), off) */\n      swap4\n      pop\n        /* \"@chainlink/contracts@1.2.0/src/v0.8/vendor/@ensdomains/buffer/v0.1.0/Buffer.sol\":3595:3601  buflen */\n      dup1\n        /* \"@chainlink/contracts@1.2.0/src/v0.8/vendor/@ensdomains/buffer/v0.1.0/Buffer.sol\":3582:3593  newCapacity */\n      dup6\n        /* \"@chainlink/contracts@1.2.0/src/v0.8/vendor/@ensdomains/buffer/v0.1.0/Buffer.sol\":3579:3602  gt(newCapacity, buflen) */\n      gt\n        /* \"@chainlink/contracts@1.2.0/src/v0.8/vendor/@ensdomains/buffer/v0.1.0/Buffer.sol\":3576:3662  if gt(newCapacity, buflen) {... */\n      iszero\n      tag_331\n      jumpi\n        /* \"@chainlink/contracts@1.2.0/src/v0.8/vendor/@ensdomains/buffer/v0.1.0/Buffer.sol\":3636:3647  newCapacity */\n      dup5\n        /* \"@chainlink/contracts@1.2.0/src/v0.8/vendor/@ensdomains/buffer/v0.1.0/Buffer.sol\":3628:3634  bufptr */\n      dup3\n        /* \"@chainlink/contracts@1.2.0/src/v0.8/vendor/@ensdomains/buffer/v0.1.0/Buffer.sol\":3621:3648  mstore(bufptr, newCapacity) */\n      mstore\n        /* \"@chainlink/contracts@1.2.0/src/v0.8/vendor/@ensdomains/buffer/v0.1.0/Buffer.sol\":3576:3662  if gt(newCapacity, buflen) {... */\n    tag_331:\n        /* \"@chainlink/contracts@1.2.0/src/v0.8/vendor/@ensdomains/buffer/v0.1.0/Buffer.sol\":3692:3694  32 */\n      0x20\n        /* \"@chainlink/contracts@1.2.0/src/v0.8/vendor/@ensdomains/buffer/v0.1.0/Buffer.sol\":3686:3690  data */\n      dup10\n        /* \"@chainlink/contracts@1.2.0/src/v0.8/vendor/@ensdomains/buffer/v0.1.0/Buffer.sol\":3682:3695  add(data, 32) */\n      add\n        /* \"@chainlink/contracts@1.2.0/src/v0.8/vendor/@ensdomains/buffer/v0.1.0/Buffer.sol\":3675:3695  src := add(data, 32) */\n      swap3\n      pop\n        /* \"@chainlink/contracts@1.2.0/src/v0.8/vendor/@ensdomains/buffer/v0.1.0/Buffer.sol\":3207:3705  {... */\n      pop\n      pop\n        /* \"@chainlink/contracts@1.2.0/src/v0.8/vendor/@ensdomains/buffer/v0.1.0/Buffer.sol\":3765:3930  for (; len >= 32; len -= 32) {... */\n    tag_332:\n        /* \"@chainlink/contracts@1.2.0/src/v0.8/vendor/@ensdomains/buffer/v0.1.0/Buffer.sol\":3779:3781  32 */\n      0x20\n        /* \"@chainlink/contracts@1.2.0/src/v0.8/vendor/@ensdomains/buffer/v0.1.0/Buffer.sol\":3772:3775  len */\n      dup7\n        /* \"@chainlink/contracts@1.2.0/src/v0.8/vendor/@ensdomains/buffer/v0.1.0/Buffer.sol\":3772:3781  len >= 32 */\n      lt\n        /* \"@chainlink/contracts@1.2.0/src/v0.8/vendor/@ensdomains/buffer/v0.1.0/Buffer.sol\":3765:3930  for (; len >= 32; len -= 32) {... */\n      tag_333\n      jumpi\n        /* \"@chainlink/contracts@1.2.0/src/v0.8/vendor/@ensdomains/buffer/v0.1.0/Buffer.sol\":3854:3857  src */\n      dup1\n        /* \"@chainlink/contracts@1.2.0/src/v0.8/vendor/@ensdomains/buffer/v0.1.0/Buffer.sol\":3848:3858  mload(src) */\n      mload\n        /* \"@chainlink/contracts@1.2.0/src/v0.8/vendor/@ensdomains/buffer/v0.1.0/Buffer.sol\":3842:3846  dest */\n      dup3\n        /* \"@chainlink/contracts@1.2.0/src/v0.8/vendor/@ensdomains/buffer/v0.1.0/Buffer.sol\":3835:3859  mstore(dest, mload(src)) */\n      mstore\n        /* \"@chainlink/contracts@1.2.0/src/v0.8/vendor/@ensdomains/buffer/v0.1.0/Buffer.sol\":3894:3896  32 */\n      0x20\n        /* \"@chainlink/contracts@1.2.0/src/v0.8/vendor/@ensdomains/buffer/v0.1.0/Buffer.sol\":3886:3896  dest += 32 */\n      dup3\n      tag_335\n      swap2\n      swap1\n      tag_262\n      jump\t// in\n    tag_335:\n      swap2\n      pop\n        /* \"@chainlink/contracts@1.2.0/src/v0.8/vendor/@ensdomains/buffer/v0.1.0/Buffer.sol\":3917:3919  32 */\n      0x20\n        /* \"@chainlink/contracts@1.2.0/src/v0.8/vendor/@ensdomains/buffer/v0.1.0/Buffer.sol\":3910:3919  src += 32 */\n      dup2\n      tag_336\n      swap2\n      swap1\n      tag_262\n      jump\t// in\n    tag_336:\n      swap1\n      pop\n        /* \"@chainlink/contracts@1.2.0/src/v0.8/vendor/@ensdomains/buffer/v0.1.0/Buffer.sol\":3790:3792  32 */\n      0x20\n        /* \"@chainlink/contracts@1.2.0/src/v0.8/vendor/@ensdomains/buffer/v0.1.0/Buffer.sol\":3783:3792  len -= 32 */\n      dup7\n      tag_337\n      swap2\n      swap1\n      tag_266\n      jump\t// in\n    tag_337:\n      swap6\n      pop\n        /* \"@chainlink/contracts@1.2.0/src/v0.8/vendor/@ensdomains/buffer/v0.1.0/Buffer.sol\":3765:3930  for (; len >= 32; len -= 32) {... */\n      jump(tag_332)\n    tag_333:\n        /* \"@chainlink/contracts@1.2.0/src/v0.8/vendor/@ensdomains/buffer/v0.1.0/Buffer.sol\":3996:4005  uint mask */\n      0x00\n        /* \"@chainlink/contracts@1.2.0/src/v0.8/vendor/@ensdomains/buffer/v0.1.0/Buffer.sol\":4030:4031  1 */\n      0x01\n        /* \"@chainlink/contracts@1.2.0/src/v0.8/vendor/@ensdomains/buffer/v0.1.0/Buffer.sol\":4022:4025  len */\n      dup8\n        /* \"@chainlink/contracts@1.2.0/src/v0.8/vendor/@ensdomains/buffer/v0.1.0/Buffer.sol\":4017:4019  32 */\n      0x20\n        /* \"@chainlink/contracts@1.2.0/src/v0.8/vendor/@ensdomains/buffer/v0.1.0/Buffer.sol\":4017:4025  32 - len */\n      sub\n        /* \"@chainlink/contracts@1.2.0/src/v0.8/vendor/@ensdomains/buffer/v0.1.0/Buffer.sol\":4009:4012  256 */\n      0x0100\n        /* \"@chainlink/contracts@1.2.0/src/v0.8/vendor/@ensdomains/buffer/v0.1.0/Buffer.sol\":4009:4026  256 ** (32 - len) */\n      exp\n        /* \"@chainlink/contracts@1.2.0/src/v0.8/vendor/@ensdomains/buffer/v0.1.0/Buffer.sol\":4008:4031  (256 ** (32 - len)) - 1 */\n      sub\n        /* \"@chainlink/contracts@1.2.0/src/v0.8/vendor/@ensdomains/buffer/v0.1.0/Buffer.sol\":3996:4031  uint mask = (256 ** (32 - len)) - 1 */\n      swap1\n      pop\n        /* \"@chainlink/contracts@1.2.0/src/v0.8/vendor/@ensdomains/buffer/v0.1.0/Buffer.sol\":4107:4111  mask */\n      dup1\n        /* \"@chainlink/contracts@1.2.0/src/v0.8/vendor/@ensdomains/buffer/v0.1.0/Buffer.sol\":4103:4112  not(mask) */\n      not\n        /* \"@chainlink/contracts@1.2.0/src/v0.8/vendor/@ensdomains/buffer/v0.1.0/Buffer.sol\":4097:4100  src */\n      dup3\n        /* \"@chainlink/contracts@1.2.0/src/v0.8/vendor/@ensdomains/buffer/v0.1.0/Buffer.sol\":4091:4101  mload(src) */\n      mload\n        /* \"@chainlink/contracts@1.2.0/src/v0.8/vendor/@ensdomains/buffer/v0.1.0/Buffer.sol\":4087:4113  and(mload(src), not(mask)) */\n      and\n        /* \"@chainlink/contracts@1.2.0/src/v0.8/vendor/@ensdomains/buffer/v0.1.0/Buffer.sol\":4163:4167  mask */\n      dup2\n        /* \"@chainlink/contracts@1.2.0/src/v0.8/vendor/@ensdomains/buffer/v0.1.0/Buffer.sol\":4156:4160  dest */\n      dup5\n        /* \"@chainlink/contracts@1.2.0/src/v0.8/vendor/@ensdomains/buffer/v0.1.0/Buffer.sol\":4150:4161  mload(dest) */\n      mload\n        /* \"@chainlink/contracts@1.2.0/src/v0.8/vendor/@ensdomains/buffer/v0.1.0/Buffer.sol\":4146:4168  and(mload(dest), mask) */\n      and\n        /* \"@chainlink/contracts@1.2.0/src/v0.8/vendor/@ensdomains/buffer/v0.1.0/Buffer.sol\":4211:4218  srcpart */\n      dup2\n        /* \"@chainlink/contracts@1.2.0/src/v0.8/vendor/@ensdomains/buffer/v0.1.0/Buffer.sol\":4201:4209  destpart */\n      dup2\n        /* \"@chainlink/contracts@1.2.0/src/v0.8/vendor/@ensdomains/buffer/v0.1.0/Buffer.sol\":4198:4219  or(destpart, srcpart) */\n      or\n        /* \"@chainlink/contracts@1.2.0/src/v0.8/vendor/@ensdomains/buffer/v0.1.0/Buffer.sol\":4192:4196  dest */\n      dup6\n        /* \"@chainlink/contracts@1.2.0/src/v0.8/vendor/@ensdomains/buffer/v0.1.0/Buffer.sol\":4185:4220  mstore(dest, or(destpart, srcpart)) */\n      mstore\n        /* \"@chainlink/contracts@1.2.0/src/v0.8/vendor/@ensdomains/buffer/v0.1.0/Buffer.sol\":4054:4234  {... */\n      pop\n      pop\n      pop\n        /* \"@chainlink/contracts@1.2.0/src/v0.8/vendor/@ensdomains/buffer/v0.1.0/Buffer.sol\":4261:4264  buf */\n      dup8\n        /* \"@chainlink/contracts@1.2.0/src/v0.8/vendor/@ensdomains/buffer/v0.1.0/Buffer.sol\":4254:4264  return buf */\n      swap5\n      pop\n      pop\n      pop\n      pop\n      pop\n        /* \"@chainlink/contracts@1.2.0/src/v0.8/vendor/@ensdomains/buffer/v0.1.0/Buffer.sol\":2844:4271  function append(buffer memory buf, bytes memory data, uint len) internal pure returns(buffer memory) {... */\n      swap4\n      swap3\n      pop\n      pop\n      pop\n      jump\t// out\n        /* \"@chainlink/contracts@1.2.0/src/v0.8/vendor/@ensdomains/buffer/v0.1.0/Buffer.sol\":2004:2171  function resize(buffer memory buf, uint capacity) private pure {... */\n    tag_310:\n        /* \"@chainlink/contracts@1.2.0/src/v0.8/vendor/@ensdomains/buffer/v0.1.0/Buffer.sol\":2077:2096  bytes memory oldbuf */\n      0x00\n        /* \"@chainlink/contracts@1.2.0/src/v0.8/vendor/@ensdomains/buffer/v0.1.0/Buffer.sol\":2099:2102  buf */\n      dup3\n        /* \"@chainlink/contracts@1.2.0/src/v0.8/vendor/@ensdomains/buffer/v0.1.0/Buffer.sol\":2099:2106  buf.buf */\n      0x00\n      add\n      mload\n        /* \"@chainlink/contracts@1.2.0/src/v0.8/vendor/@ensdomains/buffer/v0.1.0/Buffer.sol\":2077:2106  bytes memory oldbuf = buf.buf */\n      swap1\n      pop\n        /* \"@chainlink/contracts@1.2.0/src/v0.8/vendor/@ensdomains/buffer/v0.1.0/Buffer.sol\":2116:2135  init(buf, capacity) */\n      tag_339\n        /* \"@chainlink/contracts@1.2.0/src/v0.8/vendor/@ensdomains/buffer/v0.1.0/Buffer.sol\":2121:2124  buf */\n      dup4\n        /* \"@chainlink/contracts@1.2.0/src/v0.8/vendor/@ensdomains/buffer/v0.1.0/Buffer.sol\":2126:2134  capacity */\n      dup4\n        /* \"@chainlink/contracts@1.2.0/src/v0.8/vendor/@ensdomains/buffer/v0.1.0/Buffer.sol\":2116:2120  init */\n      tag_245\n        /* \"@chainlink/contracts@1.2.0/src/v0.8/vendor/@ensdomains/buffer/v0.1.0/Buffer.sol\":2116:2135  init(buf, capacity) */\n      jump\t// in\n    tag_339:\n      pop\n        /* \"@chainlink/contracts@1.2.0/src/v0.8/vendor/@ensdomains/buffer/v0.1.0/Buffer.sol\":2145:2164  append(buf, oldbuf) */\n      tag_340\n        /* \"@chainlink/contracts@1.2.0/src/v0.8/vendor/@ensdomains/buffer/v0.1.0/Buffer.sol\":2152:2155  buf */\n      dup4\n        /* \"@chainlink/contracts@1.2.0/src/v0.8/vendor/@ensdomains/buffer/v0.1.0/Buffer.sol\":2157:2163  oldbuf */\n      dup3\n        /* \"@chainlink/contracts@1.2.0/src/v0.8/vendor/@ensdomains/buffer/v0.1.0/Buffer.sol\":2145:2151  append */\n      tag_250\n        /* \"@chainlink/contracts@1.2.0/src/v0.8/vendor/@ensdomains/buffer/v0.1.0/Buffer.sol\":2145:2164  append(buf, oldbuf) */\n      jump\t// in\n    tag_340:\n      pop\n        /* \"@chainlink/contracts@1.2.0/src/v0.8/vendor/@ensdomains/buffer/v0.1.0/Buffer.sol\":2067:2171  {... */\n      pop\n        /* \"@chainlink/contracts@1.2.0/src/v0.8/vendor/@ensdomains/buffer/v0.1.0/Buffer.sol\":2004:2171  function resize(buffer memory buf, uint capacity) private pure {... */\n      pop\n      pop\n      jump\t// out\n    tag_92:\n      mload(0x40)\n      dup1\n      0xe0\n      add\n      0x40\n      mstore\n      dup1\n      0x00\n      0x02\n      dup2\n      gt\n      iszero\n      tag_341\n      jumpi\n      tag_342\n      tag_149\n      jump\t// in\n    tag_342:\n    tag_341:\n      dup2\n      mstore\n      0x20\n      add\n      0x00\n      0x02\n      dup2\n      gt\n      iszero\n      tag_343\n      jumpi\n      tag_344\n      tag_149\n      jump\t// in\n    tag_344:\n    tag_343:\n      dup2\n      mstore\n      0x20\n      add\n      0x00\n      dup1\n      dup2\n      gt\n      iszero\n      tag_345\n      jumpi\n      tag_346\n      tag_149\n      jump\t// in\n    tag_346:\n    tag_345:\n      dup2\n      mstore\n      0x20\n      add\n      0x60\n      dup2\n      mstore\n      0x20\n      add\n      0x60\n      dup2\n      mstore\n      0x20\n      add\n      0x60\n      dup2\n      mstore\n      0x20\n      add\n      0x60\n      dup2\n      mstore\n      pop\n      swap1\n      jump\t// out\n    tag_242:\n      mload(0x40)\n      dup1\n      0x40\n      add\n      0x40\n      mstore\n      dup1\n      tag_347\n      tag_271\n      jump\t// in\n    tag_347:\n      dup2\n      mstore\n      0x20\n      add\n      0x00\n      dup2\n      mstore\n      pop\n      swap1\n      jump\t// out\n    tag_271:\n      mload(0x40)\n      dup1\n      0x40\n      add\n      0x40\n      mstore\n      dup1\n      0x60\n      dup2\n      mstore\n      0x20\n      add\n      0x00\n      dup2\n      mstore\n      pop\n      swap1\n      jump\t// out\n        /* \"#utility.yul\":7:82   */\n    tag_348:\n        /* \"#utility.yul\":40:46   */\n      0x00\n        /* \"#utility.yul\":73:75   */\n      0x40\n        /* \"#utility.yul\":67:76   */\n      mload\n        /* \"#utility.yul\":57:76   */\n      swap1\n      pop\n        /* \"#utility.yul\":7:82   */\n      swap1\n      jump\t// out\n        /* \"#utility.yul\":88:205   */\n    tag_349:\n        /* \"#utility.yul\":197:198   */\n      0x00\n        /* \"#utility.yul\":194:195   */\n      dup1\n        /* \"#utility.yul\":187:199   */\n      revert\n        /* \"#utility.yul\":211:328   */\n    tag_350:\n        /* \"#utility.yul\":320:321   */\n      0x00\n        /* \"#utility.yul\":317:318   */\n      dup1\n        /* \"#utility.yul\":310:322   */\n      revert\n        /* \"#utility.yul\":334:411   */\n    tag_351:\n        /* \"#utility.yul\":371:378   */\n      0x00\n        /* \"#utility.yul\":400:405   */\n      dup2\n        /* \"#utility.yul\":389:405   */\n      swap1\n      pop\n        /* \"#utility.yul\":334:411   */\n      swap2\n      swap1\n      pop\n      jump\t// out\n        /* \"#utility.yul\":417:539   */\n    tag_352:\n        /* \"#utility.yul\":490:514   */\n      tag_437\n        /* \"#utility.yul\":508:513   */\n      dup2\n        /* \"#utility.yul\":490:514   */\n      tag_351\n      jump\t// in\n    tag_437:\n        /* \"#utility.yul\":483:488   */\n      dup2\n        /* \"#utility.yul\":480:515   */\n      eq\n        /* \"#utility.yul\":470:533   */\n      tag_438\n      jumpi\n        /* \"#utility.yul\":529:530   */\n      0x00\n        /* \"#utility.yul\":526:527   */\n      dup1\n        /* \"#utility.yul\":519:531   */\n      revert\n        /* \"#utility.yul\":470:533   */\n    tag_438:\n        /* \"#utility.yul\":417:539   */\n      pop\n      jump\t// out\n        /* \"#utility.yul\":545:684   */\n    tag_353:\n        /* \"#utility.yul\":591:596   */\n      0x00\n        /* \"#utility.yul\":629:635   */\n      dup2\n        /* \"#utility.yul\":616:636   */\n      calldataload\n        /* \"#utility.yul\":607:636   */\n      swap1\n      pop\n        /* \"#utility.yul\":645:678   */\n      tag_440\n        /* \"#utility.yul\":672:677   */\n      dup2\n        /* \"#utility.yul\":645:678   */\n      tag_352\n      jump\t// in\n    tag_440:\n        /* \"#utility.yul\":545:684   */\n      swap3\n      swap2\n      pop\n      pop\n      jump\t// out\n        /* \"#utility.yul\":690:807   */\n    tag_354:\n        /* \"#utility.yul\":799:800   */\n      0x00\n        /* \"#utility.yul\":796:797   */\n      dup1\n        /* \"#utility.yul\":789:801   */\n      revert\n        /* \"#utility.yul\":813:930   */\n    tag_355:\n        /* \"#utility.yul\":922:923   */\n      0x00\n        /* \"#utility.yul\":919:920   */\n      dup1\n        /* \"#utility.yul\":912:924   */\n      revert\n        /* \"#utility.yul\":936:1038   */\n    tag_356:\n        /* \"#utility.yul\":977:983   */\n      0x00\n        /* \"#utility.yul\":1028:1030   */\n      0x1f\n        /* \"#utility.yul\":1024:1031   */\n      not\n        /* \"#utility.yul\":1019:1021   */\n      0x1f\n        /* \"#utility.yul\":1012:1017   */\n      dup4\n        /* \"#utility.yul\":1008:1022   */\n      add\n        /* \"#utility.yul\":1004:1032   */\n      and\n        /* \"#utility.yul\":994:1032   */\n      swap1\n      pop\n        /* \"#utility.yul\":936:1038   */\n      swap2\n      swap1\n      pop\n      jump\t// out\n        /* \"#utility.yul\":1044:1224   */\n    tag_357:\n        /* \"#utility.yul\":1092:1169   */\n      0x4e487b7100000000000000000000000000000000000000000000000000000000\n        /* \"#utility.yul\":1089:1090   */\n      0x00\n        /* \"#utility.yul\":1082:1170   */\n      mstore\n        /* \"#utility.yul\":1189:1193   */\n      0x41\n        /* \"#utility.yul\":1186:1187   */\n      0x04\n        /* \"#utility.yul\":1179:1194   */\n      mstore\n        /* \"#utility.yul\":1213:1217   */\n      0x24\n        /* \"#utility.yul\":1210:1211   */\n      0x00\n        /* \"#utility.yul\":1203:1218   */\n      revert\n        /* \"#utility.yul\":1230:1511   */\n    tag_358:\n        /* \"#utility.yul\":1313:1340   */\n      tag_446\n        /* \"#utility.yul\":1335:1339   */\n      dup3\n        /* \"#utility.yul\":1313:1340   */\n      tag_356\n      jump\t// in\n    tag_446:\n        /* \"#utility.yul\":1305:1311   */\n      dup2\n        /* \"#utility.yul\":1301:1341   */\n      add\n        /* \"#utility.yul\":1443:1449   */\n      dup2\n        /* \"#utility.yul\":1431:1441   */\n      dup2\n        /* \"#utility.yul\":1428:1450   */\n      lt\n        /* \"#utility.yul\":1407:1425   */\n      0xffffffffffffffff\n        /* \"#utility.yul\":1395:1405   */\n      dup3\n        /* \"#utility.yul\":1392:1426   */\n      gt\n        /* \"#utility.yul\":1389:1451   */\n      or\n        /* \"#utility.yul\":1386:1474   */\n      iszero\n      tag_447\n      jumpi\n        /* \"#utility.yul\":1454:1472   */\n      tag_448\n      tag_357\n      jump\t// in\n    tag_448:\n        /* \"#utility.yul\":1386:1474   */\n    tag_447:\n        /* \"#utility.yul\":1494:1504   */\n      dup1\n        /* \"#utility.yul\":1490:1492   */\n      0x40\n        /* \"#utility.yul\":1483:1505   */\n      mstore\n        /* \"#utility.yul\":1273:1511   */\n      pop\n        /* \"#utility.yul\":1230:1511   */\n      pop\n      pop\n      jump\t// out\n        /* \"#utility.yul\":1517:1646   */\n    tag_359:\n        /* \"#utility.yul\":1551:1557   */\n      0x00\n        /* \"#utility.yul\":1578:1598   */\n      tag_450\n      tag_348\n      jump\t// in\n    tag_450:\n        /* \"#utility.yul\":1568:1598   */\n      swap1\n      pop\n        /* \"#utility.yul\":1607:1640   */\n      tag_451\n        /* \"#utility.yul\":1635:1639   */\n      dup3\n        /* \"#utility.yul\":1627:1633   */\n      dup3\n        /* \"#utility.yul\":1607:1640   */\n      tag_358\n      jump\t// in\n    tag_451:\n        /* \"#utility.yul\":1517:1646   */\n      swap2\n      swap1\n      pop\n      jump\t// out\n        /* \"#utility.yul\":1652:1959   */\n    tag_360:\n        /* \"#utility.yul\":1713:1717   */\n      0x00\n        /* \"#utility.yul\":1803:1821   */\n      0xffffffffffffffff\n        /* \"#utility.yul\":1795:1801   */\n      dup3\n        /* \"#utility.yul\":1792:1822   */\n      gt\n        /* \"#utility.yul\":1789:1845   */\n      iszero\n      tag_453\n      jumpi\n        /* \"#utility.yul\":1825:1843   */\n      tag_454\n      tag_357\n      jump\t// in\n    tag_454:\n        /* \"#utility.yul\":1789:1845   */\n    tag_453:\n        /* \"#utility.yul\":1863:1892   */\n      tag_455\n        /* \"#utility.yul\":1885:1891   */\n      dup3\n        /* \"#utility.yul\":1863:1892   */\n      tag_356\n      jump\t// in\n    tag_455:\n        /* \"#utility.yul\":1855:1892   */\n      swap1\n      pop\n        /* \"#utility.yul\":1947:1951   */\n      0x20\n        /* \"#utility.yul\":1941:1945   */\n      dup2\n        /* \"#utility.yul\":1937:1952   */\n      add\n        /* \"#utility.yul\":1929:1952   */\n      swap1\n      pop\n        /* \"#utility.yul\":1652:1959   */\n      swap2\n      swap1\n      pop\n      jump\t// out\n        /* \"#utility.yul\":1965:2111   */\n    tag_361:\n        /* \"#utility.yul\":2062:2068   */\n      dup3\n        /* \"#utility.yul\":2057:2060   */\n      dup2\n        /* \"#utility.yul\":2052:2055   */\n      dup4\n        /* \"#utility.yul\":2039:2069   */\n      calldatacopy\n        /* \"#utility.yul\":2103:2104   */\n      0x00\n        /* \"#utility.yul\":2094:2100   */\n      dup4\n        /* \"#utility.yul\":2089:2092   */\n      dup4\n        /* \"#utility.yul\":2085:2101   */\n      add\n        /* \"#utility.yul\":2078:2105   */\n      mstore\n        /* \"#utility.yul\":1965:2111   */\n      pop\n      pop\n      pop\n      jump\t// out\n        /* \"#utility.yul\":2117:2540   */\n    tag_362:\n        /* \"#utility.yul\":2194:2199   */\n      0x00\n        /* \"#utility.yul\":2219:2284   */\n      tag_458\n        /* \"#utility.yul\":2235:2283   */\n      tag_459\n        /* \"#utility.yul\":2276:2282   */\n      dup5\n        /* \"#utility.yul\":2235:2283   */\n      tag_360\n      jump\t// in\n    tag_459:\n        /* \"#utility.yul\":2219:2284   */\n      tag_359\n      jump\t// in\n    tag_458:\n        /* \"#utility.yul\":2210:2284   */\n      swap1\n      pop\n        /* \"#utility.yul\":2307:2313   */\n      dup3\n        /* \"#utility.yul\":2300:2305   */\n      dup2\n        /* \"#utility.yul\":2293:2314   */\n      mstore\n        /* \"#utility.yul\":2345:2349   */\n      0x20\n        /* \"#utility.yul\":2338:2343   */\n      dup2\n        /* \"#utility.yul\":2334:2350   */\n      add\n        /* \"#utility.yul\":2383:2386   */\n      dup5\n        /* \"#utility.yul\":2374:2380   */\n      dup5\n        /* \"#utility.yul\":2369:2372   */\n      dup5\n        /* \"#utility.yul\":2365:2381   */\n      add\n        /* \"#utility.yul\":2362:2387   */\n      gt\n        /* \"#utility.yul\":2359:2471   */\n      iszero\n      tag_460\n      jumpi\n        /* \"#utility.yul\":2390:2469   */\n      tag_461\n      tag_355\n      jump\t// in\n    tag_461:\n        /* \"#utility.yul\":2359:2471   */\n    tag_460:\n        /* \"#utility.yul\":2480:2534   */\n      tag_462\n        /* \"#utility.yul\":2527:2533   */\n      dup5\n        /* \"#utility.yul\":2522:2525   */\n      dup3\n        /* \"#utility.yul\":2517:2520   */\n      dup6\n        /* \"#utility.yul\":2480:2534   */\n      tag_361\n      jump\t// in\n    tag_462:\n        /* \"#utility.yul\":2200:2540   */\n      pop\n        /* \"#utility.yul\":2117:2540   */\n      swap4\n      swap3\n      pop\n      pop\n      pop\n      jump\t// out\n        /* \"#utility.yul\":2559:2897   */\n    tag_363:\n        /* \"#utility.yul\":2614:2619   */\n      0x00\n        /* \"#utility.yul\":2663:2666   */\n      dup3\n        /* \"#utility.yul\":2656:2660   */\n      0x1f\n        /* \"#utility.yul\":2648:2654   */\n      dup4\n        /* \"#utility.yul\":2644:2661   */\n      add\n        /* \"#utility.yul\":2640:2667   */\n      slt\n        /* \"#utility.yul\":2630:2752   */\n      tag_464\n      jumpi\n        /* \"#utility.yul\":2671:2750   */\n      tag_465\n      tag_354\n      jump\t// in\n    tag_465:\n        /* \"#utility.yul\":2630:2752   */\n    tag_464:\n        /* \"#utility.yul\":2788:2794   */\n      dup2\n        /* \"#utility.yul\":2775:2795   */\n      calldataload\n        /* \"#utility.yul\":2813:2891   */\n      tag_466\n        /* \"#utility.yul\":2887:2890   */\n      dup5\n        /* \"#utility.yul\":2879:2885   */\n      dup3\n        /* \"#utility.yul\":2872:2876   */\n      0x20\n        /* \"#utility.yul\":2864:2870   */\n      dup7\n        /* \"#utility.yul\":2860:2877   */\n      add\n        /* \"#utility.yul\":2813:2891   */\n      tag_362\n      jump\t// in\n    tag_466:\n        /* \"#utility.yul\":2804:2891   */\n      swap2\n      pop\n        /* \"#utility.yul\":2620:2897   */\n      pop\n        /* \"#utility.yul\":2559:2897   */\n      swap3\n      swap2\n      pop\n      pop\n      jump\t// out\n        /* \"#utility.yul\":2903:3878   */\n    tag_22:\n        /* \"#utility.yul\":2998:3004   */\n      0x00\n        /* \"#utility.yul\":3006:3012   */\n      dup1\n        /* \"#utility.yul\":3014:3020   */\n      0x00\n        /* \"#utility.yul\":3063:3065   */\n      0x60\n        /* \"#utility.yul\":3051:3060   */\n      dup5\n        /* \"#utility.yul\":3042:3049   */\n      dup7\n        /* \"#utility.yul\":3038:3061   */\n      sub\n        /* \"#utility.yul\":3034:3066   */\n      slt\n        /* \"#utility.yul\":3031:3150   */\n      iszero\n      tag_468\n      jumpi\n        /* \"#utility.yul\":3069:3148   */\n      tag_469\n      tag_349\n      jump\t// in\n    tag_469:\n        /* \"#utility.yul\":3031:3150   */\n    tag_468:\n        /* \"#utility.yul\":3189:3190   */\n      0x00\n        /* \"#utility.yul\":3214:3267   */\n      tag_470\n        /* \"#utility.yul\":3259:3266   */\n      dup7\n        /* \"#utility.yul\":3250:3256   */\n      dup3\n        /* \"#utility.yul\":3239:3248   */\n      dup8\n        /* \"#utility.yul\":3235:3257   */\n      add\n        /* \"#utility.yul\":3214:3267   */\n      tag_353\n      jump\t// in\n    tag_470:\n        /* \"#utility.yul\":3204:3267   */\n      swap4\n      pop\n        /* \"#utility.yul\":3160:3277   */\n      pop\n        /* \"#utility.yul\":3344:3346   */\n      0x20\n        /* \"#utility.yul\":3333:3342   */\n      dup5\n        /* \"#utility.yul\":3329:3347   */\n      add\n        /* \"#utility.yul\":3316:3348   */\n      calldataload\n        /* \"#utility.yul\":3375:3393   */\n      0xffffffffffffffff\n        /* \"#utility.yul\":3367:3373   */\n      dup2\n        /* \"#utility.yul\":3364:3394   */\n      gt\n        /* \"#utility.yul\":3361:3478   */\n      iszero\n      tag_471\n      jumpi\n        /* \"#utility.yul\":3397:3476   */\n      tag_472\n      tag_350\n      jump\t// in\n    tag_472:\n        /* \"#utility.yul\":3361:3478   */\n    tag_471:\n        /* \"#utility.yul\":3502:3564   */\n      tag_473\n        /* \"#utility.yul\":3556:3563   */\n      dup7\n        /* \"#utility.yul\":3547:3553   */\n      dup3\n        /* \"#utility.yul\":3536:3545   */\n      dup8\n        /* \"#utility.yul\":3532:3554   */\n      add\n        /* \"#utility.yul\":3502:3564   */\n      tag_363\n      jump\t// in\n    tag_473:\n        /* \"#utility.yul\":3492:3564   */\n      swap3\n      pop\n        /* \"#utility.yul\":3287:3574   */\n      pop\n        /* \"#utility.yul\":3641:3643   */\n      0x40\n        /* \"#utility.yul\":3630:3639   */\n      dup5\n        /* \"#utility.yul\":3626:3644   */\n      add\n        /* \"#utility.yul\":3613:3645   */\n      calldataload\n        /* \"#utility.yul\":3672:3690   */\n      0xffffffffffffffff\n        /* \"#utility.yul\":3664:3670   */\n      dup2\n        /* \"#utility.yul\":3661:3691   */\n      gt\n        /* \"#utility.yul\":3658:3775   */\n      iszero\n      tag_474\n      jumpi\n        /* \"#utility.yul\":3694:3773   */\n      tag_475\n      tag_350\n      jump\t// in\n    tag_475:\n        /* \"#utility.yul\":3658:3775   */\n    tag_474:\n        /* \"#utility.yul\":3799:3861   */\n      tag_476\n        /* \"#utility.yul\":3853:3860   */\n      dup7\n        /* \"#utility.yul\":3844:3850   */\n      dup3\n        /* \"#utility.yul\":3833:3842   */\n      dup8\n        /* \"#utility.yul\":3829:3851   */\n      add\n        /* \"#utility.yul\":3799:3861   */\n      tag_363\n      jump\t// in\n    tag_476:\n        /* \"#utility.yul\":3789:3861   */\n      swap2\n      pop\n        /* \"#utility.yul\":3584:3871   */\n      pop\n        /* \"#utility.yul\":2903:3878   */\n      swap3\n      pop\n      swap3\n      pop\n      swap3\n      jump\t// out\n        /* \"#utility.yul\":3884:3961   */\n    tag_364:\n        /* \"#utility.yul\":3921:3928   */\n      0x00\n        /* \"#utility.yul\":3950:3955   */\n      dup2\n        /* \"#utility.yul\":3939:3955   */\n      swap1\n      pop\n        /* \"#utility.yul\":3884:3961   */\n      swap2\n      swap1\n      pop\n      jump\t// out\n        /* \"#utility.yul\":3967:4085   */\n    tag_365:\n        /* \"#utility.yul\":4054:4078   */\n      tag_479\n        /* \"#utility.yul\":4072:4077   */\n      dup2\n        /* \"#utility.yul\":4054:4078   */\n      tag_364\n      jump\t// in\n    tag_479:\n        /* \"#utility.yul\":4049:4052   */\n      dup3\n        /* \"#utility.yul\":4042:4079   */\n      mstore\n        /* \"#utility.yul\":3967:4085   */\n      pop\n      pop\n      jump\t// out\n        /* \"#utility.yul\":4091:4313   */\n    tag_27:\n        /* \"#utility.yul\":4184:4188   */\n      0x00\n        /* \"#utility.yul\":4222:4224   */\n      0x20\n        /* \"#utility.yul\":4211:4220   */\n      dup3\n        /* \"#utility.yul\":4207:4225   */\n      add\n        /* \"#utility.yul\":4199:4225   */\n      swap1\n      pop\n        /* \"#utility.yul\":4235:4306   */\n      tag_481\n        /* \"#utility.yul\":4303:4304   */\n      0x00\n        /* \"#utility.yul\":4292:4301   */\n      dup4\n        /* \"#utility.yul\":4288:4305   */\n      add\n        /* \"#utility.yul\":4279:4285   */\n      dup5\n        /* \"#utility.yul\":4235:4306   */\n      tag_365\n      jump\t// in\n    tag_481:\n        /* \"#utility.yul\":4091:4313   */\n      swap3\n      swap2\n      pop\n      pop\n      jump\t// out\n        /* \"#utility.yul\":4319:4417   */\n    tag_366:\n        /* \"#utility.yul\":4370:4376   */\n      0x00\n        /* \"#utility.yul\":4404:4409   */\n      dup2\n        /* \"#utility.yul\":4398:4410   */\n      mload\n        /* \"#utility.yul\":4388:4410   */\n      swap1\n      pop\n        /* \"#utility.yul\":4319:4417   */\n      swap2\n      swap1\n      pop\n      jump\t// out\n        /* \"#utility.yul\":4423:4591   */\n    tag_367:\n        /* \"#utility.yul\":4506:4517   */\n      0x00\n        /* \"#utility.yul\":4540:4546   */\n      dup3\n        /* \"#utility.yul\":4535:4538   */\n      dup3\n        /* \"#utility.yul\":4528:4547   */\n      mstore\n        /* \"#utility.yul\":4580:4584   */\n      0x20\n        /* \"#utility.yul\":4575:4578   */\n      dup3\n        /* \"#utility.yul\":4571:4585   */\n      add\n        /* \"#utility.yul\":4556:4585   */\n      swap1\n      pop\n        /* \"#utility.yul\":4423:4591   */\n      swap3\n      swap2\n      pop\n      pop\n      jump\t// out\n        /* \"#utility.yul\":4597:4843   */\n    tag_368:\n        /* \"#utility.yul\":4678:4679   */\n      0x00\n        /* \"#utility.yul\":4688:4801   */\n    tag_485:\n        /* \"#utility.yul\":4702:4708   */\n      dup4\n        /* \"#utility.yul\":4699:4700   */\n      dup2\n        /* \"#utility.yul\":4696:4709   */\n      lt\n        /* \"#utility.yul\":4688:4801   */\n      iszero\n      tag_487\n      jumpi\n        /* \"#utility.yul\":4787:4788   */\n      dup1\n        /* \"#utility.yul\":4782:4785   */\n      dup3\n        /* \"#utility.yul\":4778:4789   */\n      add\n        /* \"#utility.yul\":4772:4790   */\n      mload\n        /* \"#utility.yul\":4768:4769   */\n      dup2\n        /* \"#utility.yul\":4763:4766   */\n      dup5\n        /* \"#utility.yul\":4759:4770   */\n      add\n        /* \"#utility.yul\":4752:4791   */\n      mstore\n        /* \"#utility.yul\":4724:4726   */\n      0x20\n        /* \"#utility.yul\":4721:4722   */\n      dup2\n        /* \"#utility.yul\":4717:4727   */\n      add\n        /* \"#utility.yul\":4712:4727   */\n      swap1\n      pop\n        /* \"#utility.yul\":4688:4801   */\n      jump(tag_485)\n    tag_487:\n        /* \"#utility.yul\":4835:4836   */\n      0x00\n        /* \"#utility.yul\":4826:4832   */\n      dup5\n        /* \"#utility.yul\":4821:4824   */\n      dup5\n        /* \"#utility.yul\":4817:4833   */\n      add\n        /* \"#utility.yul\":4810:4837   */\n      mstore\n        /* \"#utility.yul\":4659:4843   */\n      pop\n        /* \"#utility.yul\":4597:4843   */\n      pop\n      pop\n      pop\n      jump\t// out\n        /* \"#utility.yul\":4849:5222   */\n    tag_369:\n        /* \"#utility.yul\":4935:4938   */\n      0x00\n        /* \"#utility.yul\":4963:5001   */\n      tag_489\n        /* \"#utility.yul\":4995:5000   */\n      dup3\n        /* \"#utility.yul\":4963:5001   */\n      tag_366\n      jump\t// in\n    tag_489:\n        /* \"#utility.yul\":5017:5087   */\n      tag_490\n        /* \"#utility.yul\":5080:5086   */\n      dup2\n        /* \"#utility.yul\":5075:5078   */\n      dup6\n        /* \"#utility.yul\":5017:5087   */\n      tag_367\n      jump\t// in\n    tag_490:\n        /* \"#utility.yul\":5010:5087   */\n      swap4\n      pop\n        /* \"#utility.yul\":5096:5161   */\n      tag_491\n        /* \"#utility.yul\":5154:5160   */\n      dup2\n        /* \"#utility.yul\":5149:5152   */\n      dup6\n        /* \"#utility.yul\":5142:5146   */\n      0x20\n        /* \"#utility.yul\":5135:5140   */\n      dup7\n        /* \"#utility.yul\":5131:5147   */\n      add\n        /* \"#utility.yul\":5096:5161   */\n      tag_368\n      jump\t// in\n    tag_491:\n        /* \"#utility.yul\":5186:5215   */\n      tag_492\n        /* \"#utility.yul\":5208:5214   */\n      dup2\n        /* \"#utility.yul\":5186:5215   */\n      tag_356\n      jump\t// in\n    tag_492:\n        /* \"#utility.yul\":5181:5184   */\n      dup5\n        /* \"#utility.yul\":5177:5216   */\n      add\n        /* \"#utility.yul\":5170:5216   */\n      swap2\n      pop\n        /* \"#utility.yul\":4939:5222   */\n      pop\n        /* \"#utility.yul\":4849:5222   */\n      swap3\n      swap2\n      pop\n      pop\n      jump\t// out\n        /* \"#utility.yul\":5228:5537   */\n    tag_31:\n        /* \"#utility.yul\":5339:5343   */\n      0x00\n        /* \"#utility.yul\":5377:5379   */\n      0x20\n        /* \"#utility.yul\":5366:5375   */\n      dup3\n        /* \"#utility.yul\":5362:5380   */\n      add\n        /* \"#utility.yul\":5354:5380   */\n      swap1\n      pop\n        /* \"#utility.yul\":5426:5435   */\n      dup2\n        /* \"#utility.yul\":5420:5424   */\n      dup2\n        /* \"#utility.yul\":5416:5436   */\n      sub\n        /* \"#utility.yul\":5412:5413   */\n      0x00\n        /* \"#utility.yul\":5401:5410   */\n      dup4\n        /* \"#utility.yul\":5397:5414   */\n      add\n        /* \"#utility.yul\":5390:5437   */\n      mstore\n        /* \"#utility.yul\":5454:5530   */\n      tag_494\n        /* \"#utility.yul\":5525:5529   */\n      dup2\n        /* \"#utility.yul\":5516:5522   */\n      dup5\n        /* \"#utility.yul\":5454:5530   */\n      tag_369\n      jump\t// in\n    tag_494:\n        /* \"#utility.yul\":5446:5530   */\n      swap1\n      pop\n        /* \"#utility.yul\":5228:5537   */\n      swap3\n      swap2\n      pop\n      pop\n      jump\t// out\n        /* \"#utility.yul\":5543:5851   */\n    tag_370:\n        /* \"#utility.yul\":5605:5609   */\n      0x00\n        /* \"#utility.yul\":5695:5713   */\n      0xffffffffffffffff\n        /* \"#utility.yul\":5687:5693   */\n      dup3\n        /* \"#utility.yul\":5684:5714   */\n      gt\n        /* \"#utility.yul\":5681:5737   */\n      iszero\n      tag_496\n      jumpi\n        /* \"#utility.yul\":5717:5735   */\n      tag_497\n      tag_357\n      jump\t// in\n    tag_497:\n        /* \"#utility.yul\":5681:5737   */\n    tag_496:\n        /* \"#utility.yul\":5755:5784   */\n      tag_498\n        /* \"#utility.yul\":5777:5783   */\n      dup3\n        /* \"#utility.yul\":5755:5784   */\n      tag_356\n      jump\t// in\n    tag_498:\n        /* \"#utility.yul\":5747:5784   */\n      swap1\n      pop\n        /* \"#utility.yul\":5839:5843   */\n      0x20\n        /* \"#utility.yul\":5833:5837   */\n      dup2\n        /* \"#utility.yul\":5829:5844   */\n      add\n        /* \"#utility.yul\":5821:5844   */\n      swap1\n      pop\n        /* \"#utility.yul\":5543:5851   */\n      swap2\n      swap1\n      pop\n      jump\t// out\n        /* \"#utility.yul\":5857:6282   */\n    tag_371:\n        /* \"#utility.yul\":5935:5940   */\n      0x00\n        /* \"#utility.yul\":5960:6026   */\n      tag_500\n        /* \"#utility.yul\":5976:6025   */\n      tag_501\n        /* \"#utility.yul\":6018:6024   */\n      dup5\n        /* \"#utility.yul\":5976:6025   */\n      tag_370\n      jump\t// in\n    tag_501:\n        /* \"#utility.yul\":5960:6026   */\n      tag_359\n      jump\t// in\n    tag_500:\n        /* \"#utility.yul\":5951:6026   */\n      swap1\n      pop\n        /* \"#utility.yul\":6049:6055   */\n      dup3\n        /* \"#utility.yul\":6042:6047   */\n      dup2\n        /* \"#utility.yul\":6035:6056   */\n      mstore\n        /* \"#utility.yul\":6087:6091   */\n      0x20\n        /* \"#utility.yul\":6080:6085   */\n      dup2\n        /* \"#utility.yul\":6076:6092   */\n      add\n        /* \"#utility.yul\":6125:6128   */\n      dup5\n        /* \"#utility.yul\":6116:6122   */\n      dup5\n        /* \"#utility.yul\":6111:6114   */\n      dup5\n        /* \"#utility.yul\":6107:6123   */\n      add\n        /* \"#utility.yul\":6104:6129   */\n      gt\n        /* \"#utility.yul\":6101:6213   */\n      iszero\n      tag_502\n      jumpi\n        /* \"#utility.yul\":6132:6211   */\n      tag_503\n      tag_355\n      jump\t// in\n    tag_503:\n        /* \"#utility.yul\":6101:6213   */\n    tag_502:\n        /* \"#utility.yul\":6222:6276   */\n      tag_504\n        /* \"#utility.yul\":6269:6275   */\n      dup5\n        /* \"#utility.yul\":6264:6267   */\n      dup3\n        /* \"#utility.yul\":6259:6262   */\n      dup6\n        /* \"#utility.yul\":6222:6276   */\n      tag_361\n      jump\t// in\n    tag_504:\n        /* \"#utility.yul\":5941:6282   */\n      pop\n        /* \"#utility.yul\":5857:6282   */\n      swap4\n      swap3\n      pop\n      pop\n      pop\n      jump\t// out\n        /* \"#utility.yul\":6302:6642   */\n    tag_372:\n        /* \"#utility.yul\":6358:6363   */\n      0x00\n        /* \"#utility.yul\":6407:6410   */\n      dup3\n        /* \"#utility.yul\":6400:6404   */\n      0x1f\n        /* \"#utility.yul\":6392:6398   */\n      dup4\n        /* \"#utility.yul\":6388:6405   */\n      add\n        /* \"#utility.yul\":6384:6411   */\n      slt\n        /* \"#utility.yul\":6374:6496   */\n      tag_506\n      jumpi\n        /* \"#utility.yul\":6415:6494   */\n      tag_507\n      tag_354\n      jump\t// in\n    tag_507:\n        /* \"#utility.yul\":6374:6496   */\n    tag_506:\n        /* \"#utility.yul\":6532:6538   */\n      dup2\n        /* \"#utility.yul\":6519:6539   */\n      calldataload\n        /* \"#utility.yul\":6557:6636   */\n      tag_508\n        /* \"#utility.yul\":6632:6635   */\n      dup5\n        /* \"#utility.yul\":6624:6630   */\n      dup3\n        /* \"#utility.yul\":6617:6621   */\n      0x20\n        /* \"#utility.yul\":6609:6615   */\n      dup7\n        /* \"#utility.yul\":6605:6622   */\n      add\n        /* \"#utility.yul\":6557:6636   */\n      tag_371\n      jump\t// in\n    tag_508:\n        /* \"#utility.yul\":6548:6636   */\n      swap2\n      pop\n        /* \"#utility.yul\":6364:6642   */\n      pop\n        /* \"#utility.yul\":6302:6642   */\n      swap3\n      swap2\n      pop\n      pop\n      jump\t// out\n        /* \"#utility.yul\":6648:6734   */\n    tag_373:\n        /* \"#utility.yul\":6683:6690   */\n      0x00\n        /* \"#utility.yul\":6723:6727   */\n      0xff\n        /* \"#utility.yul\":6716:6721   */\n      dup3\n        /* \"#utility.yul\":6712:6728   */\n      and\n        /* \"#utility.yul\":6701:6728   */\n      swap1\n      pop\n        /* \"#utility.yul\":6648:6734   */\n      swap2\n      swap1\n      pop\n      jump\t// out\n        /* \"#utility.yul\":6740:6858   */\n    tag_374:\n        /* \"#utility.yul\":6811:6833   */\n      tag_511\n        /* \"#utility.yul\":6827:6832   */\n      dup2\n        /* \"#utility.yul\":6811:6833   */\n      tag_373\n      jump\t// in\n    tag_511:\n        /* \"#utility.yul\":6804:6809   */\n      dup2\n        /* \"#utility.yul\":6801:6834   */\n      eq\n        /* \"#utility.yul\":6791:6852   */\n      tag_512\n      jumpi\n        /* \"#utility.yul\":6848:6849   */\n      0x00\n        /* \"#utility.yul\":6845:6846   */\n      dup1\n        /* \"#utility.yul\":6838:6850   */\n      revert\n        /* \"#utility.yul\":6791:6852   */\n    tag_512:\n        /* \"#utility.yul\":6740:6858   */\n      pop\n      jump\t// out\n        /* \"#utility.yul\":6864:6999   */\n    tag_375:\n        /* \"#utility.yul\":6908:6913   */\n      0x00\n        /* \"#utility.yul\":6946:6952   */\n      dup2\n        /* \"#utility.yul\":6933:6953   */\n      calldataload\n        /* \"#utility.yul\":6924:6953   */\n      swap1\n      pop\n        /* \"#utility.yul\":6962:6993   */\n      tag_514\n        /* \"#utility.yul\":6987:6992   */\n      dup2\n        /* \"#utility.yul\":6962:6993   */\n      tag_374\n      jump\t// in\n    tag_514:\n        /* \"#utility.yul\":6864:6999   */\n      swap3\n      swap2\n      pop\n      pop\n      jump\t// out\n        /* \"#utility.yul\":7005:7106   */\n    tag_376:\n        /* \"#utility.yul\":7041:7048   */\n      0x00\n        /* \"#utility.yul\":7081:7099   */\n      0xffffffffffffffff\n        /* \"#utility.yul\":7074:7079   */\n      dup3\n        /* \"#utility.yul\":7070:7100   */\n      and\n        /* \"#utility.yul\":7059:7100   */\n      swap1\n      pop\n        /* \"#utility.yul\":7005:7106   */\n      swap2\n      swap1\n      pop\n      jump\t// out\n        /* \"#utility.yul\":7112:7232   */\n    tag_377:\n        /* \"#utility.yul\":7184:7207   */\n      tag_517\n        /* \"#utility.yul\":7201:7206   */\n      dup2\n        /* \"#utility.yul\":7184:7207   */\n      tag_376\n      jump\t// in\n    tag_517:\n        /* \"#utility.yul\":7177:7182   */\n      dup2\n        /* \"#utility.yul\":7174:7208   */\n      eq\n        /* \"#utility.yul\":7164:7226   */\n      tag_518\n      jumpi\n        /* \"#utility.yul\":7222:7223   */\n      0x00\n        /* \"#utility.yul\":7219:7220   */\n      dup1\n        /* \"#utility.yul\":7212:7224   */\n      revert\n        /* \"#utility.yul\":7164:7226   */\n    tag_518:\n        /* \"#utility.yul\":7112:7232   */\n      pop\n      jump\t// out\n        /* \"#utility.yul\":7238:7375   */\n    tag_378:\n        /* \"#utility.yul\":7283:7288   */\n      0x00\n        /* \"#utility.yul\":7321:7327   */\n      dup2\n        /* \"#utility.yul\":7308:7328   */\n      calldataload\n        /* \"#utility.yul\":7299:7328   */\n      swap1\n      pop\n        /* \"#utility.yul\":7337:7369   */\n      tag_520\n        /* \"#utility.yul\":7363:7368   */\n      dup2\n        /* \"#utility.yul\":7337:7369   */\n      tag_377\n      jump\t// in\n    tag_520:\n        /* \"#utility.yul\":7238:7375   */\n      swap3\n      swap2\n      pop\n      pop\n      jump\t// out\n        /* \"#utility.yul\":7381:7702   */\n    tag_379:\n        /* \"#utility.yul\":7468:7472   */\n      0x00\n        /* \"#utility.yul\":7558:7576   */\n      0xffffffffffffffff\n        /* \"#utility.yul\":7550:7556   */\n      dup3\n        /* \"#utility.yul\":7547:7577   */\n      gt\n        /* \"#utility.yul\":7544:7600   */\n      iszero\n      tag_522\n      jumpi\n        /* \"#utility.yul\":7580:7598   */\n      tag_523\n      tag_357\n      jump\t// in\n    tag_523:\n        /* \"#utility.yul\":7544:7600   */\n    tag_522:\n        /* \"#utility.yul\":7630:7634   */\n      0x20\n        /* \"#utility.yul\":7622:7628   */\n      dup3\n        /* \"#utility.yul\":7618:7635   */\n      mul\n        /* \"#utility.yul\":7610:7635   */\n      swap1\n      pop\n        /* \"#utility.yul\":7690:7694   */\n      0x20\n        /* \"#utility.yul\":7684:7688   */\n      dup2\n        /* \"#utility.yul\":7680:7695   */\n      add\n        /* \"#utility.yul\":7672:7695   */\n      swap1\n      pop\n        /* \"#utility.yul\":7381:7702   */\n      swap2\n      swap1\n      pop\n      jump\t// out\n        /* \"#utility.yul\":7708:7825   */\n    tag_380:\n        /* \"#utility.yul\":7817:7818   */\n      0x00\n        /* \"#utility.yul\":7814:7815   */\n      dup1\n        /* \"#utility.yul\":7807:7819   */\n      revert\n        /* \"#utility.yul\":7847:8792   */\n    tag_381:\n        /* \"#utility.yul\":7953:7958   */\n      0x00\n        /* \"#utility.yul\":7978:8069   */\n      tag_526\n        /* \"#utility.yul\":7994:8068   */\n      tag_527\n        /* \"#utility.yul\":8061:8067   */\n      dup5\n        /* \"#utility.yul\":7994:8068   */\n      tag_379\n      jump\t// in\n    tag_527:\n        /* \"#utility.yul\":7978:8069   */\n      tag_359\n      jump\t// in\n    tag_526:\n        /* \"#utility.yul\":7969:8069   */\n      swap1\n      pop\n        /* \"#utility.yul\":8089:8094   */\n      dup1\n        /* \"#utility.yul\":8118:8124   */\n      dup4\n        /* \"#utility.yul\":8111:8116   */\n      dup3\n        /* \"#utility.yul\":8104:8125   */\n      mstore\n        /* \"#utility.yul\":8152:8156   */\n      0x20\n        /* \"#utility.yul\":8145:8150   */\n      dup3\n        /* \"#utility.yul\":8141:8157   */\n      add\n        /* \"#utility.yul\":8134:8157   */\n      swap1\n      pop\n        /* \"#utility.yul\":8205:8209   */\n      0x20\n        /* \"#utility.yul\":8197:8203   */\n      dup5\n        /* \"#utility.yul\":8193:8210   */\n      mul\n        /* \"#utility.yul\":8185:8191   */\n      dup4\n        /* \"#utility.yul\":8181:8211   */\n      add\n        /* \"#utility.yul\":8234:8237   */\n      dup6\n        /* \"#utility.yul\":8226:8232   */\n      dup2\n        /* \"#utility.yul\":8223:8238   */\n      gt\n        /* \"#utility.yul\":8220:8342   */\n      iszero\n      tag_528\n      jumpi\n        /* \"#utility.yul\":8253:8332   */\n      tag_529\n      tag_380\n      jump\t// in\n    tag_529:\n        /* \"#utility.yul\":8220:8342   */\n    tag_528:\n        /* \"#utility.yul\":8368:8374   */\n      dup4\n        /* \"#utility.yul\":8351:8786   */\n    tag_530:\n        /* \"#utility.yul\":8385:8391   */\n      dup2\n        /* \"#utility.yul\":8380:8383   */\n      dup2\n        /* \"#utility.yul\":8377:8392   */\n      lt\n        /* \"#utility.yul\":8351:8786   */\n      iszero\n      tag_532\n      jumpi\n        /* \"#utility.yul\":8474:8477   */\n      dup1\n        /* \"#utility.yul\":8461:8478   */\n      calldataload\n        /* \"#utility.yul\":8510:8528   */\n      0xffffffffffffffff\n        /* \"#utility.yul\":8497:8508   */\n      dup2\n        /* \"#utility.yul\":8494:8529   */\n      gt\n        /* \"#utility.yul\":8491:8613   */\n      iszero\n      tag_533\n      jumpi\n        /* \"#utility.yul\":8532:8611   */\n      tag_534\n      tag_354\n      jump\t// in\n    tag_534:\n        /* \"#utility.yul\":8491:8613   */\n    tag_533:\n        /* \"#utility.yul\":8656:8667   */\n      dup1\n        /* \"#utility.yul\":8648:8654   */\n      dup7\n        /* \"#utility.yul\":8644:8668   */\n      add\n        /* \"#utility.yul\":8694:8741   */\n      tag_535\n        /* \"#utility.yul\":8737:8740   */\n      dup10\n        /* \"#utility.yul\":8725:8735   */\n      dup3\n        /* \"#utility.yul\":8694:8741   */\n      tag_372\n      jump\t// in\n    tag_535:\n        /* \"#utility.yul\":8689:8692   */\n      dup6\n        /* \"#utility.yul\":8682:8742   */\n      mstore\n        /* \"#utility.yul\":8771:8775   */\n      0x20\n        /* \"#utility.yul\":8766:8769   */\n      dup6\n        /* \"#utility.yul\":8762:8776   */\n      add\n        /* \"#utility.yul\":8755:8776   */\n      swap5\n      pop\n        /* \"#utility.yul\":8427:8786   */\n      pop\n      pop\n        /* \"#utility.yul\":8411:8415   */\n      0x20\n        /* \"#utility.yul\":8406:8409   */\n      dup2\n        /* \"#utility.yul\":8402:8416   */\n      add\n        /* \"#utility.yul\":8395:8416   */\n      swap1\n      pop\n        /* \"#utility.yul\":8351:8786   */\n      jump(tag_530)\n    tag_532:\n        /* \"#utility.yul\":8355:8376   */\n      pop\n        /* \"#utility.yul\":7959:8792   */\n      pop\n      pop\n        /* \"#utility.yul\":7847:8792   */\n      swap4\n      swap3\n      pop\n      pop\n      pop\n      jump\t// out\n        /* \"#utility.yul\":8814:9204   */\n    tag_382:\n        /* \"#utility.yul\":8895:8900   */\n      0x00\n        /* \"#utility.yul\":8944:8947   */\n      dup3\n        /* \"#utility.yul\":8937:8941   */\n      0x1f\n        /* \"#utility.yul\":8929:8935   */\n      dup4\n        /* \"#utility.yul\":8925:8942   */\n      add\n        /* \"#utility.yul\":8921:8948   */\n      slt\n        /* \"#utility.yul\":8911:9033   */\n      tag_537\n      jumpi\n        /* \"#utility.yul\":8952:9031   */\n      tag_538\n      tag_354\n      jump\t// in\n    tag_538:\n        /* \"#utility.yul\":8911:9033   */\n    tag_537:\n        /* \"#utility.yul\":9069:9075   */\n      dup2\n        /* \"#utility.yul\":9056:9076   */\n      calldataload\n        /* \"#utility.yul\":9094:9198   */\n      tag_539\n        /* \"#utility.yul\":9194:9197   */\n      dup5\n        /* \"#utility.yul\":9186:9192   */\n      dup3\n        /* \"#utility.yul\":9179:9183   */\n      0x20\n        /* \"#utility.yul\":9171:9177   */\n      dup7\n        /* \"#utility.yul\":9167:9184   */\n      add\n        /* \"#utility.yul\":9094:9198   */\n      tag_381\n      jump\t// in\n    tag_539:\n        /* \"#utility.yul\":9085:9198   */\n      swap2\n      pop\n        /* \"#utility.yul\":8901:9204   */\n      pop\n        /* \"#utility.yul\":8814:9204   */\n      swap3\n      swap2\n      pop\n      pop\n      jump\t// out\n        /* \"#utility.yul\":9210:9530   */\n    tag_383:\n        /* \"#utility.yul\":9296:9300   */\n      0x00\n        /* \"#utility.yul\":9386:9404   */\n      0xffffffffffffffff\n        /* \"#utility.yul\":9378:9384   */\n      dup3\n        /* \"#utility.yul\":9375:9405   */\n      gt\n        /* \"#utility.yul\":9372:9428   */\n      iszero\n      tag_541\n      jumpi\n        /* \"#utility.yul\":9408:9426   */\n      tag_542\n      tag_357\n      jump\t// in\n    tag_542:\n        /* \"#utility.yul\":9372:9428   */\n    tag_541:\n        /* \"#utility.yul\":9458:9462   */\n      0x20\n        /* \"#utility.yul\":9450:9456   */\n      dup3\n        /* \"#utility.yul\":9446:9463   */\n      mul\n        /* \"#utility.yul\":9438:9463   */\n      swap1\n      pop\n        /* \"#utility.yul\":9518:9522   */\n      0x20\n        /* \"#utility.yul\":9512:9516   */\n      dup2\n        /* \"#utility.yul\":9508:9523   */\n      add\n        /* \"#utility.yul\":9500:9523   */\n      swap1\n      pop\n        /* \"#utility.yul\":9210:9530   */\n      swap2\n      swap1\n      pop\n      jump\t// out\n        /* \"#utility.yul\":9551:10493   */\n    tag_384:\n        /* \"#utility.yul\":9656:9661   */\n      0x00\n        /* \"#utility.yul\":9681:9771   */\n      tag_544\n        /* \"#utility.yul\":9697:9770   */\n      tag_545\n        /* \"#utility.yul\":9763:9769   */\n      dup5\n        /* \"#utility.yul\":9697:9770   */\n      tag_383\n      jump\t// in\n    tag_545:\n        /* \"#utility.yul\":9681:9771   */\n      tag_359\n      jump\t// in\n    tag_544:\n        /* \"#utility.yul\":9672:9771   */\n      swap1\n      pop\n        /* \"#utility.yul\":9791:9796   */\n      dup1\n        /* \"#utility.yul\":9820:9826   */\n      dup4\n        /* \"#utility.yul\":9813:9818   */\n      dup3\n        /* \"#utility.yul\":9806:9827   */\n      mstore\n        /* \"#utility.yul\":9854:9858   */\n      0x20\n        /* \"#utility.yul\":9847:9852   */\n      dup3\n        /* \"#utility.yul\":9843:9859   */\n      add\n        /* \"#utility.yul\":9836:9859   */\n      swap1\n      pop\n        /* \"#utility.yul\":9907:9911   */\n      0x20\n        /* \"#utility.yul\":9899:9905   */\n      dup5\n        /* \"#utility.yul\":9895:9912   */\n      mul\n        /* \"#utility.yul\":9887:9893   */\n      dup4\n        /* \"#utility.yul\":9883:9913   */\n      add\n        /* \"#utility.yul\":9936:9939   */\n      dup6\n        /* \"#utility.yul\":9928:9934   */\n      dup2\n        /* \"#utility.yul\":9925:9940   */\n      gt\n        /* \"#utility.yul\":9922:10044   */\n      iszero\n      tag_546\n      jumpi\n        /* \"#utility.yul\":9955:10034   */\n      tag_547\n      tag_380\n      jump\t// in\n    tag_547:\n        /* \"#utility.yul\":9922:10044   */\n    tag_546:\n        /* \"#utility.yul\":10070:10076   */\n      dup4\n        /* \"#utility.yul\":10053:10487   */\n    tag_548:\n        /* \"#utility.yul\":10087:10093   */\n      dup2\n        /* \"#utility.yul\":10082:10085   */\n      dup2\n        /* \"#utility.yul\":10079:10094   */\n      lt\n        /* \"#utility.yul\":10053:10487   */\n      iszero\n      tag_550\n      jumpi\n        /* \"#utility.yul\":10176:10179   */\n      dup1\n        /* \"#utility.yul\":10163:10180   */\n      calldataload\n        /* \"#utility.yul\":10212:10230   */\n      0xffffffffffffffff\n        /* \"#utility.yul\":10199:10210   */\n      dup2\n        /* \"#utility.yul\":10196:10231   */\n      gt\n        /* \"#utility.yul\":10193:10315   */\n      iszero\n      tag_551\n      jumpi\n        /* \"#utility.yul\":10234:10313   */\n      tag_552\n      tag_354\n      jump\t// in\n    tag_552:\n        /* \"#utility.yul\":10193:10315   */\n    tag_551:\n        /* \"#utility.yul\":10358:10369   */\n      dup1\n        /* \"#utility.yul\":10350:10356   */\n      dup7\n        /* \"#utility.yul\":10346:10370   */\n      add\n        /* \"#utility.yul\":10396:10442   */\n      tag_553\n        /* \"#utility.yul\":10438:10441   */\n      dup10\n        /* \"#utility.yul\":10426:10436   */\n      dup3\n        /* \"#utility.yul\":10396:10442   */\n      tag_363\n      jump\t// in\n    tag_553:\n        /* \"#utility.yul\":10391:10394   */\n      dup6\n        /* \"#utility.yul\":10384:10443   */\n      mstore\n        /* \"#utility.yul\":10472:10476   */\n      0x20\n        /* \"#utility.yul\":10467:10470   */\n      dup6\n        /* \"#utility.yul\":10463:10477   */\n      add\n        /* \"#utility.yul\":10456:10477   */\n      swap5\n      pop\n        /* \"#utility.yul\":10129:10487   */\n      pop\n      pop\n        /* \"#utility.yul\":10113:10117   */\n      0x20\n        /* \"#utility.yul\":10108:10111   */\n      dup2\n        /* \"#utility.yul\":10104:10118   */\n      add\n        /* \"#utility.yul\":10097:10118   */\n      swap1\n      pop\n        /* \"#utility.yul\":10053:10487   */\n      jump(tag_548)\n    tag_550:\n        /* \"#utility.yul\":10057:10078   */\n      pop\n        /* \"#utility.yul\":9662:10493   */\n      pop\n      pop\n        /* \"#utility.yul\":9551:10493   */\n      swap4\n      swap3\n      pop\n      pop\n      pop\n      jump\t// out\n        /* \"#utility.yul\":10514:10902   */\n    tag_385:\n        /* \"#utility.yul\":10594:10599   */\n      0x00\n        /* \"#utility.yul\":10643:10646   */\n      dup3\n        /* \"#utility.yul\":10636:10640   */\n      0x1f\n        /* \"#utility.yul\":10628:10634   */\n      dup4\n        /* \"#utility.yul\":10624:10641   */\n      add\n        /* \"#utility.yul\":10620:10647   */\n      slt\n        /* \"#utility.yul\":10610:10732   */\n      tag_555\n      jumpi\n        /* \"#utility.yul\":10651:10730   */\n      tag_556\n      tag_354\n      jump\t// in\n    tag_556:\n        /* \"#utility.yul\":10610:10732   */\n    tag_555:\n        /* \"#utility.yul\":10768:10774   */\n      dup2\n        /* \"#utility.yul\":10755:10775   */\n      calldataload\n        /* \"#utility.yul\":10793:10896   */\n      tag_557\n        /* \"#utility.yul\":10892:10895   */\n      dup5\n        /* \"#utility.yul\":10884:10890   */\n      dup3\n        /* \"#utility.yul\":10877:10881   */\n      0x20\n        /* \"#utility.yul\":10869:10875   */\n      dup7\n        /* \"#utility.yul\":10865:10882   */\n      add\n        /* \"#utility.yul\":10793:10896   */\n      tag_384\n      jump\t// in\n    tag_557:\n        /* \"#utility.yul\":10784:10896   */\n      swap2\n      pop\n        /* \"#utility.yul\":10600:10902   */\n      pop\n        /* \"#utility.yul\":10514:10902   */\n      swap3\n      swap2\n      pop\n      pop\n      jump\t// out\n        /* \"#utility.yul\":10908:11001   */\n    tag_386:\n        /* \"#utility.yul\":10944:10951   */\n      0x00\n        /* \"#utility.yul\":10984:10994   */\n      0xffffffff\n        /* \"#utility.yul\":10977:10982   */\n      dup3\n        /* \"#utility.yul\":10973:10995   */\n      and\n        /* \"#utility.yul\":10962:10995   */\n      swap1\n      pop\n        /* \"#utility.yul\":10908:11001   */\n      swap2\n      swap1\n      pop\n      jump\t// out\n        /* \"#utility.yul\":11007:11127   */\n    tag_387:\n        /* \"#utility.yul\":11079:11102   */\n      tag_560\n        /* \"#utility.yul\":11096:11101   */\n      dup2\n        /* \"#utility.yul\":11079:11102   */\n      tag_386\n      jump\t// in\n    tag_560:\n        /* \"#utility.yul\":11072:11077   */\n      dup2\n        /* \"#utility.yul\":11069:11103   */\n      eq\n        /* \"#utility.yul\":11059:11121   */\n      tag_561\n      jumpi\n        /* \"#utility.yul\":11117:11118   */\n      0x00\n        /* \"#utility.yul\":11114:11115   */\n      dup1\n        /* \"#utility.yul\":11107:11119   */\n      revert\n        /* \"#utility.yul\":11059:11121   */\n    tag_561:\n        /* \"#utility.yul\":11007:11127   */\n      pop\n      jump\t// out\n        /* \"#utility.yul\":11133:11270   */\n    tag_388:\n        /* \"#utility.yul\":11178:11183   */\n      0x00\n        /* \"#utility.yul\":11216:11222   */\n      dup2\n        /* \"#utility.yul\":11203:11223   */\n      calldataload\n        /* \"#utility.yul\":11194:11223   */\n      swap1\n      pop\n        /* \"#utility.yul\":11232:11264   */\n      tag_563\n        /* \"#utility.yul\":11258:11263   */\n      dup2\n        /* \"#utility.yul\":11232:11264   */\n      tag_387\n      jump\t// in\n    tag_563:\n        /* \"#utility.yul\":11133:11270   */\n      swap3\n      swap2\n      pop\n      pop\n      jump\t// out\n        /* \"#utility.yul\":11276:13577   */\n    tag_37:\n        /* \"#utility.yul\":11490:11496   */\n      0x00\n        /* \"#utility.yul\":11498:11504   */\n      dup1\n        /* \"#utility.yul\":11506:11512   */\n      0x00\n        /* \"#utility.yul\":11514:11520   */\n      dup1\n        /* \"#utility.yul\":11522:11528   */\n      0x00\n        /* \"#utility.yul\":11530:11536   */\n      dup1\n        /* \"#utility.yul\":11538:11544   */\n      0x00\n        /* \"#utility.yul\":11546:11552   */\n      dup1\n        /* \"#utility.yul\":11554:11560   */\n      0x00\n        /* \"#utility.yul\":11603:11606   */\n      0x0120\n        /* \"#utility.yul\":11591:11600   */\n      dup11\n        /* \"#utility.yul\":11582:11589   */\n      dup13\n        /* \"#utility.yul\":11578:11601   */\n      sub\n        /* \"#utility.yul\":11574:11607   */\n      slt\n        /* \"#utility.yul\":11571:11691   */\n      iszero\n      tag_565\n      jumpi\n        /* \"#utility.yul\":11610:11689   */\n      tag_566\n      tag_349\n      jump\t// in\n    tag_566:\n        /* \"#utility.yul\":11571:11691   */\n    tag_565:\n        /* \"#utility.yul\":11758:11759   */\n      0x00\n        /* \"#utility.yul\":11747:11756   */\n      dup11\n        /* \"#utility.yul\":11743:11760   */\n      add\n        /* \"#utility.yul\":11730:11761   */\n      calldataload\n        /* \"#utility.yul\":11788:11806   */\n      0xffffffffffffffff\n        /* \"#utility.yul\":11780:11786   */\n      dup2\n        /* \"#utility.yul\":11777:11807   */\n      gt\n        /* \"#utility.yul\":11774:11891   */\n      iszero\n      tag_567\n      jumpi\n        /* \"#utility.yul\":11810:11889   */\n      tag_568\n      tag_350\n      jump\t// in\n    tag_568:\n        /* \"#utility.yul\":11774:11891   */\n    tag_567:\n        /* \"#utility.yul\":11915:11978   */\n      tag_569\n        /* \"#utility.yul\":11970:11977   */\n      dup13\n        /* \"#utility.yul\":11961:11967   */\n      dup3\n        /* \"#utility.yul\":11950:11959   */\n      dup14\n        /* \"#utility.yul\":11946:11968   */\n      add\n        /* \"#utility.yul\":11915:11978   */\n      tag_372\n      jump\t// in\n    tag_569:\n        /* \"#utility.yul\":11905:11978   */\n      swap10\n      pop\n        /* \"#utility.yul\":11701:11988   */\n      pop\n        /* \"#utility.yul\":12055:12057   */\n      0x20\n        /* \"#utility.yul\":12044:12053   */\n      dup11\n        /* \"#utility.yul\":12040:12058   */\n      add\n        /* \"#utility.yul\":12027:12059   */\n      calldataload\n        /* \"#utility.yul\":12086:12104   */\n      0xffffffffffffffff\n        /* \"#utility.yul\":12078:12084   */\n      dup2\n        /* \"#utility.yul\":12075:12105   */\n      gt\n        /* \"#utility.yul\":12072:12189   */\n      iszero\n      tag_570\n      jumpi\n        /* \"#utility.yul\":12108:12187   */\n      tag_571\n      tag_350\n      jump\t// in\n    tag_571:\n        /* \"#utility.yul\":12072:12189   */\n    tag_570:\n        /* \"#utility.yul\":12213:12275   */\n      tag_572\n        /* \"#utility.yul\":12267:12274   */\n      dup13\n        /* \"#utility.yul\":12258:12264   */\n      dup3\n        /* \"#utility.yul\":12247:12256   */\n      dup14\n        /* \"#utility.yul\":12243:12265   */\n      add\n        /* \"#utility.yul\":12213:12275   */\n      tag_363\n      jump\t// in\n    tag_572:\n        /* \"#utility.yul\":12203:12275   */\n      swap9\n      pop\n        /* \"#utility.yul\":11998:12285   */\n      pop\n        /* \"#utility.yul\":12324:12326   */\n      0x40\n        /* \"#utility.yul\":12350:12401   */\n      tag_573\n        /* \"#utility.yul\":12393:12400   */\n      dup13\n        /* \"#utility.yul\":12384:12390   */\n      dup3\n        /* \"#utility.yul\":12373:12382   */\n      dup14\n        /* \"#utility.yul\":12369:12391   */\n      add\n        /* \"#utility.yul\":12350:12401   */\n      tag_375\n      jump\t// in\n    tag_573:\n        /* \"#utility.yul\":12340:12401   */\n      swap8\n      pop\n        /* \"#utility.yul\":12295:12411   */\n      pop\n        /* \"#utility.yul\":12450:12452   */\n      0x60\n        /* \"#utility.yul\":12476:12528   */\n      tag_574\n        /* \"#utility.yul\":12520:12527   */\n      dup13\n        /* \"#utility.yul\":12511:12517   */\n      dup3\n        /* \"#utility.yul\":12500:12509   */\n      dup14\n        /* \"#utility.yul\":12496:12518   */\n      add\n        /* \"#utility.yul\":12476:12528   */\n      tag_378\n      jump\t// in\n    tag_574:\n        /* \"#utility.yul\":12466:12528   */\n      swap7\n      pop\n        /* \"#utility.yul\":12421:12538   */\n      pop\n        /* \"#utility.yul\":12605:12608   */\n      0x80\n        /* \"#utility.yul\":12594:12603   */\n      dup11\n        /* \"#utility.yul\":12590:12609   */\n      add\n        /* \"#utility.yul\":12577:12610   */\n      calldataload\n        /* \"#utility.yul\":12637:12655   */\n      0xffffffffffffffff\n        /* \"#utility.yul\":12629:12635   */\n      dup2\n        /* \"#utility.yul\":12626:12656   */\n      gt\n        /* \"#utility.yul\":12623:12740   */\n      iszero\n      tag_575\n      jumpi\n        /* \"#utility.yul\":12659:12738   */\n      tag_576\n      tag_350\n      jump\t// in\n    tag_576:\n        /* \"#utility.yul\":12623:12740   */\n    tag_575:\n        /* \"#utility.yul\":12764:12852   */\n      tag_577\n        /* \"#utility.yul\":12844:12851   */\n      dup13\n        /* \"#utility.yul\":12835:12841   */\n      dup3\n        /* \"#utility.yul\":12824:12833   */\n      dup14\n        /* \"#utility.yul\":12820:12842   */\n      add\n        /* \"#utility.yul\":12764:12852   */\n      tag_382\n      jump\t// in\n    tag_577:\n        /* \"#utility.yul\":12754:12852   */\n      swap6\n      pop\n        /* \"#utility.yul\":12548:12862   */\n      pop\n        /* \"#utility.yul\":12929:12932   */\n      0xa0\n        /* \"#utility.yul\":12918:12927   */\n      dup11\n        /* \"#utility.yul\":12914:12933   */\n      add\n        /* \"#utility.yul\":12901:12934   */\n      calldataload\n        /* \"#utility.yul\":12961:12979   */\n      0xffffffffffffffff\n        /* \"#utility.yul\":12953:12959   */\n      dup2\n        /* \"#utility.yul\":12950:12980   */\n      gt\n        /* \"#utility.yul\":12947:13064   */\n      iszero\n      tag_578\n      jumpi\n        /* \"#utility.yul\":12983:13062   */\n      tag_579\n      tag_350\n      jump\t// in\n    tag_579:\n        /* \"#utility.yul\":12947:13064   */\n    tag_578:\n        /* \"#utility.yul\":13088:13175   */\n      tag_580\n        /* \"#utility.yul\":13167:13174   */\n      dup13\n        /* \"#utility.yul\":13158:13164   */\n      dup3\n        /* \"#utility.yul\":13147:13156   */\n      dup14\n        /* \"#utility.yul\":13143:13165   */\n      add\n        /* \"#utility.yul\":13088:13175   */\n      tag_385\n      jump\t// in\n    tag_580:\n        /* \"#utility.yul\":13078:13175   */\n      swap5\n      pop\n        /* \"#utility.yul\":12872:13185   */\n      pop\n        /* \"#utility.yul\":13224:13227   */\n      0xc0\n        /* \"#utility.yul\":13251:13303   */\n      tag_581\n        /* \"#utility.yul\":13295:13302   */\n      dup13\n        /* \"#utility.yul\":13286:13292   */\n      dup3\n        /* \"#utility.yul\":13275:13284   */\n      dup14\n        /* \"#utility.yul\":13271:13293   */\n      add\n        /* \"#utility.yul\":13251:13303   */\n      tag_378\n      jump\t// in\n    tag_581:\n        /* \"#utility.yul\":13241:13303   */\n      swap4\n      pop\n        /* \"#utility.yul\":13195:13313   */\n      pop\n        /* \"#utility.yul\":13352:13355   */\n      0xe0\n        /* \"#utility.yul\":13379:13431   */\n      tag_582\n        /* \"#utility.yul\":13423:13430   */\n      dup13\n        /* \"#utility.yul\":13414:13420   */\n      dup3\n        /* \"#utility.yul\":13403:13412   */\n      dup14\n        /* \"#utility.yul\":13399:13421   */\n      add\n        /* \"#utility.yul\":13379:13431   */\n      tag_388\n      jump\t// in\n    tag_582:\n        /* \"#utility.yul\":13369:13431   */\n      swap3\n      pop\n        /* \"#utility.yul\":13323:13441   */\n      pop\n        /* \"#utility.yul\":13480:13483   */\n      0x0100\n        /* \"#utility.yul\":13507:13560   */\n      tag_583\n        /* \"#utility.yul\":13552:13559   */\n      dup13\n        /* \"#utility.yul\":13543:13549   */\n      dup3\n        /* \"#utility.yul\":13532:13541   */\n      dup14\n        /* \"#utility.yul\":13528:13550   */\n      add\n        /* \"#utility.yul\":13507:13560   */\n      tag_353\n      jump\t// in\n    tag_583:\n        /* \"#utility.yul\":13497:13560   */\n      swap2\n      pop\n        /* \"#utility.yul\":13451:13570   */\n      pop\n        /* \"#utility.yul\":11276:13577   */\n      swap3\n      swap6\n      swap9\n      pop\n      swap3\n      swap6\n      swap9\n      pop\n      swap3\n      swap6\n      swap9\n      jump\t// out\n        /* \"#utility.yul\":13583:13701   */\n    tag_389:\n        /* \"#utility.yul\":13670:13694   */\n      tag_585\n        /* \"#utility.yul\":13688:13693   */\n      dup2\n        /* \"#utility.yul\":13670:13694   */\n      tag_351\n      jump\t// in\n    tag_585:\n        /* \"#utility.yul\":13665:13668   */\n      dup3\n        /* \"#utility.yul\":13658:13695   */\n      mstore\n        /* \"#utility.yul\":13583:13701   */\n      pop\n      pop\n      jump\t// out\n        /* \"#utility.yul\":13707:13929   */\n    tag_40:\n        /* \"#utility.yul\":13800:13804   */\n      0x00\n        /* \"#utility.yul\":13838:13840   */\n      0x20\n        /* \"#utility.yul\":13827:13836   */\n      dup3\n        /* \"#utility.yul\":13823:13841   */\n      add\n        /* \"#utility.yul\":13815:13841   */\n      swap1\n      pop\n        /* \"#utility.yul\":13851:13922   */\n      tag_587\n        /* \"#utility.yul\":13919:13920   */\n      0x00\n        /* \"#utility.yul\":13908:13917   */\n      dup4\n        /* \"#utility.yul\":13904:13921   */\n      add\n        /* \"#utility.yul\":13895:13901   */\n      dup5\n        /* \"#utility.yul\":13851:13922   */\n      tag_389\n      jump\t// in\n    tag_587:\n        /* \"#utility.yul\":13707:13929   */\n      swap3\n      swap2\n      pop\n      pop\n      jump\t// out\n        /* \"#utility.yul\":13935:14057   */\n    tag_390:\n        /* \"#utility.yul\":14008:14032   */\n      tag_589\n        /* \"#utility.yul\":14026:14031   */\n      dup2\n        /* \"#utility.yul\":14008:14032   */\n      tag_364\n      jump\t// in\n    tag_589:\n        /* \"#utility.yul\":14001:14006   */\n      dup2\n        /* \"#utility.yul\":13998:14033   */\n      eq\n        /* \"#utility.yul\":13988:14051   */\n      tag_590\n      jumpi\n        /* \"#utility.yul\":14047:14048   */\n      0x00\n        /* \"#utility.yul\":14044:14045   */\n      dup1\n        /* \"#utility.yul\":14037:14049   */\n      revert\n        /* \"#utility.yul\":13988:14051   */\n    tag_590:\n        /* \"#utility.yul\":13935:14057   */\n      pop\n      jump\t// out\n        /* \"#utility.yul\":14063:14202   */\n    tag_391:\n        /* \"#utility.yul\":14109:14114   */\n      0x00\n        /* \"#utility.yul\":14147:14153   */\n      dup2\n        /* \"#utility.yul\":14134:14154   */\n      calldataload\n        /* \"#utility.yul\":14125:14154   */\n      swap1\n      pop\n        /* \"#utility.yul\":14163:14196   */\n      tag_592\n        /* \"#utility.yul\":14190:14195   */\n      dup2\n        /* \"#utility.yul\":14163:14196   */\n      tag_390\n      jump\t// in\n    tag_592:\n        /* \"#utility.yul\":14063:14202   */\n      swap3\n      swap2\n      pop\n      pop\n      jump\t// out\n        /* \"#utility.yul\":14208:14537   */\n    tag_43:\n        /* \"#utility.yul\":14267:14273   */\n      0x00\n        /* \"#utility.yul\":14316:14318   */\n      0x20\n        /* \"#utility.yul\":14304:14313   */\n      dup3\n        /* \"#utility.yul\":14295:14302   */\n      dup5\n        /* \"#utility.yul\":14291:14314   */\n      sub\n        /* \"#utility.yul\":14287:14319   */\n      slt\n        /* \"#utility.yul\":14284:14403   */\n      iszero\n      tag_594\n      jumpi\n        /* \"#utility.yul\":14322:14401   */\n      tag_595\n      tag_349\n      jump\t// in\n    tag_595:\n        /* \"#utility.yul\":14284:14403   */\n    tag_594:\n        /* \"#utility.yul\":14442:14443   */\n      0x00\n        /* \"#utility.yul\":14467:14520   */\n      tag_596\n        /* \"#utility.yul\":14512:14519   */\n      dup5\n        /* \"#utility.yul\":14503:14509   */\n      dup3\n        /* \"#utility.yul\":14492:14501   */\n      dup6\n        /* \"#utility.yul\":14488:14510   */\n      add\n        /* \"#utility.yul\":14467:14520   */\n      tag_391\n      jump\t// in\n    tag_596:\n        /* \"#utility.yul\":14457:14520   */\n      swap2\n      pop\n        /* \"#utility.yul\":14413:14530   */\n      pop\n        /* \"#utility.yul\":14208:14537   */\n      swap3\n      swap2\n      pop\n      pop\n      jump\t// out\n        /* \"#utility.yul\":14543:14669   */\n    tag_392:\n        /* \"#utility.yul\":14580:14587   */\n      0x00\n        /* \"#utility.yul\":14620:14662   */\n      0xffffffffffffffffffffffffffffffffffffffff\n        /* \"#utility.yul\":14613:14618   */\n      dup3\n        /* \"#utility.yul\":14609:14663   */\n      and\n        /* \"#utility.yul\":14598:14663   */\n      swap1\n      pop\n        /* \"#utility.yul\":14543:14669   */\n      swap2\n      swap1\n      pop\n      jump\t// out\n        /* \"#utility.yul\":14675:14771   */\n    tag_393:\n        /* \"#utility.yul\":14712:14719   */\n      0x00\n        /* \"#utility.yul\":14741:14765   */\n      tag_599\n        /* \"#utility.yul\":14759:14764   */\n      dup3\n        /* \"#utility.yul\":14741:14765   */\n      tag_392\n      jump\t// in\n    tag_599:\n        /* \"#utility.yul\":14730:14765   */\n      swap1\n      pop\n        /* \"#utility.yul\":14675:14771   */\n      swap2\n      swap1\n      pop\n      jump\t// out\n        /* \"#utility.yul\":14777:14895   */\n    tag_394:\n        /* \"#utility.yul\":14864:14888   */\n      tag_601\n        /* \"#utility.yul\":14882:14887   */\n      dup2\n        /* \"#utility.yul\":14864:14888   */\n      tag_393\n      jump\t// in\n    tag_601:\n        /* \"#utility.yul\":14859:14862   */\n      dup3\n        /* \"#utility.yul\":14852:14889   */\n      mstore\n        /* \"#utility.yul\":14777:14895   */\n      pop\n      pop\n      jump\t// out\n        /* \"#utility.yul\":14901:15123   */\n    tag_56:\n        /* \"#utility.yul\":14994:14998   */\n      0x00\n        /* \"#utility.yul\":15032:15034   */\n      0x20\n        /* \"#utility.yul\":15021:15030   */\n      dup3\n        /* \"#utility.yul\":15017:15035   */\n      add\n        /* \"#utility.yul\":15009:15035   */\n      swap1\n      pop\n        /* \"#utility.yul\":15045:15116   */\n      tag_603\n        /* \"#utility.yul\":15113:15114   */\n      0x00\n        /* \"#utility.yul\":15102:15111   */\n      dup4\n        /* \"#utility.yul\":15098:15115   */\n      add\n        /* \"#utility.yul\":15089:15095   */\n      dup5\n        /* \"#utility.yul\":15045:15116   */\n      tag_394\n      jump\t// in\n    tag_603:\n        /* \"#utility.yul\":14901:15123   */\n      swap3\n      swap2\n      pop\n      pop\n      jump\t// out\n        /* \"#utility.yul\":15129:16068   */\n    tag_59:\n        /* \"#utility.yul\":15222:15228   */\n      0x00\n        /* \"#utility.yul\":15230:15236   */\n      dup1\n        /* \"#utility.yul\":15238:15244   */\n      0x00\n        /* \"#utility.yul\":15246:15252   */\n      dup1\n        /* \"#utility.yul\":15295:15298   */\n      0x80\n        /* \"#utility.yul\":15283:15292   */\n      dup6\n        /* \"#utility.yul\":15274:15281   */\n      dup8\n        /* \"#utility.yul\":15270:15293   */\n      sub\n        /* \"#utility.yul\":15266:15299   */\n      slt\n        /* \"#utility.yul\":15263:15383   */\n      iszero\n      tag_605\n      jumpi\n        /* \"#utility.yul\":15302:15381   */\n      tag_606\n      tag_349\n      jump\t// in\n    tag_606:\n        /* \"#utility.yul\":15263:15383   */\n    tag_605:\n        /* \"#utility.yul\":15450:15451   */\n      0x00\n        /* \"#utility.yul\":15439:15448   */\n      dup6\n        /* \"#utility.yul\":15435:15452   */\n      add\n        /* \"#utility.yul\":15422:15453   */\n      calldataload\n        /* \"#utility.yul\":15480:15498   */\n      0xffffffffffffffff\n        /* \"#utility.yul\":15472:15478   */\n      dup2\n        /* \"#utility.yul\":15469:15499   */\n      gt\n        /* \"#utility.yul\":15466:15583   */\n      iszero\n      tag_607\n      jumpi\n        /* \"#utility.yul\":15502:15581   */\n      tag_608\n      tag_350\n      jump\t// in\n    tag_608:\n        /* \"#utility.yul\":15466:15583   */\n    tag_607:\n        /* \"#utility.yul\":15607:15669   */\n      tag_609\n        /* \"#utility.yul\":15661:15668   */\n      dup8\n        /* \"#utility.yul\":15652:15658   */\n      dup3\n        /* \"#utility.yul\":15641:15650   */\n      dup9\n        /* \"#utility.yul\":15637:15659   */\n      add\n        /* \"#utility.yul\":15607:15669   */\n      tag_363\n      jump\t// in\n    tag_609:\n        /* \"#utility.yul\":15597:15669   */\n      swap5\n      pop\n        /* \"#utility.yul\":15393:15679   */\n      pop\n        /* \"#utility.yul\":15718:15720   */\n      0x20\n        /* \"#utility.yul\":15744:15796   */\n      tag_610\n        /* \"#utility.yul\":15788:15795   */\n      dup8\n        /* \"#utility.yul\":15779:15785   */\n      dup3\n        /* \"#utility.yul\":15768:15777   */\n      dup9\n        /* \"#utility.yul\":15764:15786   */\n      add\n        /* \"#utility.yul\":15744:15796   */\n      tag_378\n      jump\t// in\n    tag_610:\n        /* \"#utility.yul\":15734:15796   */\n      swap4\n      pop\n        /* \"#utility.yul\":15689:15806   */\n      pop\n        /* \"#utility.yul\":15845:15847   */\n      0x40\n        /* \"#utility.yul\":15871:15923   */\n      tag_611\n        /* \"#utility.yul\":15915:15922   */\n      dup8\n        /* \"#utility.yul\":15906:15912   */\n      dup3\n        /* \"#utility.yul\":15895:15904   */\n      dup9\n        /* \"#utility.yul\":15891:15913   */\n      add\n        /* \"#utility.yul\":15871:15923   */\n      tag_388\n      jump\t// in\n    tag_611:\n        /* \"#utility.yul\":15861:15923   */\n      swap3\n      pop\n        /* \"#utility.yul\":15816:15933   */\n      pop\n        /* \"#utility.yul\":15972:15974   */\n      0x60\n        /* \"#utility.yul\":15998:16051   */\n      tag_612\n        /* \"#utility.yul\":16043:16050   */\n      dup8\n        /* \"#utility.yul\":16034:16040   */\n      dup3\n        /* \"#utility.yul\":16023:16032   */\n      dup9\n        /* \"#utility.yul\":16019:16041   */\n      add\n        /* \"#utility.yul\":15998:16051   */\n      tag_353\n      jump\t// in\n    tag_612:\n        /* \"#utility.yul\":15988:16051   */\n      swap2\n      pop\n        /* \"#utility.yul\":15943:16061   */\n      pop\n        /* \"#utility.yul\":15129:16068   */\n      swap3\n      swap6\n      swap2\n      swap5\n      pop\n      swap3\n      pop\n      jump\t// out\n        /* \"#utility.yul\":16074:16196   */\n    tag_395:\n        /* \"#utility.yul\":16147:16171   */\n      tag_614\n        /* \"#utility.yul\":16165:16170   */\n      dup2\n        /* \"#utility.yul\":16147:16171   */\n      tag_393\n      jump\t// in\n    tag_614:\n        /* \"#utility.yul\":16140:16145   */\n      dup2\n        /* \"#utility.yul\":16137:16172   */\n      eq\n        /* \"#utility.yul\":16127:16190   */\n      tag_615\n      jumpi\n        /* \"#utility.yul\":16186:16187   */\n      0x00\n        /* \"#utility.yul\":16183:16184   */\n      dup1\n        /* \"#utility.yul\":16176:16188   */\n      revert\n        /* \"#utility.yul\":16127:16190   */\n    tag_615:\n        /* \"#utility.yul\":16074:16196   */\n      pop\n      jump\t// out\n        /* \"#utility.yul\":16202:16341   */\n    tag_396:\n        /* \"#utility.yul\":16248:16253   */\n      0x00\n        /* \"#utility.yul\":16286:16292   */\n      dup2\n        /* \"#utility.yul\":16273:16293   */\n      calldataload\n        /* \"#utility.yul\":16264:16293   */\n      swap1\n      pop\n        /* \"#utility.yul\":16302:16335   */\n      tag_617\n        /* \"#utility.yul\":16329:16334   */\n      dup2\n        /* \"#utility.yul\":16302:16335   */\n      tag_395\n      jump\t// in\n    tag_617:\n        /* \"#utility.yul\":16202:16341   */\n      swap3\n      swap2\n      pop\n      pop\n      jump\t// out\n        /* \"#utility.yul\":16347:16676   */\n    tag_69:\n        /* \"#utility.yul\":16406:16412   */\n      0x00\n        /* \"#utility.yul\":16455:16457   */\n      0x20\n        /* \"#utility.yul\":16443:16452   */\n      dup3\n        /* \"#utility.yul\":16434:16441   */\n      dup5\n        /* \"#utility.yul\":16430:16453   */\n      sub\n        /* \"#utility.yul\":16426:16458   */\n      slt\n        /* \"#utility.yul\":16423:16542   */\n      iszero\n      tag_619\n      jumpi\n        /* \"#utility.yul\":16461:16540   */\n      tag_620\n      tag_349\n      jump\t// in\n    tag_620:\n        /* \"#utility.yul\":16423:16542   */\n    tag_619:\n        /* \"#utility.yul\":16581:16582   */\n      0x00\n        /* \"#utility.yul\":16606:16659   */\n      tag_621\n        /* \"#utility.yul\":16651:16658   */\n      dup5\n        /* \"#utility.yul\":16642:16648   */\n      dup3\n        /* \"#utility.yul\":16631:16640   */\n      dup6\n        /* \"#utility.yul\":16627:16649   */\n      add\n        /* \"#utility.yul\":16606:16659   */\n      tag_396\n      jump\t// in\n    tag_621:\n        /* \"#utility.yul\":16596:16659   */\n      swap2\n      pop\n        /* \"#utility.yul\":16552:16669   */\n      pop\n        /* \"#utility.yul\":16347:16676   */\n      swap3\n      swap2\n      pop\n      pop\n      jump\t// out\n        /* \"#utility.yul\":16682:16862   */\n    tag_397:\n        /* \"#utility.yul\":16730:16807   */\n      0x4e487b7100000000000000000000000000000000000000000000000000000000\n        /* \"#utility.yul\":16727:16728   */\n      0x00\n        /* \"#utility.yul\":16720:16808   */\n      mstore\n        /* \"#utility.yul\":16827:16831   */\n      0x22\n        /* \"#utility.yul\":16824:16825   */\n      0x04\n        /* \"#utility.yul\":16817:16832   */\n      mstore\n        /* \"#utility.yul\":16851:16855   */\n      0x24\n        /* \"#utility.yul\":16848:16849   */\n      0x00\n        /* \"#utility.yul\":16841:16856   */\n      revert\n        /* \"#utility.yul\":16868:17188   */\n    tag_77:\n        /* \"#utility.yul\":16912:16918   */\n      0x00\n        /* \"#utility.yul\":16949:16950   */\n      0x02\n        /* \"#utility.yul\":16943:16947   */\n      dup3\n        /* \"#utility.yul\":16939:16951   */\n      div\n        /* \"#utility.yul\":16929:16951   */\n      swap1\n      pop\n        /* \"#utility.yul\":16996:16997   */\n      0x01\n        /* \"#utility.yul\":16990:16994   */\n      dup3\n        /* \"#utility.yul\":16986:16998   */\n      and\n        /* \"#utility.yul\":17017:17035   */\n      dup1\n        /* \"#utility.yul\":17007:17088   */\n      tag_624\n      jumpi\n        /* \"#utility.yul\":17073:17077   */\n      0x7f\n        /* \"#utility.yul\":17065:17071   */\n      dup3\n        /* \"#utility.yul\":17061:17078   */\n      and\n        /* \"#utility.yul\":17051:17078   */\n      swap2\n      pop\n        /* \"#utility.yul\":17007:17088   */\n    tag_624:\n        /* \"#utility.yul\":17135:17137   */\n      0x20\n        /* \"#utility.yul\":17127:17133   */\n      dup3\n        /* \"#utility.yul\":17124:17138   */\n      lt\n        /* \"#utility.yul\":17104:17122   */\n      dup2\n        /* \"#utility.yul\":17101:17139   */\n      sub\n        /* \"#utility.yul\":17098:17182   */\n      tag_625\n      jumpi\n        /* \"#utility.yul\":17154:17172   */\n      tag_626\n      tag_397\n      jump\t// in\n    tag_626:\n        /* \"#utility.yul\":17098:17182   */\n    tag_625:\n        /* \"#utility.yul\":16919:17188   */\n      pop\n        /* \"#utility.yul\":16868:17188   */\n      swap2\n      swap1\n      pop\n      jump\t// out\n        /* \"#utility.yul\":17194:17363   */\n    tag_398:\n        /* \"#utility.yul\":17278:17289   */\n      0x00\n        /* \"#utility.yul\":17312:17318   */\n      dup3\n        /* \"#utility.yul\":17307:17310   */\n      dup3\n        /* \"#utility.yul\":17300:17319   */\n      mstore\n        /* \"#utility.yul\":17352:17356   */\n      0x20\n        /* \"#utility.yul\":17347:17350   */\n      dup3\n        /* \"#utility.yul\":17343:17357   */\n      add\n        /* \"#utility.yul\":17328:17357   */\n      swap1\n      pop\n        /* \"#utility.yul\":17194:17363   */\n      swap3\n      swap2\n      pop\n      pop\n      jump\t// out\n        /* \"#utility.yul\":17369:17541   */\n    tag_399:\n        /* \"#utility.yul\":17509:17533   */\n      0x4d7573742062652070726f706f736564206f776e657200000000000000000000\n        /* \"#utility.yul\":17505:17506   */\n      0x00\n        /* \"#utility.yul\":17497:17503   */\n      dup3\n        /* \"#utility.yul\":17493:17507   */\n      add\n        /* \"#utility.yul\":17486:17534   */\n      mstore\n        /* \"#utility.yul\":17369:17541   */\n      pop\n      jump\t// out\n        /* \"#utility.yul\":17547:17913   */\n    tag_400:\n        /* \"#utility.yul\":17689:17692   */\n      0x00\n        /* \"#utility.yul\":17710:17777   */\n      tag_630\n        /* \"#utility.yul\":17774:17776   */\n      0x16\n        /* \"#utility.yul\":17769:17772   */\n      dup4\n        /* \"#utility.yul\":17710:17777   */\n      tag_398\n      jump\t// in\n    tag_630:\n        /* \"#utility.yul\":17703:17777   */\n      swap2\n      pop\n        /* \"#utility.yul\":17786:17879   */\n      tag_631\n        /* \"#utility.yul\":17875:17878   */\n      dup3\n        /* \"#utility.yul\":17786:17879   */\n      tag_399\n      jump\t// in\n    tag_631:\n        /* \"#utility.yul\":17904:17906   */\n      0x20\n        /* \"#utility.yul\":17899:17902   */\n      dup3\n        /* \"#utility.yul\":17895:17907   */\n      add\n        /* \"#utility.yul\":17888:17907   */\n      swap1\n      pop\n        /* \"#utility.yul\":17547:17913   */\n      swap2\n      swap1\n      pop\n      jump\t// out\n        /* \"#utility.yul\":17919:18338   */\n    tag_116:\n        /* \"#utility.yul\":18085:18089   */\n      0x00\n        /* \"#utility.yul\":18123:18125   */\n      0x20\n        /* \"#utility.yul\":18112:18121   */\n      dup3\n        /* \"#utility.yul\":18108:18126   */\n      add\n        /* \"#utility.yul\":18100:18126   */\n      swap1\n      pop\n        /* \"#utility.yul\":18172:18181   */\n      dup2\n        /* \"#utility.yul\":18166:18170   */\n      dup2\n        /* \"#utility.yul\":18162:18182   */\n      sub\n        /* \"#utility.yul\":18158:18159   */\n      0x00\n        /* \"#utility.yul\":18147:18156   */\n      dup4\n        /* \"#utility.yul\":18143:18160   */\n      add\n        /* \"#utility.yul\":18136:18183   */\n      mstore\n        /* \"#utility.yul\":18200:18331   */\n      tag_633\n        /* \"#utility.yul\":18326:18330   */\n      dup2\n        /* \"#utility.yul\":18200:18331   */\n      tag_400\n      jump\t// in\n    tag_633:\n        /* \"#utility.yul\":18192:18331   */\n      swap1\n      pop\n        /* \"#utility.yul\":17919:18338   */\n      swap2\n      swap1\n      pop\n      jump\t// out\n        /* \"#utility.yul\":18344:18524   */\n    tag_401:\n        /* \"#utility.yul\":18392:18469   */\n      0x4e487b7100000000000000000000000000000000000000000000000000000000\n        /* \"#utility.yul\":18389:18390   */\n      0x00\n        /* \"#utility.yul\":18382:18470   */\n      mstore\n        /* \"#utility.yul\":18489:18493   */\n      0x11\n        /* \"#utility.yul\":18486:18487   */\n      0x04\n        /* \"#utility.yul\":18479:18494   */\n      mstore\n        /* \"#utility.yul\":18513:18517   */\n      0x24\n        /* \"#utility.yul\":18510:18511   */\n      0x00\n        /* \"#utility.yul\":18503:18518   */\n      revert\n        /* \"#utility.yul\":18530:18763   */\n    tag_124:\n        /* \"#utility.yul\":18569:18572   */\n      0x00\n        /* \"#utility.yul\":18592:18616   */\n      tag_636\n        /* \"#utility.yul\":18610:18615   */\n      dup3\n        /* \"#utility.yul\":18592:18616   */\n      tag_364\n      jump\t// in\n    tag_636:\n        /* \"#utility.yul\":18583:18616   */\n      swap2\n      pop\n        /* \"#utility.yul\":18638:18704   */\n      0xffffffffffffffffffffffffffffffffffffffffffffffffffffffffffffffff\n        /* \"#utility.yul\":18631:18636   */\n      dup3\n        /* \"#utility.yul\":18628:18705   */\n      sub\n        /* \"#utility.yul\":18625:18728   */\n      tag_637\n      jumpi\n        /* \"#utility.yul\":18708:18726   */\n      tag_638\n      tag_401\n      jump\t// in\n    tag_638:\n        /* \"#utility.yul\":18625:18728   */\n    tag_637:\n        /* \"#utility.yul\":18755:18756   */\n      0x01\n        /* \"#utility.yul\":18748:18753   */\n      dup3\n        /* \"#utility.yul\":18744:18757   */\n      add\n        /* \"#utility.yul\":18737:18757   */\n      swap1\n      pop\n        /* \"#utility.yul\":18530:18763   */\n      swap2\n      swap1\n      pop\n      jump\t// out\n        /* \"#utility.yul\":18769:18909   */\n    tag_402:\n        /* \"#utility.yul\":18817:18821   */\n      0x00\n        /* \"#utility.yul\":18840:18843   */\n      dup2\n        /* \"#utility.yul\":18832:18843   */\n      swap1\n      pop\n        /* \"#utility.yul\":18863:18866   */\n      dup2\n        /* \"#utility.yul\":18860:18861   */\n      0x00\n        /* \"#utility.yul\":18853:18867   */\n      mstore\n        /* \"#utility.yul\":18897:18901   */\n      0x20\n        /* \"#utility.yul\":18894:18895   */\n      0x00\n        /* \"#utility.yul\":18884:18902   */\n      keccak256\n        /* \"#utility.yul\":18876:18902   */\n      swap1\n      pop\n        /* \"#utility.yul\":18769:18909   */\n      swap2\n      swap1\n      pop\n      jump\t// out\n        /* \"#utility.yul\":18915:19008   */\n    tag_403:\n        /* \"#utility.yul\":18952:18958   */\n      0x00\n        /* \"#utility.yul\":18999:19001   */\n      0x20\n        /* \"#utility.yul\":18994:18996   */\n      0x1f\n        /* \"#utility.yul\":18987:18992   */\n      dup4\n        /* \"#utility.yul\":18983:18997   */\n      add\n        /* \"#utility.yul\":18979:19002   */\n      div\n        /* \"#utility.yul\":18969:19002   */\n      swap1\n      pop\n        /* \"#utility.yul\":18915:19008   */\n      swap2\n      swap1\n      pop\n      jump\t// out\n        /* \"#utility.yul\":19014:19121   */\n    tag_404:\n        /* \"#utility.yul\":19058:19066   */\n      0x00\n        /* \"#utility.yul\":19108:19113   */\n      dup3\n        /* \"#utility.yul\":19102:19106   */\n      dup3\n        /* \"#utility.yul\":19098:19114   */\n      shl\n        /* \"#utility.yul\":19077:19114   */\n      swap1\n      pop\n        /* \"#utility.yul\":19014:19121   */\n      swap3\n      swap2\n      pop\n      pop\n      jump\t// out\n        /* \"#utility.yul\":19127:19520   */\n    tag_405:\n        /* \"#utility.yul\":19196:19202   */\n      0x00\n        /* \"#utility.yul\":19246:19247   */\n      0x08\n        /* \"#utility.yul\":19234:19244   */\n      dup4\n        /* \"#utility.yul\":19230:19248   */\n      mul\n        /* \"#utility.yul\":19269:19366   */\n      tag_643\n        /* \"#utility.yul\":19299:19365   */\n      0xffffffffffffffffffffffffffffffffffffffffffffffffffffffffffffffff\n        /* \"#utility.yul\":19288:19297   */\n      dup3\n        /* \"#utility.yul\":19269:19366   */\n      tag_404\n      jump\t// in\n    tag_643:\n        /* \"#utility.yul\":19387:19426   */\n      tag_644\n        /* \"#utility.yul\":19417:19425   */\n      dup7\n        /* \"#utility.yul\":19406:19415   */\n      dup4\n        /* \"#utility.yul\":19387:19426   */\n      tag_404\n      jump\t// in\n    tag_644:\n        /* \"#utility.yul\":19375:19426   */\n      swap6\n      pop\n        /* \"#utility.yul\":19459:19463   */\n      dup1\n        /* \"#utility.yul\":19455:19464   */\n      not\n        /* \"#utility.yul\":19448:19453   */\n      dup5\n        /* \"#utility.yul\":19444:19465   */\n      and\n        /* \"#utility.yul\":19435:19465   */\n      swap4\n      pop\n        /* \"#utility.yul\":19508:19512   */\n      dup1\n        /* \"#utility.yul\":19498:19506   */\n      dup7\n        /* \"#utility.yul\":19494:19513   */\n      and\n        /* \"#utility.yul\":19487:19492   */\n      dup5\n        /* \"#utility.yul\":19484:19514   */\n      or\n        /* \"#utility.yul\":19474:19514   */\n      swap3\n      pop\n        /* \"#utility.yul\":19203:19520   */\n      pop\n      pop\n        /* \"#utility.yul\":19127:19520   */\n      swap4\n      swap3\n      pop\n      pop\n      pop\n      jump\t// out\n        /* \"#utility.yul\":19526:19586   */\n    tag_406:\n        /* \"#utility.yul\":19554:19557   */\n      0x00\n        /* \"#utility.yul\":19575:19580   */\n      dup2\n        /* \"#utility.yul\":19568:19580   */\n      swap1\n      pop\n        /* \"#utility.yul\":19526:19586   */\n      swap2\n      swap1\n      pop\n      jump\t// out\n        /* \"#utility.yul\":19592:19734   */\n    tag_407:\n        /* \"#utility.yul\":19642:19651   */\n      0x00\n        /* \"#utility.yul\":19675:19728   */\n      tag_647\n        /* \"#utility.yul\":19693:19727   */\n      tag_648\n        /* \"#utility.yul\":19702:19726   */\n      tag_649\n        /* \"#utility.yul\":19720:19725   */\n      dup5\n        /* \"#utility.yul\":19702:19726   */\n      tag_364\n      jump\t// in\n    tag_649:\n        /* \"#utility.yul\":19693:19727   */\n      tag_406\n      jump\t// in\n    tag_648:\n        /* \"#utility.yul\":19675:19728   */\n      tag_364\n      jump\t// in\n    tag_647:\n        /* \"#utility.yul\":19662:19728   */\n      swap1\n      pop\n        /* \"#utility.yul\":19592:19734   */\n      swap2\n      swap1\n      pop\n      jump\t// out\n        /* \"#utility.yul\":19740:19815   */\n    tag_408:\n        /* \"#utility.yul\":19783:19786   */\n      0x00\n        /* \"#utility.yul\":19804:19809   */\n      dup2\n        /* \"#utility.yul\":19797:19809   */\n      swap1\n      pop\n        /* \"#utility.yul\":19740:19815   */\n      swap2\n      swap1\n      pop\n      jump\t// out\n        /* \"#utility.yul\":19821:20090   */\n    tag_409:\n        /* \"#utility.yul\":19931:19970   */\n      tag_652\n        /* \"#utility.yul\":19962:19969   */\n      dup4\n        /* \"#utility.yul\":19931:19970   */\n      tag_407\n      jump\t// in\n    tag_652:\n        /* \"#utility.yul\":19992:20083   */\n      tag_653\n        /* \"#utility.yul\":20041:20082   */\n      tag_654\n        /* \"#utility.yul\":20065:20081   */\n      dup3\n        /* \"#utility.yul\":20041:20082   */\n      tag_408\n      jump\t// in\n    tag_654:\n        /* \"#utility.yul\":20033:20039   */\n      dup5\n        /* \"#utility.yul\":20026:20030   */\n      dup5\n        /* \"#utility.yul\":20020:20031   */\n      sload\n        /* \"#utility.yul\":19992:20083   */\n      tag_405\n      jump\t// in\n    tag_653:\n        /* \"#utility.yul\":19986:19990   */\n      dup3\n        /* \"#utility.yul\":19979:20084   */\n      sstore\n        /* \"#utility.yul\":19897:20090   */\n      pop\n        /* \"#utility.yul\":19821:20090   */\n      pop\n      pop\n      pop\n      jump\t// out\n        /* \"#utility.yul\":20096:20169   */\n    tag_410:\n        /* \"#utility.yul\":20141:20144   */\n      0x00\n        /* \"#utility.yul\":20096:20169   */\n      swap1\n      jump\t// out\n        /* \"#utility.yul\":20175:20364   */\n    tag_411:\n        /* \"#utility.yul\":20252:20284   */\n      tag_657\n      tag_410\n      jump\t// in\n    tag_657:\n        /* \"#utility.yul\":20293:20358   */\n      tag_658\n        /* \"#utility.yul\":20351:20357   */\n      dup2\n        /* \"#utility.yul\":20343:20349   */\n      dup5\n        /* \"#utility.yul\":20337:20341   */\n      dup5\n        /* \"#utility.yul\":20293:20358   */\n      tag_409\n      jump\t// in\n    tag_658:\n        /* \"#utility.yul\":20228:20364   */\n      pop\n        /* \"#utility.yul\":20175:20364   */\n      pop\n      pop\n      jump\t// out\n        /* \"#utility.yul\":20370:20556   */\n    tag_412:\n        /* \"#utility.yul\":20430:20550   */\n    tag_660:\n        /* \"#utility.yul\":20447:20450   */\n      dup2\n        /* \"#utility.yul\":20440:20445   */\n      dup2\n        /* \"#utility.yul\":20437:20451   */\n      lt\n        /* \"#utility.yul\":20430:20550   */\n      iszero\n      tag_662\n      jumpi\n        /* \"#utility.yul\":20501:20540   */\n      tag_663\n        /* \"#utility.yul\":20538:20539   */\n      0x00\n        /* \"#utility.yul\":20531:20536   */\n      dup3\n        /* \"#utility.yul\":20501:20540   */\n      tag_411\n      jump\t// in\n    tag_663:\n        /* \"#utility.yul\":20474:20475   */\n      0x01\n        /* \"#utility.yul\":20467:20472   */\n      dup2\n        /* \"#utility.yul\":20463:20476   */\n      add\n        /* \"#utility.yul\":20454:20476   */\n      swap1\n      pop\n        /* \"#utility.yul\":20430:20550   */\n      jump(tag_660)\n    tag_662:\n        /* \"#utility.yul\":20370:20556   */\n      pop\n      pop\n      jump\t// out\n        /* \"#utility.yul\":20562:21103   */\n    tag_413:\n        /* \"#utility.yul\":20662:20664   */\n      0x1f\n        /* \"#utility.yul\":20657:20660   */\n      dup3\n        /* \"#utility.yul\":20654:20665   */\n      gt\n        /* \"#utility.yul\":20651:21096   */\n      iszero\n      tag_665\n      jumpi\n        /* \"#utility.yul\":20696:20733   */\n      tag_666\n        /* \"#utility.yul\":20727:20732   */\n      dup2\n        /* \"#utility.yul\":20696:20733   */\n      tag_402\n      jump\t// in\n    tag_666:\n        /* \"#utility.yul\":20779:20808   */\n      tag_667\n        /* \"#utility.yul\":20797:20807   */\n      dup5\n        /* \"#utility.yul\":20779:20808   */\n      tag_403\n      jump\t// in\n    tag_667:\n        /* \"#utility.yul\":20769:20777   */\n      dup2\n        /* \"#utility.yul\":20765:20809   */\n      add\n        /* \"#utility.yul\":20962:20964   */\n      0x20\n        /* \"#utility.yul\":20950:20960   */\n      dup6\n        /* \"#utility.yul\":20947:20965   */\n      lt\n        /* \"#utility.yul\":20944:20993   */\n      iszero\n      tag_668\n      jumpi\n        /* \"#utility.yul\":20983:20991   */\n      dup2\n        /* \"#utility.yul\":20968:20991   */\n      swap1\n      pop\n        /* \"#utility.yul\":20944:20993   */\n    tag_668:\n        /* \"#utility.yul\":21006:21086   */\n      tag_669\n        /* \"#utility.yul\":21062:21084   */\n      tag_670\n        /* \"#utility.yul\":21080:21083   */\n      dup6\n        /* \"#utility.yul\":21062:21084   */\n      tag_403\n      jump\t// in\n    tag_670:\n        /* \"#utility.yul\":21052:21060   */\n      dup4\n        /* \"#utility.yul\":21048:21085   */\n      add\n        /* \"#utility.yul\":21035:21046   */\n      dup3\n        /* \"#utility.yul\":21006:21086   */\n      tag_412\n      jump\t// in\n    tag_669:\n        /* \"#utility.yul\":20666:21096   */\n      pop\n      pop\n        /* \"#utility.yul\":20651:21096   */\n    tag_665:\n        /* \"#utility.yul\":20562:21103   */\n      pop\n      pop\n      pop\n      jump\t// out\n        /* \"#utility.yul\":21109:21226   */\n    tag_414:\n        /* \"#utility.yul\":21163:21171   */\n      0x00\n        /* \"#utility.yul\":21213:21218   */\n      dup3\n        /* \"#utility.yul\":21207:21211   */\n      dup3\n        /* \"#utility.yul\":21203:21219   */\n      shr\n        /* \"#utility.yul\":21182:21219   */\n      swap1\n      pop\n        /* \"#utility.yul\":21109:21226   */\n      swap3\n      swap2\n      pop\n      pop\n      jump\t// out\n        /* \"#utility.yul\":21232:21401   */\n    tag_415:\n        /* \"#utility.yul\":21276:21282   */\n      0x00\n        /* \"#utility.yul\":21309:21360   */\n      tag_673\n        /* \"#utility.yul\":21357:21358   */\n      0x00\n        /* \"#utility.yul\":21353:21359   */\n      not\n        /* \"#utility.yul\":21345:21350   */\n      dup5\n        /* \"#utility.yul\":21342:21343   */\n      0x08\n        /* \"#utility.yul\":21338:21351   */\n      mul\n        /* \"#utility.yul\":21309:21360   */\n      tag_414\n      jump\t// in\n    tag_673:\n        /* \"#utility.yul\":21305:21361   */\n      not\n        /* \"#utility.yul\":21390:21394   */\n      dup1\n        /* \"#utility.yul\":21384:21388   */\n      dup4\n        /* \"#utility.yul\":21380:21395   */\n      and\n        /* \"#utility.yul\":21370:21395   */\n      swap2\n      pop\n        /* \"#utility.yul\":21283:21401   */\n      pop\n        /* \"#utility.yul\":21232:21401   */\n      swap3\n      swap2\n      pop\n      pop\n      jump\t// out\n        /* \"#utility.yul\":21406:21701   */\n    tag_416:\n        /* \"#utility.yul\":21482:21486   */\n      0x00\n        /* \"#utility.yul\":21628:21657   */\n      tag_675\n        /* \"#utility.yul\":21653:21656   */\n      dup4\n        /* \"#utility.yul\":21647:21651   */\n      dup4\n        /* \"#utility.yul\":21628:21657   */\n      tag_415\n      jump\t// in\n    tag_675:\n        /* \"#utility.yul\":21620:21657   */\n      swap2\n      pop\n        /* \"#utility.yul\":21690:21693   */\n      dup3\n        /* \"#utility.yul\":21687:21688   */\n      0x02\n        /* \"#utility.yul\":21683:21694   */\n      mul\n        /* \"#utility.yul\":21677:21681   */\n      dup3\n        /* \"#utility.yul\":21674:21695   */\n      or\n        /* \"#utility.yul\":21666:21695   */\n      swap1\n      pop\n        /* \"#utility.yul\":21406:21701   */\n      swap3\n      swap2\n      pop\n      pop\n      jump\t// out\n        /* \"#utility.yul\":21706:23096   */\n    tag_134:\n        /* \"#utility.yul\":21821:21857   */\n      tag_677\n        /* \"#utility.yul\":21853:21856   */\n      dup3\n        /* \"#utility.yul\":21821:21857   */\n      tag_366\n      jump\t// in\n    tag_677:\n        /* \"#utility.yul\":21922:21940   */\n      0xffffffffffffffff\n        /* \"#utility.yul\":21914:21920   */\n      dup2\n        /* \"#utility.yul\":21911:21941   */\n      gt\n        /* \"#utility.yul\":21908:21964   */\n      iszero\n      tag_678\n      jumpi\n        /* \"#utility.yul\":21944:21962   */\n      tag_679\n      tag_357\n      jump\t// in\n    tag_679:\n        /* \"#utility.yul\":21908:21964   */\n    tag_678:\n        /* \"#utility.yul\":21988:22026   */\n      tag_680\n        /* \"#utility.yul\":22020:22024   */\n      dup3\n        /* \"#utility.yul\":22014:22025   */\n      sload\n        /* \"#utility.yul\":21988:22026   */\n      tag_77\n      jump\t// in\n    tag_680:\n        /* \"#utility.yul\":22073:22139   */\n      tag_681\n        /* \"#utility.yul\":22132:22138   */\n      dup3\n        /* \"#utility.yul\":22124:22130   */\n      dup3\n        /* \"#utility.yul\":22118:22122   */\n      dup6\n        /* \"#utility.yul\":22073:22139   */\n      tag_413\n      jump\t// in\n    tag_681:\n        /* \"#utility.yul\":22166:22167   */\n      0x00\n        /* \"#utility.yul\":22190:22194   */\n      0x20\n        /* \"#utility.yul\":22177:22194   */\n      swap1\n      pop\n        /* \"#utility.yul\":22222:22224   */\n      0x1f\n        /* \"#utility.yul\":22214:22220   */\n      dup4\n        /* \"#utility.yul\":22211:22225   */\n      gt\n        /* \"#utility.yul\":22239:22240   */\n      0x01\n        /* \"#utility.yul\":22234:22851   */\n      dup2\n      eq\n      tag_683\n      jumpi\n        /* \"#utility.yul\":22895:22896   */\n      0x00\n        /* \"#utility.yul\":22912:22918   */\n      dup5\n        /* \"#utility.yul\":22909:22986   */\n      iszero\n      tag_684\n      jumpi\n        /* \"#utility.yul\":22961:22970   */\n      dup3\n        /* \"#utility.yul\":22956:22959   */\n      dup8\n        /* \"#utility.yul\":22952:22971   */\n      add\n        /* \"#utility.yul\":22946:22972   */\n      mload\n        /* \"#utility.yul\":22937:22972   */\n      swap1\n      pop\n        /* \"#utility.yul\":22909:22986   */\n    tag_684:\n        /* \"#utility.yul\":23012:23079   */\n      tag_685\n        /* \"#utility.yul\":23072:23078   */\n      dup6\n        /* \"#utility.yul\":23065:23070   */\n      dup3\n        /* \"#utility.yul\":23012:23079   */\n      tag_416\n      jump\t// in\n    tag_685:\n        /* \"#utility.yul\":23006:23010   */\n      dup7\n        /* \"#utility.yul\":22999:23080   */\n      sstore\n        /* \"#utility.yul\":22868:23090   */\n      pop\n        /* \"#utility.yul\":22204:23090   */\n      jump(tag_682)\n        /* \"#utility.yul\":22234:22851   */\n    tag_683:\n        /* \"#utility.yul\":22286:22290   */\n      0x1f\n        /* \"#utility.yul\":22282:22291   */\n      not\n        /* \"#utility.yul\":22274:22280   */\n      dup5\n        /* \"#utility.yul\":22270:22292   */\n      and\n        /* \"#utility.yul\":22320:22356   */\n      tag_686\n        /* \"#utility.yul\":22351:22355   */\n      dup7\n        /* \"#utility.yul\":22320:22356   */\n      tag_402\n      jump\t// in\n    tag_686:\n        /* \"#utility.yul\":22378:22379   */\n      0x00\n        /* \"#utility.yul\":22392:22600   */\n    tag_687:\n        /* \"#utility.yul\":22406:22413   */\n      dup3\n        /* \"#utility.yul\":22403:22404   */\n      dup2\n        /* \"#utility.yul\":22400:22414   */\n      lt\n        /* \"#utility.yul\":22392:22600   */\n      iszero\n      tag_689\n      jumpi\n        /* \"#utility.yul\":22485:22494   */\n      dup5\n        /* \"#utility.yul\":22480:22483   */\n      dup10\n        /* \"#utility.yul\":22476:22495   */\n      add\n        /* \"#utility.yul\":22470:22496   */\n      mload\n        /* \"#utility.yul\":22462:22468   */\n      dup3\n        /* \"#utility.yul\":22455:22497   */\n      sstore\n        /* \"#utility.yul\":22536:22537   */\n      0x01\n        /* \"#utility.yul\":22528:22534   */\n      dup3\n        /* \"#utility.yul\":22524:22538   */\n      add\n        /* \"#utility.yul\":22514:22538   */\n      swap2\n      pop\n        /* \"#utility.yul\":22583:22585   */\n      0x20\n        /* \"#utility.yul\":22572:22581   */\n      dup6\n        /* \"#utility.yul\":22568:22586   */\n      add\n        /* \"#utility.yul\":22555:22586   */\n      swap5\n      pop\n        /* \"#utility.yul\":22429:22433   */\n      0x20\n        /* \"#utility.yul\":22426:22427   */\n      dup2\n        /* \"#utility.yul\":22422:22434   */\n      add\n        /* \"#utility.yul\":22417:22434   */\n      swap1\n      pop\n        /* \"#utility.yul\":22392:22600   */\n      jump(tag_687)\n    tag_689:\n        /* \"#utility.yul\":22628:22634   */\n      dup7\n        /* \"#utility.yul\":22619:22626   */\n      dup4\n        /* \"#utility.yul\":22616:22635   */\n      lt\n        /* \"#utility.yul\":22613:22792   */\n      iszero\n      tag_690\n      jumpi\n        /* \"#utility.yul\":22686:22695   */\n      dup5\n        /* \"#utility.yul\":22681:22684   */\n      dup10\n        /* \"#utility.yul\":22677:22696   */\n      add\n        /* \"#utility.yul\":22671:22697   */\n      mload\n        /* \"#utility.yul\":22729:22777   */\n      tag_691\n        /* \"#utility.yul\":22771:22775   */\n      0x1f\n        /* \"#utility.yul\":22763:22769   */\n      dup10\n        /* \"#utility.yul\":22759:22776   */\n      and\n        /* \"#utility.yul\":22748:22757   */\n      dup3\n        /* \"#utility.yul\":22729:22777   */\n      tag_415\n      jump\t// in\n    tag_691:\n        /* \"#utility.yul\":22721:22727   */\n      dup4\n        /* \"#utility.yul\":22714:22778   */\n      sstore\n        /* \"#utility.yul\":22636:22792   */\n      pop\n        /* \"#utility.yul\":22613:22792   */\n    tag_690:\n        /* \"#utility.yul\":22838:22839   */\n      0x01\n        /* \"#utility.yul\":22834:22835   */\n      0x02\n        /* \"#utility.yul\":22826:22832   */\n      dup9\n        /* \"#utility.yul\":22822:22836   */\n      mul\n        /* \"#utility.yul\":22818:22840   */\n      add\n        /* \"#utility.yul\":22812:22816   */\n      dup9\n        /* \"#utility.yul\":22805:22841   */\n      sstore\n        /* \"#utility.yul\":22241:22851   */\n      pop\n      pop\n      pop\n        /* \"#utility.yul\":22204:23090   */\n    tag_682:\n      pop\n        /* \"#utility.yul\":21796:23096   */\n      pop\n      pop\n      pop\n        /* \"#utility.yul\":21706:23096   */\n      pop\n      pop\n      jump\t// out\n        /* \"#utility.yul\":23124:23951   */\n    tag_417:\n        /* \"#utility.yul\":23207:23210   */\n      0x00\n        /* \"#utility.yul\":23244:23249   */\n      dup2\n        /* \"#utility.yul\":23238:23250   */\n      sload\n        /* \"#utility.yul\":23273:23309   */\n      tag_693\n        /* \"#utility.yul\":23299:23308   */\n      dup2\n        /* \"#utility.yul\":23273:23309   */\n      tag_77\n      jump\t// in\n    tag_693:\n        /* \"#utility.yul\":23325:23395   */\n      tag_694\n        /* \"#utility.yul\":23388:23394   */\n      dup2\n        /* \"#utility.yul\":23383:23386   */\n      dup7\n        /* \"#utility.yul\":23325:23395   */\n      tag_367\n      jump\t// in\n    tag_694:\n        /* \"#utility.yul\":23318:23395   */\n      swap5\n      pop\n        /* \"#utility.yul\":23426:23427   */\n      0x01\n        /* \"#utility.yul\":23415:23424   */\n      dup3\n        /* \"#utility.yul\":23411:23428   */\n      and\n        /* \"#utility.yul\":23442:23443   */\n      0x00\n        /* \"#utility.yul\":23437:23601   */\n      dup2\n      eq\n      tag_696\n      jumpi\n        /* \"#utility.yul\":23615:23616   */\n      0x01\n        /* \"#utility.yul\":23610:23945   */\n      dup2\n      eq\n      tag_697\n      jumpi\n        /* \"#utility.yul\":23404:23945   */\n      jump(tag_695)\n        /* \"#utility.yul\":23437:23601   */\n    tag_696:\n        /* \"#utility.yul\":23521:23525   */\n      0xff\n        /* \"#utility.yul\":23517:23526   */\n      not\n        /* \"#utility.yul\":23506:23515   */\n      dup4\n        /* \"#utility.yul\":23502:23527   */\n      and\n        /* \"#utility.yul\":23497:23500   */\n      dup7\n        /* \"#utility.yul\":23490:23528   */\n      mstore\n        /* \"#utility.yul\":23581:23587   */\n      dup2\n        /* \"#utility.yul\":23574:23588   */\n      iszero\n        /* \"#utility.yul\":23567:23589   */\n      iszero\n        /* \"#utility.yul\":23561:23565   */\n      0x20\n        /* \"#utility.yul\":23557:23590   */\n      mul\n        /* \"#utility.yul\":23552:23555   */\n      dup7\n        /* \"#utility.yul\":23548:23591   */\n      add\n        /* \"#utility.yul\":23541:23591   */\n      swap4\n      pop\n        /* \"#utility.yul\":23437:23601   */\n      jump(tag_695)\n        /* \"#utility.yul\":23610:23945   */\n    tag_697:\n        /* \"#utility.yul\":23677:23714   */\n      tag_698\n        /* \"#utility.yul\":23708:23713   */\n      dup6\n        /* \"#utility.yul\":23677:23714   */\n      tag_402\n      jump\t// in\n    tag_698:\n        /* \"#utility.yul\":23736:23737   */\n      0x00\n        /* \"#utility.yul\":23750:23904   */\n    tag_699:\n        /* \"#utility.yul\":23764:23770   */\n      dup4\n        /* \"#utility.yul\":23761:23762   */\n      dup2\n        /* \"#utility.yul\":23758:23771   */\n      lt\n        /* \"#utility.yul\":23750:23904   */\n      iszero\n      tag_701\n      jumpi\n        /* \"#utility.yul\":23838:23845   */\n      dup2\n        /* \"#utility.yul\":23832:23846   */\n      sload\n        /* \"#utility.yul\":23828:23829   */\n      dup2\n        /* \"#utility.yul\":23823:23826   */\n      dup10\n        /* \"#utility.yul\":23819:23830   */\n      add\n        /* \"#utility.yul\":23812:23847   */\n      mstore\n        /* \"#utility.yul\":23888:23889   */\n      0x01\n        /* \"#utility.yul\":23879:23886   */\n      dup3\n        /* \"#utility.yul\":23875:23890   */\n      add\n        /* \"#utility.yul\":23864:23890   */\n      swap2\n      pop\n        /* \"#utility.yul\":23786:23790   */\n      0x20\n        /* \"#utility.yul\":23783:23784   */\n      dup2\n        /* \"#utility.yul\":23779:23791   */\n      add\n        /* \"#utility.yul\":23774:23791   */\n      swap1\n      pop\n        /* \"#utility.yul\":23750:23904   */\n      jump(tag_699)\n    tag_701:\n        /* \"#utility.yul\":23933:23934   */\n      dup1\n        /* \"#utility.yul\":23928:23931   */\n      dup9\n        /* \"#utility.yul\":23924:23935   */\n      add\n        /* \"#utility.yul\":23917:23935   */\n      swap6\n      pop\n        /* \"#utility.yul\":23617:23945   */\n      pop\n      pop\n        /* \"#utility.yul\":23404:23945   */\n    tag_695:\n      pop\n        /* \"#utility.yul\":23211:23951   */\n      pop\n      pop\n        /* \"#utility.yul\":23124:23951   */\n      swap3\n      swap2\n      pop\n      pop\n      jump\t// out\n        /* \"#utility.yul\":23957:24451   */\n    tag_137:\n        /* \"#utility.yul\":24108:24112   */\n      0x00\n        /* \"#utility.yul\":24146:24148   */\n      0x40\n        /* \"#utility.yul\":24135:24144   */\n      dup3\n        /* \"#utility.yul\":24131:24149   */\n      add\n        /* \"#utility.yul\":24123:24149   */\n      swap1\n      pop\n        /* \"#utility.yul\":24195:24204   */\n      dup2\n        /* \"#utility.yul\":24189:24193   */\n      dup2\n        /* \"#utility.yul\":24185:24205   */\n      sub\n        /* \"#utility.yul\":24181:24182   */\n      0x00\n        /* \"#utility.yul\":24170:24179   */\n      dup4\n        /* \"#utility.yul\":24166:24183   */\n      add\n        /* \"#utility.yul\":24159:24206   */\n      mstore\n        /* \"#utility.yul\":24223:24296   */\n      tag_703\n        /* \"#utility.yul\":24291:24295   */\n      dup2\n        /* \"#utility.yul\":24282:24288   */\n      dup6\n        /* \"#utility.yul\":24223:24296   */\n      tag_417\n      jump\t// in\n    tag_703:\n        /* \"#utility.yul\":24215:24296   */\n      swap1\n      pop\n        /* \"#utility.yul\":24343:24352   */\n      dup2\n        /* \"#utility.yul\":24337:24341   */\n      dup2\n        /* \"#utility.yul\":24333:24353   */\n      sub\n        /* \"#utility.yul\":24328:24330   */\n      0x20\n        /* \"#utility.yul\":24317:24326   */\n      dup4\n        /* \"#utility.yul\":24313:24331   */\n      add\n        /* \"#utility.yul\":24306:24354   */\n      mstore\n        /* \"#utility.yul\":24371:24444   */\n      tag_704\n        /* \"#utility.yul\":24439:24443   */\n      dup2\n        /* \"#utility.yul\":24430:24436   */\n      dup5\n        /* \"#utility.yul\":24371:24444   */\n      tag_417\n      jump\t// in\n    tag_704:\n        /* \"#utility.yul\":24363:24444   */\n      swap1\n      pop\n        /* \"#utility.yul\":23957:24451   */\n      swap4\n      swap3\n      pop\n      pop\n      pop\n      jump\t// out\n        /* \"#utility.yul\":24457:24629   */\n    tag_418:\n        /* \"#utility.yul\":24597:24621   */\n      0x4f6e6c792063616c6c61626c65206279206f776e657200000000000000000000\n        /* \"#utility.yul\":24593:24594   */\n      0x00\n        /* \"#utility.yul\":24585:24591   */\n      dup3\n        /* \"#utility.yul\":24581:24595   */\n      add\n        /* \"#utility.yul\":24574:24622   */\n      mstore\n        /* \"#utility.yul\":24457:24629   */\n      pop\n      jump\t// out\n        /* \"#utility.yul\":24635:25001   */\n    tag_419:\n        /* \"#utility.yul\":24777:24780   */\n      0x00\n        /* \"#utility.yul\":24798:24865   */\n      tag_707\n        /* \"#utility.yul\":24862:24864   */\n      0x16\n        /* \"#utility.yul\":24857:24860   */\n      dup4\n        /* \"#utility.yul\":24798:24865   */\n      tag_398\n      jump\t// in\n    tag_707:\n        /* \"#utility.yul\":24791:24865   */\n      swap2\n      pop\n        /* \"#utility.yul\":24874:24967   */\n      tag_708\n        /* \"#utility.yul\":24963:24966   */\n      dup3\n        /* \"#utility.yul\":24874:24967   */\n      tag_418\n      jump\t// in\n    tag_708:\n        /* \"#utility.yul\":24992:24994   */\n      0x20\n        /* \"#utility.yul\":24987:24990   */\n      dup3\n        /* \"#utility.yul\":24983:24995   */\n      add\n        /* \"#utility.yul\":24976:24995   */\n      swap1\n      pop\n        /* \"#utility.yul\":24635:25001   */\n      swap2\n      swap1\n      pop\n      jump\t// out\n        /* \"#utility.yul\":25007:25426   */\n    tag_141:\n        /* \"#utility.yul\":25173:25177   */\n      0x00\n        /* \"#utility.yul\":25211:25213   */\n      0x20\n        /* \"#utility.yul\":25200:25209   */\n      dup3\n        /* \"#utility.yul\":25196:25214   */\n      add\n        /* \"#utility.yul\":25188:25214   */\n      swap1\n      pop\n        /* \"#utility.yul\":25260:25269   */\n      dup2\n        /* \"#utility.yul\":25254:25258   */\n      dup2\n        /* \"#utility.yul\":25250:25270   */\n      sub\n        /* \"#utility.yul\":25246:25247   */\n      0x00\n        /* \"#utility.yul\":25235:25244   */\n      dup4\n        /* \"#utility.yul\":25231:25248   */\n      add\n        /* \"#utility.yul\":25224:25271   */\n      mstore\n        /* \"#utility.yul\":25288:25419   */\n      tag_710\n        /* \"#utility.yul\":25414:25418   */\n      dup2\n        /* \"#utility.yul\":25288:25419   */\n      tag_419\n      jump\t// in\n    tag_710:\n        /* \"#utility.yul\":25280:25419   */\n      swap1\n      pop\n        /* \"#utility.yul\":25007:25426   */\n      swap2\n      swap1\n      pop\n      jump\t// out\n        /* \"#utility.yul\":25432:25612   */\n    tag_149:\n        /* \"#utility.yul\":25480:25557   */\n      0x4e487b7100000000000000000000000000000000000000000000000000000000\n        /* \"#utility.yul\":25477:25478   */\n      0x00\n        /* \"#utility.yul\":25470:25558   */\n      mstore\n        /* \"#utility.yul\":25577:25581   */\n      0x21\n        /* \"#utility.yul\":25574:25575   */\n      0x04\n        /* \"#utility.yul\":25567:25582   */\n      mstore\n        /* \"#utility.yul\":25601:25605   */\n      0x24\n        /* \"#utility.yul\":25598:25599   */\n      0x00\n        /* \"#utility.yul\":25591:25606   */\n      revert\n        /* \"#utility.yul\":25618:25798   */\n    tag_192:\n        /* \"#utility.yul\":25666:25743   */\n      0x4e487b7100000000000000000000000000000000000000000000000000000000\n        /* \"#utility.yul\":25663:25664   */\n      0x00\n        /* \"#utility.yul\":25656:25744   */\n      mstore\n        /* \"#utility.yul\":25763:25767   */\n      0x32\n        /* \"#utility.yul\":25760:25761   */\n      0x04\n        /* \"#utility.yul\":25753:25768   */\n      mstore\n        /* \"#utility.yul\":25787:25791   */\n      0x24\n        /* \"#utility.yul\":25784:25785   */\n      0x00\n        /* \"#utility.yul\":25777:25792   */\n      revert\n        /* \"#utility.yul\":25804:25919   */\n    tag_420:\n        /* \"#utility.yul\":25889:25912   */\n      tag_714\n        /* \"#utility.yul\":25906:25911   */\n      dup2\n        /* \"#utility.yul\":25889:25912   */\n      tag_376\n      jump\t// in\n    tag_714:\n        /* \"#utility.yul\":25884:25887   */\n      dup3\n        /* \"#utility.yul\":25877:25913   */\n      mstore\n        /* \"#utility.yul\":25804:25919   */\n      pop\n      pop\n      jump\t// out\n        /* \"#utility.yul\":25925:26014   */\n    tag_421:\n        /* \"#utility.yul\":25961:25968   */\n      0x00\n        /* \"#utility.yul\":26001:26007   */\n      0xffff\n        /* \"#utility.yul\":25994:25999   */\n      dup3\n        /* \"#utility.yul\":25990:26008   */\n      and\n        /* \"#utility.yul\":25979:26008   */\n      swap1\n      pop\n        /* \"#utility.yul\":25925:26014   */\n      swap2\n      swap1\n      pop\n      jump\t// out\n        /* \"#utility.yul\":26020:26135   */\n    tag_422:\n        /* \"#utility.yul\":26105:26128   */\n      tag_717\n        /* \"#utility.yul\":26122:26127   */\n      dup2\n        /* \"#utility.yul\":26105:26128   */\n      tag_421\n      jump\t// in\n    tag_717:\n        /* \"#utility.yul\":26100:26103   */\n      dup3\n        /* \"#utility.yul\":26093:26129   */\n      mstore\n        /* \"#utility.yul\":26020:26135   */\n      pop\n      pop\n      jump\t// out\n        /* \"#utility.yul\":26141:26256   */\n    tag_423:\n        /* \"#utility.yul\":26226:26249   */\n      tag_719\n        /* \"#utility.yul\":26243:26248   */\n      dup2\n        /* \"#utility.yul\":26226:26249   */\n      tag_386\n      jump\t// in\n    tag_719:\n        /* \"#utility.yul\":26221:26224   */\n      dup3\n        /* \"#utility.yul\":26214:26250   */\n      mstore\n        /* \"#utility.yul\":26141:26256   */\n      pop\n      pop\n      jump\t// out\n        /* \"#utility.yul\":26262:27001   */\n    tag_222:\n        /* \"#utility.yul\":26479:26483   */\n      0x00\n        /* \"#utility.yul\":26517:26520   */\n      0xa0\n        /* \"#utility.yul\":26506:26515   */\n      dup3\n        /* \"#utility.yul\":26502:26521   */\n      add\n        /* \"#utility.yul\":26494:26521   */\n      swap1\n      pop\n        /* \"#utility.yul\":26531:26600   */\n      tag_721\n        /* \"#utility.yul\":26597:26598   */\n      0x00\n        /* \"#utility.yul\":26586:26595   */\n      dup4\n        /* \"#utility.yul\":26582:26599   */\n      add\n        /* \"#utility.yul\":26573:26579   */\n      dup9\n        /* \"#utility.yul\":26531:26600   */\n      tag_420\n      jump\t// in\n    tag_721:\n        /* \"#utility.yul\":26647:26656   */\n      dup2\n        /* \"#utility.yul\":26641:26645   */\n      dup2\n        /* \"#utility.yul\":26637:26657   */\n      sub\n        /* \"#utility.yul\":26632:26634   */\n      0x20\n        /* \"#utility.yul\":26621:26630   */\n      dup4\n        /* \"#utility.yul\":26617:26635   */\n      add\n        /* \"#utility.yul\":26610:26658   */\n      mstore\n        /* \"#utility.yul\":26675:26751   */\n      tag_722\n        /* \"#utility.yul\":26746:26750   */\n      dup2\n        /* \"#utility.yul\":26737:26743   */\n      dup8\n        /* \"#utility.yul\":26675:26751   */\n      tag_369\n      jump\t// in\n    tag_722:\n        /* \"#utility.yul\":26667:26751   */\n      swap1\n      pop\n        /* \"#utility.yul\":26761:26831   */\n      tag_723\n        /* \"#utility.yul\":26827:26829   */\n      0x40\n        /* \"#utility.yul\":26816:26825   */\n      dup4\n        /* \"#utility.yul\":26812:26830   */\n      add\n        /* \"#utility.yul\":26803:26809   */\n      dup7\n        /* \"#utility.yul\":26761:26831   */\n      tag_422\n      jump\t// in\n    tag_723:\n        /* \"#utility.yul\":26841:26911   */\n      tag_724\n        /* \"#utility.yul\":26907:26909   */\n      0x60\n        /* \"#utility.yul\":26896:26905   */\n      dup4\n        /* \"#utility.yul\":26892:26910   */\n      add\n        /* \"#utility.yul\":26883:26889   */\n      dup6\n        /* \"#utility.yul\":26841:26911   */\n      tag_423\n      jump\t// in\n    tag_724:\n        /* \"#utility.yul\":26921:26994   */\n      tag_725\n        /* \"#utility.yul\":26989:26992   */\n      0x80\n        /* \"#utility.yul\":26978:26987   */\n      dup4\n        /* \"#utility.yul\":26974:26993   */\n      add\n        /* \"#utility.yul\":26965:26971   */\n      dup5\n        /* \"#utility.yul\":26921:26994   */\n      tag_389\n      jump\t// in\n    tag_725:\n        /* \"#utility.yul\":26262:27001   */\n      swap7\n      swap6\n      pop\n      pop\n      pop\n      pop\n      pop\n      pop\n      jump\t// out\n        /* \"#utility.yul\":27007:27150   */\n    tag_424:\n        /* \"#utility.yul\":27064:27069   */\n      0x00\n        /* \"#utility.yul\":27095:27101   */\n      dup2\n        /* \"#utility.yul\":27089:27102   */\n      mload\n        /* \"#utility.yul\":27080:27102   */\n      swap1\n      pop\n        /* \"#utility.yul\":27111:27144   */\n      tag_727\n        /* \"#utility.yul\":27138:27143   */\n      dup2\n        /* \"#utility.yul\":27111:27144   */\n      tag_352\n      jump\t// in\n    tag_727:\n        /* \"#utility.yul\":27007:27150   */\n      swap3\n      swap2\n      pop\n      pop\n      jump\t// out\n        /* \"#utility.yul\":27156:27507   */\n    tag_226:\n        /* \"#utility.yul\":27226:27232   */\n      0x00\n        /* \"#utility.yul\":27275:27277   */\n      0x20\n        /* \"#utility.yul\":27263:27272   */\n      dup3\n        /* \"#utility.yul\":27254:27261   */\n      dup5\n        /* \"#utility.yul\":27250:27273   */\n      sub\n        /* \"#utility.yul\":27246:27278   */\n      slt\n        /* \"#utility.yul\":27243:27362   */\n      iszero\n      tag_729\n      jumpi\n        /* \"#utility.yul\":27281:27360   */\n      tag_730\n      tag_349\n      jump\t// in\n    tag_730:\n        /* \"#utility.yul\":27243:27362   */\n    tag_729:\n        /* \"#utility.yul\":27401:27402   */\n      0x00\n        /* \"#utility.yul\":27426:27490   */\n      tag_731\n        /* \"#utility.yul\":27482:27489   */\n      dup5\n        /* \"#utility.yul\":27473:27479   */\n      dup3\n        /* \"#utility.yul\":27462:27471   */\n      dup6\n        /* \"#utility.yul\":27458:27480   */\n      add\n        /* \"#utility.yul\":27426:27490   */\n      tag_424\n      jump\t// in\n    tag_731:\n        /* \"#utility.yul\":27416:27490   */\n      swap2\n      pop\n        /* \"#utility.yul\":27372:27500   */\n      pop\n        /* \"#utility.yul\":27156:27507   */\n      swap3\n      swap2\n      pop\n      pop\n      jump\t// out\n        /* \"#utility.yul\":27513:27686   */\n    tag_425:\n        /* \"#utility.yul\":27653:27678   */\n      0x43616e6e6f74207472616e7366657220746f2073656c66000000000000000000\n        /* \"#utility.yul\":27649:27650   */\n      0x00\n        /* \"#utility.yul\":27641:27647   */\n      dup3\n        /* \"#utility.yul\":27637:27651   */\n      add\n        /* \"#utility.yul\":27630:27679   */\n      mstore\n        /* \"#utility.yul\":27513:27686   */\n      pop\n      jump\t// out\n        /* \"#utility.yul\":27692:28058   */\n    tag_426:\n        /* \"#utility.yul\":27834:27837   */\n      0x00\n        /* \"#utility.yul\":27855:27922   */\n      tag_734\n        /* \"#utility.yul\":27919:27921   */\n      0x17\n        /* \"#utility.yul\":27914:27917   */\n      dup4\n        /* \"#utility.yul\":27855:27922   */\n      tag_398\n      jump\t// in\n    tag_734:\n        /* \"#utility.yul\":27848:27922   */\n      swap2\n      pop\n        /* \"#utility.yul\":27931:28024   */\n      tag_735\n        /* \"#utility.yul\":28020:28023   */\n      dup3\n        /* \"#utility.yul\":27931:28024   */\n      tag_425\n      jump\t// in\n    tag_735:\n        /* \"#utility.yul\":28049:28051   */\n      0x20\n        /* \"#utility.yul\":28044:28047   */\n      dup3\n        /* \"#utility.yul\":28040:28052   */\n      add\n        /* \"#utility.yul\":28033:28052   */\n      swap1\n      pop\n        /* \"#utility.yul\":27692:28058   */\n      swap2\n      swap1\n      pop\n      jump\t// out\n        /* \"#utility.yul\":28064:28483   */\n    tag_230:\n        /* \"#utility.yul\":28230:28234   */\n      0x00\n        /* \"#utility.yul\":28268:28270   */\n      0x20\n        /* \"#utility.yul\":28257:28266   */\n      dup3\n        /* \"#utility.yul\":28253:28271   */\n      add\n        /* \"#utility.yul\":28245:28271   */\n      swap1\n      pop\n        /* \"#utility.yul\":28317:28326   */\n      dup2\n        /* \"#utility.yul\":28311:28315   */\n      dup2\n        /* \"#utility.yul\":28307:28327   */\n      sub\n        /* \"#utility.yul\":28303:28304   */\n      0x00\n        /* \"#utility.yul\":28292:28301   */\n      dup4\n        /* \"#utility.yul\":28288:28305   */\n      add\n        /* \"#utility.yul\":28281:28328   */\n      mstore\n        /* \"#utility.yul\":28345:28476   */\n      tag_737\n        /* \"#utility.yul\":28471:28475   */\n      dup2\n        /* \"#utility.yul\":28345:28476   */\n      tag_426\n      jump\t// in\n    tag_737:\n        /* \"#utility.yul\":28337:28476   */\n      swap1\n      pop\n        /* \"#utility.yul\":28064:28483   */\n      swap2\n      swap1\n      pop\n      jump\t// out\n        /* \"#utility.yul\":28489:28680   */\n    tag_262:\n        /* \"#utility.yul\":28529:28532   */\n      0x00\n        /* \"#utility.yul\":28548:28568   */\n      tag_739\n        /* \"#utility.yul\":28566:28567   */\n      dup3\n        /* \"#utility.yul\":28548:28568   */\n      tag_364\n      jump\t// in\n    tag_739:\n        /* \"#utility.yul\":28543:28568   */\n      swap2\n      pop\n        /* \"#utility.yul\":28582:28602   */\n      tag_740\n        /* \"#utility.yul\":28600:28601   */\n      dup4\n        /* \"#utility.yul\":28582:28602   */\n      tag_364\n      jump\t// in\n    tag_740:\n        /* \"#utility.yul\":28577:28602   */\n      swap3\n      pop\n        /* \"#utility.yul\":28625:28626   */\n      dup3\n        /* \"#utility.yul\":28622:28623   */\n      dup3\n        /* \"#utility.yul\":28618:28627   */\n      add\n        /* \"#utility.yul\":28611:28627   */\n      swap1\n      pop\n        /* \"#utility.yul\":28646:28649   */\n      dup1\n        /* \"#utility.yul\":28643:28644   */\n      dup3\n        /* \"#utility.yul\":28640:28650   */\n      gt\n        /* \"#utility.yul\":28637:28673   */\n      iszero\n      tag_741\n      jumpi\n        /* \"#utility.yul\":28653:28671   */\n      tag_742\n      tag_401\n      jump\t// in\n    tag_742:\n        /* \"#utility.yul\":28637:28673   */\n    tag_741:\n        /* \"#utility.yul\":28489:28680   */\n      swap3\n      swap2\n      pop\n      pop\n      jump\t// out\n        /* \"#utility.yul\":28686:28880   */\n    tag_266:\n        /* \"#utility.yul\":28726:28730   */\n      0x00\n        /* \"#utility.yul\":28746:28766   */\n      tag_744\n        /* \"#utility.yul\":28764:28765   */\n      dup3\n        /* \"#utility.yul\":28746:28766   */\n      tag_364\n      jump\t// in\n    tag_744:\n        /* \"#utility.yul\":28741:28766   */\n      swap2\n      pop\n        /* \"#utility.yul\":28780:28800   */\n      tag_745\n        /* \"#utility.yul\":28798:28799   */\n      dup4\n        /* \"#utility.yul\":28780:28800   */\n      tag_364\n      jump\t// in\n    tag_745:\n        /* \"#utility.yul\":28775:28800   */\n      swap3\n      pop\n        /* \"#utility.yul\":28824:28825   */\n      dup3\n        /* \"#utility.yul\":28821:28822   */\n      dup3\n        /* \"#utility.yul\":28817:28826   */\n      sub\n        /* \"#utility.yul\":28809:28826   */\n      swap1\n      pop\n        /* \"#utility.yul\":28848:28849   */\n      dup2\n        /* \"#utility.yul\":28842:28846   */\n      dup2\n        /* \"#utility.yul\":28839:28850   */\n      gt\n        /* \"#utility.yul\":28836:28873   */\n      iszero\n      tag_746\n      jumpi\n        /* \"#utility.yul\":28853:28871   */\n      tag_747\n      tag_401\n      jump\t// in\n    tag_747:\n        /* \"#utility.yul\":28836:28873   */\n    tag_746:\n        /* \"#utility.yul\":28686:28880   */\n      swap3\n      swap2\n      pop\n      pop\n      jump\t// out\n        /* \"#utility.yul\":28886:29066   */\n    tag_427:\n        /* \"#utility.yul\":28934:29011   */\n      0x4e487b7100000000000000000000000000000000000000000000000000000000\n        /* \"#utility.yul\":28931:28932   */\n      0x00\n        /* \"#utility.yul\":28924:29012   */\n      mstore\n        /* \"#utility.yul\":29031:29035   */\n      0x12\n        /* \"#utility.yul\":29028:29029   */\n      0x04\n        /* \"#utility.yul\":29021:29036   */\n      mstore\n        /* \"#utility.yul\":29055:29059   */\n      0x24\n        /* \"#utility.yul\":29052:29053   */\n      0x00\n        /* \"#utility.yul\":29045:29060   */\n      revert\n        /* \"#utility.yul\":29072:29248   */\n    tag_274:\n        /* \"#utility.yul\":29104:29105   */\n      0x00\n        /* \"#utility.yul\":29121:29141   */\n      tag_750\n        /* \"#utility.yul\":29139:29140   */\n      dup3\n        /* \"#utility.yul\":29121:29141   */\n      tag_364\n      jump\t// in\n    tag_750:\n        /* \"#utility.yul\":29116:29141   */\n      swap2\n      pop\n        /* \"#utility.yul\":29155:29175   */\n      tag_751\n        /* \"#utility.yul\":29173:29174   */\n      dup4\n        /* \"#utility.yul\":29155:29175   */\n      tag_364\n      jump\t// in\n    tag_751:\n        /* \"#utility.yul\":29150:29175   */\n      swap3\n      pop\n        /* \"#utility.yul\":29194:29195   */\n      dup3\n        /* \"#utility.yul\":29184:29219   */\n      tag_752\n      jumpi\n        /* \"#utility.yul\":29199:29217   */\n      tag_753\n      tag_427\n      jump\t// in\n    tag_753:\n        /* \"#utility.yul\":29184:29219   */\n    tag_752:\n        /* \"#utility.yul\":29240:29241   */\n      dup3\n        /* \"#utility.yul\":29237:29238   */\n      dup3\n        /* \"#utility.yul\":29233:29242   */\n      mod\n        /* \"#utility.yul\":29228:29242   */\n      swap1\n      pop\n        /* \"#utility.yul\":29072:29248   */\n      swap3\n      swap2\n      pop\n      pop\n      jump\t// out\n        /* \"#utility.yul\":29254:29664   */\n    tag_309:\n        /* \"#utility.yul\":29294:29301   */\n      0x00\n        /* \"#utility.yul\":29317:29337   */\n      tag_755\n        /* \"#utility.yul\":29335:29336   */\n      dup3\n        /* \"#utility.yul\":29317:29337   */\n      tag_364\n      jump\t// in\n    tag_755:\n        /* \"#utility.yul\":29312:29337   */\n      swap2\n      pop\n        /* \"#utility.yul\":29351:29371   */\n      tag_756\n        /* \"#utility.yul\":29369:29370   */\n      dup4\n        /* \"#utility.yul\":29351:29371   */\n      tag_364\n      jump\t// in\n    tag_756:\n        /* \"#utility.yul\":29346:29371   */\n      swap3\n      pop\n        /* \"#utility.yul\":29406:29407   */\n      dup3\n        /* \"#utility.yul\":29403:29404   */\n      dup3\n        /* \"#utility.yul\":29399:29408   */\n      mul\n        /* \"#utility.yul\":29428:29458   */\n      tag_757\n        /* \"#utility.yul\":29446:29457   */\n      dup2\n        /* \"#utility.yul\":29428:29458   */\n      tag_364\n      jump\t// in\n    tag_757:\n        /* \"#utility.yul\":29417:29458   */\n      swap2\n      pop\n        /* \"#utility.yul\":29607:29608   */\n      dup3\n        /* \"#utility.yul\":29598:29605   */\n      dup3\n        /* \"#utility.yul\":29594:29609   */\n      div\n        /* \"#utility.yul\":29591:29592   */\n      dup5\n        /* \"#utility.yul\":29588:29610   */\n      eq\n        /* \"#utility.yul\":29568:29569   */\n      dup4\n        /* \"#utility.yul\":29561:29570   */\n      iszero\n        /* \"#utility.yul\":29541:29624   */\n      or\n        /* \"#utility.yul\":29518:29657   */\n      tag_758\n      jumpi\n        /* \"#utility.yul\":29637:29655   */\n      tag_759\n      tag_401\n      jump\t// in\n    tag_759:\n        /* \"#utility.yul\":29518:29657   */\n    tag_758:\n        /* \"#utility.yul\":29302:29664   */\n      pop\n        /* \"#utility.yul\":29254:29664   */\n      swap3\n      swap2\n      pop\n      pop\n      jump\t// out\n        /* \"#utility.yul\":29670:29772   */\n    tag_428:\n        /* \"#utility.yul\":29712:29720   */\n      0x00\n        /* \"#utility.yul\":29759:29764   */\n      dup2\n        /* \"#utility.yul\":29756:29757   */\n      0x01\n        /* \"#utility.yul\":29752:29765   */\n      shr\n        /* \"#utility.yul\":29731:29765   */\n      swap1\n      pop\n        /* \"#utility.yul\":29670:29772   */\n      swap2\n      swap1\n      pop\n      jump\t// out\n        /* \"#utility.yul\":29778:30626   */\n    tag_429:\n        /* \"#utility.yul\":29839:29844   */\n      0x00\n        /* \"#utility.yul\":29846:29850   */\n      dup1\n        /* \"#utility.yul\":29870:29876   */\n      dup3\n        /* \"#utility.yul\":29861:29876   */\n      swap2\n      pop\n        /* \"#utility.yul\":29894:29899   */\n      dup4\n        /* \"#utility.yul\":29885:29899   */\n      swap1\n      pop\n        /* \"#utility.yul\":29908:30620   */\n    tag_762:\n        /* \"#utility.yul\":29929:29930   */\n      0x01\n        /* \"#utility.yul\":29919:29927   */\n      dup6\n        /* \"#utility.yul\":29916:29931   */\n      gt\n        /* \"#utility.yul\":29908:30620   */\n      iszero\n      tag_764\n      jumpi\n        /* \"#utility.yul\":30024:30028   */\n      dup1\n        /* \"#utility.yul\":30019:30022   */\n      dup7\n        /* \"#utility.yul\":30015:30029   */\n      div\n        /* \"#utility.yul\":30009:30013   */\n      dup2\n        /* \"#utility.yul\":30006:30030   */\n      gt\n        /* \"#utility.yul\":30003:30053   */\n      iszero\n      tag_765\n      jumpi\n        /* \"#utility.yul\":30033:30051   */\n      tag_766\n      tag_401\n      jump\t// in\n    tag_766:\n        /* \"#utility.yul\":30003:30053   */\n    tag_765:\n        /* \"#utility.yul\":30083:30084   */\n      0x01\n        /* \"#utility.yul\":30073:30081   */\n      dup6\n        /* \"#utility.yul\":30069:30085   */\n      and\n        /* \"#utility.yul\":30066:30517   */\n      iszero\n      tag_767\n      jumpi\n        /* \"#utility.yul\":30498:30502   */\n      dup1\n        /* \"#utility.yul\":30491:30496   */\n      dup3\n        /* \"#utility.yul\":30487:30503   */\n      mul\n        /* \"#utility.yul\":30478:30503   */\n      swap2\n      pop\n        /* \"#utility.yul\":30066:30517   */\n    tag_767:\n        /* \"#utility.yul\":30548:30552   */\n      dup1\n        /* \"#utility.yul\":30542:30546   */\n      dup2\n        /* \"#utility.yul\":30538:30553   */\n      mul\n        /* \"#utility.yul\":30530:30553   */\n      swap1\n      pop\n        /* \"#utility.yul\":30578:30610   */\n      tag_768\n        /* \"#utility.yul\":30601:30609   */\n      dup6\n        /* \"#utility.yul\":30578:30610   */\n      tag_428\n      jump\t// in\n    tag_768:\n        /* \"#utility.yul\":30566:30610   */\n      swap5\n      pop\n        /* \"#utility.yul\":29908:30620   */\n      jump(tag_762)\n    tag_764:\n        /* \"#utility.yul\":29778:30626   */\n      swap5\n      pop\n      swap5\n      swap3\n      pop\n      pop\n      pop\n      jump\t// out\n        /* \"#utility.yul\":30632:31705   */\n    tag_430:\n        /* \"#utility.yul\":30686:30691   */\n      0x00\n        /* \"#utility.yul\":30877:30885   */\n      dup3\n        /* \"#utility.yul\":30867:30907   */\n      tag_770\n      jumpi\n        /* \"#utility.yul\":30898:30899   */\n      0x01\n        /* \"#utility.yul\":30889:30899   */\n      swap1\n      pop\n        /* \"#utility.yul\":30900:30905   */\n      jump(tag_769)\n        /* \"#utility.yul\":30867:30907   */\n    tag_770:\n        /* \"#utility.yul\":30926:30930   */\n      dup2\n        /* \"#utility.yul\":30916:30952   */\n      tag_771\n      jumpi\n        /* \"#utility.yul\":30943:30944   */\n      0x00\n        /* \"#utility.yul\":30934:30944   */\n      swap1\n      pop\n        /* \"#utility.yul\":30945:30950   */\n      jump(tag_769)\n        /* \"#utility.yul\":30916:30952   */\n    tag_771:\n        /* \"#utility.yul\":31012:31016   */\n      dup2\n        /* \"#utility.yul\":31060:31061   */\n      0x01\n        /* \"#utility.yul\":31055:31082   */\n      dup2\n      eq\n      tag_773\n      jumpi\n        /* \"#utility.yul\":31096:31097   */\n      0x02\n        /* \"#utility.yul\":31091:31282   */\n      dup2\n      eq\n      tag_774\n      jumpi\n        /* \"#utility.yul\":31005:31282   */\n      jump(tag_772)\n        /* \"#utility.yul\":31055:31082   */\n    tag_773:\n        /* \"#utility.yul\":31073:31074   */\n      0x01\n        /* \"#utility.yul\":31064:31074   */\n      swap2\n      pop\n        /* \"#utility.yul\":31075:31080   */\n      pop\n      jump(tag_769)\n        /* \"#utility.yul\":31091:31282   */\n    tag_774:\n        /* \"#utility.yul\":31136:31139   */\n      0xff\n        /* \"#utility.yul\":31126:31134   */\n      dup5\n        /* \"#utility.yul\":31123:31140   */\n      gt\n        /* \"#utility.yul\":31120:31163   */\n      iszero\n      tag_775\n      jumpi\n        /* \"#utility.yul\":31143:31161   */\n      tag_776\n      tag_401\n      jump\t// in\n    tag_776:\n        /* \"#utility.yul\":31120:31163   */\n    tag_775:\n        /* \"#utility.yul\":31192:31200   */\n      dup4\n        /* \"#utility.yul\":31189:31190   */\n      0x02\n        /* \"#utility.yul\":31185:31201   */\n      exp\n        /* \"#utility.yul\":31176:31201   */\n      swap2\n      pop\n        /* \"#utility.yul\":31227:31230   */\n      dup5\n        /* \"#utility.yul\":31220:31225   */\n      dup3\n        /* \"#utility.yul\":31217:31231   */\n      gt\n        /* \"#utility.yul\":31214:31254   */\n      iszero\n      tag_777\n      jumpi\n        /* \"#utility.yul\":31234:31252   */\n      tag_778\n      tag_401\n      jump\t// in\n    tag_778:\n        /* \"#utility.yul\":31214:31254   */\n    tag_777:\n        /* \"#utility.yul\":31267:31272   */\n      pop\n      jump(tag_769)\n        /* \"#utility.yul\":31005:31282   */\n    tag_772:\n      pop\n        /* \"#utility.yul\":31391:31393   */\n      0x20\n        /* \"#utility.yul\":31381:31389   */\n      dup4\n        /* \"#utility.yul\":31378:31394   */\n      lt\n        /* \"#utility.yul\":31372:31375   */\n      0x0133\n        /* \"#utility.yul\":31366:31370   */\n      dup4\n        /* \"#utility.yul\":31363:31376   */\n      lt\n        /* \"#utility.yul\":31359:31395   */\n      and\n        /* \"#utility.yul\":31341:31343   */\n      0x4e\n        /* \"#utility.yul\":31331:31339   */\n      dup5\n        /* \"#utility.yul\":31328:31344   */\n      lt\n        /* \"#utility.yul\":31323:31325   */\n      0x0b\n        /* \"#utility.yul\":31317:31321   */\n      dup5\n        /* \"#utility.yul\":31314:31326   */\n      lt\n        /* \"#utility.yul\":31310:31345   */\n      and\n        /* \"#utility.yul\":31294:31405   */\n      or\n        /* \"#utility.yul\":31291:31537   */\n      iszero\n      tag_779\n      jumpi\n        /* \"#utility.yul\":31447:31455   */\n      dup3\n        /* \"#utility.yul\":31441:31445   */\n      dup3\n        /* \"#utility.yul\":31437:31456   */\n      exp\n        /* \"#utility.yul\":31428:31456   */\n      swap1\n      pop\n        /* \"#utility.yul\":31482:31485   */\n      dup4\n        /* \"#utility.yul\":31475:31480   */\n      dup2\n        /* \"#utility.yul\":31472:31486   */\n      gt\n        /* \"#utility.yul\":31469:31509   */\n      iszero\n      tag_780\n      jumpi\n        /* \"#utility.yul\":31489:31507   */\n      tag_781\n      tag_401\n      jump\t// in\n    tag_781:\n        /* \"#utility.yul\":31469:31509   */\n    tag_780:\n        /* \"#utility.yul\":31522:31527   */\n      jump(tag_769)\n        /* \"#utility.yul\":31291:31537   */\n    tag_779:\n        /* \"#utility.yul\":31562:31604   */\n      tag_782\n        /* \"#utility.yul\":31600:31603   */\n      dup5\n        /* \"#utility.yul\":31590:31598   */\n      dup5\n        /* \"#utility.yul\":31584:31588   */\n      dup5\n        /* \"#utility.yul\":31581:31582   */\n      0x01\n        /* \"#utility.yul\":31562:31604   */\n      tag_429\n      jump\t// in\n    tag_782:\n        /* \"#utility.yul\":31547:31604   */\n      swap3\n      pop\n      swap1\n      pop\n        /* \"#utility.yul\":31636:31640   */\n      dup2\n        /* \"#utility.yul\":31631:31634   */\n      dup5\n        /* \"#utility.yul\":31627:31641   */\n      div\n        /* \"#utility.yul\":31620:31625   */\n      dup2\n        /* \"#utility.yul\":31617:31642   */\n      gt\n        /* \"#utility.yul\":31614:31665   */\n      iszero\n      tag_783\n      jumpi\n        /* \"#utility.yul\":31645:31663   */\n      tag_784\n      tag_401\n      jump\t// in\n    tag_784:\n        /* \"#utility.yul\":31614:31665   */\n    tag_783:\n        /* \"#utility.yul\":31694:31698   */\n      dup2\n        /* \"#utility.yul\":31687:31692   */\n      dup2\n        /* \"#utility.yul\":31683:31699   */\n      mul\n        /* \"#utility.yul\":31674:31699   */\n      swap1\n      pop\n        /* \"#utility.yul\":30632:31705   */\n    tag_769:\n      swap4\n      swap3\n      pop\n      pop\n      pop\n      jump\t// out\n        /* \"#utility.yul\":31711:31996   */\n    tag_321:\n        /* \"#utility.yul\":31771:31776   */\n      0x00\n        /* \"#utility.yul\":31795:31818   */\n      tag_786\n        /* \"#utility.yul\":31813:31817   */\n      dup3\n        /* \"#utility.yul\":31795:31818   */\n      tag_364\n      jump\t// in\n    tag_786:\n        /* \"#utility.yul\":31787:31818   */\n      swap2\n      pop\n        /* \"#utility.yul\":31839:31866   */\n      tag_787\n        /* \"#utility.yul\":31857:31865   */\n      dup4\n        /* \"#utility.yul\":31839:31866   */\n      tag_364\n      jump\t// in\n    tag_787:\n        /* \"#utility.yul\":31827:31866   */\n      swap3\n      pop\n        /* \"#utility.yul\":31885:31989   */\n      tag_788\n        /* \"#utility.yul\":31922:31988   */\n      0xffffffffffffffffffffffffffffffffffffffffffffffffffffffffffffffff\n        /* \"#utility.yul\":31912:31920   */\n      dup5\n        /* \"#utility.yul\":31906:31910   */\n      dup5\n        /* \"#utility.yul\":31885:31989   */\n      tag_430\n      jump\t// in\n    tag_788:\n        /* \"#utility.yul\":31876:31989   */\n      swap1\n      pop\n        /* \"#utility.yul\":31711:31996   */\n      swap3\n      swap2\n      pop\n      pop\n      jump\t// out\n\n    auxdata: 0xa2646970667358221220b0efe5df828cb908b37eb670a7c8fc3e585e7a7722d00b62ded828cd0f5464f764736f6c63430008130033\n}\n",
				"bytecode": {
					"linkReferences": {},
					"object": "60a060405260006003553480156200001657600080fd5b5060405162002e9f38038062002e9f83398181016040528101906200003c919062000312565b33806000838073ffffffffffffffffffffffffffffffffffffffff1660808173ffffffffffffffffffffffffffffffffffffffff168152505050600073ffffffffffffffffffffffffffffffffffffffff168273ffffffffffffffffffffffffffffffffffffffff1603620000e8576040517f08c379a0000000000000000000000000000000000000000000000000000000008152600401620000df90620003a5565b60405180910390fd5b816000806101000a81548173ffffffffffffffffffffffffffffffffffffffff021916908373ffffffffffffffffffffffffffffffffffffffff160217905550600073ffffffffffffffffffffffffffffffffffffffff168173ffffffffffffffffffffffffffffffffffffffff16146200016f576200016e816200017960201b60201c565b5b5050505062000439565b3373ffffffffffffffffffffffffffffffffffffffff168173ffffffffffffffffffffffffffffffffffffffff1603620001ea576040517f08c379a0000000000000000000000000000000000000000000000000000000008152600401620001e19062000417565b60405180910390fd5b80600160006101000a81548173ffffffffffffffffffffffffffffffffffffffff021916908373ffffffffffffffffffffffffffffffffffffffff1602179055508073ffffffffffffffffffffffffffffffffffffffff1660008054906101000a900473ffffffffffffffffffffffffffffffffffffffff1673ffffffffffffffffffffffffffffffffffffffff167fed8889f560326eb138920d842192f0eb3dd22b4f139c87a2c57538e05bae127860405160405180910390a350565b600080fd5b600073ffffffffffffffffffffffffffffffffffffffff82169050919050565b6000620002da82620002ad565b9050919050565b620002ec81620002cd565b8114620002f857600080fd5b50565b6000815190506200030c81620002e1565b92915050565b6000602082840312156200032b576200032a620002a8565b5b60006200033b84828501620002fb565b91505092915050565b600082825260208201905092915050565b7f43616e6e6f7420736574206f776e657220746f207a65726f0000000000000000600082015250565b60006200038d60188362000344565b91506200039a8262000355565b602082019050919050565b60006020820190508181036000830152620003c0816200037e565b9050919050565b7f43616e6e6f74207472616e7366657220746f2073656c66000000000000000000600082015250565b6000620003ff60178362000344565b91506200040c82620003c7565b602082019050919050565b600060208201905081810360008301526200043281620003f0565b9050919050565b608051612a436200045c6000396000818161028b0152610efe0152612a436000f3fe608060405234801561001057600080fd5b50600436106100ea5760003560e01c806379ba50971161008c5780639681096f116100665780639681096f14610215578063b1e2174914610245578063d09de08a14610263578063f2fde38b1461026d576100ea565b806379ba5097146101cf5780638381f58a146101d95780638da5cb5b146101f7576100ea565b80634b0795a8116100c85780634b0795a81461014757806352a81eeb146101655780636057361d1461019557806361bc221a146101b1576100ea565b80630ca76175146100ef5780632e64cec11461010b5780633944ea3a14610129575b600080fd5b61010960048036038101906101049190611979565b610289565b005b61011361034b565b6040516101209190611a1d565b60405180910390f35b610131610355565b60405161013e9190611ab7565b60405180910390f35b61014f6103e3565b60405161015c9190611ab7565b60405180910390f35b61017f600480360381019061017a9190611df6565b610471565b60405161018c9190611f3f565b60405180910390f35b6101af60048036038101906101aa9190611f86565b61054b565b005b6101b9610555565b6040516101c69190611a1d565b60405180910390f35b6101d761055b565b005b6101e16106f0565b6040516101ee9190611a1d565b60405180910390f35b6101ff6106f6565b60405161020c9190611ff4565b60405180910390f35b61022f600480360381019061022a919061200f565b61071f565b60405161023c9190611f3f565b60405180910390f35b61024d610748565b60405161025a9190611f3f565b60405180910390f35b61026b61074e565b005b610287600480360381019061028291906120be565b610768565b005b7f000000000000000000000000000000000000000000000000000000000000000073ffffffffffffffffffffffffffffffffffffffff163373ffffffffffffffffffffffffffffffffffffffff161461030e576040517fc6829f8300000000000000000000000000000000000000000000000000000000815260040160405180910390fd5b61031983838361077c565b827f85e1543bf2f84fe80c6badbce3648c8539ad1df4d2b3d822938ca0538be727e660405160405180910390a2505050565b6000600254905090565b600580546103629061211a565b80601f016020809104026020016040519081016040528092919081815260200182805461038e9061211a565b80156103db5780601f106103b0576101008083540402835291602001916103db565b820191906000526020600020905b8154815290600101906020018083116103be57829003601f168201915b505050505081565b600680546103f09061211a565b80601f016020809104026020016040519081016040528092919081815260200182805461041c9061211a565b80156104695780601f1061043e57610100808354040283529160200191610469565b820191906000526020600020905b81548152906001019060200180831161044c57829003601f168201915b505050505081565b600061047b610823565b61048361173d565b6104968b826108b390919063ffffffff16565b60008a5111156104b8576104b38a826108c490919063ffffffff16565b6104e2565b60008867ffffffffffffffff1611156104e1576104e089898361093d9092919063ffffffff16565b5b5b600087511115610500576104ff8782610a4d90919063ffffffff16565b5b60008651111561051e5761051d8682610a9590919063ffffffff16565b5b61053261052a82610add565b868686610ef9565b6004819055506004549150509998505050505050505050565b8060028190555050565b60035481565b600160009054906101000a900473ffffffffffffffffffffffffffffffffffffffff1673ffffffffffffffffffffffffffffffffffffffff163373ffffffffffffffffffffffffffffffffffffffff16146105eb576040517f08c379a00000000000000000000000000000000000000000000000000000000081526004016105e2906121a8565b60405180910390fd5b60008060009054906101000a900473ffffffffffffffffffffffffffffffffffffffff169050336000806101000a81548173ffffffffffffffffffffffffffffffffffffffff021916908373ffffffffffffffffffffffffffffffffffffffff1602179055506000600160006101000a81548173ffffffffffffffffffffffffffffffffffffffff021916908373ffffffffffffffffffffffffffffffffffffffff1602179055503373ffffffffffffffffffffffffffffffffffffffff168173ffffffffffffffffffffffffffffffffffffffff167f8be0079c531659141344cd1fd0a4f28419497f9722a3daafe3b4186f6b6457e060405160405180910390a350565b60025481565b60008060009054906101000a900473ffffffffffffffffffffffffffffffffffffffff16905090565b6000610729610823565b61073585858585610ef9565b6004819055506004549050949350505050565b60045481565b60036000815480929190610761906121f7565b9190505550565b610770610823565b61077981610fdc565b50565b82600454146107c257826040517fd068bf5b0000000000000000000000000000000000000000000000000000000081526004016107b99190611f3f565b60405180910390fd5b81600590816107d191906123eb565b5080600690816107e191906123eb565b50827f7873807bf6ddc50401cd3d29bbe0decee23fd4d68d273f4b5eb83cded4d2f17260056006604051610816929190612541565b60405180910390a2505050565b60008054906101000a900473ffffffffffffffffffffffffffffffffffffffff1673ffffffffffffffffffffffffffffffffffffffff163373ffffffffffffffffffffffffffffffffffffffff16146108b1576040517f08c379a00000000000000000000000000000000000000000000000000000000081526004016108a8906125c4565b60405180910390fd5b565b6108c08260008084611108565b5050565b60008151036108ff576040517fe889636f00000000000000000000000000000000000000000000000000000000815260040160405180910390fd5b600182602001906002811115610918576109176125e4565b5b9081600281111561092c5761092b6125e4565b5b815250508082608001819052505050565b600061094a6101006111b2565b90506109946040518060400160405280600681526020017f736c6f7449440000000000000000000000000000000000000000000000000000815250826111d990919063ffffffff16565b6109aa8360ff168261120290919063ffffffff16565b6109f26040518060400160405280600781526020017f76657273696f6e00000000000000000000000000000000000000000000000000815250826111d990919063ffffffff16565b610a05828261120290919063ffffffff16565b600284602001906002811115610a1e57610a1d6125e4565b5b90816002811115610a3257610a316125e4565b5b81525050806000015160000151846080018190525050505050565b6000815103610a88576040517ffe936cb700000000000000000000000000000000000000000000000000000000815260040160405180910390fd5b808260a001819052505050565b6000815103610ad0576040517ffe936cb700000000000000000000000000000000000000000000000000000000815260040160405180910390fd5b808260c001819052505050565b60606000610aec6101006111b2565b9050610b366040518060400160405280600c81526020017f636f64654c6f636174696f6e0000000000000000000000000000000000000000815250826111d990919063ffffffff16565b610b5f83600001516002811115610b5057610b4f6125e4565b5b8261121290919063ffffffff16565b610ba76040518060400160405280600881526020017f6c616e6775616765000000000000000000000000000000000000000000000000815250826111d990919063ffffffff16565b610bd083604001516000811115610bc157610bc06125e4565b5b8261121290919063ffffffff16565b610c186040518060400160405280600681526020017f736f757263650000000000000000000000000000000000000000000000000000815250826111d990919063ffffffff16565b610c2f8360600151826111d990919063ffffffff16565b60008360a00151511115610ceb57610c856040518060400160405280600481526020017f6172677300000000000000000000000000000000000000000000000000000000815250826111d990919063ffffffff16565b610c8e81611262565b60005b8360a0015151811015610ce057610ccf8460a001518281518110610cb857610cb7612613565b5b6020026020010151836111d990919063ffffffff16565b80610cd9906121f7565b9050610c91565b50610cea8161128a565b5b60008360800151511115610e2c5760006002811115610d0d57610d0c6125e4565b5b83602001516002811115610d2457610d236125e4565b5b03610d5b576040517fa80d31f700000000000000000000000000000000000000000000000000000000815260040160405180910390fd5b610da36040518060400160405280600f81526020017f736563726574734c6f636174696f6e0000000000000000000000000000000000815250826111d990919063ffffffff16565b610dcc83602001516002811115610dbd57610dbc6125e4565b5b8261121290919063ffffffff16565b610e146040518060400160405280600781526020017f7365637265747300000000000000000000000000000000000000000000000000815250826111d990919063ffffffff16565b610e2b8360800151826112b290919063ffffffff16565b5b60008360c00151511115610ee857610e826040518060400160405280600981526020017f6279746573417267730000000000000000000000000000000000000000000000815250826111d990919063ffffffff16565b610e8b81611262565b60005b8360c0015151811015610edd57610ecc8460c001518281518110610eb557610eb4612613565b5b6020026020010151836112b290919063ffffffff16565b80610ed6906121f7565b9050610e8e565b50610ee78161128a565b5b806000015160000151915050919050565b6000807f000000000000000000000000000000000000000000000000000000000000000073ffffffffffffffffffffffffffffffffffffffff1663461d27628688600188886040518663ffffffff1660e01b8152600401610f5e95949392919061267d565b6020604051808303816000875af1158015610f7d573d6000803e3d6000fd5b505050506040513d601f19601f82011682018060405250810190610fa191906126ec565b9050807f1131472297a800fee664d1d89cfa8f7676ff07189ecc53f80bbb5f4969099db860405160405180910390a280915050949350505050565b3373ffffffffffffffffffffffffffffffffffffffff168173ffffffffffffffffffffffffffffffffffffffff160361104a576040517f08c379a000000000000000000000000000000000000000000000000000000000815260040161104190612765565b60405180910390fd5b80600160006101000a81548173ffffffffffffffffffffffffffffffffffffffff021916908373ffffffffffffffffffffffffffffffffffffffff1602179055508073ffffffffffffffffffffffffffffffffffffffff1660008054906101000a900473ffffffffffffffffffffffffffffffffffffffff1673ffffffffffffffffffffffffffffffffffffffff167fed8889f560326eb138920d842192f0eb3dd22b4f139c87a2c57538e05bae127860405160405180910390a350565b6000815103611143576040517f22ce3edd00000000000000000000000000000000000000000000000000000000815260040160405180910390fd5b828460000190600281111561115b5761115a6125e4565b5b9081600281111561116f5761116e6125e4565b5b81525050818460400190600081111561118b5761118a6125e4565b5b9081600081111561119f5761119e6125e4565b5b8152505080846060018190525050505050565b6111ba6117af565b6111c88160000151836112db565b506000816020018181525050919050565b6111e68260038351611354565b6111fd8183600001516114fd90919063ffffffff16565b505050565b61120e82600083611354565b5050565b61123460026005600660ff16901b17836000015161151990919063ffffffff16565b5061125e828260405160200161124a9190611a1d565b6040516020818303038152906040526112b2565b5050565b61126d816004611583565b6001816020018181516112809190612785565b9150818152505050565b611295816007611583565b6001816020018181516112a891906127b9565b9150818152505050565b6112bf8260028351611354565b6112d68183600001516114fd90919063ffffffff16565b505050565b6112e36117cf565b60006020836112f2919061281c565b1461131e57602082611304919061281c565b602061131091906127b9565b8261131b9190612785565b91505b81836020018181525050604051808452600081528281016020018181101561134557600080fd5b80604052505082905092915050565b60178167ffffffffffffffff161161138f576113898160058460ff16901b60ff1617846000015161151990919063ffffffff16565b506114f8565b60ff8167ffffffffffffffff16116113ed576113c2601860058460ff16901b17846000015161151990919063ffffffff16565b506113e78167ffffffffffffffff16600185600001516115a99092919063ffffffff16565b506114f7565b61ffff8167ffffffffffffffff161161144c57611421601960058460ff16901b17846000015161151990919063ffffffff16565b506114468167ffffffffffffffff16600285600001516115a99092919063ffffffff16565b506114f6565b63ffffffff8167ffffffffffffffff16116114ad57611482601a60058460ff16901b17846000015161151990919063ffffffff16565b506114a78167ffffffffffffffff16600485600001516115a99092919063ffffffff16565b506114f5565b6114ce601b60058460ff16901b17846000015161151990919063ffffffff16565b506114f38167ffffffffffffffff16600885600001516115a99092919063ffffffff16565b505b5b5b5b505050565b6115056117cf565b61151183838451611636565b905092915050565b6115216117cf565b60008360000151519050600060018261153a9190612785565b90508460200151821061155e5761155d85600283611558919061284d565b611719565b5b84516020838201018581538151831115611576578282525b5050849250505092915050565b6115a4601f60058360ff16901b17836000015161151990919063ffffffff16565b505050565b6115b16117cf565b60008460000151519050600081846115c99190612785565b905085602001518111156115ee576115ed866002836115e8919061284d565b611719565b5b600060018561010061160091906129c2565b61160a91906127b9565b905086518281018783198251161781528151841115611627578382525b50508693505050509392505050565b61163e6117cf565b825182111561164c57600080fd5b60008460000151519050600083826116649190612785565b905085602001518111156116895761168886600283611683919061284d565b611719565b5b600080875180518560208301019350808511156116a4578482525b60208901925050505b602086106116eb57805182526020826116c69190612785565b91506020816116d59190612785565b90506020866116e491906127b9565b95506116ad565b60006001876020036101000a0390508019825116818451168181178552505050879450505050509392505050565b60008260000151905061172c83836112db565b5061173783826114fd565b50505050565b6040518060e001604052806000600281111561175c5761175b6125e4565b5b815260200160006002811115611775576117746125e4565b5b815260200160008081111561178d5761178c6125e4565b5b8152602001606081526020016060815260200160608152602001606081525090565b60405180604001604052806117c26117cf565b8152602001600081525090565b604051806040016040528060608152602001600081525090565b6000604051905090565b600080fd5b600080fd5b6000819050919050565b611810816117fd565b811461181b57600080fd5b50565b60008135905061182d81611807565b92915050565b600080fd5b600080fd5b6000601f19601f8301169050919050565b7f4e487b7100000000000000000000000000000000000000000000000000000000600052604160045260246000fd5b6118868261183d565b810181811067ffffffffffffffff821117156118a5576118a461184e565b5b80604052505050565b60006118b86117e9565b90506118c4828261187d565b919050565b600067ffffffffffffffff8211156118e4576118e361184e565b5b6118ed8261183d565b9050602081019050919050565b82818337600083830152505050565b600061191c611917846118c9565b6118ae565b90508281526020810184848401111561193857611937611838565b5b6119438482856118fa565b509392505050565b600082601f8301126119605761195f611833565b5b8135611970848260208601611909565b91505092915050565b600080600060608486031215611992576119916117f3565b5b60006119a08682870161181e565b935050602084013567ffffffffffffffff8111156119c1576119c06117f8565b5b6119cd8682870161194b565b925050604084013567ffffffffffffffff8111156119ee576119ed6117f8565b5b6119fa8682870161194b565b9150509250925092565b6000819050919050565b611a1781611a04565b82525050565b6000602082019050611a326000830184611a0e565b92915050565b600081519050919050565b600082825260208201905092915050565b60005b83811015611a72578082015181840152602081019050611a57565b60008484015250505050565b6000611a8982611a38565b611a938185611a43565b9350611aa3818560208601611a54565b611aac8161183d565b840191505092915050565b60006020820190508181036000830152611ad18184611a7e565b905092915050565b600067ffffffffffffffff821115611af457611af361184e565b5b611afd8261183d565b9050602081019050919050565b6000611b1d611b1884611ad9565b6118ae565b905082815260208101848484011115611b3957611b38611838565b5b611b448482856118fa565b509392505050565b600082601f830112611b6157611b60611833565b5b8135611b71848260208601611b0a565b91505092915050565b600060ff82169050919050565b611b9081611b7a565b8114611b9b57600080fd5b50565b600081359050611bad81611b87565b92915050565b600067ffffffffffffffff82169050919050565b611bd081611bb3565b8114611bdb57600080fd5b50565b600081359050611bed81611bc7565b92915050565b600067ffffffffffffffff821115611c0e57611c0d61184e565b5b602082029050602081019050919050565b600080fd5b6000611c37611c3284611bf3565b6118ae565b90508083825260208201905060208402830185811115611c5a57611c59611c1f565b5b835b81811015611ca157803567ffffffffffffffff811115611c7f57611c7e611833565b5b808601611c8c8982611b4c565b85526020850194505050602081019050611c5c565b5050509392505050565b600082601f830112611cc057611cbf611833565b5b8135611cd0848260208601611c24565b91505092915050565b600067ffffffffffffffff821115611cf457611cf361184e565b5b602082029050602081019050919050565b6000611d18611d1384611cd9565b6118ae565b90508083825260208201905060208402830185811115611d3b57611d3a611c1f565b5b835b81811015611d8257803567ffffffffffffffff811115611d6057611d5f611833565b5b808601611d6d898261194b565b85526020850194505050602081019050611d3d565b5050509392505050565b600082601f830112611da157611da0611833565b5b8135611db1848260208601611d05565b91505092915050565b600063ffffffff82169050919050565b611dd381611dba565b8114611dde57600080fd5b50565b600081359050611df081611dca565b92915050565b60008060008060008060008060006101208a8c031215611e1957611e186117f3565b5b60008a013567ffffffffffffffff811115611e3757611e366117f8565b5b611e438c828d01611b4c565b99505060208a013567ffffffffffffffff811115611e6457611e636117f8565b5b611e708c828d0161194b565b9850506040611e818c828d01611b9e565b9750506060611e928c828d01611bde565b96505060808a013567ffffffffffffffff811115611eb357611eb26117f8565b5b611ebf8c828d01611cab565b95505060a08a013567ffffffffffffffff811115611ee057611edf6117f8565b5b611eec8c828d01611d8c565b94505060c0611efd8c828d01611bde565b93505060e0611f0e8c828d01611de1565b925050610100611f208c828d0161181e565b9150509295985092959850929598565b611f39816117fd565b82525050565b6000602082019050611f546000830184611f30565b92915050565b611f6381611a04565b8114611f6e57600080fd5b50565b600081359050611f8081611f5a565b92915050565b600060208284031215611f9c57611f9b6117f3565b5b6000611faa84828501611f71565b91505092915050565b600073ffffffffffffffffffffffffffffffffffffffff82169050919050565b6000611fde82611fb3565b9050919050565b611fee81611fd3565b82525050565b60006020820190506120096000830184611fe5565b92915050565b60008060008060808587031215612029576120286117f3565b5b600085013567ffffffffffffffff811115612047576120466117f8565b5b6120538782880161194b565b945050602061206487828801611bde565b935050604061207587828801611de1565b92505060606120868782880161181e565b91505092959194509250565b61209b81611fd3565b81146120a657600080fd5b50565b6000813590506120b881612092565b92915050565b6000602082840312156120d4576120d36117f3565b5b60006120e2848285016120a9565b91505092915050565b7f4e487b7100000000000000000000000000000000000000000000000000000000600052602260045260246000fd5b6000600282049050600182168061213257607f821691505b602082108103612145576121446120eb565b5b50919050565b600082825260208201905092915050565b7f4d7573742062652070726f706f736564206f776e657200000000000000000000600082015250565b600061219260168361214b565b915061219d8261215c565b602082019050919050565b600060208201905081810360008301526121c181612185565b9050919050565b7f4e487b7100000000000000000000000000000000000000000000000000000000600052601160045260246000fd5b600061220282611a04565b91507fffffffffffffffffffffffffffffffffffffffffffffffffffffffffffffffff8203612234576122336121c8565b5b600182019050919050565b60008190508160005260206000209050919050565b60006020601f8301049050919050565b600082821b905092915050565b6000600883026122a17fffffffffffffffffffffffffffffffffffffffffffffffffffffffffffffffff82612264565b6122ab8683612264565b95508019841693508086168417925050509392505050565b6000819050919050565b60006122e86122e36122de84611a04565b6122c3565b611a04565b9050919050565b6000819050919050565b612302836122cd565b61231661230e826122ef565b848454612271565b825550505050565b600090565b61232b61231e565b6123368184846122f9565b505050565b5b8181101561235a5761234f600082612323565b60018101905061233c565b5050565b601f82111561239f576123708161223f565b61237984612254565b81016020851015612388578190505b61239c61239485612254565b83018261233b565b50505b505050565b600082821c905092915050565b60006123c2600019846008026123a4565b1980831691505092915050565b60006123db83836123b1565b9150826002028217905092915050565b6123f482611a38565b67ffffffffffffffff81111561240d5761240c61184e565b5b612417825461211a565b61242282828561235e565b600060209050601f8311600181146124555760008415612443578287015190505b61244d85826123cf565b8655506124b5565b601f1984166124638661223f565b60005b8281101561248b57848901518255600182019150602085019450602081019050612466565b868310156124a857848901516124a4601f8916826123b1565b8355505b6001600288020188555050505b505050505050565b600081546124ca8161211a565b6124d48186611a43565b945060018216600081146124ef576001811461250557612538565b60ff198316865281151560200286019350612538565b61250e8561223f565b60005b8381101561253057815481890152600182019150602081019050612511565b808801955050505b50505092915050565b6000604082019050818103600083015261255b81856124bd565b9050818103602083015261256f81846124bd565b90509392505050565b7f4f6e6c792063616c6c61626c65206279206f776e657200000000000000000000600082015250565b60006125ae60168361214b565b91506125b982612578565b602082019050919050565b600060208201905081810360008301526125dd816125a1565b9050919050565b7f4e487b7100000000000000000000000000000000000000000000000000000000600052602160045260246000fd5b7f4e487b7100000000000000000000000000000000000000000000000000000000600052603260045260246000fd5b61264b81611bb3565b82525050565b600061ffff82169050919050565b61266881612651565b82525050565b61267781611dba565b82525050565b600060a0820190506126926000830188612642565b81810360208301526126a48187611a7e565b90506126b3604083018661265f565b6126c0606083018561266e565b6126cd6080830184611f30565b9695505050505050565b6000815190506126e681611807565b92915050565b600060208284031215612702576127016117f3565b5b6000612710848285016126d7565b91505092915050565b7f43616e6e6f74207472616e7366657220746f2073656c66000000000000000000600082015250565b600061274f60178361214b565b915061275a82612719565b602082019050919050565b6000602082019050818103600083015261277e81612742565b9050919050565b600061279082611a04565b915061279b83611a04565b92508282019050808211156127b3576127b26121c8565b5b92915050565b60006127c482611a04565b91506127cf83611a04565b92508282039050818111156127e7576127e66121c8565b5b92915050565b7f4e487b7100000000000000000000000000000000000000000000000000000000600052601260045260246000fd5b600061282782611a04565b915061283283611a04565b925082612842576128416127ed565b5b828206905092915050565b600061285882611a04565b915061286383611a04565b925082820261287181611a04565b91508282048414831517612888576128876121c8565b5b5092915050565b60008160011c9050919050565b6000808291508390505b60018511156128e6578086048111156128c2576128c16121c8565b5b60018516156128d15780820291505b80810290506128df8561288f565b94506128a6565b94509492505050565b6000826128ff57600190506129bb565b8161290d57600090506129bb565b8160018114612923576002811461292d5761295c565b60019150506129bb565b60ff84111561293f5761293e6121c8565b5b8360020a915084821115612956576129556121c8565b5b506129bb565b5060208310610133831016604e8410600b84101617156129915782820a90508381111561298c5761298b6121c8565b5b6129bb565b61299e848484600161289c565b925090508184048111156129b5576129b46121c8565b5b81810290505b9392505050565b60006129cd82611a04565b91506129d883611a04565b9250612a057fffffffffffffffffffffffffffffffffffffffffffffffffffffffffffffffff84846128ef565b90509291505056fea2646970667358221220b0efe5df828cb908b37eb670a7c8fc3e585e7a7722d00b62ded828cd0f5464f764736f6c63430008130033",
					"opcodes": "PUSH1 0xA0 PUSH1 0x40 MSTORE PUSH1 0x0 PUSH1 0x3 SSTORE CALLVALUE DUP1 ISZERO PUSH3 0x16 JUMPI PUSH1 0x0 DUP1 REVERT JUMPDEST POP PUSH1 0x40 MLOAD PUSH3 0x2E9F CODESIZE SUB DUP1 PUSH3 0x2E9F DUP4 CODECOPY DUP2 DUP2 ADD PUSH1 0x40 MSTORE DUP2 ADD SWAP1 PUSH3 0x3C SWAP2 SWAP1 PUSH3 0x312 JUMP JUMPDEST CALLER DUP1 PUSH1 0x0 DUP4 DUP1 PUSH20 0xFFFFFFFFFFFFFFFFFFFFFFFFFFFFFFFFFFFFFFFF AND PUSH1 0x80 DUP2 PUSH20 0xFFFFFFFFFFFFFFFFFFFFFFFFFFFFFFFFFFFFFFFF AND DUP2 MSTORE POP POP POP PUSH1 0x0 PUSH20 0xFFFFFFFFFFFFFFFFFFFFFFFFFFFFFFFFFFFFFFFF AND DUP3 PUSH20 0xFFFFFFFFFFFFFFFFFFFFFFFFFFFFFFFFFFFFFFFF AND SUB PUSH3 0xE8 JUMPI PUSH1 0x40 MLOAD PUSH32 0x8C379A000000000000000000000000000000000000000000000000000000000 DUP2 MSTORE PUSH1 0x4 ADD PUSH3 0xDF SWAP1 PUSH3 0x3A5 JUMP JUMPDEST PUSH1 0x40 MLOAD DUP1 SWAP2 SUB SWAP1 REVERT JUMPDEST DUP2 PUSH1 0x0 DUP1 PUSH2 0x100 EXP DUP2 SLOAD DUP2 PUSH20 0xFFFFFFFFFFFFFFFFFFFFFFFFFFFFFFFFFFFFFFFF MUL NOT AND SWAP1 DUP4 PUSH20 0xFFFFFFFFFFFFFFFFFFFFFFFFFFFFFFFFFFFFFFFF AND MUL OR SWAP1 SSTORE POP PUSH1 0x0 PUSH20 0xFFFFFFFFFFFFFFFFFFFFFFFFFFFFFFFFFFFFFFFF AND DUP2 PUSH20 0xFFFFFFFFFFFFFFFFFFFFFFFFFFFFFFFFFFFFFFFF AND EQ PUSH3 0x16F JUMPI PUSH3 0x16E DUP2 PUSH3 0x179 PUSH1 0x20 SHL PUSH1 0x20 SHR JUMP JUMPDEST JUMPDEST POP POP POP POP PUSH3 0x439 JUMP JUMPDEST CALLER PUSH20 0xFFFFFFFFFFFFFFFFFFFFFFFFFFFFFFFFFFFFFFFF AND DUP2 PUSH20 0xFFFFFFFFFFFFFFFFFFFFFFFFFFFFFFFFFFFFFFFF AND SUB PUSH3 0x1EA JUMPI PUSH1 0x40 MLOAD PUSH32 0x8C379A000000000000000000000000000000000000000000000000000000000 DUP2 MSTORE PUSH1 0x4 ADD PUSH3 0x1E1 SWAP1 PUSH3 0x417 JUMP JUMPDEST PUSH1 0x40 MLOAD DUP1 SWAP2 SUB SWAP1 REVERT JUMPDEST DUP1 PUSH1 0x1 PUSH1 0x0 PUSH2 0x100 EXP DUP2 SLOAD DUP2 PUSH20 0xFFFFFFFFFFFFFFFFFFFFFFFFFFFFFFFFFFFFFFFF MUL NOT AND SWAP1 DUP4 PUSH20 0xFFFFFFFFFFFFFFFFFFFFFFFFFFFFFFFFFFFFFFFF AND MUL OR SWAP1 SSTORE POP DUP1 PUSH20 0xFFFFFFFFFFFFFFFFFFFFFFFFFFFFFFFFFFFFFFFF AND PUSH1 0x0 DUP1 SLOAD SWAP1 PUSH2 0x100 EXP SWAP1 DIV PUSH20 0xFFFFFFFFFFFFFFFFFFFFFFFFFFFFFFFFFFFFFFFF AND PUSH20 0xFFFFFFFFFFFFFFFFFFFFFFFFFFFFFFFFFFFFFFFF AND PUSH32 0xED8889F560326EB138920D842192F0EB3DD22B4F139C87A2C57538E05BAE1278 PUSH1 0x40 MLOAD PUSH1 0x40 MLOAD DUP1 SWAP2 SUB SWAP1 LOG3 POP JUMP JUMPDEST PUSH1 0x0 DUP1 REVERT JUMPDEST PUSH1 0x0 PUSH20 0xFFFFFFFFFFFFFFFFFFFFFFFFFFFFFFFFFFFFFFFF DUP3 AND SWAP1 POP SWAP2 SWAP1 POP JUMP JUMPDEST PUSH1 0x0 PUSH3 0x2DA DUP3 PUSH3 0x2AD JUMP JUMPDEST SWAP1 POP SWAP2 SWAP1 POP JUMP JUMPDEST PUSH3 0x2EC DUP2 PUSH3 0x2CD JUMP JUMPDEST DUP2 EQ PUSH3 0x2F8 JUMPI PUSH1 0x0 DUP1 REVERT JUMPDEST POP JUMP JUMPDEST PUSH1 0x0 DUP2 MLOAD SWAP1 POP PUSH3 0x30C DUP2 PUSH3 0x2E1 JUMP JUMPDEST SWAP3 SWAP2 POP POP JUMP JUMPDEST PUSH1 0x0 PUSH1 0x20 DUP3 DUP5 SUB SLT ISZERO PUSH3 0x32B JUMPI PUSH3 0x32A PUSH3 0x2A8 JUMP JUMPDEST JUMPDEST PUSH1 0x0 PUSH3 0x33B DUP5 DUP3 DUP6 ADD PUSH3 0x2FB JUMP JUMPDEST SWAP2 POP POP SWAP3 SWAP2 POP POP JUMP JUMPDEST PUSH1 0x0 DUP3 DUP3 MSTORE PUSH1 0x20 DUP3 ADD SWAP1 POP SWAP3 SWAP2 POP POP JUMP JUMPDEST PUSH32 0x43616E6E6F7420736574206F776E657220746F207A65726F0000000000000000 PUSH1 0x0 DUP3 ADD MSTORE POP JUMP JUMPDEST PUSH1 0x0 PUSH3 0x38D PUSH1 0x18 DUP4 PUSH3 0x344 JUMP JUMPDEST SWAP2 POP PUSH3 0x39A DUP3 PUSH3 0x355 JUMP JUMPDEST PUSH1 0x20 DUP3 ADD SWAP1 POP SWAP2 SWAP1 POP JUMP JUMPDEST PUSH1 0x0 PUSH1 0x20 DUP3 ADD SWAP1 POP DUP2 DUP2 SUB PUSH1 0x0 DUP4 ADD MSTORE PUSH3 0x3C0 DUP2 PUSH3 0x37E JUMP JUMPDEST SWAP1 POP SWAP2 SWAP1 POP JUMP JUMPDEST PUSH32 0x43616E6E6F74207472616E7366657220746F2073656C66000000000000000000 PUSH1 0x0 DUP3 ADD MSTORE POP JUMP JUMPDEST PUSH1 0x0 PUSH3 0x3FF PUSH1 0x17 DUP4 PUSH3 0x344 JUMP JUMPDEST SWAP2 POP PUSH3 0x40C DUP3 PUSH3 0x3C7 JUMP JUMPDEST PUSH1 0x20 DUP3 ADD SWAP1 POP SWAP2 SWAP1 POP JUMP JUMPDEST PUSH1 0x0 PUSH1 0x20 DUP3 ADD SWAP1 POP DUP2 DUP2 SUB PUSH1 0x0 DUP4 ADD MSTORE PUSH3 0x432 DUP2 PUSH3 0x3F0 JUMP JUMPDEST SWAP1 POP SWAP2 SWAP1 POP JUMP JUMPDEST PUSH1 0x80 MLOAD PUSH2 0x2A43 PUSH3 0x45C PUSH1 0x0 CODECOPY PUSH1 0x0 DUP2 DUP2 PUSH2 0x28B ADD MSTORE PUSH2 0xEFE ADD MSTORE PUSH2 0x2A43 PUSH1 0x0 RETURN INVALID PUSH1 0x80 PUSH1 0x40 MSTORE CALLVALUE DUP1 ISZERO PUSH2 0x10 JUMPI PUSH1 0x0 DUP1 REVERT JUMPDEST POP PUSH1 0x4 CALLDATASIZE LT PUSH2 0xEA JUMPI PUSH1 0x0 CALLDATALOAD PUSH1 0xE0 SHR DUP1 PUSH4 0x79BA5097 GT PUSH2 0x8C JUMPI DUP1 PUSH4 0x9681096F GT PUSH2 0x66 JUMPI DUP1 PUSH4 0x9681096F EQ PUSH2 0x215 JUMPI DUP1 PUSH4 0xB1E21749 EQ PUSH2 0x245 JUMPI DUP1 PUSH4 0xD09DE08A EQ PUSH2 0x263 JUMPI DUP1 PUSH4 0xF2FDE38B EQ PUSH2 0x26D JUMPI PUSH2 0xEA JUMP JUMPDEST DUP1 PUSH4 0x79BA5097 EQ PUSH2 0x1CF JUMPI DUP1 PUSH4 0x8381F58A EQ PUSH2 0x1D9 JUMPI DUP1 PUSH4 0x8DA5CB5B EQ PUSH2 0x1F7 JUMPI PUSH2 0xEA JUMP JUMPDEST DUP1 PUSH4 0x4B0795A8 GT PUSH2 0xC8 JUMPI DUP1 PUSH4 0x4B0795A8 EQ PUSH2 0x147 JUMPI DUP1 PUSH4 0x52A81EEB EQ PUSH2 0x165 JUMPI DUP1 PUSH4 0x6057361D EQ PUSH2 0x195 JUMPI DUP1 PUSH4 0x61BC221A EQ PUSH2 0x1B1 JUMPI PUSH2 0xEA JUMP JUMPDEST DUP1 PUSH4 0xCA76175 EQ PUSH2 0xEF JUMPI DUP1 PUSH4 0x2E64CEC1 EQ PUSH2 0x10B JUMPI DUP1 PUSH4 0x3944EA3A EQ PUSH2 0x129 JUMPI JUMPDEST PUSH1 0x0 DUP1 REVERT JUMPDEST PUSH2 0x109 PUSH1 0x4 DUP1 CALLDATASIZE SUB DUP2 ADD SWAP1 PUSH2 0x104 SWAP2 SWAP1 PUSH2 0x1979 JUMP JUMPDEST PUSH2 0x289 JUMP JUMPDEST STOP JUMPDEST PUSH2 0x113 PUSH2 0x34B JUMP JUMPDEST PUSH1 0x40 MLOAD PUSH2 0x120 SWAP2 SWAP1 PUSH2 0x1A1D JUMP JUMPDEST PUSH1 0x40 MLOAD DUP1 SWAP2 SUB SWAP1 RETURN JUMPDEST PUSH2 0x131 PUSH2 0x355 JUMP JUMPDEST PUSH1 0x40 MLOAD PUSH2 0x13E SWAP2 SWAP1 PUSH2 0x1AB7 JUMP JUMPDEST PUSH1 0x40 MLOAD DUP1 SWAP2 SUB SWAP1 RETURN JUMPDEST PUSH2 0x14F PUSH2 0x3E3 JUMP JUMPDEST PUSH1 0x40 MLOAD PUSH2 0x15C SWAP2 SWAP1 PUSH2 0x1AB7 JUMP JUMPDEST PUSH1 0x40 MLOAD DUP1 SWAP2 SUB SWAP1 RETURN JUMPDEST PUSH2 0x17F PUSH1 0x4 DUP1 CALLDATASIZE SUB DUP2 ADD SWAP1 PUSH2 0x17A SWAP2 SWAP1 PUSH2 0x1DF6 JUMP JUMPDEST PUSH2 0x471 JUMP JUMPDEST PUSH1 0x40 MLOAD PUSH2 0x18C SWAP2 SWAP1 PUSH2 0x1F3F JUMP JUMPDEST PUSH1 0x40 MLOAD DUP1 SWAP2 SUB SWAP1 RETURN JUMPDEST PUSH2 0x1AF PUSH1 0x4 DUP1 CALLDATASIZE SUB DUP2 ADD SWAP1 PUSH2 0x1AA SWAP2 SWAP1 PUSH2 0x1F86 JUMP JUMPDEST PUSH2 0x54B JUMP JUMPDEST STOP JUMPDEST PUSH2 0x1B9 PUSH2 0x555 JUMP JUMPDEST PUSH1 0x40 MLOAD PUSH2 0x1C6 SWAP2 SWAP1 PUSH2 0x1A1D JUMP JUMPDEST PUSH1 0x40 MLOAD DUP1 SWAP2 SUB SWAP1 RETURN JUMPDEST PUSH2 0x1D7 PUSH2 0x55B JUMP JUMPDEST STOP JUMPDEST PUSH2 0x1E1 PUSH2 0x6F0 JUMP JUMPDEST PUSH1 0x40 MLOAD PUSH2 0x1EE SWAP2 SWAP1 PUSH2 0x1A1D JUMP JUMPDEST PUSH1 0x40 MLOAD DUP1 SWAP2 SUB SWAP1 RETURN JUMPDEST PUSH2 0x1FF PUSH2 0x6F6 JUMP JUMPDEST PUSH1 0x40 MLOAD PUSH2 0x20C SWAP2 SWAP1 PUSH2 0x1FF4 JUMP JUMPDEST PUSH1 0x40 MLOAD DUP1 SWAP2 SUB SWAP1 RETURN JUMPDEST PUSH2 0x22F PUSH1 0x4 DUP1 CALLDATASIZE SUB DUP2 ADD SWAP1 PUSH2 0x22A SWAP2 SWAP1 PUSH2 0x200F JUMP JUMPDEST PUSH2 0x71F JUMP JUMPDEST PUSH1 0x40 MLOAD PUSH2 0x23C SWAP2 SWAP1 PUSH2 0x1F3F JUMP JUMPDEST PUSH1 0x40 MLOAD DUP1 SWAP2 SUB SWAP1 RETURN JUMPDEST PUSH2 0x24D PUSH2 0x748 JUMP JUMPDEST PUSH1 0x40 MLOAD PUSH2 0x25A SWAP2 SWAP1 PUSH2 0x1F3F JUMP JUMPDEST PUSH1 0x40 MLOAD DUP1 SWAP2 SUB SWAP1 RETURN JUMPDEST PUSH2 0x26B PUSH2 0x74E JUMP JUMPDEST STOP JUMPDEST PUSH2 0x287 PUSH1 0x4 DUP1 CALLDATASIZE SUB DUP2 ADD SWAP1 PUSH2 0x282 SWAP2 SWAP1 PUSH2 0x20BE JUMP JUMPDEST PUSH2 0x768 JUMP JUMPDEST STOP JUMPDEST PUSH32 0x0 PUSH20 0xFFFFFFFFFFFFFFFFFFFFFFFFFFFFFFFFFFFFFFFF AND CALLER PUSH20 0xFFFFFFFFFFFFFFFFFFFFFFFFFFFFFFFFFFFFFFFF AND EQ PUSH2 0x30E JUMPI PUSH1 0x40 MLOAD PUSH32 0xC6829F8300000000000000000000000000000000000000000000000000000000 DUP2 MSTORE PUSH1 0x4 ADD PUSH1 0x40 MLOAD DUP1 SWAP2 SUB SWAP1 REVERT JUMPDEST PUSH2 0x319 DUP4 DUP4 DUP4 PUSH2 0x77C JUMP JUMPDEST DUP3 PUSH32 0x85E1543BF2F84FE80C6BADBCE3648C8539AD1DF4D2B3D822938CA0538BE727E6 PUSH1 0x40 MLOAD PUSH1 0x40 MLOAD DUP1 SWAP2 SUB SWAP1 LOG2 POP POP POP JUMP JUMPDEST PUSH1 0x0 PUSH1 0x2 SLOAD SWAP1 POP SWAP1 JUMP JUMPDEST PUSH1 0x5 DUP1 SLOAD PUSH2 0x362 SWAP1 PUSH2 0x211A JUMP JUMPDEST DUP1 PUSH1 0x1F ADD PUSH1 0x20 DUP1 SWAP2 DIV MUL PUSH1 0x20 ADD PUSH1 0x40 MLOAD SWAP1 DUP2 ADD PUSH1 0x40 MSTORE DUP1 SWAP3 SWAP2 SWAP1 DUP2 DUP2 MSTORE PUSH1 0x20 ADD DUP3 DUP1 SLOAD PUSH2 0x38E SWAP1 PUSH2 0x211A JUMP JUMPDEST DUP1 ISZERO PUSH2 0x3DB JUMPI DUP1 PUSH1 0x1F LT PUSH2 0x3B0 JUMPI PUSH2 0x100 DUP1 DUP4 SLOAD DIV MUL DUP4 MSTORE SWAP2 PUSH1 0x20 ADD SWAP2 PUSH2 0x3DB JUMP JUMPDEST DUP3 ADD SWAP2 SWAP1 PUSH1 0x0 MSTORE PUSH1 0x20 PUSH1 0x0 KECCAK256 SWAP1 JUMPDEST DUP2 SLOAD DUP2 MSTORE SWAP1 PUSH1 0x1 ADD SWAP1 PUSH1 0x20 ADD DUP1 DUP4 GT PUSH2 0x3BE JUMPI DUP3 SWAP1 SUB PUSH1 0x1F AND DUP3 ADD SWAP2 JUMPDEST POP POP POP POP POP DUP2 JUMP JUMPDEST PUSH1 0x6 DUP1 SLOAD PUSH2 0x3F0 SWAP1 PUSH2 0x211A JUMP JUMPDEST DUP1 PUSH1 0x1F ADD PUSH1 0x20 DUP1 SWAP2 DIV MUL PUSH1 0x20 ADD PUSH1 0x40 MLOAD SWAP1 DUP2 ADD PUSH1 0x40 MSTORE DUP1 SWAP3 SWAP2 SWAP1 DUP2 DUP2 MSTORE PUSH1 0x20 ADD DUP3 DUP1 SLOAD PUSH2 0x41C SWAP1 PUSH2 0x211A JUMP JUMPDEST DUP1 ISZERO PUSH2 0x469 JUMPI DUP1 PUSH1 0x1F LT PUSH2 0x43E JUMPI PUSH2 0x100 DUP1 DUP4 SLOAD DIV MUL DUP4 MSTORE SWAP2 PUSH1 0x20 ADD SWAP2 PUSH2 0x469 JUMP JUMPDEST DUP3 ADD SWAP2 SWAP1 PUSH1 0x0 MSTORE PUSH1 0x20 PUSH1 0x0 KECCAK256 SWAP1 JUMPDEST DUP2 SLOAD DUP2 MSTORE SWAP1 PUSH1 0x1 ADD SWAP1 PUSH1 0x20 ADD DUP1 DUP4 GT PUSH2 0x44C JUMPI DUP3 SWAP1 SUB PUSH1 0x1F AND DUP3 ADD SWAP2 JUMPDEST POP POP POP POP POP DUP2 JUMP JUMPDEST PUSH1 0x0 PUSH2 0x47B PUSH2 0x823 JUMP JUMPDEST PUSH2 0x483 PUSH2 0x173D JUMP JUMPDEST PUSH2 0x496 DUP12 DUP3 PUSH2 0x8B3 SWAP1 SWAP2 SWAP1 PUSH4 0xFFFFFFFF AND JUMP JUMPDEST PUSH1 0x0 DUP11 MLOAD GT ISZERO PUSH2 0x4B8 JUMPI PUSH2 0x4B3 DUP11 DUP3 PUSH2 0x8C4 SWAP1 SWAP2 SWAP1 PUSH4 0xFFFFFFFF AND JUMP JUMPDEST PUSH2 0x4E2 JUMP JUMPDEST PUSH1 0x0 DUP9 PUSH8 0xFFFFFFFFFFFFFFFF AND GT ISZERO PUSH2 0x4E1 JUMPI PUSH2 0x4E0 DUP10 DUP10 DUP4 PUSH2 0x93D SWAP1 SWAP3 SWAP2 SWAP1 PUSH4 0xFFFFFFFF AND JUMP JUMPDEST JUMPDEST JUMPDEST PUSH1 0x0 DUP8 MLOAD GT ISZERO PUSH2 0x500 JUMPI PUSH2 0x4FF DUP8 DUP3 PUSH2 0xA4D SWAP1 SWAP2 SWAP1 PUSH4 0xFFFFFFFF AND JUMP JUMPDEST JUMPDEST PUSH1 0x0 DUP7 MLOAD GT ISZERO PUSH2 0x51E JUMPI PUSH2 0x51D DUP7 DUP3 PUSH2 0xA95 SWAP1 SWAP2 SWAP1 PUSH4 0xFFFFFFFF AND JUMP JUMPDEST JUMPDEST PUSH2 0x532 PUSH2 0x52A DUP3 PUSH2 0xADD JUMP JUMPDEST DUP7 DUP7 DUP7 PUSH2 0xEF9 JUMP JUMPDEST PUSH1 0x4 DUP2 SWAP1 SSTORE POP PUSH1 0x4 SLOAD SWAP2 POP POP SWAP10 SWAP9 POP POP POP POP POP POP POP POP POP JUMP JUMPDEST DUP1 PUSH1 0x2 DUP2 SWAP1 SSTORE POP POP JUMP JUMPDEST PUSH1 0x3 SLOAD DUP2 JUMP JUMPDEST PUSH1 0x1 PUSH1 0x0 SWAP1 SLOAD SWAP1 PUSH2 0x100 EXP SWAP1 DIV PUSH20 0xFFFFFFFFFFFFFFFFFFFFFFFFFFFFFFFFFFFFFFFF AND PUSH20 0xFFFFFFFFFFFFFFFFFFFFFFFFFFFFFFFFFFFFFFFF AND CALLER PUSH20 0xFFFFFFFFFFFFFFFFFFFFFFFFFFFFFFFFFFFFFFFF AND EQ PUSH2 0x5EB JUMPI PUSH1 0x40 MLOAD PUSH32 0x8C379A000000000000000000000000000000000000000000000000000000000 DUP2 MSTORE PUSH1 0x4 ADD PUSH2 0x5E2 SWAP1 PUSH2 0x21A8 JUMP JUMPDEST PUSH1 0x40 MLOAD DUP1 SWAP2 SUB SWAP1 REVERT JUMPDEST PUSH1 0x0 DUP1 PUSH1 0x0 SWAP1 SLOAD SWAP1 PUSH2 0x100 EXP SWAP1 DIV PUSH20 0xFFFFFFFFFFFFFFFFFFFFFFFFFFFFFFFFFFFFFFFF AND SWAP1 POP CALLER PUSH1 0x0 DUP1 PUSH2 0x100 EXP DUP2 SLOAD DUP2 PUSH20 0xFFFFFFFFFFFFFFFFFFFFFFFFFFFFFFFFFFFFFFFF MUL NOT AND SWAP1 DUP4 PUSH20 0xFFFFFFFFFFFFFFFFFFFFFFFFFFFFFFFFFFFFFFFF AND MUL OR SWAP1 SSTORE POP PUSH1 0x0 PUSH1 0x1 PUSH1 0x0 PUSH2 0x100 EXP DUP2 SLOAD DUP2 PUSH20 0xFFFFFFFFFFFFFFFFFFFFFFFFFFFFFFFFFFFFFFFF MUL NOT AND SWAP1 DUP4 PUSH20 0xFFFFFFFFFFFFFFFFFFFFFFFFFFFFFFFFFFFFFFFF AND MUL OR SWAP1 SSTORE POP CALLER PUSH20 0xFFFFFFFFFFFFFFFFFFFFFFFFFFFFFFFFFFFFFFFF AND DUP2 PUSH20 0xFFFFFFFFFFFFFFFFFFFFFFFFFFFFFFFFFFFFFFFF AND PUSH32 0x8BE0079C531659141344CD1FD0A4F28419497F9722A3DAAFE3B4186F6B6457E0 PUSH1 0x40 MLOAD PUSH1 0x40 MLOAD DUP1 SWAP2 SUB SWAP1 LOG3 POP JUMP JUMPDEST PUSH1 0x2 SLOAD DUP2 JUMP JUMPDEST PUSH1 0x0 DUP1 PUSH1 0x0 SWAP1 SLOAD SWAP1 PUSH2 0x100 EXP SWAP1 DIV PUSH20 0xFFFFFFFFFFFFFFFFFFFFFFFFFFFFFFFFFFFFFFFF AND SWAP1 POP SWAP1 JUMP JUMPDEST PUSH1 0x0 PUSH2 0x729 PUSH2 0x823 JUMP JUMPDEST PUSH2 0x735 DUP6 DUP6 DUP6 DUP6 PUSH2 0xEF9 JUMP JUMPDEST PUSH1 0x4 DUP2 SWAP1 SSTORE POP PUSH1 0x4 SLOAD SWAP1 POP SWAP5 SWAP4 POP POP POP POP JUMP JUMPDEST PUSH1 0x4 SLOAD DUP2 JUMP JUMPDEST PUSH1 0x3 PUSH1 0x0 DUP2 SLOAD DUP1 SWAP3 SWAP2 SWAP1 PUSH2 0x761 SWAP1 PUSH2 0x21F7 JUMP JUMPDEST SWAP2 SWAP1 POP SSTORE POP JUMP JUMPDEST PUSH2 0x770 PUSH2 0x823 JUMP JUMPDEST PUSH2 0x779 DUP2 PUSH2 0xFDC JUMP JUMPDEST POP JUMP JUMPDEST DUP3 PUSH1 0x4 SLOAD EQ PUSH2 0x7C2 JUMPI DUP3 PUSH1 0x40 MLOAD PUSH32 0xD068BF5B00000000000000000000000000000000000000000000000000000000 DUP2 MSTORE PUSH1 0x4 ADD PUSH2 0x7B9 SWAP2 SWAP1 PUSH2 0x1F3F JUMP JUMPDEST PUSH1 0x40 MLOAD DUP1 SWAP2 SUB SWAP1 REVERT JUMPDEST DUP2 PUSH1 0x5 SWAP1 DUP2 PUSH2 0x7D1 SWAP2 SWAP1 PUSH2 0x23EB JUMP JUMPDEST POP DUP1 PUSH1 0x6 SWAP1 DUP2 PUSH2 0x7E1 SWAP2 SWAP1 PUSH2 0x23EB JUMP JUMPDEST POP DUP3 PUSH32 0x7873807BF6DDC50401CD3D29BBE0DECEE23FD4D68D273F4B5EB83CDED4D2F172 PUSH1 0x5 PUSH1 0x6 PUSH1 0x40 MLOAD PUSH2 0x816 SWAP3 SWAP2 SWAP1 PUSH2 0x2541 JUMP JUMPDEST PUSH1 0x40 MLOAD DUP1 SWAP2 SUB SWAP1 LOG2 POP POP POP JUMP JUMPDEST PUSH1 0x0 DUP1 SLOAD SWAP1 PUSH2 0x100 EXP SWAP1 DIV PUSH20 0xFFFFFFFFFFFFFFFFFFFFFFFFFFFFFFFFFFFFFFFF AND PUSH20 0xFFFFFFFFFFFFFFFFFFFFFFFFFFFFFFFFFFFFFFFF AND CALLER PUSH20 0xFFFFFFFFFFFFFFFFFFFFFFFFFFFFFFFFFFFFFFFF AND EQ PUSH2 0x8B1 JUMPI PUSH1 0x40 MLOAD PUSH32 0x8C379A000000000000000000000000000000000000000000000000000000000 DUP2 MSTORE PUSH1 0x4 ADD PUSH2 0x8A8 SWAP1 PUSH2 0x25C4 JUMP JUMPDEST PUSH1 0x40 MLOAD DUP1 SWAP2 SUB SWAP1 REVERT JUMPDEST JUMP JUMPDEST PUSH2 0x8C0 DUP3 PUSH1 0x0 DUP1 DUP5 PUSH2 0x1108 JUMP JUMPDEST POP POP JUMP JUMPDEST PUSH1 0x0 DUP2 MLOAD SUB PUSH2 0x8FF JUMPI PUSH1 0x40 MLOAD PUSH32 0xE889636F00000000000000000000000000000000000000000000000000000000 DUP2 MSTORE PUSH1 0x4 ADD PUSH1 0x40 MLOAD DUP1 SWAP2 SUB SWAP1 REVERT JUMPDEST PUSH1 0x1 DUP3 PUSH1 0x20 ADD SWAP1 PUSH1 0x2 DUP2 GT ISZERO PUSH2 0x918 JUMPI PUSH2 0x917 PUSH2 0x25E4 JUMP JUMPDEST JUMPDEST SWAP1 DUP2 PUSH1 0x2 DUP2 GT ISZERO PUSH2 0x92C JUMPI PUSH2 0x92B PUSH2 0x25E4 JUMP JUMPDEST JUMPDEST DUP2 MSTORE POP POP DUP1 DUP3 PUSH1 0x80 ADD DUP2 SWAP1 MSTORE POP POP POP JUMP JUMPDEST PUSH1 0x0 PUSH2 0x94A PUSH2 0x100 PUSH2 0x11B2 JUMP JUMPDEST SWAP1 POP PUSH2 0x994 PUSH1 0x40 MLOAD DUP1 PUSH1 0x40 ADD PUSH1 0x40 MSTORE DUP1 PUSH1 0x6 DUP2 MSTORE PUSH1 0x20 ADD PUSH32 0x736C6F7449440000000000000000000000000000000000000000000000000000 DUP2 MSTORE POP DUP3 PUSH2 0x11D9 SWAP1 SWAP2 SWAP1 PUSH4 0xFFFFFFFF AND JUMP JUMPDEST PUSH2 0x9AA DUP4 PUSH1 0xFF AND DUP3 PUSH2 0x1202 SWAP1 SWAP2 SWAP1 PUSH4 0xFFFFFFFF AND JUMP JUMPDEST PUSH2 0x9F2 PUSH1 0x40 MLOAD DUP1 PUSH1 0x40 ADD PUSH1 0x40 MSTORE DUP1 PUSH1 0x7 DUP2 MSTORE PUSH1 0x20 ADD PUSH32 0x76657273696F6E00000000000000000000000000000000000000000000000000 DUP2 MSTORE POP DUP3 PUSH2 0x11D9 SWAP1 SWAP2 SWAP1 PUSH4 0xFFFFFFFF AND JUMP JUMPDEST PUSH2 0xA05 DUP3 DUP3 PUSH2 0x1202 SWAP1 SWAP2 SWAP1 PUSH4 0xFFFFFFFF AND JUMP JUMPDEST PUSH1 0x2 DUP5 PUSH1 0x20 ADD SWAP1 PUSH1 0x2 DUP2 GT ISZERO PUSH2 0xA1E JUMPI PUSH2 0xA1D PUSH2 0x25E4 JUMP JUMPDEST JUMPDEST SWAP1 DUP2 PUSH1 0x2 DUP2 GT ISZERO PUSH2 0xA32 JUMPI PUSH2 0xA31 PUSH2 0x25E4 JUMP JUMPDEST JUMPDEST DUP2 MSTORE POP POP DUP1 PUSH1 0x0 ADD MLOAD PUSH1 0x0 ADD MLOAD DUP5 PUSH1 0x80 ADD DUP2 SWAP1 MSTORE POP POP POP POP POP JUMP JUMPDEST PUSH1 0x0 DUP2 MLOAD SUB PUSH2 0xA88 JUMPI PUSH1 0x40 MLOAD PUSH32 0xFE936CB700000000000000000000000000000000000000000000000000000000 DUP2 MSTORE PUSH1 0x4 ADD PUSH1 0x40 MLOAD DUP1 SWAP2 SUB SWAP1 REVERT JUMPDEST DUP1 DUP3 PUSH1 0xA0 ADD DUP2 SWAP1 MSTORE POP POP POP JUMP JUMPDEST PUSH1 0x0 DUP2 MLOAD SUB PUSH2 0xAD0 JUMPI PUSH1 0x40 MLOAD PUSH32 0xFE936CB700000000000000000000000000000000000000000000000000000000 DUP2 MSTORE PUSH1 0x4 ADD PUSH1 0x40 MLOAD DUP1 SWAP2 SUB SWAP1 REVERT JUMPDEST DUP1 DUP3 PUSH1 0xC0 ADD DUP2 SWAP1 MSTORE POP POP POP JUMP JUMPDEST PUSH1 0x60 PUSH1 0x0 PUSH2 0xAEC PUSH2 0x100 PUSH2 0x11B2 JUMP JUMPDEST SWAP1 POP PUSH2 0xB36 PUSH1 0x40 MLOAD DUP1 PUSH1 0x40 ADD PUSH1 0x40 MSTORE DUP1 PUSH1 0xC DUP2 MSTORE PUSH1 0x20 ADD PUSH32 0x636F64654C6F636174696F6E0000000000000000000000000000000000000000 DUP2 MSTORE POP DUP3 PUSH2 0x11D9 SWAP1 SWAP2 SWAP1 PUSH4 0xFFFFFFFF AND JUMP JUMPDEST PUSH2 0xB5F DUP4 PUSH1 0x0 ADD MLOAD PUSH1 0x2 DUP2 GT ISZERO PUSH2 0xB50 JUMPI PUSH2 0xB4F PUSH2 0x25E4 JUMP JUMPDEST JUMPDEST DUP3 PUSH2 0x1212 SWAP1 SWAP2 SWAP1 PUSH4 0xFFFFFFFF AND JUMP JUMPDEST PUSH2 0xBA7 PUSH1 0x40 MLOAD DUP1 PUSH1 0x40 ADD PUSH1 0x40 MSTORE DUP1 PUSH1 0x8 DUP2 MSTORE PUSH1 0x20 ADD PUSH32 0x6C616E6775616765000000000000000000000000000000000000000000000000 DUP2 MSTORE POP DUP3 PUSH2 0x11D9 SWAP1 SWAP2 SWAP1 PUSH4 0xFFFFFFFF AND JUMP JUMPDEST PUSH2 0xBD0 DUP4 PUSH1 0x40 ADD MLOAD PUSH1 0x0 DUP2 GT ISZERO PUSH2 0xBC1 JUMPI PUSH2 0xBC0 PUSH2 0x25E4 JUMP JUMPDEST JUMPDEST DUP3 PUSH2 0x1212 SWAP1 SWAP2 SWAP1 PUSH4 0xFFFFFFFF AND JUMP JUMPDEST PUSH2 0xC18 PUSH1 0x40 MLOAD DUP1 PUSH1 0x40 ADD PUSH1 0x40 MSTORE DUP1 PUSH1 0x6 DUP2 MSTORE PUSH1 0x20 ADD PUSH32 0x736F757263650000000000000000000000000000000000000000000000000000 DUP2 MSTORE POP DUP3 PUSH2 0x11D9 SWAP1 SWAP2 SWAP1 PUSH4 0xFFFFFFFF AND JUMP JUMPDEST PUSH2 0xC2F DUP4 PUSH1 0x60 ADD MLOAD DUP3 PUSH2 0x11D9 SWAP1 SWAP2 SWAP1 PUSH4 0xFFFFFFFF AND JUMP JUMPDEST PUSH1 0x0 DUP4 PUSH1 0xA0 ADD MLOAD MLOAD GT ISZERO PUSH2 0xCEB JUMPI PUSH2 0xC85 PUSH1 0x40 MLOAD DUP1 PUSH1 0x40 ADD PUSH1 0x40 MSTORE DUP1 PUSH1 0x4 DUP2 MSTORE PUSH1 0x20 ADD PUSH32 0x6172677300000000000000000000000000000000000000000000000000000000 DUP2 MSTORE POP DUP3 PUSH2 0x11D9 SWAP1 SWAP2 SWAP1 PUSH4 0xFFFFFFFF AND JUMP JUMPDEST PUSH2 0xC8E DUP2 PUSH2 0x1262 JUMP JUMPDEST PUSH1 0x0 JUMPDEST DUP4 PUSH1 0xA0 ADD MLOAD MLOAD DUP2 LT ISZERO PUSH2 0xCE0 JUMPI PUSH2 0xCCF DUP5 PUSH1 0xA0 ADD MLOAD DUP3 DUP2 MLOAD DUP2 LT PUSH2 0xCB8 JUMPI PUSH2 0xCB7 PUSH2 0x2613 JUMP JUMPDEST JUMPDEST PUSH1 0x20 MUL PUSH1 0x20 ADD ADD MLOAD DUP4 PUSH2 0x11D9 SWAP1 SWAP2 SWAP1 PUSH4 0xFFFFFFFF AND JUMP JUMPDEST DUP1 PUSH2 0xCD9 SWAP1 PUSH2 0x21F7 JUMP JUMPDEST SWAP1 POP PUSH2 0xC91 JUMP JUMPDEST POP PUSH2 0xCEA DUP2 PUSH2 0x128A JUMP JUMPDEST JUMPDEST PUSH1 0x0 DUP4 PUSH1 0x80 ADD MLOAD MLOAD GT ISZERO PUSH2 0xE2C JUMPI PUSH1 0x0 PUSH1 0x2 DUP2 GT ISZERO PUSH2 0xD0D JUMPI PUSH2 0xD0C PUSH2 0x25E4 JUMP JUMPDEST JUMPDEST DUP4 PUSH1 0x20 ADD MLOAD PUSH1 0x2 DUP2 GT ISZERO PUSH2 0xD24 JUMPI PUSH2 0xD23 PUSH2 0x25E4 JUMP JUMPDEST JUMPDEST SUB PUSH2 0xD5B JUMPI PUSH1 0x40 MLOAD PUSH32 0xA80D31F700000000000000000000000000000000000000000000000000000000 DUP2 MSTORE PUSH1 0x4 ADD PUSH1 0x40 MLOAD DUP1 SWAP2 SUB SWAP1 REVERT JUMPDEST PUSH2 0xDA3 PUSH1 0x40 MLOAD DUP1 PUSH1 0x40 ADD PUSH1 0x40 MSTORE DUP1 PUSH1 0xF DUP2 MSTORE PUSH1 0x20 ADD PUSH32 0x736563726574734C6F636174696F6E0000000000000000000000000000000000 DUP2 MSTORE POP DUP3 PUSH2 0x11D9 SWAP1 SWAP2 SWAP1 PUSH4 0xFFFFFFFF AND JUMP JUMPDEST PUSH2 0xDCC DUP4 PUSH1 0x20 ADD MLOAD PUSH1 0x2 DUP2 GT ISZERO PUSH2 0xDBD JUMPI PUSH2 0xDBC PUSH2 0x25E4 JUMP JUMPDEST JUMPDEST DUP3 PUSH2 0x1212 SWAP1 SWAP2 SWAP1 PUSH4 0xFFFFFFFF AND JUMP JUMPDEST PUSH2 0xE14 PUSH1 0x40 MLOAD DUP1 PUSH1 0x40 ADD PUSH1 0x40 MSTORE DUP1 PUSH1 0x7 DUP2 MSTORE PUSH1 0x20 ADD PUSH32 0x7365637265747300000000000000000000000000000000000000000000000000 DUP2 MSTORE POP DUP3 PUSH2 0x11D9 SWAP1 SWAP2 SWAP1 PUSH4 0xFFFFFFFF AND JUMP JUMPDEST PUSH2 0xE2B DUP4 PUSH1 0x80 ADD MLOAD DUP3 PUSH2 0x12B2 SWAP1 SWAP2 SWAP1 PUSH4 0xFFFFFFFF AND JUMP JUMPDEST JUMPDEST PUSH1 0x0 DUP4 PUSH1 0xC0 ADD MLOAD MLOAD GT ISZERO PUSH2 0xEE8 JUMPI PUSH2 0xE82 PUSH1 0x40 MLOAD DUP1 PUSH1 0x40 ADD PUSH1 0x40 MSTORE DUP1 PUSH1 0x9 DUP2 MSTORE PUSH1 0x20 ADD PUSH32 0x6279746573417267730000000000000000000000000000000000000000000000 DUP2 MSTORE POP DUP3 PUSH2 0x11D9 SWAP1 SWAP2 SWAP1 PUSH4 0xFFFFFFFF AND JUMP JUMPDEST PUSH2 0xE8B DUP2 PUSH2 0x1262 JUMP JUMPDEST PUSH1 0x0 JUMPDEST DUP4 PUSH1 0xC0 ADD MLOAD MLOAD DUP2 LT ISZERO PUSH2 0xEDD JUMPI PUSH2 0xECC DUP5 PUSH1 0xC0 ADD MLOAD DUP3 DUP2 MLOAD DUP2 LT PUSH2 0xEB5 JUMPI PUSH2 0xEB4 PUSH2 0x2613 JUMP JUMPDEST JUMPDEST PUSH1 0x20 MUL PUSH1 0x20 ADD ADD MLOAD DUP4 PUSH2 0x12B2 SWAP1 SWAP2 SWAP1 PUSH4 0xFFFFFFFF AND JUMP JUMPDEST DUP1 PUSH2 0xED6 SWAP1 PUSH2 0x21F7 JUMP JUMPDEST SWAP1 POP PUSH2 0xE8E JUMP JUMPDEST POP PUSH2 0xEE7 DUP2 PUSH2 0x128A JUMP JUMPDEST JUMPDEST DUP1 PUSH1 0x0 ADD MLOAD PUSH1 0x0 ADD MLOAD SWAP2 POP POP SWAP2 SWAP1 POP JUMP JUMPDEST PUSH1 0x0 DUP1 PUSH32 0x0 PUSH20 0xFFFFFFFFFFFFFFFFFFFFFFFFFFFFFFFFFFFFFFFF AND PUSH4 0x461D2762 DUP7 DUP9 PUSH1 0x1 DUP9 DUP9 PUSH1 0x40 MLOAD DUP7 PUSH4 0xFFFFFFFF AND PUSH1 0xE0 SHL DUP2 MSTORE PUSH1 0x4 ADD PUSH2 0xF5E SWAP6 SWAP5 SWAP4 SWAP3 SWAP2 SWAP1 PUSH2 0x267D JUMP JUMPDEST PUSH1 0x20 PUSH1 0x40 MLOAD DUP1 DUP4 SUB DUP2 PUSH1 0x0 DUP8 GAS CALL ISZERO DUP1 ISZERO PUSH2 0xF7D JUMPI RETURNDATASIZE PUSH1 0x0 DUP1 RETURNDATACOPY RETURNDATASIZE PUSH1 0x0 REVERT JUMPDEST POP POP POP POP PUSH1 0x40 MLOAD RETURNDATASIZE PUSH1 0x1F NOT PUSH1 0x1F DUP3 ADD AND DUP3 ADD DUP1 PUSH1 0x40 MSTORE POP DUP2 ADD SWAP1 PUSH2 0xFA1 SWAP2 SWAP1 PUSH2 0x26EC JUMP JUMPDEST SWAP1 POP DUP1 PUSH32 0x1131472297A800FEE664D1D89CFA8F7676FF07189ECC53F80BBB5F4969099DB8 PUSH1 0x40 MLOAD PUSH1 0x40 MLOAD DUP1 SWAP2 SUB SWAP1 LOG2 DUP1 SWAP2 POP POP SWAP5 SWAP4 POP POP POP POP JUMP JUMPDEST CALLER PUSH20 0xFFFFFFFFFFFFFFFFFFFFFFFFFFFFFFFFFFFFFFFF AND DUP2 PUSH20 0xFFFFFFFFFFFFFFFFFFFFFFFFFFFFFFFFFFFFFFFF AND SUB PUSH2 0x104A JUMPI PUSH1 0x40 MLOAD PUSH32 0x8C379A000000000000000000000000000000000000000000000000000000000 DUP2 MSTORE PUSH1 0x4 ADD PUSH2 0x1041 SWAP1 PUSH2 0x2765 JUMP JUMPDEST PUSH1 0x40 MLOAD DUP1 SWAP2 SUB SWAP1 REVERT JUMPDEST DUP1 PUSH1 0x1 PUSH1 0x0 PUSH2 0x100 EXP DUP2 SLOAD DUP2 PUSH20 0xFFFFFFFFFFFFFFFFFFFFFFFFFFFFFFFFFFFFFFFF MUL NOT AND SWAP1 DUP4 PUSH20 0xFFFFFFFFFFFFFFFFFFFFFFFFFFFFFFFFFFFFFFFF AND MUL OR SWAP1 SSTORE POP DUP1 PUSH20 0xFFFFFFFFFFFFFFFFFFFFFFFFFFFFFFFFFFFFFFFF AND PUSH1 0x0 DUP1 SLOAD SWAP1 PUSH2 0x100 EXP SWAP1 DIV PUSH20 0xFFFFFFFFFFFFFFFFFFFFFFFFFFFFFFFFFFFFFFFF AND PUSH20 0xFFFFFFFFFFFFFFFFFFFFFFFFFFFFFFFFFFFFFFFF AND PUSH32 0xED8889F560326EB138920D842192F0EB3DD22B4F139C87A2C57538E05BAE1278 PUSH1 0x40 MLOAD PUSH1 0x40 MLOAD DUP1 SWAP2 SUB SWAP1 LOG3 POP JUMP JUMPDEST PUSH1 0x0 DUP2 MLOAD SUB PUSH2 0x1143 JUMPI PUSH1 0x40 MLOAD PUSH32 0x22CE3EDD00000000000000000000000000000000000000000000000000000000 DUP2 MSTORE PUSH1 0x4 ADD PUSH1 0x40 MLOAD DUP1 SWAP2 SUB SWAP1 REVERT JUMPDEST DUP3 DUP5 PUSH1 0x0 ADD SWAP1 PUSH1 0x2 DUP2 GT ISZERO PUSH2 0x115B JUMPI PUSH2 0x115A PUSH2 0x25E4 JUMP JUMPDEST JUMPDEST SWAP1 DUP2 PUSH1 0x2 DUP2 GT ISZERO PUSH2 0x116F JUMPI PUSH2 0x116E PUSH2 0x25E4 JUMP JUMPDEST JUMPDEST DUP2 MSTORE POP POP DUP2 DUP5 PUSH1 0x40 ADD SWAP1 PUSH1 0x0 DUP2 GT ISZERO PUSH2 0x118B JUMPI PUSH2 0x118A PUSH2 0x25E4 JUMP JUMPDEST JUMPDEST SWAP1 DUP2 PUSH1 0x0 DUP2 GT ISZERO PUSH2 0x119F JUMPI PUSH2 0x119E PUSH2 0x25E4 JUMP JUMPDEST JUMPDEST DUP2 MSTORE POP POP DUP1 DUP5 PUSH1 0x60 ADD DUP2 SWAP1 MSTORE POP POP POP POP POP JUMP JUMPDEST PUSH2 0x11BA PUSH2 0x17AF JUMP JUMPDEST PUSH2 0x11C8 DUP2 PUSH1 0x0 ADD MLOAD DUP4 PUSH2 0x12DB JUMP JUMPDEST POP PUSH1 0x0 DUP2 PUSH1 0x20 ADD DUP2 DUP2 MSTORE POP POP SWAP2 SWAP1 POP JUMP JUMPDEST PUSH2 0x11E6 DUP3 PUSH1 0x3 DUP4 MLOAD PUSH2 0x1354 JUMP JUMPDEST PUSH2 0x11FD DUP2 DUP4 PUSH1 0x0 ADD MLOAD PUSH2 0x14FD SWAP1 SWAP2 SWAP1 PUSH4 0xFFFFFFFF AND JUMP JUMPDEST POP POP POP JUMP JUMPDEST PUSH2 0x120E DUP3 PUSH1 0x0 DUP4 PUSH2 0x1354 JUMP JUMPDEST POP POP JUMP JUMPDEST PUSH2 0x1234 PUSH1 0x2 PUSH1 0x5 PUSH1 0x6 PUSH1 0xFF AND SWAP1 SHL OR DUP4 PUSH1 0x0 ADD MLOAD PUSH2 0x1519 SWAP1 SWAP2 SWAP1 PUSH4 0xFFFFFFFF AND JUMP JUMPDEST POP PUSH2 0x125E DUP3 DUP3 PUSH1 0x40 MLOAD PUSH1 0x20 ADD PUSH2 0x124A SWAP2 SWAP1 PUSH2 0x1A1D JUMP JUMPDEST PUSH1 0x40 MLOAD PUSH1 0x20 DUP2 DUP4 SUB SUB DUP2 MSTORE SWAP1 PUSH1 0x40 MSTORE PUSH2 0x12B2 JUMP JUMPDEST POP POP JUMP JUMPDEST PUSH2 0x126D DUP2 PUSH1 0x4 PUSH2 0x1583 JUMP JUMPDEST PUSH1 0x1 DUP2 PUSH1 0x20 ADD DUP2 DUP2 MLOAD PUSH2 0x1280 SWAP2 SWAP1 PUSH2 0x2785 JUMP JUMPDEST SWAP2 POP DUP2 DUP2 MSTORE POP POP POP JUMP JUMPDEST PUSH2 0x1295 DUP2 PUSH1 0x7 PUSH2 0x1583 JUMP JUMPDEST PUSH1 0x1 DUP2 PUSH1 0x20 ADD DUP2 DUP2 MLOAD PUSH2 0x12A8 SWAP2 SWAP1 PUSH2 0x27B9 JUMP JUMPDEST SWAP2 POP DUP2 DUP2 MSTORE POP POP POP JUMP JUMPDEST PUSH2 0x12BF DUP3 PUSH1 0x2 DUP4 MLOAD PUSH2 0x1354 JUMP JUMPDEST PUSH2 0x12D6 DUP2 DUP4 PUSH1 0x0 ADD MLOAD PUSH2 0x14FD SWAP1 SWAP2 SWAP1 PUSH4 0xFFFFFFFF AND JUMP JUMPDEST POP POP POP JUMP JUMPDEST PUSH2 0x12E3 PUSH2 0x17CF JUMP JUMPDEST PUSH1 0x0 PUSH1 0x20 DUP4 PUSH2 0x12F2 SWAP2 SWAP1 PUSH2 0x281C JUMP JUMPDEST EQ PUSH2 0x131E JUMPI PUSH1 0x20 DUP3 PUSH2 0x1304 SWAP2 SWAP1 PUSH2 0x281C JUMP JUMPDEST PUSH1 0x20 PUSH2 0x1310 SWAP2 SWAP1 PUSH2 0x27B9 JUMP JUMPDEST DUP3 PUSH2 0x131B SWAP2 SWAP1 PUSH2 0x2785 JUMP JUMPDEST SWAP2 POP JUMPDEST DUP2 DUP4 PUSH1 0x20 ADD DUP2 DUP2 MSTORE POP POP PUSH1 0x40 MLOAD DUP1 DUP5 MSTORE PUSH1 0x0 DUP2 MSTORE DUP3 DUP2 ADD PUSH1 0x20 ADD DUP2 DUP2 LT ISZERO PUSH2 0x1345 JUMPI PUSH1 0x0 DUP1 REVERT JUMPDEST DUP1 PUSH1 0x40 MSTORE POP POP DUP3 SWAP1 POP SWAP3 SWAP2 POP POP JUMP JUMPDEST PUSH1 0x17 DUP2 PUSH8 0xFFFFFFFFFFFFFFFF AND GT PUSH2 0x138F JUMPI PUSH2 0x1389 DUP2 PUSH1 0x5 DUP5 PUSH1 0xFF AND SWAP1 SHL PUSH1 0xFF AND OR DUP5 PUSH1 0x0 ADD MLOAD PUSH2 0x1519 SWAP1 SWAP2 SWAP1 PUSH4 0xFFFFFFFF AND JUMP JUMPDEST POP PUSH2 0x14F8 JUMP JUMPDEST PUSH1 0xFF DUP2 PUSH8 0xFFFFFFFFFFFFFFFF AND GT PUSH2 0x13ED JUMPI PUSH2 0x13C2 PUSH1 0x18 PUSH1 0x5 DUP5 PUSH1 0xFF AND SWAP1 SHL OR DUP5 PUSH1 0x0 ADD MLOAD PUSH2 0x1519 SWAP1 SWAP2 SWAP1 PUSH4 0xFFFFFFFF AND JUMP JUMPDEST POP PUSH2 0x13E7 DUP2 PUSH8 0xFFFFFFFFFFFFFFFF AND PUSH1 0x1 DUP6 PUSH1 0x0 ADD MLOAD PUSH2 0x15A9 SWAP1 SWAP3 SWAP2 SWAP1 PUSH4 0xFFFFFFFF AND JUMP JUMPDEST POP PUSH2 0x14F7 JUMP JUMPDEST PUSH2 0xFFFF DUP2 PUSH8 0xFFFFFFFFFFFFFFFF AND GT PUSH2 0x144C JUMPI PUSH2 0x1421 PUSH1 0x19 PUSH1 0x5 DUP5 PUSH1 0xFF AND SWAP1 SHL OR DUP5 PUSH1 0x0 ADD MLOAD PUSH2 0x1519 SWAP1 SWAP2 SWAP1 PUSH4 0xFFFFFFFF AND JUMP JUMPDEST POP PUSH2 0x1446 DUP2 PUSH8 0xFFFFFFFFFFFFFFFF AND PUSH1 0x2 DUP6 PUSH1 0x0 ADD MLOAD PUSH2 0x15A9 SWAP1 SWAP3 SWAP2 SWAP1 PUSH4 0xFFFFFFFF AND JUMP JUMPDEST POP PUSH2 0x14F6 JUMP JUMPDEST PUSH4 0xFFFFFFFF DUP2 PUSH8 0xFFFFFFFFFFFFFFFF AND GT PUSH2 0x14AD JUMPI PUSH2 0x1482 PUSH1 0x1A PUSH1 0x5 DUP5 PUSH1 0xFF AND SWAP1 SHL OR DUP5 PUSH1 0x0 ADD MLOAD PUSH2 0x1519 SWAP1 SWAP2 SWAP1 PUSH4 0xFFFFFFFF AND JUMP JUMPDEST POP PUSH2 0x14A7 DUP2 PUSH8 0xFFFFFFFFFFFFFFFF AND PUSH1 0x4 DUP6 PUSH1 0x0 ADD MLOAD PUSH2 0x15A9 SWAP1 SWAP3 SWAP2 SWAP1 PUSH4 0xFFFFFFFF AND JUMP JUMPDEST POP PUSH2 0x14F5 JUMP JUMPDEST PUSH2 0x14CE PUSH1 0x1B PUSH1 0x5 DUP5 PUSH1 0xFF AND SWAP1 SHL OR DUP5 PUSH1 0x0 ADD MLOAD PUSH2 0x1519 SWAP1 SWAP2 SWAP1 PUSH4 0xFFFFFFFF AND JUMP JUMPDEST POP PUSH2 0x14F3 DUP2 PUSH8 0xFFFFFFFFFFFFFFFF AND PUSH1 0x8 DUP6 PUSH1 0x0 ADD MLOAD PUSH2 0x15A9 SWAP1 SWAP3 SWAP2 SWAP1 PUSH4 0xFFFFFFFF AND JUMP JUMPDEST POP JUMPDEST JUMPDEST JUMPDEST JUMPDEST POP POP POP JUMP JUMPDEST PUSH2 0x1505 PUSH2 0x17CF JUMP JUMPDEST PUSH2 0x1511 DUP4 DUP4 DUP5 MLOAD PUSH2 0x1636 JUMP JUMPDEST SWAP1 POP SWAP3 SWAP2 POP POP JUMP JUMPDEST PUSH2 0x1521 PUSH2 0x17CF JUMP JUMPDEST PUSH1 0x0 DUP4 PUSH1 0x0 ADD MLOAD MLOAD SWAP1 POP PUSH1 0x0 PUSH1 0x1 DUP3 PUSH2 0x153A SWAP2 SWAP1 PUSH2 0x2785 JUMP JUMPDEST SWAP1 POP DUP5 PUSH1 0x20 ADD MLOAD DUP3 LT PUSH2 0x155E JUMPI PUSH2 0x155D DUP6 PUSH1 0x2 DUP4 PUSH2 0x1558 SWAP2 SWAP1 PUSH2 0x284D JUMP JUMPDEST PUSH2 0x1719 JUMP JUMPDEST JUMPDEST DUP5 MLOAD PUSH1 0x20 DUP4 DUP3 ADD ADD DUP6 DUP2 MSTORE8 DUP2 MLOAD DUP4 GT ISZERO PUSH2 0x1576 JUMPI DUP3 DUP3 MSTORE JUMPDEST POP POP DUP5 SWAP3 POP POP POP SWAP3 SWAP2 POP POP JUMP JUMPDEST PUSH2 0x15A4 PUSH1 0x1F PUSH1 0x5 DUP4 PUSH1 0xFF AND SWAP1 SHL OR DUP4 PUSH1 0x0 ADD MLOAD PUSH2 0x1519 SWAP1 SWAP2 SWAP1 PUSH4 0xFFFFFFFF AND JUMP JUMPDEST POP POP POP JUMP JUMPDEST PUSH2 0x15B1 PUSH2 0x17CF JUMP JUMPDEST PUSH1 0x0 DUP5 PUSH1 0x0 ADD MLOAD MLOAD SWAP1 POP PUSH1 0x0 DUP2 DUP5 PUSH2 0x15C9 SWAP2 SWAP1 PUSH2 0x2785 JUMP JUMPDEST SWAP1 POP DUP6 PUSH1 0x20 ADD MLOAD DUP2 GT ISZERO PUSH2 0x15EE JUMPI PUSH2 0x15ED DUP7 PUSH1 0x2 DUP4 PUSH2 0x15E8 SWAP2 SWAP1 PUSH2 0x284D JUMP JUMPDEST PUSH2 0x1719 JUMP JUMPDEST JUMPDEST PUSH1 0x0 PUSH1 0x1 DUP6 PUSH2 0x100 PUSH2 0x1600 SWAP2 SWAP1 PUSH2 0x29C2 JUMP JUMPDEST PUSH2 0x160A SWAP2 SWAP1 PUSH2 0x27B9 JUMP JUMPDEST SWAP1 POP DUP7 MLOAD DUP3 DUP2 ADD DUP8 DUP4 NOT DUP3 MLOAD AND OR DUP2 MSTORE DUP2 MLOAD DUP5 GT ISZERO PUSH2 0x1627 JUMPI DUP4 DUP3 MSTORE JUMPDEST POP POP DUP7 SWAP4 POP POP POP POP SWAP4 SWAP3 POP POP POP JUMP JUMPDEST PUSH2 0x163E PUSH2 0x17CF JUMP JUMPDEST DUP3 MLOAD DUP3 GT ISZERO PUSH2 0x164C JUMPI PUSH1 0x0 DUP1 REVERT JUMPDEST PUSH1 0x0 DUP5 PUSH1 0x0 ADD MLOAD MLOAD SWAP1 POP PUSH1 0x0 DUP4 DUP3 PUSH2 0x1664 SWAP2 SWAP1 PUSH2 0x2785 JUMP JUMPDEST SWAP1 POP DUP6 PUSH1 0x20 ADD MLOAD DUP2 GT ISZERO PUSH2 0x1689 JUMPI PUSH2 0x1688 DUP7 PUSH1 0x2 DUP4 PUSH2 0x1683 SWAP2 SWAP1 PUSH2 0x284D JUMP JUMPDEST PUSH2 0x1719 JUMP JUMPDEST JUMPDEST PUSH1 0x0 DUP1 DUP8 MLOAD DUP1 MLOAD DUP6 PUSH1 0x20 DUP4 ADD ADD SWAP4 POP DUP1 DUP6 GT ISZERO PUSH2 0x16A4 JUMPI DUP5 DUP3 MSTORE JUMPDEST PUSH1 0x20 DUP10 ADD SWAP3 POP POP POP JUMPDEST PUSH1 0x20 DUP7 LT PUSH2 0x16EB JUMPI DUP1 MLOAD DUP3 MSTORE PUSH1 0x20 DUP3 PUSH2 0x16C6 SWAP2 SWAP1 PUSH2 0x2785 JUMP JUMPDEST SWAP2 POP PUSH1 0x20 DUP2 PUSH2 0x16D5 SWAP2 SWAP1 PUSH2 0x2785 JUMP JUMPDEST SWAP1 POP PUSH1 0x20 DUP7 PUSH2 0x16E4 SWAP2 SWAP1 PUSH2 0x27B9 JUMP JUMPDEST SWAP6 POP PUSH2 0x16AD JUMP JUMPDEST PUSH1 0x0 PUSH1 0x1 DUP8 PUSH1 0x20 SUB PUSH2 0x100 EXP SUB SWAP1 POP DUP1 NOT DUP3 MLOAD AND DUP2 DUP5 MLOAD AND DUP2 DUP2 OR DUP6 MSTORE POP POP POP DUP8 SWAP5 POP POP POP POP POP SWAP4 SWAP3 POP POP POP JUMP JUMPDEST PUSH1 0x0 DUP3 PUSH1 0x0 ADD MLOAD SWAP1 POP PUSH2 0x172C DUP4 DUP4 PUSH2 0x12DB JUMP JUMPDEST POP PUSH2 0x1737 DUP4 DUP3 PUSH2 0x14FD JUMP JUMPDEST POP POP POP POP JUMP JUMPDEST PUSH1 0x40 MLOAD DUP1 PUSH1 0xE0 ADD PUSH1 0x40 MSTORE DUP1 PUSH1 0x0 PUSH1 0x2 DUP2 GT ISZERO PUSH2 0x175C JUMPI PUSH2 0x175B PUSH2 0x25E4 JUMP JUMPDEST JUMPDEST DUP2 MSTORE PUSH1 0x20 ADD PUSH1 0x0 PUSH1 0x2 DUP2 GT ISZERO PUSH2 0x1775 JUMPI PUSH2 0x1774 PUSH2 0x25E4 JUMP JUMPDEST JUMPDEST DUP2 MSTORE PUSH1 0x20 ADD PUSH1 0x0 DUP1 DUP2 GT ISZERO PUSH2 0x178D JUMPI PUSH2 0x178C PUSH2 0x25E4 JUMP JUMPDEST JUMPDEST DUP2 MSTORE PUSH1 0x20 ADD PUSH1 0x60 DUP2 MSTORE PUSH1 0x20 ADD PUSH1 0x60 DUP2 MSTORE PUSH1 0x20 ADD PUSH1 0x60 DUP2 MSTORE PUSH1 0x20 ADD PUSH1 0x60 DUP2 MSTORE POP SWAP1 JUMP JUMPDEST PUSH1 0x40 MLOAD DUP1 PUSH1 0x40 ADD PUSH1 0x40 MSTORE DUP1 PUSH2 0x17C2 PUSH2 0x17CF JUMP JUMPDEST DUP2 MSTORE PUSH1 0x20 ADD PUSH1 0x0 DUP2 MSTORE POP SWAP1 JUMP JUMPDEST PUSH1 0x40 MLOAD DUP1 PUSH1 0x40 ADD PUSH1 0x40 MSTORE DUP1 PUSH1 0x60 DUP2 MSTORE PUSH1 0x20 ADD PUSH1 0x0 DUP2 MSTORE POP SWAP1 JUMP JUMPDEST PUSH1 0x0 PUSH1 0x40 MLOAD SWAP1 POP SWAP1 JUMP JUMPDEST PUSH1 0x0 DUP1 REVERT JUMPDEST PUSH1 0x0 DUP1 REVERT JUMPDEST PUSH1 0x0 DUP2 SWAP1 POP SWAP2 SWAP1 POP JUMP JUMPDEST PUSH2 0x1810 DUP2 PUSH2 0x17FD JUMP JUMPDEST DUP2 EQ PUSH2 0x181B JUMPI PUSH1 0x0 DUP1 REVERT JUMPDEST POP JUMP JUMPDEST PUSH1 0x0 DUP2 CALLDATALOAD SWAP1 POP PUSH2 0x182D DUP2 PUSH2 0x1807 JUMP JUMPDEST SWAP3 SWAP2 POP POP JUMP JUMPDEST PUSH1 0x0 DUP1 REVERT JUMPDEST PUSH1 0x0 DUP1 REVERT JUMPDEST PUSH1 0x0 PUSH1 0x1F NOT PUSH1 0x1F DUP4 ADD AND SWAP1 POP SWAP2 SWAP1 POP JUMP JUMPDEST PUSH32 0x4E487B7100000000000000000000000000000000000000000000000000000000 PUSH1 0x0 MSTORE PUSH1 0x41 PUSH1 0x4 MSTORE PUSH1 0x24 PUSH1 0x0 REVERT JUMPDEST PUSH2 0x1886 DUP3 PUSH2 0x183D JUMP JUMPDEST DUP2 ADD DUP2 DUP2 LT PUSH8 0xFFFFFFFFFFFFFFFF DUP3 GT OR ISZERO PUSH2 0x18A5 JUMPI PUSH2 0x18A4 PUSH2 0x184E JUMP JUMPDEST JUMPDEST DUP1 PUSH1 0x40 MSTORE POP POP POP JUMP JUMPDEST PUSH1 0x0 PUSH2 0x18B8 PUSH2 0x17E9 JUMP JUMPDEST SWAP1 POP PUSH2 0x18C4 DUP3 DUP3 PUSH2 0x187D JUMP JUMPDEST SWAP2 SWAP1 POP JUMP JUMPDEST PUSH1 0x0 PUSH8 0xFFFFFFFFFFFFFFFF DUP3 GT ISZERO PUSH2 0x18E4 JUMPI PUSH2 0x18E3 PUSH2 0x184E JUMP JUMPDEST JUMPDEST PUSH2 0x18ED DUP3 PUSH2 0x183D JUMP JUMPDEST SWAP1 POP PUSH1 0x20 DUP2 ADD SWAP1 POP SWAP2 SWAP1 POP JUMP JUMPDEST DUP3 DUP2 DUP4 CALLDATACOPY PUSH1 0x0 DUP4 DUP4 ADD MSTORE POP POP POP JUMP JUMPDEST PUSH1 0x0 PUSH2 0x191C PUSH2 0x1917 DUP5 PUSH2 0x18C9 JUMP JUMPDEST PUSH2 0x18AE JUMP JUMPDEST SWAP1 POP DUP3 DUP2 MSTORE PUSH1 0x20 DUP2 ADD DUP5 DUP5 DUP5 ADD GT ISZERO PUSH2 0x1938 JUMPI PUSH2 0x1937 PUSH2 0x1838 JUMP JUMPDEST JUMPDEST PUSH2 0x1943 DUP5 DUP3 DUP6 PUSH2 0x18FA JUMP JUMPDEST POP SWAP4 SWAP3 POP POP POP JUMP JUMPDEST PUSH1 0x0 DUP3 PUSH1 0x1F DUP4 ADD SLT PUSH2 0x1960 JUMPI PUSH2 0x195F PUSH2 0x1833 JUMP JUMPDEST JUMPDEST DUP2 CALLDATALOAD PUSH2 0x1970 DUP5 DUP3 PUSH1 0x20 DUP7 ADD PUSH2 0x1909 JUMP JUMPDEST SWAP2 POP POP SWAP3 SWAP2 POP POP JUMP JUMPDEST PUSH1 0x0 DUP1 PUSH1 0x0 PUSH1 0x60 DUP5 DUP7 SUB SLT ISZERO PUSH2 0x1992 JUMPI PUSH2 0x1991 PUSH2 0x17F3 JUMP JUMPDEST JUMPDEST PUSH1 0x0 PUSH2 0x19A0 DUP7 DUP3 DUP8 ADD PUSH2 0x181E JUMP JUMPDEST SWAP4 POP POP PUSH1 0x20 DUP5 ADD CALLDATALOAD PUSH8 0xFFFFFFFFFFFFFFFF DUP2 GT ISZERO PUSH2 0x19C1 JUMPI PUSH2 0x19C0 PUSH2 0x17F8 JUMP JUMPDEST JUMPDEST PUSH2 0x19CD DUP7 DUP3 DUP8 ADD PUSH2 0x194B JUMP JUMPDEST SWAP3 POP POP PUSH1 0x40 DUP5 ADD CALLDATALOAD PUSH8 0xFFFFFFFFFFFFFFFF DUP2 GT ISZERO PUSH2 0x19EE JUMPI PUSH2 0x19ED PUSH2 0x17F8 JUMP JUMPDEST JUMPDEST PUSH2 0x19FA DUP7 DUP3 DUP8 ADD PUSH2 0x194B JUMP JUMPDEST SWAP2 POP POP SWAP3 POP SWAP3 POP SWAP3 JUMP JUMPDEST PUSH1 0x0 DUP2 SWAP1 POP SWAP2 SWAP1 POP JUMP JUMPDEST PUSH2 0x1A17 DUP2 PUSH2 0x1A04 JUMP JUMPDEST DUP3 MSTORE POP POP JUMP JUMPDEST PUSH1 0x0 PUSH1 0x20 DUP3 ADD SWAP1 POP PUSH2 0x1A32 PUSH1 0x0 DUP4 ADD DUP5 PUSH2 0x1A0E JUMP JUMPDEST SWAP3 SWAP2 POP POP JUMP JUMPDEST PUSH1 0x0 DUP2 MLOAD SWAP1 POP SWAP2 SWAP1 POP JUMP JUMPDEST PUSH1 0x0 DUP3 DUP3 MSTORE PUSH1 0x20 DUP3 ADD SWAP1 POP SWAP3 SWAP2 POP POP JUMP JUMPDEST PUSH1 0x0 JUMPDEST DUP4 DUP2 LT ISZERO PUSH2 0x1A72 JUMPI DUP1 DUP3 ADD MLOAD DUP2 DUP5 ADD MSTORE PUSH1 0x20 DUP2 ADD SWAP1 POP PUSH2 0x1A57 JUMP JUMPDEST PUSH1 0x0 DUP5 DUP5 ADD MSTORE POP POP POP POP JUMP JUMPDEST PUSH1 0x0 PUSH2 0x1A89 DUP3 PUSH2 0x1A38 JUMP JUMPDEST PUSH2 0x1A93 DUP2 DUP6 PUSH2 0x1A43 JUMP JUMPDEST SWAP4 POP PUSH2 0x1AA3 DUP2 DUP6 PUSH1 0x20 DUP7 ADD PUSH2 0x1A54 JUMP JUMPDEST PUSH2 0x1AAC DUP2 PUSH2 0x183D JUMP JUMPDEST DUP5 ADD SWAP2 POP POP SWAP3 SWAP2 POP POP JUMP JUMPDEST PUSH1 0x0 PUSH1 0x20 DUP3 ADD SWAP1 POP DUP2 DUP2 SUB PUSH1 0x0 DUP4 ADD MSTORE PUSH2 0x1AD1 DUP2 DUP5 PUSH2 0x1A7E JUMP JUMPDEST SWAP1 POP SWAP3 SWAP2 POP POP JUMP JUMPDEST PUSH1 0x0 PUSH8 0xFFFFFFFFFFFFFFFF DUP3 GT ISZERO PUSH2 0x1AF4 JUMPI PUSH2 0x1AF3 PUSH2 0x184E JUMP JUMPDEST JUMPDEST PUSH2 0x1AFD DUP3 PUSH2 0x183D JUMP JUMPDEST SWAP1 POP PUSH1 0x20 DUP2 ADD SWAP1 POP SWAP2 SWAP1 POP JUMP JUMPDEST PUSH1 0x0 PUSH2 0x1B1D PUSH2 0x1B18 DUP5 PUSH2 0x1AD9 JUMP JUMPDEST PUSH2 0x18AE JUMP JUMPDEST SWAP1 POP DUP3 DUP2 MSTORE PUSH1 0x20 DUP2 ADD DUP5 DUP5 DUP5 ADD GT ISZERO PUSH2 0x1B39 JUMPI PUSH2 0x1B38 PUSH2 0x1838 JUMP JUMPDEST JUMPDEST PUSH2 0x1B44 DUP5 DUP3 DUP6 PUSH2 0x18FA JUMP JUMPDEST POP SWAP4 SWAP3 POP POP POP JUMP JUMPDEST PUSH1 0x0 DUP3 PUSH1 0x1F DUP4 ADD SLT PUSH2 0x1B61 JUMPI PUSH2 0x1B60 PUSH2 0x1833 JUMP JUMPDEST JUMPDEST DUP2 CALLDATALOAD PUSH2 0x1B71 DUP5 DUP3 PUSH1 0x20 DUP7 ADD PUSH2 0x1B0A JUMP JUMPDEST SWAP2 POP POP SWAP3 SWAP2 POP POP JUMP JUMPDEST PUSH1 0x0 PUSH1 0xFF DUP3 AND SWAP1 POP SWAP2 SWAP1 POP JUMP JUMPDEST PUSH2 0x1B90 DUP2 PUSH2 0x1B7A JUMP JUMPDEST DUP2 EQ PUSH2 0x1B9B JUMPI PUSH1 0x0 DUP1 REVERT JUMPDEST POP JUMP JUMPDEST PUSH1 0x0 DUP2 CALLDATALOAD SWAP1 POP PUSH2 0x1BAD DUP2 PUSH2 0x1B87 JUMP JUMPDEST SWAP3 SWAP2 POP POP JUMP JUMPDEST PUSH1 0x0 PUSH8 0xFFFFFFFFFFFFFFFF DUP3 AND SWAP1 POP SWAP2 SWAP1 POP JUMP JUMPDEST PUSH2 0x1BD0 DUP2 PUSH2 0x1BB3 JUMP JUMPDEST DUP2 EQ PUSH2 0x1BDB JUMPI PUSH1 0x0 DUP1 REVERT JUMPDEST POP JUMP JUMPDEST PUSH1 0x0 DUP2 CALLDATALOAD SWAP1 POP PUSH2 0x1BED DUP2 PUSH2 0x1BC7 JUMP JUMPDEST SWAP3 SWAP2 POP POP JUMP JUMPDEST PUSH1 0x0 PUSH8 0xFFFFFFFFFFFFFFFF DUP3 GT ISZERO PUSH2 0x1C0E JUMPI PUSH2 0x1C0D PUSH2 0x184E JUMP JUMPDEST JUMPDEST PUSH1 0x20 DUP3 MUL SWAP1 POP PUSH1 0x20 DUP2 ADD SWAP1 POP SWAP2 SWAP1 POP JUMP JUMPDEST PUSH1 0x0 DUP1 REVERT JUMPDEST PUSH1 0x0 PUSH2 0x1C37 PUSH2 0x1C32 DUP5 PUSH2 0x1BF3 JUMP JUMPDEST PUSH2 0x18AE JUMP JUMPDEST SWAP1 POP DUP1 DUP4 DUP3 MSTORE PUSH1 0x20 DUP3 ADD SWAP1 POP PUSH1 0x20 DUP5 MUL DUP4 ADD DUP6 DUP2 GT ISZERO PUSH2 0x1C5A JUMPI PUSH2 0x1C59 PUSH2 0x1C1F JUMP JUMPDEST JUMPDEST DUP4 JUMPDEST DUP2 DUP2 LT ISZERO PUSH2 0x1CA1 JUMPI DUP1 CALLDATALOAD PUSH8 0xFFFFFFFFFFFFFFFF DUP2 GT ISZERO PUSH2 0x1C7F JUMPI PUSH2 0x1C7E PUSH2 0x1833 JUMP JUMPDEST JUMPDEST DUP1 DUP7 ADD PUSH2 0x1C8C DUP10 DUP3 PUSH2 0x1B4C JUMP JUMPDEST DUP6 MSTORE PUSH1 0x20 DUP6 ADD SWAP5 POP POP POP PUSH1 0x20 DUP2 ADD SWAP1 POP PUSH2 0x1C5C JUMP JUMPDEST POP POP POP SWAP4 SWAP3 POP POP POP JUMP JUMPDEST PUSH1 0x0 DUP3 PUSH1 0x1F DUP4 ADD SLT PUSH2 0x1CC0 JUMPI PUSH2 0x1CBF PUSH2 0x1833 JUMP JUMPDEST JUMPDEST DUP2 CALLDATALOAD PUSH2 0x1CD0 DUP5 DUP3 PUSH1 0x20 DUP7 ADD PUSH2 0x1C24 JUMP JUMPDEST SWAP2 POP POP SWAP3 SWAP2 POP POP JUMP JUMPDEST PUSH1 0x0 PUSH8 0xFFFFFFFFFFFFFFFF DUP3 GT ISZERO PUSH2 0x1CF4 JUMPI PUSH2 0x1CF3 PUSH2 0x184E JUMP JUMPDEST JUMPDEST PUSH1 0x20 DUP3 MUL SWAP1 POP PUSH1 0x20 DUP2 ADD SWAP1 POP SWAP2 SWAP1 POP JUMP JUMPDEST PUSH1 0x0 PUSH2 0x1D18 PUSH2 0x1D13 DUP5 PUSH2 0x1CD9 JUMP JUMPDEST PUSH2 0x18AE JUMP JUMPDEST SWAP1 POP DUP1 DUP4 DUP3 MSTORE PUSH1 0x20 DUP3 ADD SWAP1 POP PUSH1 0x20 DUP5 MUL DUP4 ADD DUP6 DUP2 GT ISZERO PUSH2 0x1D3B JUMPI PUSH2 0x1D3A PUSH2 0x1C1F JUMP JUMPDEST JUMPDEST DUP4 JUMPDEST DUP2 DUP2 LT ISZERO PUSH2 0x1D82 JUMPI DUP1 CALLDATALOAD PUSH8 0xFFFFFFFFFFFFFFFF DUP2 GT ISZERO PUSH2 0x1D60 JUMPI PUSH2 0x1D5F PUSH2 0x1833 JUMP JUMPDEST JUMPDEST DUP1 DUP7 ADD PUSH2 0x1D6D DUP10 DUP3 PUSH2 0x194B JUMP JUMPDEST DUP6 MSTORE PUSH1 0x20 DUP6 ADD SWAP5 POP POP POP PUSH1 0x20 DUP2 ADD SWAP1 POP PUSH2 0x1D3D JUMP JUMPDEST POP POP POP SWAP4 SWAP3 POP POP POP JUMP JUMPDEST PUSH1 0x0 DUP3 PUSH1 0x1F DUP4 ADD SLT PUSH2 0x1DA1 JUMPI PUSH2 0x1DA0 PUSH2 0x1833 JUMP JUMPDEST JUMPDEST DUP2 CALLDATALOAD PUSH2 0x1DB1 DUP5 DUP3 PUSH1 0x20 DUP7 ADD PUSH2 0x1D05 JUMP JUMPDEST SWAP2 POP POP SWAP3 SWAP2 POP POP JUMP JUMPDEST PUSH1 0x0 PUSH4 0xFFFFFFFF DUP3 AND SWAP1 POP SWAP2 SWAP1 POP JUMP JUMPDEST PUSH2 0x1DD3 DUP2 PUSH2 0x1DBA JUMP JUMPDEST DUP2 EQ PUSH2 0x1DDE JUMPI PUSH1 0x0 DUP1 REVERT JUMPDEST POP JUMP JUMPDEST PUSH1 0x0 DUP2 CALLDATALOAD SWAP1 POP PUSH2 0x1DF0 DUP2 PUSH2 0x1DCA JUMP JUMPDEST SWAP3 SWAP2 POP POP JUMP JUMPDEST PUSH1 0x0 DUP1 PUSH1 0x0 DUP1 PUSH1 0x0 DUP1 PUSH1 0x0 DUP1 PUSH1 0x0 PUSH2 0x120 DUP11 DUP13 SUB SLT ISZERO PUSH2 0x1E19 JUMPI PUSH2 0x1E18 PUSH2 0x17F3 JUMP JUMPDEST JUMPDEST PUSH1 0x0 DUP11 ADD CALLDATALOAD PUSH8 0xFFFFFFFFFFFFFFFF DUP2 GT ISZERO PUSH2 0x1E37 JUMPI PUSH2 0x1E36 PUSH2 0x17F8 JUMP JUMPDEST JUMPDEST PUSH2 0x1E43 DUP13 DUP3 DUP14 ADD PUSH2 0x1B4C JUMP JUMPDEST SWAP10 POP POP PUSH1 0x20 DUP11 ADD CALLDATALOAD PUSH8 0xFFFFFFFFFFFFFFFF DUP2 GT ISZERO PUSH2 0x1E64 JUMPI PUSH2 0x1E63 PUSH2 0x17F8 JUMP JUMPDEST JUMPDEST PUSH2 0x1E70 DUP13 DUP3 DUP14 ADD PUSH2 0x194B JUMP JUMPDEST SWAP9 POP POP PUSH1 0x40 PUSH2 0x1E81 DUP13 DUP3 DUP14 ADD PUSH2 0x1B9E JUMP JUMPDEST SWAP8 POP POP PUSH1 0x60 PUSH2 0x1E92 DUP13 DUP3 DUP14 ADD PUSH2 0x1BDE JUMP JUMPDEST SWAP7 POP POP PUSH1 0x80 DUP11 ADD CALLDATALOAD PUSH8 0xFFFFFFFFFFFFFFFF DUP2 GT ISZERO PUSH2 0x1EB3 JUMPI PUSH2 0x1EB2 PUSH2 0x17F8 JUMP JUMPDEST JUMPDEST PUSH2 0x1EBF DUP13 DUP3 DUP14 ADD PUSH2 0x1CAB JUMP JUMPDEST SWAP6 POP POP PUSH1 0xA0 DUP11 ADD CALLDATALOAD PUSH8 0xFFFFFFFFFFFFFFFF DUP2 GT ISZERO PUSH2 0x1EE0 JUMPI PUSH2 0x1EDF PUSH2 0x17F8 JUMP JUMPDEST JUMPDEST PUSH2 0x1EEC DUP13 DUP3 DUP14 ADD PUSH2 0x1D8C JUMP JUMPDEST SWAP5 POP POP PUSH1 0xC0 PUSH2 0x1EFD DUP13 DUP3 DUP14 ADD PUSH2 0x1BDE JUMP JUMPDEST SWAP4 POP POP PUSH1 0xE0 PUSH2 0x1F0E DUP13 DUP3 DUP14 ADD PUSH2 0x1DE1 JUMP JUMPDEST SWAP3 POP POP PUSH2 0x100 PUSH2 0x1F20 DUP13 DUP3 DUP14 ADD PUSH2 0x181E JUMP JUMPDEST SWAP2 POP POP SWAP3 SWAP6 SWAP9 POP SWAP3 SWAP6 SWAP9 POP SWAP3 SWAP6 SWAP9 JUMP JUMPDEST PUSH2 0x1F39 DUP2 PUSH2 0x17FD JUMP JUMPDEST DUP3 MSTORE POP POP JUMP JUMPDEST PUSH1 0x0 PUSH1 0x20 DUP3 ADD SWAP1 POP PUSH2 0x1F54 PUSH1 0x0 DUP4 ADD DUP5 PUSH2 0x1F30 JUMP JUMPDEST SWAP3 SWAP2 POP POP JUMP JUMPDEST PUSH2 0x1F63 DUP2 PUSH2 0x1A04 JUMP JUMPDEST DUP2 EQ PUSH2 0x1F6E JUMPI PUSH1 0x0 DUP1 REVERT JUMPDEST POP JUMP JUMPDEST PUSH1 0x0 DUP2 CALLDATALOAD SWAP1 POP PUSH2 0x1F80 DUP2 PUSH2 0x1F5A JUMP JUMPDEST SWAP3 SWAP2 POP POP JUMP JUMPDEST PUSH1 0x0 PUSH1 0x20 DUP3 DUP5 SUB SLT ISZERO PUSH2 0x1F9C JUMPI PUSH2 0x1F9B PUSH2 0x17F3 JUMP JUMPDEST JUMPDEST PUSH1 0x0 PUSH2 0x1FAA DUP5 DUP3 DUP6 ADD PUSH2 0x1F71 JUMP JUMPDEST SWAP2 POP POP SWAP3 SWAP2 POP POP JUMP JUMPDEST PUSH1 0x0 PUSH20 0xFFFFFFFFFFFFFFFFFFFFFFFFFFFFFFFFFFFFFFFF DUP3 AND SWAP1 POP SWAP2 SWAP1 POP JUMP JUMPDEST PUSH1 0x0 PUSH2 0x1FDE DUP3 PUSH2 0x1FB3 JUMP JUMPDEST SWAP1 POP SWAP2 SWAP1 POP JUMP JUMPDEST PUSH2 0x1FEE DUP2 PUSH2 0x1FD3 JUMP JUMPDEST DUP3 MSTORE POP POP JUMP JUMPDEST PUSH1 0x0 PUSH1 0x20 DUP3 ADD SWAP1 POP PUSH2 0x2009 PUSH1 0x0 DUP4 ADD DUP5 PUSH2 0x1FE5 JUMP JUMPDEST SWAP3 SWAP2 POP POP JUMP JUMPDEST PUSH1 0x0 DUP1 PUSH1 0x0 DUP1 PUSH1 0x80 DUP6 DUP8 SUB SLT ISZERO PUSH2 0x2029 JUMPI PUSH2 0x2028 PUSH2 0x17F3 JUMP JUMPDEST JUMPDEST PUSH1 0x0 DUP6 ADD CALLDATALOAD PUSH8 0xFFFFFFFFFFFFFFFF DUP2 GT ISZERO PUSH2 0x2047 JUMPI PUSH2 0x2046 PUSH2 0x17F8 JUMP JUMPDEST JUMPDEST PUSH2 0x2053 DUP8 DUP3 DUP9 ADD PUSH2 0x194B JUMP JUMPDEST SWAP5 POP POP PUSH1 0x20 PUSH2 0x2064 DUP8 DUP3 DUP9 ADD PUSH2 0x1BDE JUMP JUMPDEST SWAP4 POP POP PUSH1 0x40 PUSH2 0x2075 DUP8 DUP3 DUP9 ADD PUSH2 0x1DE1 JUMP JUMPDEST SWAP3 POP POP PUSH1 0x60 PUSH2 0x2086 DUP8 DUP3 DUP9 ADD PUSH2 0x181E JUMP JUMPDEST SWAP2 POP POP SWAP3 SWAP6 SWAP2 SWAP5 POP SWAP3 POP JUMP JUMPDEST PUSH2 0x209B DUP2 PUSH2 0x1FD3 JUMP JUMPDEST DUP2 EQ PUSH2 0x20A6 JUMPI PUSH1 0x0 DUP1 REVERT JUMPDEST POP JUMP JUMPDEST PUSH1 0x0 DUP2 CALLDATALOAD SWAP1 POP PUSH2 0x20B8 DUP2 PUSH2 0x2092 JUMP JUMPDEST SWAP3 SWAP2 POP POP JUMP JUMPDEST PUSH1 0x0 PUSH1 0x20 DUP3 DUP5 SUB SLT ISZERO PUSH2 0x20D4 JUMPI PUSH2 0x20D3 PUSH2 0x17F3 JUMP JUMPDEST JUMPDEST PUSH1 0x0 PUSH2 0x20E2 DUP5 DUP3 DUP6 ADD PUSH2 0x20A9 JUMP JUMPDEST SWAP2 POP POP SWAP3 SWAP2 POP POP JUMP JUMPDEST PUSH32 0x4E487B7100000000000000000000000000000000000000000000000000000000 PUSH1 0x0 MSTORE PUSH1 0x22 PUSH1 0x4 MSTORE PUSH1 0x24 PUSH1 0x0 REVERT JUMPDEST PUSH1 0x0 PUSH1 0x2 DUP3 DIV SWAP1 POP PUSH1 0x1 DUP3 AND DUP1 PUSH2 0x2132 JUMPI PUSH1 0x7F DUP3 AND SWAP2 POP JUMPDEST PUSH1 0x20 DUP3 LT DUP2 SUB PUSH2 0x2145 JUMPI PUSH2 0x2144 PUSH2 0x20EB JUMP JUMPDEST JUMPDEST POP SWAP2 SWAP1 POP JUMP JUMPDEST PUSH1 0x0 DUP3 DUP3 MSTORE PUSH1 0x20 DUP3 ADD SWAP1 POP SWAP3 SWAP2 POP POP JUMP JUMPDEST PUSH32 0x4D7573742062652070726F706F736564206F776E657200000000000000000000 PUSH1 0x0 DUP3 ADD MSTORE POP JUMP JUMPDEST PUSH1 0x0 PUSH2 0x2192 PUSH1 0x16 DUP4 PUSH2 0x214B JUMP JUMPDEST SWAP2 POP PUSH2 0x219D DUP3 PUSH2 0x215C JUMP JUMPDEST PUSH1 0x20 DUP3 ADD SWAP1 POP SWAP2 SWAP1 POP JUMP JUMPDEST PUSH1 0x0 PUSH1 0x20 DUP3 ADD SWAP1 POP DUP2 DUP2 SUB PUSH1 0x0 DUP4 ADD MSTORE PUSH2 0x21C1 DUP2 PUSH2 0x2185 JUMP JUMPDEST SWAP1 POP SWAP2 SWAP1 POP JUMP JUMPDEST PUSH32 0x4E487B7100000000000000000000000000000000000000000000000000000000 PUSH1 0x0 MSTORE PUSH1 0x11 PUSH1 0x4 MSTORE PUSH1 0x24 PUSH1 0x0 REVERT JUMPDEST PUSH1 0x0 PUSH2 0x2202 DUP3 PUSH2 0x1A04 JUMP JUMPDEST SWAP2 POP PUSH32 0xFFFFFFFFFFFFFFFFFFFFFFFFFFFFFFFFFFFFFFFFFFFFFFFFFFFFFFFFFFFFFFFF DUP3 SUB PUSH2 0x2234 JUMPI PUSH2 0x2233 PUSH2 0x21C8 JUMP JUMPDEST JUMPDEST PUSH1 0x1 DUP3 ADD SWAP1 POP SWAP2 SWAP1 POP JUMP JUMPDEST PUSH1 0x0 DUP2 SWAP1 POP DUP2 PUSH1 0x0 MSTORE PUSH1 0x20 PUSH1 0x0 KECCAK256 SWAP1 POP SWAP2 SWAP1 POP JUMP JUMPDEST PUSH1 0x0 PUSH1 0x20 PUSH1 0x1F DUP4 ADD DIV SWAP1 POP SWAP2 SWAP1 POP JUMP JUMPDEST PUSH1 0x0 DUP3 DUP3 SHL SWAP1 POP SWAP3 SWAP2 POP POP JUMP JUMPDEST PUSH1 0x0 PUSH1 0x8 DUP4 MUL PUSH2 0x22A1 PUSH32 0xFFFFFFFFFFFFFFFFFFFFFFFFFFFFFFFFFFFFFFFFFFFFFFFFFFFFFFFFFFFFFFFF DUP3 PUSH2 0x2264 JUMP JUMPDEST PUSH2 0x22AB DUP7 DUP4 PUSH2 0x2264 JUMP JUMPDEST SWAP6 POP DUP1 NOT DUP5 AND SWAP4 POP DUP1 DUP7 AND DUP5 OR SWAP3 POP POP POP SWAP4 SWAP3 POP POP POP JUMP JUMPDEST PUSH1 0x0 DUP2 SWAP1 POP SWAP2 SWAP1 POP JUMP JUMPDEST PUSH1 0x0 PUSH2 0x22E8 PUSH2 0x22E3 PUSH2 0x22DE DUP5 PUSH2 0x1A04 JUMP JUMPDEST PUSH2 0x22C3 JUMP JUMPDEST PUSH2 0x1A04 JUMP JUMPDEST SWAP1 POP SWAP2 SWAP1 POP JUMP JUMPDEST PUSH1 0x0 DUP2 SWAP1 POP SWAP2 SWAP1 POP JUMP JUMPDEST PUSH2 0x2302 DUP4 PUSH2 0x22CD JUMP JUMPDEST PUSH2 0x2316 PUSH2 0x230E DUP3 PUSH2 0x22EF JUMP JUMPDEST DUP5 DUP5 SLOAD PUSH2 0x2271 JUMP JUMPDEST DUP3 SSTORE POP POP POP POP JUMP JUMPDEST PUSH1 0x0 SWAP1 JUMP JUMPDEST PUSH2 0x232B PUSH2 0x231E JUMP JUMPDEST PUSH2 0x2336 DUP2 DUP5 DUP5 PUSH2 0x22F9 JUMP JUMPDEST POP POP POP JUMP JUMPDEST JUMPDEST DUP2 DUP2 LT ISZERO PUSH2 0x235A JUMPI PUSH2 0x234F PUSH1 0x0 DUP3 PUSH2 0x2323 JUMP JUMPDEST PUSH1 0x1 DUP2 ADD SWAP1 POP PUSH2 0x233C JUMP JUMPDEST POP POP JUMP JUMPDEST PUSH1 0x1F DUP3 GT ISZERO PUSH2 0x239F JUMPI PUSH2 0x2370 DUP2 PUSH2 0x223F JUMP JUMPDEST PUSH2 0x2379 DUP5 PUSH2 0x2254 JUMP JUMPDEST DUP2 ADD PUSH1 0x20 DUP6 LT ISZERO PUSH2 0x2388 JUMPI DUP2 SWAP1 POP JUMPDEST PUSH2 0x239C PUSH2 0x2394 DUP6 PUSH2 0x2254 JUMP JUMPDEST DUP4 ADD DUP3 PUSH2 0x233B JUMP JUMPDEST POP POP JUMPDEST POP POP POP JUMP JUMPDEST PUSH1 0x0 DUP3 DUP3 SHR SWAP1 POP SWAP3 SWAP2 POP POP JUMP JUMPDEST PUSH1 0x0 PUSH2 0x23C2 PUSH1 0x0 NOT DUP5 PUSH1 0x8 MUL PUSH2 0x23A4 JUMP JUMPDEST NOT DUP1 DUP4 AND SWAP2 POP POP SWAP3 SWAP2 POP POP JUMP JUMPDEST PUSH1 0x0 PUSH2 0x23DB DUP4 DUP4 PUSH2 0x23B1 JUMP JUMPDEST SWAP2 POP DUP3 PUSH1 0x2 MUL DUP3 OR SWAP1 POP SWAP3 SWAP2 POP POP JUMP JUMPDEST PUSH2 0x23F4 DUP3 PUSH2 0x1A38 JUMP JUMPDEST PUSH8 0xFFFFFFFFFFFFFFFF DUP2 GT ISZERO PUSH2 0x240D JUMPI PUSH2 0x240C PUSH2 0x184E JUMP JUMPDEST JUMPDEST PUSH2 0x2417 DUP3 SLOAD PUSH2 0x211A JUMP JUMPDEST PUSH2 0x2422 DUP3 DUP3 DUP6 PUSH2 0x235E JUMP JUMPDEST PUSH1 0x0 PUSH1 0x20 SWAP1 POP PUSH1 0x1F DUP4 GT PUSH1 0x1 DUP2 EQ PUSH2 0x2455 JUMPI PUSH1 0x0 DUP5 ISZERO PUSH2 0x2443 JUMPI DUP3 DUP8 ADD MLOAD SWAP1 POP JUMPDEST PUSH2 0x244D DUP6 DUP3 PUSH2 0x23CF JUMP JUMPDEST DUP7 SSTORE POP PUSH2 0x24B5 JUMP JUMPDEST PUSH1 0x1F NOT DUP5 AND PUSH2 0x2463 DUP7 PUSH2 0x223F JUMP JUMPDEST PUSH1 0x0 JUMPDEST DUP3 DUP2 LT ISZERO PUSH2 0x248B JUMPI DUP5 DUP10 ADD MLOAD DUP3 SSTORE PUSH1 0x1 DUP3 ADD SWAP2 POP PUSH1 0x20 DUP6 ADD SWAP5 POP PUSH1 0x20 DUP2 ADD SWAP1 POP PUSH2 0x2466 JUMP JUMPDEST DUP7 DUP4 LT ISZERO PUSH2 0x24A8 JUMPI DUP5 DUP10 ADD MLOAD PUSH2 0x24A4 PUSH1 0x1F DUP10 AND DUP3 PUSH2 0x23B1 JUMP JUMPDEST DUP4 SSTORE POP JUMPDEST PUSH1 0x1 PUSH1 0x2 DUP9 MUL ADD DUP9 SSTORE POP POP POP JUMPDEST POP POP POP POP POP POP JUMP JUMPDEST PUSH1 0x0 DUP2 SLOAD PUSH2 0x24CA DUP2 PUSH2 0x211A JUMP JUMPDEST PUSH2 0x24D4 DUP2 DUP7 PUSH2 0x1A43 JUMP JUMPDEST SWAP5 POP PUSH1 0x1 DUP3 AND PUSH1 0x0 DUP2 EQ PUSH2 0x24EF JUMPI PUSH1 0x1 DUP2 EQ PUSH2 0x2505 JUMPI PUSH2 0x2538 JUMP JUMPDEST PUSH1 0xFF NOT DUP4 AND DUP7 MSTORE DUP2 ISZERO ISZERO PUSH1 0x20 MUL DUP7 ADD SWAP4 POP PUSH2 0x2538 JUMP JUMPDEST PUSH2 0x250E DUP6 PUSH2 0x223F JUMP JUMPDEST PUSH1 0x0 JUMPDEST DUP4 DUP2 LT ISZERO PUSH2 0x2530 JUMPI DUP2 SLOAD DUP2 DUP10 ADD MSTORE PUSH1 0x1 DUP3 ADD SWAP2 POP PUSH1 0x20 DUP2 ADD SWAP1 POP PUSH2 0x2511 JUMP JUMPDEST DUP1 DUP9 ADD SWAP6 POP POP POP JUMPDEST POP POP POP SWAP3 SWAP2 POP POP JUMP JUMPDEST PUSH1 0x0 PUSH1 0x40 DUP3 ADD SWAP1 POP DUP2 DUP2 SUB PUSH1 0x0 DUP4 ADD MSTORE PUSH2 0x255B DUP2 DUP6 PUSH2 0x24BD JUMP JUMPDEST SWAP1 POP DUP2 DUP2 SUB PUSH1 0x20 DUP4 ADD MSTORE PUSH2 0x256F DUP2 DUP5 PUSH2 0x24BD JUMP JUMPDEST SWAP1 POP SWAP4 SWAP3 POP POP POP JUMP JUMPDEST PUSH32 0x4F6E6C792063616C6C61626C65206279206F776E657200000000000000000000 PUSH1 0x0 DUP3 ADD MSTORE POP JUMP JUMPDEST PUSH1 0x0 PUSH2 0x25AE PUSH1 0x16 DUP4 PUSH2 0x214B JUMP JUMPDEST SWAP2 POP PUSH2 0x25B9 DUP3 PUSH2 0x2578 JUMP JUMPDEST PUSH1 0x20 DUP3 ADD SWAP1 POP SWAP2 SWAP1 POP JUMP JUMPDEST PUSH1 0x0 PUSH1 0x20 DUP3 ADD SWAP1 POP DUP2 DUP2 SUB PUSH1 0x0 DUP4 ADD MSTORE PUSH2 0x25DD DUP2 PUSH2 0x25A1 JUMP JUMPDEST SWAP1 POP SWAP2 SWAP1 POP JUMP JUMPDEST PUSH32 0x4E487B7100000000000000000000000000000000000000000000000000000000 PUSH1 0x0 MSTORE PUSH1 0x21 PUSH1 0x4 MSTORE PUSH1 0x24 PUSH1 0x0 REVERT JUMPDEST PUSH32 0x4E487B7100000000000000000000000000000000000000000000000000000000 PUSH1 0x0 MSTORE PUSH1 0x32 PUSH1 0x4 MSTORE PUSH1 0x24 PUSH1 0x0 REVERT JUMPDEST PUSH2 0x264B DUP2 PUSH2 0x1BB3 JUMP JUMPDEST DUP3 MSTORE POP POP JUMP JUMPDEST PUSH1 0x0 PUSH2 0xFFFF DUP3 AND SWAP1 POP SWAP2 SWAP1 POP JUMP JUMPDEST PUSH2 0x2668 DUP2 PUSH2 0x2651 JUMP JUMPDEST DUP3 MSTORE POP POP JUMP JUMPDEST PUSH2 0x2677 DUP2 PUSH2 0x1DBA JUMP JUMPDEST DUP3 MSTORE POP POP JUMP JUMPDEST PUSH1 0x0 PUSH1 0xA0 DUP3 ADD SWAP1 POP PUSH2 0x2692 PUSH1 0x0 DUP4 ADD DUP9 PUSH2 0x2642 JUMP JUMPDEST DUP2 DUP2 SUB PUSH1 0x20 DUP4 ADD MSTORE PUSH2 0x26A4 DUP2 DUP8 PUSH2 0x1A7E JUMP JUMPDEST SWAP1 POP PUSH2 0x26B3 PUSH1 0x40 DUP4 ADD DUP7 PUSH2 0x265F JUMP JUMPDEST PUSH2 0x26C0 PUSH1 0x60 DUP4 ADD DUP6 PUSH2 0x266E JUMP JUMPDEST PUSH2 0x26CD PUSH1 0x80 DUP4 ADD DUP5 PUSH2 0x1F30 JUMP JUMPDEST SWAP7 SWAP6 POP POP POP POP POP POP JUMP JUMPDEST PUSH1 0x0 DUP2 MLOAD SWAP1 POP PUSH2 0x26E6 DUP2 PUSH2 0x1807 JUMP JUMPDEST SWAP3 SWAP2 POP POP JUMP JUMPDEST PUSH1 0x0 PUSH1 0x20 DUP3 DUP5 SUB SLT ISZERO PUSH2 0x2702 JUMPI PUSH2 0x2701 PUSH2 0x17F3 JUMP JUMPDEST JUMPDEST PUSH1 0x0 PUSH2 0x2710 DUP5 DUP3 DUP6 ADD PUSH2 0x26D7 JUMP JUMPDEST SWAP2 POP POP SWAP3 SWAP2 POP POP JUMP JUMPDEST PUSH32 0x43616E6E6F74207472616E7366657220746F2073656C66000000000000000000 PUSH1 0x0 DUP3 ADD MSTORE POP JUMP JUMPDEST PUSH1 0x0 PUSH2 0x274F PUSH1 0x17 DUP4 PUSH2 0x214B JUMP JUMPDEST SWAP2 POP PUSH2 0x275A DUP3 PUSH2 0x2719 JUMP JUMPDEST PUSH1 0x20 DUP3 ADD SWAP1 POP SWAP2 SWAP1 POP JUMP JUMPDEST PUSH1 0x0 PUSH1 0x20 DUP3 ADD SWAP1 POP DUP2 DUP2 SUB PUSH1 0x0 DUP4 ADD MSTORE PUSH2 0x277E DUP2 PUSH2 0x2742 JUMP JUMPDEST SWAP1 POP SWAP2 SWAP1 POP JUMP JUMPDEST PUSH1 0x0 PUSH2 0x2790 DUP3 PUSH2 0x1A04 JUMP JUMPDEST SWAP2 POP PUSH2 0x279B DUP4 PUSH2 0x1A04 JUMP JUMPDEST SWAP3 POP DUP3 DUP3 ADD SWAP1 POP DUP1 DUP3 GT ISZERO PUSH2 0x27B3 JUMPI PUSH2 0x27B2 PUSH2 0x21C8 JUMP JUMPDEST JUMPDEST SWAP3 SWAP2 POP POP JUMP JUMPDEST PUSH1 0x0 PUSH2 0x27C4 DUP3 PUSH2 0x1A04 JUMP JUMPDEST SWAP2 POP PUSH2 0x27CF DUP4 PUSH2 0x1A04 JUMP JUMPDEST SWAP3 POP DUP3 DUP3 SUB SWAP1 POP DUP2 DUP2 GT ISZERO PUSH2 0x27E7 JUMPI PUSH2 0x27E6 PUSH2 0x21C8 JUMP JUMPDEST JUMPDEST SWAP3 SWAP2 POP POP JUMP JUMPDEST PUSH32 0x4E487B7100000000000000000000000000000000000000000000000000000000 PUSH1 0x0 MSTORE PUSH1 0x12 PUSH1 0x4 MSTORE PUSH1 0x24 PUSH1 0x0 REVERT JUMPDEST PUSH1 0x0 PUSH2 0x2827 DUP3 PUSH2 0x1A04 JUMP JUMPDEST SWAP2 POP PUSH2 0x2832 DUP4 PUSH2 0x1A04 JUMP JUMPDEST SWAP3 POP DUP3 PUSH2 0x2842 JUMPI PUSH2 0x2841 PUSH2 0x27ED JUMP JUMPDEST JUMPDEST DUP3 DUP3 MOD SWAP1 POP SWAP3 SWAP2 POP POP JUMP JUMPDEST PUSH1 0x0 PUSH2 0x2858 DUP3 PUSH2 0x1A04 JUMP JUMPDEST SWAP2 POP PUSH2 0x2863 DUP4 PUSH2 0x1A04 JUMP JUMPDEST SWAP3 POP DUP3 DUP3 MUL PUSH2 0x2871 DUP2 PUSH2 0x1A04 JUMP JUMPDEST SWAP2 POP DUP3 DUP3 DIV DUP5 EQ DUP4 ISZERO OR PUSH2 0x2888 JUMPI PUSH2 0x2887 PUSH2 0x21C8 JUMP JUMPDEST JUMPDEST POP SWAP3 SWAP2 POP POP JUMP JUMPDEST PUSH1 0x0 DUP2 PUSH1 0x1 SHR SWAP1 POP SWAP2 SWAP1 POP JUMP JUMPDEST PUSH1 0x0 DUP1 DUP3 SWAP2 POP DUP4 SWAP1 POP JUMPDEST PUSH1 0x1 DUP6 GT ISZERO PUSH2 0x28E6 JUMPI DUP1 DUP7 DIV DUP2 GT ISZERO PUSH2 0x28C2 JUMPI PUSH2 0x28C1 PUSH2 0x21C8 JUMP JUMPDEST JUMPDEST PUSH1 0x1 DUP6 AND ISZERO PUSH2 0x28D1 JUMPI DUP1 DUP3 MUL SWAP2 POP JUMPDEST DUP1 DUP2 MUL SWAP1 POP PUSH2 0x28DF DUP6 PUSH2 0x288F JUMP JUMPDEST SWAP5 POP PUSH2 0x28A6 JUMP JUMPDEST SWAP5 POP SWAP5 SWAP3 POP POP POP JUMP JUMPDEST PUSH1 0x0 DUP3 PUSH2 0x28FF JUMPI PUSH1 0x1 SWAP1 POP PUSH2 0x29BB JUMP JUMPDEST DUP2 PUSH2 0x290D JUMPI PUSH1 0x0 SWAP1 POP PUSH2 0x29BB JUMP JUMPDEST DUP2 PUSH1 0x1 DUP2 EQ PUSH2 0x2923 JUMPI PUSH1 0x2 DUP2 EQ PUSH2 0x292D JUMPI PUSH2 0x295C JUMP JUMPDEST PUSH1 0x1 SWAP2 POP POP PUSH2 0x29BB JUMP JUMPDEST PUSH1 0xFF DUP5 GT ISZERO PUSH2 0x293F JUMPI PUSH2 0x293E PUSH2 0x21C8 JUMP JUMPDEST JUMPDEST DUP4 PUSH1 0x2 EXP SWAP2 POP DUP5 DUP3 GT ISZERO PUSH2 0x2956 JUMPI PUSH2 0x2955 PUSH2 0x21C8 JUMP JUMPDEST JUMPDEST POP PUSH2 0x29BB JUMP JUMPDEST POP PUSH1 0x20 DUP4 LT PUSH2 0x133 DUP4 LT AND PUSH1 0x4E DUP5 LT PUSH1 0xB DUP5 LT AND OR ISZERO PUSH2 0x2991 JUMPI DUP3 DUP3 EXP SWAP1 POP DUP4 DUP2 GT ISZERO PUSH2 0x298C JUMPI PUSH2 0x298B PUSH2 0x21C8 JUMP JUMPDEST JUMPDEST PUSH2 0x29BB JUMP JUMPDEST PUSH2 0x299E DUP5 DUP5 DUP5 PUSH1 0x1 PUSH2 0x289C JUMP JUMPDEST SWAP3 POP SWAP1 POP DUP2 DUP5 DIV DUP2 GT ISZERO PUSH2 0x29B5 JUMPI PUSH2 0x29B4 PUSH2 0x21C8 JUMP JUMPDEST JUMPDEST DUP2 DUP2 MUL SWAP1 POP JUMPDEST SWAP4 SWAP3 POP POP POP JUMP JUMPDEST PUSH1 0x0 PUSH2 0x29CD DUP3 PUSH2 0x1A04 JUMP JUMPDEST SWAP2 POP PUSH2 0x29D8 DUP4 PUSH2 0x1A04 JUMP JUMPDEST SWAP3 POP PUSH2 0x2A05 PUSH32 0xFFFFFFFFFFFFFFFFFFFFFFFFFFFFFFFFFFFFFFFFFFFFFFFFFFFFFFFFFFFFFFFF DUP5 DUP5 PUSH2 0x28EF JUMP JUMPDEST SWAP1 POP SWAP3 SWAP2 POP POP JUMP INVALID LOG2 PUSH5 0x6970667358 0x22 SLT KECCAK256 0xB0 0xEF 0xE5 0xDF DUP3 DUP13 0xB9 ADDMOD 0xB3 PUSH31 0xB670A7C8FC3E585E7A7722D00B62DED828CD0F5464F764736F6C6343000813 STOP CALLER "
				},
				"gasEstimates": {
					"creation": {
						"codeDepositCost": "2163800",
						"executionCost": "infinite",
						"totalCost": "infinite"
					},
					"external": {
						"acceptOwnership()": "54563",
						"counter()": "2518",
						"handleOracleFulfillment(bytes32,bytes,bytes)": "infinite",
						"increment()": "24567",
						"number()": "2474",
						"owner()": "2589",
						"retrieve()": "2483",
						"s_lastError()": "infinite",
						"s_lastRequestId()": "2473",
						"s_lastResponse()": "infinite",
						"sendRequest(string,bytes,uint8,uint64,string[],bytes[],uint64,uint32,bytes32)": "infinite",
						"sendRequestCBOR(bytes,uint64,uint32,bytes32)": "infinite",
						"store(uint256)": "22587",
						"transferOwnership(address)": "30742"
					},
					"internal": {
						"fulfillRequest(bytes32,bytes memory,bytes memory)": "infinite"
					}
				},
				"methodIdentifiers": {
					"acceptOwnership()": "79ba5097",
					"counter()": "61bc221a",
					"handleOracleFulfillment(bytes32,bytes,bytes)": "0ca76175",
					"increment()": "d09de08a",
					"number()": "8381f58a",
					"owner()": "8da5cb5b",
					"retrieve()": "2e64cec1",
					"s_lastError()": "4b0795a8",
					"s_lastRequestId()": "b1e21749",
					"s_lastResponse()": "3944ea3a",
					"sendRequest(string,bytes,uint8,uint64,string[],bytes[],uint64,uint32,bytes32)": "52a81eeb",
					"sendRequestCBOR(bytes,uint64,uint32,bytes32)": "9681096f",
					"store(uint256)": "6057361d",
					"transferOwnership(address)": "f2fde38b"
				}
			},
			"storageLayout": {
				"storage": [
					{
						"astId": 816,
						"contract": "docs.chain.link/samples/ChainlinkFunctions/Storage.sol:Storage",
						"label": "s_owner",
						"offset": 0,
						"slot": "0",
						"type": "t_address"
					},
					{
						"astId": 818,
						"contract": "docs.chain.link/samples/ChainlinkFunctions/Storage.sol:Storage",
						"label": "s_pendingOwner",
						"offset": 0,
						"slot": "1",
						"type": "t_address"
					},
					{
						"astId": 2284,
						"contract": "docs.chain.link/samples/ChainlinkFunctions/Storage.sol:Storage",
						"label": "number",
						"offset": 0,
						"slot": "2",
						"type": "t_uint256"
					},
					{
						"astId": 2287,
						"contract": "docs.chain.link/samples/ChainlinkFunctions/Storage.sol:Storage",
						"label": "counter",
						"offset": 0,
						"slot": "3",
						"type": "t_uint256"
					},
					{
						"astId": 2289,
						"contract": "docs.chain.link/samples/ChainlinkFunctions/Storage.sol:Storage",
						"label": "s_lastRequestId",
						"offset": 0,
						"slot": "4",
						"type": "t_bytes32"
					},
					{
						"astId": 2291,
						"contract": "docs.chain.link/samples/ChainlinkFunctions/Storage.sol:Storage",
						"label": "s_lastResponse",
						"offset": 0,
						"slot": "5",
						"type": "t_bytes_storage"
					},
					{
						"astId": 2293,
						"contract": "docs.chain.link/samples/ChainlinkFunctions/Storage.sol:Storage",
						"label": "s_lastError",
						"offset": 0,
						"slot": "6",
						"type": "t_bytes_storage"
					}
				],
				"types": {
					"t_address": {
						"encoding": "inplace",
						"label": "address",
						"numberOfBytes": "20"
					},
					"t_bytes32": {
						"encoding": "inplace",
						"label": "bytes32",
						"numberOfBytes": "32"
					},
					"t_bytes_storage": {
						"encoding": "bytes",
						"label": "bytes",
						"numberOfBytes": "32"
					},
					"t_uint256": {
						"encoding": "inplace",
						"label": "uint256",
						"numberOfBytes": "32"
					}
				}
			},
			"userdoc": {
				"kind": "user",
				"methods": {
					"acceptOwnership()": {
						"notice": "Allows an ownership transfer to be completed by the recipient."
					},
					"handleOracleFulfillment(bytes32,bytes,bytes)": {
						"notice": "Chainlink Functions response handler called by the Functions Router during fullilment from the designated transmitter node in an OCR round."
					},
					"owner()": {
						"notice": "Get the current owner"
					},
					"transferOwnership(address)": {
						"notice": "Allows an owner to begin transferring ownership to a new address."
					}
				},
				"version": 1
			}
		}
	}
}